{
	"HermesChain.sol": {
		"Hermes": {
			"abi": [
				{
					"anonymous": false,
					"inputs": [
						{
							"indexed": true,
							"internalType": "address",
							"name": "patient",
							"type": "address"
						},
						{
							"indexed": true,
							"internalType": "bytes32",
							"name": "clinic",
							"type": "bytes32"
						},
						{
							"indexed": false,
							"internalType": "uint256",
							"name": "timestamp",
							"type": "uint256"
						}
					],
					"name": "InvocieAccepted",
					"type": "event"
				},
				{
					"anonymous": false,
					"inputs": [
						{
							"indexed": true,
							"internalType": "address",
							"name": "patient",
							"type": "address"
						},
						{
							"indexed": true,
							"internalType": "bytes32",
							"name": "clinic",
							"type": "bytes32"
						},
						{
							"indexed": false,
							"internalType": "uint256",
							"name": "timestamp",
							"type": "uint256"
						}
					],
					"name": "InvocieCreated",
					"type": "event"
				},
				{
					"anonymous": false,
					"inputs": [
						{
							"indexed": true,
							"internalType": "address",
							"name": "previousOwner",
							"type": "address"
						},
						{
							"indexed": true,
							"internalType": "address",
							"name": "newOwner",
							"type": "address"
						}
					],
					"name": "OwnershipTransferred",
					"type": "event"
				},
				{
					"inputs": [
						{
							"internalType": "bytes32",
							"name": "_clinicHash",
							"type": "bytes32"
						},
						{
							"internalType": "bool",
							"name": "approveReject",
							"type": "bool"
						}
					],
					"name": "approveInvoice",
					"outputs": [],
					"stateMutability": "nonpayable",
					"type": "function"
				},
				{
					"inputs": [
						{
							"internalType": "address",
							"name": "patientAddress",
							"type": "address"
						},
						{
							"internalType": "uint256",
							"name": "amount",
							"type": "uint256"
						},
						{
							"internalType": "bytes32",
							"name": "patientCategory",
							"type": "bytes32"
						}
					],
					"name": "createInvoice",
					"outputs": [],
					"stateMutability": "nonpayable",
					"type": "function"
				},
				{
					"inputs": [
						{
							"internalType": "string",
							"name": "message",
							"type": "string"
						}
					],
					"name": "getHash",
					"outputs": [
						{
							"internalType": "bytes32",
							"name": "",
							"type": "bytes32"
						}
					],
					"stateMutability": "pure",
					"type": "function"
				},
				{
					"inputs": [
						{
							"internalType": "bytes32",
							"name": "id",
							"type": "bytes32"
						}
					],
					"name": "getInvoiceById",
					"outputs": [
						{
							"components": [
								{
									"internalType": "bytes32",
									"name": "invoiceId",
									"type": "bytes32"
								},
								{
									"internalType": "bytes32",
									"name": "typeOfPatient",
									"type": "bytes32"
								},
								{
									"internalType": "uint256",
									"name": "amount",
									"type": "uint256"
								},
								{
									"internalType": "address",
									"name": "patient",
									"type": "address"
								},
								{
									"internalType": "enum Hermes.Status",
									"name": "status",
									"type": "uint8"
								}
							],
							"internalType": "struct Hermes.Invoice",
							"name": "",
							"type": "tuple"
						}
					],
					"stateMutability": "view",
					"type": "function"
				},
				{
					"inputs": [
						{
							"internalType": "address",
							"name": "patient",
							"type": "address"
						},
						{
							"internalType": "uint256",
							"name": "index",
							"type": "uint256"
						}
					],
					"name": "getInvoiceByPatient",
					"outputs": [
						{
							"components": [
								{
									"internalType": "bytes32",
									"name": "invoiceId",
									"type": "bytes32"
								},
								{
									"internalType": "bytes32",
									"name": "typeOfPatient",
									"type": "bytes32"
								},
								{
									"internalType": "uint256",
									"name": "amount",
									"type": "uint256"
								},
								{
									"internalType": "address",
									"name": "patient",
									"type": "address"
								},
								{
									"internalType": "enum Hermes.Status",
									"name": "status",
									"type": "uint8"
								}
							],
							"internalType": "struct Hermes.Invoice",
							"name": "",
							"type": "tuple"
						}
					],
					"stateMutability": "view",
					"type": "function"
				},
				{
					"inputs": [],
					"name": "owner",
					"outputs": [
						{
							"internalType": "address",
							"name": "",
							"type": "address"
						}
					],
					"stateMutability": "view",
					"type": "function"
				},
				{
					"inputs": [
						{
							"internalType": "bytes32",
							"name": "_clinicHash",
							"type": "bytes32"
						},
						{
							"internalType": "address",
							"name": "clinicAddress",
							"type": "address"
						}
					],
					"name": "registerClinic",
					"outputs": [],
					"stateMutability": "nonpayable",
					"type": "function"
				},
				{
					"inputs": [],
					"name": "renounceOwnership",
					"outputs": [],
					"stateMutability": "nonpayable",
					"type": "function"
				},
				{
					"inputs": [
						{
							"internalType": "bytes32",
							"name": "categoryHash",
							"type": "bytes32"
						},
						{
							"internalType": "uint256",
							"name": "amount",
							"type": "uint256"
						}
					],
					"name": "setPrice",
					"outputs": [],
					"stateMutability": "nonpayable",
					"type": "function"
				},
				{
					"inputs": [
						{
							"internalType": "address",
							"name": "patient",
							"type": "address"
						},
						{
							"internalType": "bytes32",
							"name": "newCategory",
							"type": "bytes32"
						}
					],
					"name": "setUsersCategory",
					"outputs": [],
					"stateMutability": "nonpayable",
					"type": "function"
				},
				{
					"inputs": [
						{
							"internalType": "address",
							"name": "newOwner",
							"type": "address"
						}
					],
					"name": "transferOwnership",
					"outputs": [],
					"stateMutability": "nonpayable",
					"type": "function"
				}
			],
			"devdoc": {
				"kind": "dev",
				"methods": {
					"approveInvoice(bytes32,bool)": {
						"params": {
							"_clinicHash": "unique hash of clinic ",
							"approveReject": "bool value, true = approve , false = reject"
						}
					},
					"createInvoice(address,uint256,bytes32)": {
						"params": {
							"amount": "uint256 value of total invoice amount",
							"patientAddress": "address owner of invoice",
							"patientCategory": "bytes32 for sanity check or registering patient"
						}
					},
					"owner()": {
						"details": "Returns the address of the current owner."
					},
					"renounceOwnership()": {
						"details": "Leaves the contract without owner. It will not be possible to call `onlyOwner` functions anymore. Can only be called by the current owner. NOTE: Renouncing ownership will leave the contract without an owner, thereby removing any functionality that is only available to the owner."
					},
					"transferOwnership(address)": {
						"details": "Transfers ownership of the contract to a new account (`newOwner`). Can only be called by the current owner."
					}
				},
				"version": 1
			},
			"evm": {
				"assembly": "    /* \"HermesChain.sol\":170:6507  contract Hermes is Ownable{\r... */\n  mstore(0x40, 0x80)\n  callvalue\n  dup1\n  iszero\n  tag_1\n  jumpi\n  0x00\n  dup1\n  revert\ntag_1:\n  pop\n    /* \"@openzeppelin/contracts/access/Ownable.sol\":921:953  _transferOwnership(_msgSender()) */\n  tag_4\n    /* \"@openzeppelin/contracts/access/Ownable.sol\":940:952  _msgSender() */\n  tag_5\n    /* \"@openzeppelin/contracts/access/Ownable.sol\":940:950  _msgSender */\n  shl(0x20, tag_6)\n    /* \"@openzeppelin/contracts/access/Ownable.sol\":940:952  _msgSender() */\n  0x20\n  shr\n  jump\t// in\ntag_5:\n    /* \"@openzeppelin/contracts/access/Ownable.sol\":921:939  _transferOwnership */\n  shl(0x20, tag_7)\n    /* \"@openzeppelin/contracts/access/Ownable.sol\":921:953  _transferOwnership(_msgSender()) */\n  0x20\n  shr\n  jump\t// in\ntag_4:\n    /* \"HermesChain.sol\":170:6507  contract Hermes is Ownable{\r... */\n  jump(tag_8)\n    /* \"@openzeppelin/contracts/utils/Context.sol\":640:736  function _msgSender() internal view virtual returns (address) {... */\ntag_6:\n    /* \"@openzeppelin/contracts/utils/Context.sol\":693:700  address */\n  0x00\n    /* \"@openzeppelin/contracts/utils/Context.sol\":719:729  msg.sender */\n  caller\n    /* \"@openzeppelin/contracts/utils/Context.sol\":712:729  return msg.sender */\n  swap1\n  pop\n    /* \"@openzeppelin/contracts/utils/Context.sol\":640:736  function _msgSender() internal view virtual returns (address) {... */\n  swap1\n  jump\t// out\n    /* \"@openzeppelin/contracts/access/Ownable.sol\":2270:2457  function _transferOwnership(address newOwner) internal virtual {... */\ntag_7:\n    /* \"@openzeppelin/contracts/access/Ownable.sol\":2343:2359  address oldOwner */\n  0x00\n    /* \"@openzeppelin/contracts/access/Ownable.sol\":2362:2368  _owner */\n  dup1\n  0x00\n  swap1\n  sload\n  swap1\n  0x0100\n  exp\n  swap1\n  div\n  0xffffffffffffffffffffffffffffffffffffffff\n  and\n    /* \"@openzeppelin/contracts/access/Ownable.sol\":2343:2368  address oldOwner = _owner */\n  swap1\n  pop\n    /* \"@openzeppelin/contracts/access/Ownable.sol\":2387:2395  newOwner */\n  dup2\n    /* \"@openzeppelin/contracts/access/Ownable.sol\":2378:2384  _owner */\n  0x00\n  dup1\n    /* \"@openzeppelin/contracts/access/Ownable.sol\":2378:2395  _owner = newOwner */\n  0x0100\n  exp\n  dup2\n  sload\n  dup2\n  0xffffffffffffffffffffffffffffffffffffffff\n  mul\n  not\n  and\n  swap1\n  dup4\n  0xffffffffffffffffffffffffffffffffffffffff\n  and\n  mul\n  or\n  swap1\n  sstore\n  pop\n    /* \"@openzeppelin/contracts/access/Ownable.sol\":2441:2449  newOwner */\n  dup2\n    /* \"@openzeppelin/contracts/access/Ownable.sol\":2410:2450  OwnershipTransferred(oldOwner, newOwner) */\n  0xffffffffffffffffffffffffffffffffffffffff\n  and\n    /* \"@openzeppelin/contracts/access/Ownable.sol\":2431:2439  oldOwner */\n  dup2\n    /* \"@openzeppelin/contracts/access/Ownable.sol\":2410:2450  OwnershipTransferred(oldOwner, newOwner) */\n  0xffffffffffffffffffffffffffffffffffffffff\n  and\n  0x8be0079c531659141344cd1fd0a4f28419497f9722a3daafe3b4186f6b6457e0\n  mload(0x40)\n  mload(0x40)\n  dup1\n  swap2\n  sub\n  swap1\n  log3\n    /* \"@openzeppelin/contracts/access/Ownable.sol\":2333:2457  {... */\n  pop\n    /* \"@openzeppelin/contracts/access/Ownable.sol\":2270:2457  function _transferOwnership(address newOwner) internal virtual {... */\n  pop\n  jump\t// out\n    /* \"HermesChain.sol\":170:6507  contract Hermes is Ownable{\r... */\ntag_8:\n  dataSize(sub_0)\n  dup1\n  dataOffset(sub_0)\n  0x00\n  codecopy\n  0x00\n  return\nstop\n\nsub_0: assembly {\n        /* \"HermesChain.sol\":170:6507  contract Hermes is Ownable{\r... */\n      mstore(0x40, 0x80)\n      callvalue\n      dup1\n      iszero\n      tag_1\n      jumpi\n      0x00\n      dup1\n      revert\n    tag_1:\n      pop\n      jumpi(tag_2, lt(calldatasize, 0x04))\n      shr(0xe0, calldataload(0x00))\n      dup1\n      0x7f0a44d4\n      gt\n      tag_14\n      jumpi\n      dup1\n      0x7f0a44d4\n      eq\n      tag_8\n      jumpi\n      dup1\n      0x8da5cb5b\n      eq\n      tag_9\n      jumpi\n      dup1\n      0x99bf9094\n      eq\n      tag_10\n      jumpi\n      dup1\n      0xd367d966\n      eq\n      tag_11\n      jumpi\n      dup1\n      0xed1f2592\n      eq\n      tag_12\n      jumpi\n      dup1\n      0xf2fde38b\n      eq\n      tag_13\n      jumpi\n      jump(tag_2)\n    tag_14:\n      dup1\n      0x02cebea5\n      eq\n      tag_3\n      jumpi\n      dup1\n      0x0707613b\n      eq\n      tag_4\n      jumpi\n      dup1\n      0x10d8d74d\n      eq\n      tag_5\n      jumpi\n      dup1\n      0x5b6beeb9\n      eq\n      tag_6\n      jumpi\n      dup1\n      0x715018a6\n      eq\n      tag_7\n      jumpi\n    tag_2:\n      0x00\n      dup1\n      revert\n        /* \"HermesChain.sol\":6109:6268  function getInvoiceByPatient(address patient, uint256 index) external view returns(Invoice memory){\r... */\n    tag_3:\n      tag_15\n      0x04\n      dup1\n      calldatasize\n      sub\n      dup2\n      add\n      swap1\n      tag_16\n      swap2\n      swap1\n      tag_17\n      jump\t// in\n    tag_16:\n      tag_18\n      jump\t// in\n    tag_15:\n      mload(0x40)\n      tag_19\n      swap2\n      swap1\n      tag_20\n      jump\t// in\n    tag_19:\n      mload(0x40)\n      dup1\n      swap2\n      sub\n      swap1\n      return\n        /* \"HermesChain.sol\":3007:4004  function createInvoice(address patientAddress, uint256 amount, bytes32 patientCategory) public onlyClinic{\r... */\n    tag_4:\n      tag_21\n      0x04\n      dup1\n      calldatasize\n      sub\n      dup2\n      add\n      swap1\n      tag_22\n      swap2\n      swap1\n      tag_23\n      jump\t// in\n    tag_22:\n      tag_24\n      jump\t// in\n    tag_21:\n      stop\n        /* \"HermesChain.sol\":5597:5720  function setPrice(bytes32 categoryHash, uint256 amount) external onlyOwner{\r... */\n    tag_5:\n      tag_25\n      0x04\n      dup1\n      calldatasize\n      sub\n      dup2\n      add\n      swap1\n      tag_26\n      swap2\n      swap1\n      tag_27\n      jump\t// in\n    tag_26:\n      tag_28\n      jump\t// in\n    tag_25:\n      stop\n        /* \"HermesChain.sol\":6366:6498  function getHash(string memory message) external pure returns(bytes32){\r... */\n    tag_6:\n      tag_29\n      0x04\n      dup1\n      calldatasize\n      sub\n      dup2\n      add\n      swap1\n      tag_30\n      swap2\n      swap1\n      tag_31\n      jump\t// in\n    tag_30:\n      tag_32\n      jump\t// in\n    tag_29:\n      mload(0x40)\n      tag_33\n      swap2\n      swap1\n      tag_34\n      jump\t// in\n    tag_33:\n      mload(0x40)\n      dup1\n      swap2\n      sub\n      swap1\n      return\n        /* \"@openzeppelin/contracts/access/Ownable.sol\":1668:1769  function renounceOwnership() public virtual onlyOwner {... */\n    tag_7:\n      tag_35\n      tag_36\n      jump\t// in\n    tag_35:\n      stop\n        /* \"HermesChain.sol\":5774:5915  function setUsersCategory(address patient, bytes32 newCategory) external onlyOwner{\r... */\n    tag_8:\n      tag_37\n      0x04\n      dup1\n      calldatasize\n      sub\n      dup2\n      add\n      swap1\n      tag_38\n      swap2\n      swap1\n      tag_39\n      jump\t// in\n    tag_38:\n      tag_40\n      jump\t// in\n    tag_37:\n      stop\n        /* \"@openzeppelin/contracts/access/Ownable.sol\":1036:1121  function owner() public view virtual returns (address) {... */\n    tag_9:\n      tag_41\n      tag_42\n      jump\t// in\n    tag_41:\n      mload(0x40)\n      tag_43\n      swap2\n      swap1\n      tag_44\n      jump\t// in\n    tag_43:\n      mload(0x40)\n      dup1\n      swap2\n      sub\n      swap1\n      return\n        /* \"HermesChain.sol\":2383:2524  function registerClinic(bytes32 _clinicHash, address clinicAddress) public onlyOwner{\r... */\n    tag_10:\n      tag_45\n      0x04\n      dup1\n      calldatasize\n      sub\n      dup2\n      add\n      swap1\n      tag_46\n      swap2\n      swap1\n      tag_47\n      jump\t// in\n    tag_46:\n      tag_48\n      jump\t// in\n    tag_45:\n      stop\n        /* \"HermesChain.sol\":5949:6070  function getInvoiceById(bytes32 id) external view returns(Invoice memory){\r... */\n    tag_11:\n      tag_49\n      0x04\n      dup1\n      calldatasize\n      sub\n      dup2\n      add\n      swap1\n      tag_50\n      swap2\n      swap1\n      tag_51\n      jump\t// in\n    tag_50:\n      tag_52\n      jump\t// in\n    tag_49:\n      mload(0x40)\n      tag_53\n      swap2\n      swap1\n      tag_20\n      jump\t// in\n    tag_53:\n      mload(0x40)\n      dup1\n      swap2\n      sub\n      swap1\n      return\n        /* \"HermesChain.sol\":4394:4953  function approveInvoice(bytes32 _clinicHash, bool approveReject) public onlyPatient{\r... */\n    tag_12:\n      tag_54\n      0x04\n      dup1\n      calldatasize\n      sub\n      dup2\n      add\n      swap1\n      tag_55\n      swap2\n      swap1\n      tag_56\n      jump\t// in\n    tag_55:\n      tag_57\n      jump\t// in\n    tag_54:\n      stop\n        /* \"@openzeppelin/contracts/access/Ownable.sol\":1918:2116  function transferOwnership(address newOwner) public virtual onlyOwner {... */\n    tag_13:\n      tag_58\n      0x04\n      dup1\n      calldatasize\n      sub\n      dup2\n      add\n      swap1\n      tag_59\n      swap2\n      swap1\n      tag_60\n      jump\t// in\n    tag_59:\n      tag_61\n      jump\t// in\n    tag_58:\n      stop\n        /* \"HermesChain.sol\":6109:6268  function getInvoiceByPatient(address patient, uint256 index) external view returns(Invoice memory){\r... */\n    tag_18:\n        /* \"HermesChain.sol\":6192:6206  Invoice memory */\n      tag_62\n      tag_63\n      jump\t// in\n    tag_62:\n        /* \"HermesChain.sol\":6225:6244  patientPastInvoices */\n      0x05\n        /* \"HermesChain.sol\":6225:6253  patientPastInvoices[patient] */\n      0x00\n        /* \"HermesChain.sol\":6245:6252  patient */\n      dup5\n        /* \"HermesChain.sol\":6225:6253  patientPastInvoices[patient] */\n      0xffffffffffffffffffffffffffffffffffffffff\n      and\n      0xffffffffffffffffffffffffffffffffffffffff\n      and\n      dup2\n      mstore\n      0x20\n      add\n      swap1\n      dup2\n      mstore\n      0x20\n      add\n      0x00\n      keccak256\n        /* \"HermesChain.sol\":6254:6259  index */\n      dup3\n        /* \"HermesChain.sol\":6225:6260  patientPastInvoices[patient][index] */\n      dup2\n      sload\n      dup2\n      lt\n      tag_65\n      jumpi\n      tag_66\n      tag_67\n      jump\t// in\n    tag_66:\n    tag_65:\n      swap1\n      0x00\n      mstore\n      keccak256(0x00, 0x20)\n      swap1\n      0x04\n      mul\n      add\n        /* \"HermesChain.sol\":6218:6260  return patientPastInvoices[patient][index] */\n      mload(0x40)\n      dup1\n      0xa0\n      add\n      0x40\n      mstore\n      swap1\n      dup2\n      0x00\n      dup3\n      add\n      sload\n      dup2\n      mstore\n      0x20\n      add\n      0x01\n      dup3\n      add\n      sload\n      dup2\n      mstore\n      0x20\n      add\n      0x02\n      dup3\n      add\n      sload\n      dup2\n      mstore\n      0x20\n      add\n      0x03\n      dup3\n      add\n      0x00\n      swap1\n      sload\n      swap1\n      0x0100\n      exp\n      swap1\n      div\n      0xffffffffffffffffffffffffffffffffffffffff\n      and\n      0xffffffffffffffffffffffffffffffffffffffff\n      and\n      0xffffffffffffffffffffffffffffffffffffffff\n      and\n      dup2\n      mstore\n      0x20\n      add\n      0x03\n      dup3\n      add\n      0x14\n      swap1\n      sload\n      swap1\n      0x0100\n      exp\n      swap1\n      div\n      0xff\n      and\n      0x02\n      dup2\n      gt\n      iszero\n      tag_69\n      jumpi\n      tag_70\n      tag_71\n      jump\t// in\n    tag_70:\n    tag_69:\n      0x02\n      dup2\n      gt\n      iszero\n      tag_72\n      jumpi\n      tag_73\n      tag_71\n      jump\t// in\n    tag_73:\n    tag_72:\n      dup2\n      mstore\n      pop\n      pop\n      swap1\n      pop\n        /* \"HermesChain.sol\":6109:6268  function getInvoiceByPatient(address patient, uint256 index) external view returns(Invoice memory){\r... */\n      swap3\n      swap2\n      pop\n      pop\n      jump\t// out\n        /* \"HermesChain.sol\":3007:4004  function createInvoice(address patientAddress, uint256 amount, bytes32 patientCategory) public onlyClinic{\r... */\n    tag_24:\n        /* \"HermesChain.sol\":1886:1889  0x0 */\n      0x00\n        /* \"HermesChain.sol\":1861:1889  clinicIds[msg.sender] != 0x0 */\n      dup1\n      shl\n        /* \"HermesChain.sol\":1861:1870  clinicIds */\n      0x03\n        /* \"HermesChain.sol\":1861:1882  clinicIds[msg.sender] */\n      0x00\n        /* \"HermesChain.sol\":1871:1881  msg.sender */\n      caller\n        /* \"HermesChain.sol\":1861:1882  clinicIds[msg.sender] */\n      0xffffffffffffffffffffffffffffffffffffffff\n      and\n      0xffffffffffffffffffffffffffffffffffffffff\n      and\n      dup2\n      mstore\n      0x20\n      add\n      swap1\n      dup2\n      mstore\n      0x20\n      add\n      0x00\n      keccak256\n      sload\n        /* \"HermesChain.sol\":1861:1889  clinicIds[msg.sender] != 0x0 */\n      eq\n      iszero\n        /* \"HermesChain.sol\":1853:1934  require(clinicIds[msg.sender] != 0x0,\"Only clinics call perform this operations\") */\n      tag_75\n      jumpi\n      mload(0x40)\n      0x08c379a000000000000000000000000000000000000000000000000000000000\n      dup2\n      mstore\n      0x04\n      add\n      tag_76\n      swap1\n      tag_77\n      jump\t// in\n    tag_76:\n      mload(0x40)\n      dup1\n      swap2\n      sub\n      swap1\n      revert\n    tag_75:\n        /* \"HermesChain.sol\":3163:3164  0 */\n      0x00\n        /* \"HermesChain.sol\":3126:3164  patientCategories[patientAddress] == 0 */\n      dup1\n      shl\n        /* \"HermesChain.sol\":3126:3143  patientCategories */\n      0x04\n        /* \"HermesChain.sol\":3126:3159  patientCategories[patientAddress] */\n      0x00\n        /* \"HermesChain.sol\":3144:3158  patientAddress */\n      dup6\n        /* \"HermesChain.sol\":3126:3159  patientCategories[patientAddress] */\n      0xffffffffffffffffffffffffffffffffffffffff\n      and\n      0xffffffffffffffffffffffffffffffffffffffff\n      and\n      dup2\n      mstore\n      0x20\n      add\n      swap1\n      dup2\n      mstore\n      0x20\n      add\n      0x00\n      keccak256\n      sload\n        /* \"HermesChain.sol\":3126:3164  patientCategories[patientAddress] == 0 */\n      eq\n        /* \"HermesChain.sol\":3123:3429  if(patientCategories[patientAddress] == 0){\r... */\n      iszero\n      tag_79\n      jumpi\n        /* \"HermesChain.sol\":3216:3231  patientCategory */\n      dup1\n        /* \"HermesChain.sol\":3180:3197  patientCategories */\n      0x04\n        /* \"HermesChain.sol\":3180:3213  patientCategories[patientAddress] */\n      0x00\n        /* \"HermesChain.sol\":3198:3212  patientAddress */\n      dup6\n        /* \"HermesChain.sol\":3180:3213  patientCategories[patientAddress] */\n      0xffffffffffffffffffffffffffffffffffffffff\n      and\n      0xffffffffffffffffffffffffffffffffffffffff\n      and\n      dup2\n      mstore\n      0x20\n      add\n      swap1\n      dup2\n      mstore\n      0x20\n      add\n      0x00\n      keccak256\n        /* \"HermesChain.sol\":3180:3231  patientCategories[patientAddress] = patientCategory */\n      dup2\n      swap1\n      sstore\n      pop\n        /* \"HermesChain.sol\":3123:3429  if(patientCategories[patientAddress] == 0){\r... */\n      jump(tag_80)\n    tag_79:\n        /* \"HermesChain.sol\":3355:3370  patientCategory */\n      dup1\n        /* \"HermesChain.sol\":3318:3335  patientCategories */\n      0x04\n        /* \"HermesChain.sol\":3318:3351  patientCategories[patientAddress] */\n      0x00\n        /* \"HermesChain.sol\":3336:3350  patientAddress */\n      dup6\n        /* \"HermesChain.sol\":3318:3351  patientCategories[patientAddress] */\n      0xffffffffffffffffffffffffffffffffffffffff\n      and\n      0xffffffffffffffffffffffffffffffffffffffff\n      and\n      dup2\n      mstore\n      0x20\n      add\n      swap1\n      dup2\n      mstore\n      0x20\n      add\n      0x00\n      keccak256\n      sload\n        /* \"HermesChain.sol\":3318:3370  patientCategories[patientAddress] == patientCategory */\n      eq\n        /* \"HermesChain.sol\":3310:3417  require(patientCategories[patientAddress] == patientCategory, \"Patient can't be charged for this category\") */\n      tag_81\n      jumpi\n      mload(0x40)\n      0x08c379a000000000000000000000000000000000000000000000000000000000\n      dup2\n      mstore\n      0x04\n      add\n      tag_82\n      swap1\n      tag_83\n      jump\t// in\n    tag_82:\n      mload(0x40)\n      dup1\n      swap2\n      sub\n      swap1\n      revert\n    tag_81:\n        /* \"HermesChain.sol\":3123:3429  if(patientCategories[patientAddress] == 0){\r... */\n    tag_80:\n        /* \"HermesChain.sol\":3502:3508  amount */\n      dup2\n        /* \"HermesChain.sol\":3497:3498  3 */\n      0x03\n        /* \"HermesChain.sol\":3471:3478  _prices */\n      0x02\n        /* \"HermesChain.sol\":3471:3495  _prices[patientCategory] */\n      0x00\n        /* \"HermesChain.sol\":3479:3494  patientCategory */\n      dup5\n        /* \"HermesChain.sol\":3471:3495  _prices[patientCategory] */\n      dup2\n      mstore\n      0x20\n      add\n      swap1\n      dup2\n      mstore\n      0x20\n      add\n      0x00\n      keccak256\n      sload\n        /* \"HermesChain.sol\":3471:3498  _prices[patientCategory] *3 */\n      mul\n        /* \"HermesChain.sol\":3471:3508  _prices[patientCategory] *3 >= amount */\n      lt\n      iszero\n        /* \"HermesChain.sol\":3463:3549  require(_prices[patientCategory] *3 >= amount, \"Patient can't be charged this amount\") */\n      tag_84\n      jumpi\n      mload(0x40)\n      0x08c379a000000000000000000000000000000000000000000000000000000000\n      dup2\n      mstore\n      0x04\n      add\n      tag_85\n      swap1\n      tag_86\n      jump\t// in\n    tag_85:\n      mload(0x40)\n      dup1\n      swap2\n      sub\n      swap1\n      revert\n    tag_84:\n        /* \"HermesChain.sol\":3573:3598  Invoice memory newInvoice */\n      0x00\n        /* \"HermesChain.sol\":3601:3837  Invoice(\r... */\n      mload(0x40)\n      dup1\n      0xa0\n      add\n      0x40\n      mstore\n      dup1\n        /* \"HermesChain.sol\":3650:3660  msg.sender */\n      caller\n        /* \"HermesChain.sol\":3662:3676  patientAddress */\n      dup7\n        /* \"HermesChain.sol\":3678:3684  amount */\n      dup7\n        /* \"HermesChain.sol\":3686:3701  block.timestamp */\n      timestamp\n        /* \"HermesChain.sol\":3703:3715  block.number */\n      number\n        /* \"HermesChain.sol\":3633:3716  abi.encodePacked(msg.sender, patientAddress, amount, block.timestamp, block.number) */\n      add(0x20, mload(0x40))\n      tag_87\n      swap6\n      swap5\n      swap4\n      swap3\n      swap2\n      swap1\n      tag_88\n      jump\t// in\n    tag_87:\n      mload(0x40)\n      0x20\n      dup2\n      dup4\n      sub\n      sub\n      dup2\n      mstore\n      swap1\n      0x40\n      mstore\n        /* \"HermesChain.sol\":3623:3717  keccak256(abi.encodePacked(msg.sender, patientAddress, amount, block.timestamp, block.number)) */\n      dup1\n      mload\n      swap1\n      0x20\n      add\n      keccak256\n        /* \"HermesChain.sol\":3601:3837  Invoice(\r... */\n      dup2\n      mstore\n      0x20\n      add\n        /* \"HermesChain.sol\":3732:3747  patientCategory */\n      dup4\n        /* \"HermesChain.sol\":3601:3837  Invoice(\r... */\n      dup2\n      mstore\n      0x20\n      add\n        /* \"HermesChain.sol\":3762:3768  amount */\n      dup5\n        /* \"HermesChain.sol\":3601:3837  Invoice(\r... */\n      dup2\n      mstore\n      0x20\n      add\n        /* \"HermesChain.sol\":3783:3797  patientAddress */\n      dup6\n        /* \"HermesChain.sol\":3601:3837  Invoice(\r... */\n      0xffffffffffffffffffffffffffffffffffffffff\n      and\n      dup2\n      mstore\n      0x20\n      add\n        /* \"HermesChain.sol\":3812:3826  Status.Pending */\n      0x00\n        /* \"HermesChain.sol\":3601:3837  Invoice(\r... */\n      0x02\n      dup2\n      gt\n      iszero\n      tag_89\n      jumpi\n      tag_90\n      tag_71\n      jump\t// in\n    tag_90:\n    tag_89:\n      dup2\n      mstore\n      pop\n        /* \"HermesChain.sol\":3573:3837  Invoice memory newInvoice = Invoice(\r... */\n      swap1\n      pop\n        /* \"HermesChain.sol\":3907:3917  newInvoice */\n      dup1\n        /* \"HermesChain.sol\":3850:3865  pendingRequests */\n      0x07\n        /* \"HermesChain.sol\":3850:3881  pendingRequests[patientAddress] */\n      0x00\n        /* \"HermesChain.sol\":3866:3880  patientAddress */\n      dup7\n        /* \"HermesChain.sol\":3850:3881  pendingRequests[patientAddress] */\n      0xffffffffffffffffffffffffffffffffffffffff\n      and\n      0xffffffffffffffffffffffffffffffffffffffff\n      and\n      dup2\n      mstore\n      0x20\n      add\n      swap1\n      dup2\n      mstore\n      0x20\n      add\n      0x00\n      keccak256\n        /* \"HermesChain.sol\":3850:3904  pendingRequests[patientAddress][clinicIds[msg.sender]] */\n      0x00\n        /* \"HermesChain.sol\":3882:3891  clinicIds */\n      0x03\n        /* \"HermesChain.sol\":3882:3903  clinicIds[msg.sender] */\n      0x00\n        /* \"HermesChain.sol\":3892:3902  msg.sender */\n      caller\n        /* \"HermesChain.sol\":3882:3903  clinicIds[msg.sender] */\n      0xffffffffffffffffffffffffffffffffffffffff\n      and\n      0xffffffffffffffffffffffffffffffffffffffff\n      and\n      dup2\n      mstore\n      0x20\n      add\n      swap1\n      dup2\n      mstore\n      0x20\n      add\n      0x00\n      keccak256\n      sload\n        /* \"HermesChain.sol\":3850:3904  pendingRequests[patientAddress][clinicIds[msg.sender]] */\n      dup2\n      mstore\n      0x20\n      add\n      swap1\n      dup2\n      mstore\n      0x20\n      add\n      0x00\n      keccak256\n        /* \"HermesChain.sol\":3850:3917  pendingRequests[patientAddress][clinicIds[msg.sender]] = newInvoice */\n      0x00\n      dup3\n      add\n      mload\n      dup2\n      0x00\n      add\n      sstore\n      0x20\n      dup3\n      add\n      mload\n      dup2\n      0x01\n      add\n      sstore\n      0x40\n      dup3\n      add\n      mload\n      dup2\n      0x02\n      add\n      sstore\n      0x60\n      dup3\n      add\n      mload\n      dup2\n      0x03\n      add\n      exp(0x0100, 0x00)\n      dup2\n      sload\n      dup2\n      0xffffffffffffffffffffffffffffffffffffffff\n      mul\n      not\n      and\n      swap1\n      dup4\n      0xffffffffffffffffffffffffffffffffffffffff\n      and\n      mul\n      or\n      swap1\n      sstore\n      pop\n      0x80\n      dup3\n      add\n      mload\n      dup2\n      0x03\n      add\n      exp(0x0100, 0x14)\n      dup2\n      sload\n      dup2\n      0xff\n      mul\n      not\n      and\n      swap1\n      dup4\n      0x02\n      dup2\n      gt\n      iszero\n      tag_91\n      jumpi\n      tag_92\n      tag_71\n      jump\t// in\n    tag_92:\n    tag_91:\n      mul\n      or\n      swap1\n      sstore\n      pop\n      swap1\n      pop\n      pop\n        /* \"HermesChain.sol\":3964:3973  clinicIds */\n      0x03\n        /* \"HermesChain.sol\":3964:3985  clinicIds[msg.sender] */\n      0x00\n        /* \"HermesChain.sol\":3974:3984  msg.sender */\n      caller\n        /* \"HermesChain.sol\":3964:3985  clinicIds[msg.sender] */\n      0xffffffffffffffffffffffffffffffffffffffff\n      and\n      0xffffffffffffffffffffffffffffffffffffffff\n      and\n      dup2\n      mstore\n      0x20\n      add\n      swap1\n      dup2\n      mstore\n      0x20\n      add\n      0x00\n      keccak256\n      sload\n        /* \"HermesChain.sol\":3948:3962  patientAddress */\n      dup5\n        /* \"HermesChain.sol\":3933:3994  InvocieCreated(patientAddress, clinicIds[msg.sender], amount) */\n      0xffffffffffffffffffffffffffffffffffffffff\n      and\n      0xad438d062604ef9539e2a0b5152e5071f8d5e9641c488d60234d23fdca24444c\n        /* \"HermesChain.sol\":3987:3993  amount */\n      dup6\n        /* \"HermesChain.sol\":3933:3994  InvocieCreated(patientAddress, clinicIds[msg.sender], amount) */\n      mload(0x40)\n      tag_93\n      swap2\n      swap1\n      tag_94\n      jump\t// in\n    tag_93:\n      mload(0x40)\n      dup1\n      swap2\n      sub\n      swap1\n      log3\n        /* \"HermesChain.sol\":3112:4004  {\r... */\n      pop\n        /* \"HermesChain.sol\":3007:4004  function createInvoice(address patientAddress, uint256 amount, bytes32 patientCategory) public onlyClinic{\r... */\n      pop\n      pop\n      pop\n      jump\t// out\n        /* \"HermesChain.sol\":5597:5720  function setPrice(bytes32 categoryHash, uint256 amount) external onlyOwner{\r... */\n    tag_28:\n        /* \"@openzeppelin/contracts/access/Ownable.sol\":1259:1271  _msgSender() */\n      tag_96\n        /* \"@openzeppelin/contracts/access/Ownable.sol\":1259:1269  _msgSender */\n      tag_97\n        /* \"@openzeppelin/contracts/access/Ownable.sol\":1259:1271  _msgSender() */\n      jump\t// in\n    tag_96:\n        /* \"@openzeppelin/contracts/access/Ownable.sol\":1248:1271  owner() == _msgSender() */\n      0xffffffffffffffffffffffffffffffffffffffff\n      and\n        /* \"@openzeppelin/contracts/access/Ownable.sol\":1248:1255  owner() */\n      tag_98\n        /* \"@openzeppelin/contracts/access/Ownable.sol\":1248:1253  owner */\n      tag_42\n        /* \"@openzeppelin/contracts/access/Ownable.sol\":1248:1255  owner() */\n      jump\t// in\n    tag_98:\n        /* \"@openzeppelin/contracts/access/Ownable.sol\":1248:1271  owner() == _msgSender() */\n      0xffffffffffffffffffffffffffffffffffffffff\n      and\n      eq\n        /* \"@openzeppelin/contracts/access/Ownable.sol\":1240:1308  require(owner() == _msgSender(), \"Ownable: caller is not the owner\") */\n      tag_99\n      jumpi\n      mload(0x40)\n      0x08c379a000000000000000000000000000000000000000000000000000000000\n      dup2\n      mstore\n      0x04\n      add\n      tag_100\n      swap1\n      tag_101\n      jump\t// in\n    tag_100:\n      mload(0x40)\n      dup1\n      swap2\n      sub\n      swap1\n      revert\n    tag_99:\n        /* \"HermesChain.sol\":5706:5712  amount */\n      dup1\n        /* \"HermesChain.sol\":5682:5689  _prices */\n      0x02\n        /* \"HermesChain.sol\":5682:5703  _prices[categoryHash] */\n      0x00\n        /* \"HermesChain.sol\":5690:5702  categoryHash */\n      dup5\n        /* \"HermesChain.sol\":5682:5703  _prices[categoryHash] */\n      dup2\n      mstore\n      0x20\n      add\n      swap1\n      dup2\n      mstore\n      0x20\n      add\n      0x00\n      keccak256\n        /* \"HermesChain.sol\":5682:5712  _prices[categoryHash] = amount */\n      dup2\n      swap1\n      sstore\n      pop\n        /* \"HermesChain.sol\":5597:5720  function setPrice(bytes32 categoryHash, uint256 amount) external onlyOwner{\r... */\n      pop\n      pop\n      jump\t// out\n        /* \"HermesChain.sol\":6366:6498  function getHash(string memory message) external pure returns(bytes32){\r... */\n    tag_32:\n        /* \"HermesChain.sol\":6428:6435  bytes32 */\n      0x00\n        /* \"HermesChain.sol\":6481:6488  message */\n      dup2\n        /* \"HermesChain.sol\":6464:6489  abi.encodePacked(message) */\n      add(0x20, mload(0x40))\n      tag_104\n      swap2\n      swap1\n      tag_105\n      jump\t// in\n    tag_104:\n      mload(0x40)\n      0x20\n      dup2\n      dup4\n      sub\n      sub\n      dup2\n      mstore\n      swap1\n      0x40\n      mstore\n        /* \"HermesChain.sol\":6454:6490  keccak256(abi.encodePacked(message)) */\n      dup1\n      mload\n      swap1\n      0x20\n      add\n      keccak256\n        /* \"HermesChain.sol\":6447:6490  return keccak256(abi.encodePacked(message)) */\n      swap1\n      pop\n        /* \"HermesChain.sol\":6366:6498  function getHash(string memory message) external pure returns(bytes32){\r... */\n      swap2\n      swap1\n      pop\n      jump\t// out\n        /* \"@openzeppelin/contracts/access/Ownable.sol\":1668:1769  function renounceOwnership() public virtual onlyOwner {... */\n    tag_36:\n        /* \"@openzeppelin/contracts/access/Ownable.sol\":1259:1271  _msgSender() */\n      tag_107\n        /* \"@openzeppelin/contracts/access/Ownable.sol\":1259:1269  _msgSender */\n      tag_97\n        /* \"@openzeppelin/contracts/access/Ownable.sol\":1259:1271  _msgSender() */\n      jump\t// in\n    tag_107:\n        /* \"@openzeppelin/contracts/access/Ownable.sol\":1248:1271  owner() == _msgSender() */\n      0xffffffffffffffffffffffffffffffffffffffff\n      and\n        /* \"@openzeppelin/contracts/access/Ownable.sol\":1248:1255  owner() */\n      tag_108\n        /* \"@openzeppelin/contracts/access/Ownable.sol\":1248:1253  owner */\n      tag_42\n        /* \"@openzeppelin/contracts/access/Ownable.sol\":1248:1255  owner() */\n      jump\t// in\n    tag_108:\n        /* \"@openzeppelin/contracts/access/Ownable.sol\":1248:1271  owner() == _msgSender() */\n      0xffffffffffffffffffffffffffffffffffffffff\n      and\n      eq\n        /* \"@openzeppelin/contracts/access/Ownable.sol\":1240:1308  require(owner() == _msgSender(), \"Ownable: caller is not the owner\") */\n      tag_109\n      jumpi\n      mload(0x40)\n      0x08c379a000000000000000000000000000000000000000000000000000000000\n      dup2\n      mstore\n      0x04\n      add\n      tag_110\n      swap1\n      tag_101\n      jump\t// in\n    tag_110:\n      mload(0x40)\n      dup1\n      swap2\n      sub\n      swap1\n      revert\n    tag_109:\n        /* \"@openzeppelin/contracts/access/Ownable.sol\":1732:1762  _transferOwnership(address(0)) */\n      tag_112\n        /* \"@openzeppelin/contracts/access/Ownable.sol\":1759:1760  0 */\n      0x00\n        /* \"@openzeppelin/contracts/access/Ownable.sol\":1732:1750  _transferOwnership */\n      tag_113\n        /* \"@openzeppelin/contracts/access/Ownable.sol\":1732:1762  _transferOwnership(address(0)) */\n      jump\t// in\n    tag_112:\n        /* \"@openzeppelin/contracts/access/Ownable.sol\":1668:1769  function renounceOwnership() public virtual onlyOwner {... */\n      jump\t// out\n        /* \"HermesChain.sol\":5774:5915  function setUsersCategory(address patient, bytes32 newCategory) external onlyOwner{\r... */\n    tag_40:\n        /* \"@openzeppelin/contracts/access/Ownable.sol\":1259:1271  _msgSender() */\n      tag_115\n        /* \"@openzeppelin/contracts/access/Ownable.sol\":1259:1269  _msgSender */\n      tag_97\n        /* \"@openzeppelin/contracts/access/Ownable.sol\":1259:1271  _msgSender() */\n      jump\t// in\n    tag_115:\n        /* \"@openzeppelin/contracts/access/Ownable.sol\":1248:1271  owner() == _msgSender() */\n      0xffffffffffffffffffffffffffffffffffffffff\n      and\n        /* \"@openzeppelin/contracts/access/Ownable.sol\":1248:1255  owner() */\n      tag_116\n        /* \"@openzeppelin/contracts/access/Ownable.sol\":1248:1253  owner */\n      tag_42\n        /* \"@openzeppelin/contracts/access/Ownable.sol\":1248:1255  owner() */\n      jump\t// in\n    tag_116:\n        /* \"@openzeppelin/contracts/access/Ownable.sol\":1248:1271  owner() == _msgSender() */\n      0xffffffffffffffffffffffffffffffffffffffff\n      and\n      eq\n        /* \"@openzeppelin/contracts/access/Ownable.sol\":1240:1308  require(owner() == _msgSender(), \"Ownable: caller is not the owner\") */\n      tag_117\n      jumpi\n      mload(0x40)\n      0x08c379a000000000000000000000000000000000000000000000000000000000\n      dup2\n      mstore\n      0x04\n      add\n      tag_118\n      swap1\n      tag_101\n      jump\t// in\n    tag_118:\n      mload(0x40)\n      dup1\n      swap2\n      sub\n      swap1\n      revert\n    tag_117:\n        /* \"HermesChain.sol\":5896:5907  newCategory */\n      dup1\n        /* \"HermesChain.sol\":5867:5884  patientCategories */\n      0x04\n        /* \"HermesChain.sol\":5867:5893  patientCategories[patient] */\n      0x00\n        /* \"HermesChain.sol\":5885:5892  patient */\n      dup5\n        /* \"HermesChain.sol\":5867:5893  patientCategories[patient] */\n      0xffffffffffffffffffffffffffffffffffffffff\n      and\n      0xffffffffffffffffffffffffffffffffffffffff\n      and\n      dup2\n      mstore\n      0x20\n      add\n      swap1\n      dup2\n      mstore\n      0x20\n      add\n      0x00\n      keccak256\n        /* \"HermesChain.sol\":5867:5907  patientCategories[patient] = newCategory */\n      dup2\n      swap1\n      sstore\n      pop\n        /* \"HermesChain.sol\":5774:5915  function setUsersCategory(address patient, bytes32 newCategory) external onlyOwner{\r... */\n      pop\n      pop\n      jump\t// out\n        /* \"@openzeppelin/contracts/access/Ownable.sol\":1036:1121  function owner() public view virtual returns (address) {... */\n    tag_42:\n        /* \"@openzeppelin/contracts/access/Ownable.sol\":1082:1089  address */\n      0x00\n        /* \"@openzeppelin/contracts/access/Ownable.sol\":1108:1114  _owner */\n      dup1\n      0x00\n      swap1\n      sload\n      swap1\n      0x0100\n      exp\n      swap1\n      div\n      0xffffffffffffffffffffffffffffffffffffffff\n      and\n        /* \"@openzeppelin/contracts/access/Ownable.sol\":1101:1114  return _owner */\n      swap1\n      pop\n        /* \"@openzeppelin/contracts/access/Ownable.sol\":1036:1121  function owner() public view virtual returns (address) {... */\n      swap1\n      jump\t// out\n        /* \"HermesChain.sol\":2383:2524  function registerClinic(bytes32 _clinicHash, address clinicAddress) public onlyOwner{\r... */\n    tag_48:\n        /* \"@openzeppelin/contracts/access/Ownable.sol\":1259:1271  _msgSender() */\n      tag_122\n        /* \"@openzeppelin/contracts/access/Ownable.sol\":1259:1269  _msgSender */\n      tag_97\n        /* \"@openzeppelin/contracts/access/Ownable.sol\":1259:1271  _msgSender() */\n      jump\t// in\n    tag_122:\n        /* \"@openzeppelin/contracts/access/Ownable.sol\":1248:1271  owner() == _msgSender() */\n      0xffffffffffffffffffffffffffffffffffffffff\n      and\n        /* \"@openzeppelin/contracts/access/Ownable.sol\":1248:1255  owner() */\n      tag_123\n        /* \"@openzeppelin/contracts/access/Ownable.sol\":1248:1253  owner */\n      tag_42\n        /* \"@openzeppelin/contracts/access/Ownable.sol\":1248:1255  owner() */\n      jump\t// in\n    tag_123:\n        /* \"@openzeppelin/contracts/access/Ownable.sol\":1248:1271  owner() == _msgSender() */\n      0xffffffffffffffffffffffffffffffffffffffff\n      and\n      eq\n        /* \"@openzeppelin/contracts/access/Ownable.sol\":1240:1308  require(owner() == _msgSender(), \"Ownable: caller is not the owner\") */\n      tag_124\n      jumpi\n      mload(0x40)\n      0x08c379a000000000000000000000000000000000000000000000000000000000\n      dup2\n      mstore\n      0x04\n      add\n      tag_125\n      swap1\n      tag_101\n      jump\t// in\n    tag_125:\n      mload(0x40)\n      dup1\n      swap2\n      sub\n      swap1\n      revert\n    tag_124:\n        /* \"HermesChain.sol\":2505:2516  _clinicHash */\n      dup2\n        /* \"HermesChain.sol\":2478:2487  clinicIds */\n      0x03\n        /* \"HermesChain.sol\":2478:2502  clinicIds[clinicAddress] */\n      0x00\n        /* \"HermesChain.sol\":2488:2501  clinicAddress */\n      dup4\n        /* \"HermesChain.sol\":2478:2502  clinicIds[clinicAddress] */\n      0xffffffffffffffffffffffffffffffffffffffff\n      and\n      0xffffffffffffffffffffffffffffffffffffffff\n      and\n      dup2\n      mstore\n      0x20\n      add\n      swap1\n      dup2\n      mstore\n      0x20\n      add\n      0x00\n      keccak256\n        /* \"HermesChain.sol\":2478:2516  clinicIds[clinicAddress] = _clinicHash */\n      dup2\n      swap1\n      sstore\n      pop\n        /* \"HermesChain.sol\":2383:2524  function registerClinic(bytes32 _clinicHash, address clinicAddress) public onlyOwner{\r... */\n      pop\n      pop\n      jump\t// out\n        /* \"HermesChain.sol\":5949:6070  function getInvoiceById(bytes32 id) external view returns(Invoice memory){\r... */\n    tag_52:\n        /* \"HermesChain.sol\":6007:6021  Invoice memory */\n      tag_127\n      tag_63\n      jump\t// in\n    tag_127:\n        /* \"HermesChain.sol\":6040:6058  invoiceRecordsById */\n      0x06\n        /* \"HermesChain.sol\":6040:6062  invoiceRecordsById[id] */\n      0x00\n        /* \"HermesChain.sol\":6059:6061  id */\n      dup4\n        /* \"HermesChain.sol\":6040:6062  invoiceRecordsById[id] */\n      dup2\n      mstore\n      0x20\n      add\n      swap1\n      dup2\n      mstore\n      0x20\n      add\n      0x00\n      keccak256\n        /* \"HermesChain.sol\":6033:6062  return invoiceRecordsById[id] */\n      mload(0x40)\n      dup1\n      0xa0\n      add\n      0x40\n      mstore\n      swap1\n      dup2\n      0x00\n      dup3\n      add\n      sload\n      dup2\n      mstore\n      0x20\n      add\n      0x01\n      dup3\n      add\n      sload\n      dup2\n      mstore\n      0x20\n      add\n      0x02\n      dup3\n      add\n      sload\n      dup2\n      mstore\n      0x20\n      add\n      0x03\n      dup3\n      add\n      0x00\n      swap1\n      sload\n      swap1\n      0x0100\n      exp\n      swap1\n      div\n      0xffffffffffffffffffffffffffffffffffffffff\n      and\n      0xffffffffffffffffffffffffffffffffffffffff\n      and\n      0xffffffffffffffffffffffffffffffffffffffff\n      and\n      dup2\n      mstore\n      0x20\n      add\n      0x03\n      dup3\n      add\n      0x14\n      swap1\n      sload\n      swap1\n      0x0100\n      exp\n      swap1\n      div\n      0xff\n      and\n      0x02\n      dup2\n      gt\n      iszero\n      tag_129\n      jumpi\n      tag_130\n      tag_71\n      jump\t// in\n    tag_130:\n    tag_129:\n      0x02\n      dup2\n      gt\n      iszero\n      tag_131\n      jumpi\n      tag_132\n      tag_71\n      jump\t// in\n    tag_132:\n    tag_131:\n      dup2\n      mstore\n      pop\n      pop\n      swap1\n      pop\n        /* \"HermesChain.sol\":5949:6070  function getInvoiceById(bytes32 id) external view returns(Invoice memory){\r... */\n      swap2\n      swap1\n      pop\n      jump\t// out\n        /* \"HermesChain.sol\":4394:4953  function approveInvoice(bytes32 _clinicHash, bool approveReject) public onlyPatient{\r... */\n    tag_57:\n        /* \"HermesChain.sol\":2074:2077  0x0 */\n      0x00\n        /* \"HermesChain.sol\":2041:2077  patientCategories[msg.sender] != 0x0 */\n      dup1\n      shl\n        /* \"HermesChain.sol\":2041:2058  patientCategories */\n      0x04\n        /* \"HermesChain.sol\":2041:2070  patientCategories[msg.sender] */\n      0x00\n        /* \"HermesChain.sol\":2059:2069  msg.sender */\n      caller\n        /* \"HermesChain.sol\":2041:2070  patientCategories[msg.sender] */\n      0xffffffffffffffffffffffffffffffffffffffff\n      and\n      0xffffffffffffffffffffffffffffffffffffffff\n      and\n      dup2\n      mstore\n      0x20\n      add\n      swap1\n      dup2\n      mstore\n      0x20\n      add\n      0x00\n      keccak256\n      sload\n        /* \"HermesChain.sol\":2041:2077  patientCategories[msg.sender] != 0x0 */\n      eq\n      iszero\n        /* \"HermesChain.sol\":2033:2130  require(patientCategories[msg.sender] != 0x0, \"There is no patient registered with this address\") */\n      tag_134\n      jumpi\n      mload(0x40)\n      0x08c379a000000000000000000000000000000000000000000000000000000000\n      dup2\n      mstore\n      0x04\n      add\n      tag_135\n      swap1\n      tag_136\n      jump\t// in\n    tag_135:\n      mload(0x40)\n      dup1\n      swap2\n      sub\n      swap1\n      revert\n    tag_134:\n        /* \"HermesChain.sol\":4550:4553  0x0 */\n      0x00\n        /* \"HermesChain.sol\":4496:4553  pendingRequests[msg.sender][_clinicHash].invoiceId != 0x0 */\n      dup1\n      shl\n        /* \"HermesChain.sol\":4496:4511  pendingRequests */\n      0x07\n        /* \"HermesChain.sol\":4496:4523  pendingRequests[msg.sender] */\n      0x00\n        /* \"HermesChain.sol\":4512:4522  msg.sender */\n      caller\n        /* \"HermesChain.sol\":4496:4523  pendingRequests[msg.sender] */\n      0xffffffffffffffffffffffffffffffffffffffff\n      and\n      0xffffffffffffffffffffffffffffffffffffffff\n      and\n      dup2\n      mstore\n      0x20\n      add\n      swap1\n      dup2\n      mstore\n      0x20\n      add\n      0x00\n      keccak256\n        /* \"HermesChain.sol\":4496:4536  pendingRequests[msg.sender][_clinicHash] */\n      0x00\n        /* \"HermesChain.sol\":4524:4535  _clinicHash */\n      dup5\n        /* \"HermesChain.sol\":4496:4536  pendingRequests[msg.sender][_clinicHash] */\n      dup2\n      mstore\n      0x20\n      add\n      swap1\n      dup2\n      mstore\n      0x20\n      add\n      0x00\n      keccak256\n        /* \"HermesChain.sol\":4496:4546  pendingRequests[msg.sender][_clinicHash].invoiceId */\n      0x00\n      add\n      sload\n        /* \"HermesChain.sol\":4496:4553  pendingRequests[msg.sender][_clinicHash].invoiceId != 0x0 */\n      eq\n      iszero\n        /* \"HermesChain.sol\":4488:4578  require(pendingRequests[msg.sender][_clinicHash].invoiceId != 0x0, \"Invoice can't found\" ) */\n      tag_138\n      jumpi\n      mload(0x40)\n      0x08c379a000000000000000000000000000000000000000000000000000000000\n      dup2\n      mstore\n      0x04\n      add\n      tag_139\n      swap1\n      tag_140\n      jump\t// in\n    tag_139:\n      mload(0x40)\n      dup1\n      swap2\n      sub\n      swap1\n      revert\n    tag_138:\n        /* \"HermesChain.sol\":4648:4662  Status.Pending */\n      0x00\n        /* \"HermesChain.sol\":4597:4662  pendingRequests[msg.sender][_clinicHash].status == Status.Pending */\n      0x02\n      dup2\n      gt\n      iszero\n      tag_141\n      jumpi\n      tag_142\n      tag_71\n      jump\t// in\n    tag_142:\n    tag_141:\n        /* \"HermesChain.sol\":4597:4612  pendingRequests */\n      0x07\n        /* \"HermesChain.sol\":4597:4624  pendingRequests[msg.sender] */\n      0x00\n        /* \"HermesChain.sol\":4613:4623  msg.sender */\n      caller\n        /* \"HermesChain.sol\":4597:4624  pendingRequests[msg.sender] */\n      0xffffffffffffffffffffffffffffffffffffffff\n      and\n      0xffffffffffffffffffffffffffffffffffffffff\n      and\n      dup2\n      mstore\n      0x20\n      add\n      swap1\n      dup2\n      mstore\n      0x20\n      add\n      0x00\n      keccak256\n        /* \"HermesChain.sol\":4597:4637  pendingRequests[msg.sender][_clinicHash] */\n      0x00\n        /* \"HermesChain.sol\":4625:4636  _clinicHash */\n      dup5\n        /* \"HermesChain.sol\":4597:4637  pendingRequests[msg.sender][_clinicHash] */\n      dup2\n      mstore\n      0x20\n      add\n      swap1\n      dup2\n      mstore\n      0x20\n      add\n      0x00\n      keccak256\n        /* \"HermesChain.sol\":4597:4644  pendingRequests[msg.sender][_clinicHash].status */\n      0x03\n      add\n      0x14\n      swap1\n      sload\n      swap1\n      0x0100\n      exp\n      swap1\n      div\n      0xff\n      and\n        /* \"HermesChain.sol\":4597:4662  pendingRequests[msg.sender][_clinicHash].status == Status.Pending */\n      0x02\n      dup2\n      gt\n      iszero\n      tag_143\n      jumpi\n      tag_144\n      tag_71\n      jump\t// in\n    tag_144:\n    tag_143:\n      eq\n        /* \"HermesChain.sol\":4589:4692  require(pendingRequests[msg.sender][_clinicHash].status == Status.Pending, \"Invoice can't be accepted\") */\n      tag_145\n      jumpi\n      mload(0x40)\n      0x08c379a000000000000000000000000000000000000000000000000000000000\n      dup2\n      mstore\n      0x04\n      add\n      tag_146\n      swap1\n      tag_147\n      jump\t// in\n    tag_146:\n      mload(0x40)\n      dup1\n      swap2\n      sub\n      swap1\n      revert\n    tag_145:\n        /* \"HermesChain.sol\":4706:4719  approveReject */\n      dup1\n        /* \"HermesChain.sol\":4703:4908  if(approveReject){\r... */\n      iszero\n      tag_148\n      jumpi\n        /* \"HermesChain.sol\":4785:4800  Status.Accepted */\n      0x01\n        /* \"HermesChain.sol\":4735:4750  pendingRequests */\n      0x07\n        /* \"HermesChain.sol\":4735:4762  pendingRequests[msg.sender] */\n      0x00\n        /* \"HermesChain.sol\":4751:4761  msg.sender */\n      caller\n        /* \"HermesChain.sol\":4735:4762  pendingRequests[msg.sender] */\n      0xffffffffffffffffffffffffffffffffffffffff\n      and\n      0xffffffffffffffffffffffffffffffffffffffff\n      and\n      dup2\n      mstore\n      0x20\n      add\n      swap1\n      dup2\n      mstore\n      0x20\n      add\n      0x00\n      keccak256\n        /* \"HermesChain.sol\":4735:4775  pendingRequests[msg.sender][_clinicHash] */\n      0x00\n        /* \"HermesChain.sol\":4763:4774  _clinicHash */\n      dup5\n        /* \"HermesChain.sol\":4735:4775  pendingRequests[msg.sender][_clinicHash] */\n      dup2\n      mstore\n      0x20\n      add\n      swap1\n      dup2\n      mstore\n      0x20\n      add\n      0x00\n      keccak256\n        /* \"HermesChain.sol\":4735:4782  pendingRequests[msg.sender][_clinicHash].status */\n      0x03\n      add\n      0x14\n        /* \"HermesChain.sol\":4735:4800  pendingRequests[msg.sender][_clinicHash].status = Status.Accepted */\n      0x0100\n      exp\n      dup2\n      sload\n      dup2\n      0xff\n      mul\n      not\n      and\n      swap1\n      dup4\n      0x02\n      dup2\n      gt\n      iszero\n      tag_149\n      jumpi\n      tag_150\n      tag_71\n      jump\t// in\n    tag_150:\n    tag_149:\n      mul\n      or\n      swap1\n      sstore\n      pop\n        /* \"HermesChain.sol\":4703:4908  if(approveReject){\r... */\n      jump(tag_151)\n    tag_148:\n        /* \"HermesChain.sol\":4881:4896  Status.Rejected */\n      0x02\n        /* \"HermesChain.sol\":4831:4846  pendingRequests */\n      0x07\n        /* \"HermesChain.sol\":4831:4858  pendingRequests[msg.sender] */\n      0x00\n        /* \"HermesChain.sol\":4847:4857  msg.sender */\n      caller\n        /* \"HermesChain.sol\":4831:4858  pendingRequests[msg.sender] */\n      0xffffffffffffffffffffffffffffffffffffffff\n      and\n      0xffffffffffffffffffffffffffffffffffffffff\n      and\n      dup2\n      mstore\n      0x20\n      add\n      swap1\n      dup2\n      mstore\n      0x20\n      add\n      0x00\n      keccak256\n        /* \"HermesChain.sol\":4831:4871  pendingRequests[msg.sender][_clinicHash] */\n      0x00\n        /* \"HermesChain.sol\":4859:4870  _clinicHash */\n      dup5\n        /* \"HermesChain.sol\":4831:4871  pendingRequests[msg.sender][_clinicHash] */\n      dup2\n      mstore\n      0x20\n      add\n      swap1\n      dup2\n      mstore\n      0x20\n      add\n      0x00\n      keccak256\n        /* \"HermesChain.sol\":4831:4878  pendingRequests[msg.sender][_clinicHash].status */\n      0x03\n      add\n      0x14\n        /* \"HermesChain.sol\":4831:4896  pendingRequests[msg.sender][_clinicHash].status = Status.Rejected */\n      0x0100\n      exp\n      dup2\n      sload\n      dup2\n      0xff\n      mul\n      not\n      and\n      swap1\n      dup4\n      0x02\n      dup2\n      gt\n      iszero\n      tag_152\n      jumpi\n      tag_153\n      tag_71\n      jump\t// in\n    tag_153:\n    tag_152:\n      mul\n      or\n      swap1\n      sstore\n      pop\n        /* \"HermesChain.sol\":4703:4908  if(approveReject){\r... */\n    tag_151:\n        /* \"HermesChain.sol\":4918:4945  archiveInvoice(_clinicHash) */\n      tag_154\n        /* \"HermesChain.sol\":4933:4944  _clinicHash */\n      dup3\n        /* \"HermesChain.sol\":4918:4932  archiveInvoice */\n      tag_155\n        /* \"HermesChain.sol\":4918:4945  archiveInvoice(_clinicHash) */\n      jump\t// in\n    tag_154:\n        /* \"HermesChain.sol\":4394:4953  function approveInvoice(bytes32 _clinicHash, bool approveReject) public onlyPatient{\r... */\n      pop\n      pop\n      jump\t// out\n        /* \"@openzeppelin/contracts/access/Ownable.sol\":1918:2116  function transferOwnership(address newOwner) public virtual onlyOwner {... */\n    tag_61:\n        /* \"@openzeppelin/contracts/access/Ownable.sol\":1259:1271  _msgSender() */\n      tag_157\n        /* \"@openzeppelin/contracts/access/Ownable.sol\":1259:1269  _msgSender */\n      tag_97\n        /* \"@openzeppelin/contracts/access/Ownable.sol\":1259:1271  _msgSender() */\n      jump\t// in\n    tag_157:\n        /* \"@openzeppelin/contracts/access/Ownable.sol\":1248:1271  owner() == _msgSender() */\n      0xffffffffffffffffffffffffffffffffffffffff\n      and\n        /* \"@openzeppelin/contracts/access/Ownable.sol\":1248:1255  owner() */\n      tag_158\n        /* \"@openzeppelin/contracts/access/Ownable.sol\":1248:1253  owner */\n      tag_42\n        /* \"@openzeppelin/contracts/access/Ownable.sol\":1248:1255  owner() */\n      jump\t// in\n    tag_158:\n        /* \"@openzeppelin/contracts/access/Ownable.sol\":1248:1271  owner() == _msgSender() */\n      0xffffffffffffffffffffffffffffffffffffffff\n      and\n      eq\n        /* \"@openzeppelin/contracts/access/Ownable.sol\":1240:1308  require(owner() == _msgSender(), \"Ownable: caller is not the owner\") */\n      tag_159\n      jumpi\n      mload(0x40)\n      0x08c379a000000000000000000000000000000000000000000000000000000000\n      dup2\n      mstore\n      0x04\n      add\n      tag_160\n      swap1\n      tag_101\n      jump\t// in\n    tag_160:\n      mload(0x40)\n      dup1\n      swap2\n      sub\n      swap1\n      revert\n    tag_159:\n        /* \"@openzeppelin/contracts/access/Ownable.sol\":2026:2027  0 */\n      0x00\n        /* \"@openzeppelin/contracts/access/Ownable.sol\":2006:2028  newOwner != address(0) */\n      0xffffffffffffffffffffffffffffffffffffffff\n      and\n        /* \"@openzeppelin/contracts/access/Ownable.sol\":2006:2014  newOwner */\n      dup2\n        /* \"@openzeppelin/contracts/access/Ownable.sol\":2006:2028  newOwner != address(0) */\n      0xffffffffffffffffffffffffffffffffffffffff\n      and\n      eq\n      iszero\n        /* \"@openzeppelin/contracts/access/Ownable.sol\":1998:2071  require(newOwner != address(0), \"Ownable: new owner is the zero address\") */\n      tag_162\n      jumpi\n      mload(0x40)\n      0x08c379a000000000000000000000000000000000000000000000000000000000\n      dup2\n      mstore\n      0x04\n      add\n      tag_163\n      swap1\n      tag_164\n      jump\t// in\n    tag_163:\n      mload(0x40)\n      dup1\n      swap2\n      sub\n      swap1\n      revert\n    tag_162:\n        /* \"@openzeppelin/contracts/access/Ownable.sol\":2081:2109  _transferOwnership(newOwner) */\n      tag_165\n        /* \"@openzeppelin/contracts/access/Ownable.sol\":2100:2108  newOwner */\n      dup2\n        /* \"@openzeppelin/contracts/access/Ownable.sol\":2081:2099  _transferOwnership */\n      tag_113\n        /* \"@openzeppelin/contracts/access/Ownable.sol\":2081:2109  _transferOwnership(newOwner) */\n      jump\t// in\n    tag_165:\n        /* \"@openzeppelin/contracts/access/Ownable.sol\":1918:2116  function transferOwnership(address newOwner) public virtual onlyOwner {... */\n      pop\n      jump\t// out\n        /* \"@openzeppelin/contracts/utils/Context.sol\":640:736  function _msgSender() internal view virtual returns (address) {... */\n    tag_97:\n        /* \"@openzeppelin/contracts/utils/Context.sol\":693:700  address */\n      0x00\n        /* \"@openzeppelin/contracts/utils/Context.sol\":719:729  msg.sender */\n      caller\n        /* \"@openzeppelin/contracts/utils/Context.sol\":712:729  return msg.sender */\n      swap1\n      pop\n        /* \"@openzeppelin/contracts/utils/Context.sol\":640:736  function _msgSender() internal view virtual returns (address) {... */\n      swap1\n      jump\t// out\n        /* \"@openzeppelin/contracts/access/Ownable.sol\":2270:2457  function _transferOwnership(address newOwner) internal virtual {... */\n    tag_113:\n        /* \"@openzeppelin/contracts/access/Ownable.sol\":2343:2359  address oldOwner */\n      0x00\n        /* \"@openzeppelin/contracts/access/Ownable.sol\":2362:2368  _owner */\n      dup1\n      0x00\n      swap1\n      sload\n      swap1\n      0x0100\n      exp\n      swap1\n      div\n      0xffffffffffffffffffffffffffffffffffffffff\n      and\n        /* \"@openzeppelin/contracts/access/Ownable.sol\":2343:2368  address oldOwner = _owner */\n      swap1\n      pop\n        /* \"@openzeppelin/contracts/access/Ownable.sol\":2387:2395  newOwner */\n      dup2\n        /* \"@openzeppelin/contracts/access/Ownable.sol\":2378:2384  _owner */\n      0x00\n      dup1\n        /* \"@openzeppelin/contracts/access/Ownable.sol\":2378:2395  _owner = newOwner */\n      0x0100\n      exp\n      dup2\n      sload\n      dup2\n      0xffffffffffffffffffffffffffffffffffffffff\n      mul\n      not\n      and\n      swap1\n      dup4\n      0xffffffffffffffffffffffffffffffffffffffff\n      and\n      mul\n      or\n      swap1\n      sstore\n      pop\n        /* \"@openzeppelin/contracts/access/Ownable.sol\":2441:2449  newOwner */\n      dup2\n        /* \"@openzeppelin/contracts/access/Ownable.sol\":2410:2450  OwnershipTransferred(oldOwner, newOwner) */\n      0xffffffffffffffffffffffffffffffffffffffff\n      and\n        /* \"@openzeppelin/contracts/access/Ownable.sol\":2431:2439  oldOwner */\n      dup2\n        /* \"@openzeppelin/contracts/access/Ownable.sol\":2410:2450  OwnershipTransferred(oldOwner, newOwner) */\n      0xffffffffffffffffffffffffffffffffffffffff\n      and\n      0x8be0079c531659141344cd1fd0a4f28419497f9722a3daafe3b4186f6b6457e0\n      mload(0x40)\n      mload(0x40)\n      dup1\n      swap2\n      sub\n      swap1\n      log3\n        /* \"@openzeppelin/contracts/access/Ownable.sol\":2333:2457  {... */\n      pop\n        /* \"@openzeppelin/contracts/access/Ownable.sol\":2270:2457  function _transferOwnership(address newOwner) internal virtual {... */\n      pop\n      jump\t// out\n        /* \"HermesChain.sol\":4961:5558  function archiveInvoice(bytes32 _clinicHash) internal {\r... */\n    tag_155:\n        /* \"HermesChain.sol\":5068:5087  patientPastInvoices */\n      0x05\n        /* \"HermesChain.sol\":5068:5099  patientPastInvoices[msg.sender] */\n      0x00\n        /* \"HermesChain.sol\":5088:5098  msg.sender */\n      caller\n        /* \"HermesChain.sol\":5068:5099  patientPastInvoices[msg.sender] */\n      0xffffffffffffffffffffffffffffffffffffffff\n      and\n      0xffffffffffffffffffffffffffffffffffffffff\n      and\n      dup2\n      mstore\n      0x20\n      add\n      swap1\n      dup2\n      mstore\n      0x20\n      add\n      0x00\n      keccak256\n        /* \"HermesChain.sol\":5105:5120  pendingRequests */\n      0x07\n        /* \"HermesChain.sol\":5105:5132  pendingRequests[msg.sender] */\n      0x00\n        /* \"HermesChain.sol\":5121:5131  msg.sender */\n      caller\n        /* \"HermesChain.sol\":5105:5132  pendingRequests[msg.sender] */\n      0xffffffffffffffffffffffffffffffffffffffff\n      and\n      0xffffffffffffffffffffffffffffffffffffffff\n      and\n      dup2\n      mstore\n      0x20\n      add\n      swap1\n      dup2\n      mstore\n      0x20\n      add\n      0x00\n      keccak256\n        /* \"HermesChain.sol\":5105:5145  pendingRequests[msg.sender][_clinicHash] */\n      0x00\n        /* \"HermesChain.sol\":5133:5144  _clinicHash */\n      dup4\n        /* \"HermesChain.sol\":5105:5145  pendingRequests[msg.sender][_clinicHash] */\n      dup2\n      mstore\n      0x20\n      add\n      swap1\n      dup2\n      mstore\n      0x20\n      add\n      0x00\n      keccak256\n        /* \"HermesChain.sol\":5068:5146  patientPastInvoices[msg.sender].push(pendingRequests[msg.sender][_clinicHash]) */\n      swap1\n      dup1\n      0x01\n      dup2\n      sload\n      add\n      dup1\n      dup3\n      sstore\n      dup1\n      swap2\n      pop\n      pop\n      0x01\n      swap1\n      sub\n      swap1\n      0x00\n      mstore\n      keccak256(0x00, 0x20)\n      swap1\n      0x04\n      mul\n      add\n      0x00\n      swap1\n      swap2\n      swap1\n      swap2\n      swap1\n      swap2\n      pop\n      0x00\n      dup3\n      add\n      sload\n      dup2\n      0x00\n      add\n      sstore\n      0x01\n      dup3\n      add\n      sload\n      dup2\n      0x01\n      add\n      sstore\n      0x02\n      dup3\n      add\n      sload\n      dup2\n      0x02\n      add\n      sstore\n      0x03\n      dup3\n      add\n      0x00\n      swap1\n      sload\n      swap1\n      0x0100\n      exp\n      swap1\n      div\n      0xffffffffffffffffffffffffffffffffffffffff\n      and\n      dup2\n      0x03\n      add\n      exp(0x0100, 0x00)\n      dup2\n      sload\n      dup2\n      0xffffffffffffffffffffffffffffffffffffffff\n      mul\n      not\n      and\n      swap1\n      dup4\n      0xffffffffffffffffffffffffffffffffffffffff\n      and\n      mul\n      or\n      swap1\n      sstore\n      pop\n      0x03\n      dup3\n      add\n      0x14\n      swap1\n      sload\n      swap1\n      0x0100\n      exp\n      swap1\n      div\n      0xff\n      and\n      dup2\n      0x03\n      add\n      exp(0x0100, 0x14)\n      dup2\n      sload\n      dup2\n      0xff\n      mul\n      not\n      and\n      swap1\n      dup4\n      0x02\n      dup2\n      gt\n      iszero\n      tag_170\n      jumpi\n      tag_171\n      tag_71\n      jump\t// in\n    tag_171:\n    tag_170:\n      mul\n      or\n      swap1\n      sstore\n      pop\n      pop\n      pop\n        /* \"HermesChain.sol\":5265:5280  pendingRequests */\n      0x07\n        /* \"HermesChain.sol\":5265:5292  pendingRequests[msg.sender] */\n      0x00\n        /* \"HermesChain.sol\":5281:5291  msg.sender */\n      caller\n        /* \"HermesChain.sol\":5265:5292  pendingRequests[msg.sender] */\n      0xffffffffffffffffffffffffffffffffffffffff\n      and\n      0xffffffffffffffffffffffffffffffffffffffff\n      and\n      dup2\n      mstore\n      0x20\n      add\n      swap1\n      dup2\n      mstore\n      0x20\n      add\n      0x00\n      keccak256\n        /* \"HermesChain.sol\":5265:5305  pendingRequests[msg.sender][_clinicHash] */\n      0x00\n        /* \"HermesChain.sol\":5293:5304  _clinicHash */\n      dup3\n        /* \"HermesChain.sol\":5265:5305  pendingRequests[msg.sender][_clinicHash] */\n      dup2\n      mstore\n      0x20\n      add\n      swap1\n      dup2\n      mstore\n      0x20\n      add\n      0x00\n      keccak256\n        /* \"HermesChain.sol\":5192:5210  invoiceRecordsById */\n      0x06\n        /* \"HermesChain.sol\":5192:5262  invoiceRecordsById[pendingRequests[msg.sender][_clinicHash].invoiceId] */\n      0x00\n        /* \"HermesChain.sol\":5211:5226  pendingRequests */\n      0x07\n        /* \"HermesChain.sol\":5211:5238  pendingRequests[msg.sender] */\n      0x00\n        /* \"HermesChain.sol\":5227:5237  msg.sender */\n      caller\n        /* \"HermesChain.sol\":5211:5238  pendingRequests[msg.sender] */\n      0xffffffffffffffffffffffffffffffffffffffff\n      and\n      0xffffffffffffffffffffffffffffffffffffffff\n      and\n      dup2\n      mstore\n      0x20\n      add\n      swap1\n      dup2\n      mstore\n      0x20\n      add\n      0x00\n      keccak256\n        /* \"HermesChain.sol\":5211:5251  pendingRequests[msg.sender][_clinicHash] */\n      0x00\n        /* \"HermesChain.sol\":5239:5250  _clinicHash */\n      dup6\n        /* \"HermesChain.sol\":5211:5251  pendingRequests[msg.sender][_clinicHash] */\n      dup2\n      mstore\n      0x20\n      add\n      swap1\n      dup2\n      mstore\n      0x20\n      add\n      0x00\n      keccak256\n        /* \"HermesChain.sol\":5211:5261  pendingRequests[msg.sender][_clinicHash].invoiceId */\n      0x00\n      add\n      sload\n        /* \"HermesChain.sol\":5192:5262  invoiceRecordsById[pendingRequests[msg.sender][_clinicHash].invoiceId] */\n      dup2\n      mstore\n      0x20\n      add\n      swap1\n      dup2\n      mstore\n      0x20\n      add\n      0x00\n      keccak256\n        /* \"HermesChain.sol\":5192:5305  invoiceRecordsById[pendingRequests[msg.sender][_clinicHash].invoiceId] = pendingRequests[msg.sender][_clinicHash] */\n      0x00\n      dup3\n      add\n      sload\n      dup2\n      0x00\n      add\n      sstore\n      0x01\n      dup3\n      add\n      sload\n      dup2\n      0x01\n      add\n      sstore\n      0x02\n      dup3\n      add\n      sload\n      dup2\n      0x02\n      add\n      sstore\n      0x03\n      dup3\n      add\n      0x00\n      swap1\n      sload\n      swap1\n      0x0100\n      exp\n      swap1\n      div\n      0xffffffffffffffffffffffffffffffffffffffff\n      and\n      dup2\n      0x03\n      add\n      exp(0x0100, 0x00)\n      dup2\n      sload\n      dup2\n      0xffffffffffffffffffffffffffffffffffffffff\n      mul\n      not\n      and\n      swap1\n      dup4\n      0xffffffffffffffffffffffffffffffffffffffff\n      and\n      mul\n      or\n      swap1\n      sstore\n      pop\n      0x03\n      dup3\n      add\n      0x14\n      swap1\n      sload\n      swap1\n      0x0100\n      exp\n      swap1\n      div\n      0xff\n      and\n      dup2\n      0x03\n      add\n      exp(0x0100, 0x14)\n      dup2\n      sload\n      dup2\n      0xff\n      mul\n      not\n      and\n      swap1\n      dup4\n      0x02\n      dup2\n      gt\n      iszero\n      tag_172\n      jumpi\n      tag_173\n      tag_71\n      jump\t// in\n    tag_173:\n    tag_172:\n      mul\n      or\n      swap1\n      sstore\n      pop\n      swap1\n      pop\n      pop\n        /* \"HermesChain.sol\":5397:5445  Invoice(0x0, 0x0, 0, address(0), Status.Pending) */\n      mload(0x40)\n      dup1\n      0xa0\n      add\n      0x40\n      mstore\n      dup1\n        /* \"HermesChain.sol\":5405:5408  0x0 */\n      0x00\n        /* \"HermesChain.sol\":5397:5445  Invoice(0x0, 0x0, 0, address(0), Status.Pending) */\n      dup1\n      shl\n      dup2\n      mstore\n      0x20\n      add\n        /* \"HermesChain.sol\":5410:5413  0x0 */\n      0x00\n        /* \"HermesChain.sol\":5397:5445  Invoice(0x0, 0x0, 0, address(0), Status.Pending) */\n      dup1\n      shl\n      dup2\n      mstore\n      0x20\n      add\n        /* \"HermesChain.sol\":5415:5416  0 */\n      0x00\n        /* \"HermesChain.sol\":5397:5445  Invoice(0x0, 0x0, 0, address(0), Status.Pending) */\n      dup2\n      mstore\n      0x20\n      add\n        /* \"HermesChain.sol\":5426:5427  0 */\n      0x00\n        /* \"HermesChain.sol\":5397:5445  Invoice(0x0, 0x0, 0, address(0), Status.Pending) */\n      0xffffffffffffffffffffffffffffffffffffffff\n      and\n      dup2\n      mstore\n      0x20\n      add\n        /* \"HermesChain.sol\":5430:5444  Status.Pending */\n      0x00\n        /* \"HermesChain.sol\":5397:5445  Invoice(0x0, 0x0, 0, address(0), Status.Pending) */\n      0x02\n      dup2\n      gt\n      iszero\n      tag_174\n      jumpi\n      tag_175\n      tag_71\n      jump\t// in\n    tag_175:\n    tag_174:\n      dup2\n      mstore\n      pop\n        /* \"HermesChain.sol\":5354:5369  pendingRequests */\n      0x07\n        /* \"HermesChain.sol\":5354:5381  pendingRequests[msg.sender] */\n      0x00\n        /* \"HermesChain.sol\":5370:5380  msg.sender */\n      caller\n        /* \"HermesChain.sol\":5354:5381  pendingRequests[msg.sender] */\n      0xffffffffffffffffffffffffffffffffffffffff\n      and\n      0xffffffffffffffffffffffffffffffffffffffff\n      and\n      dup2\n      mstore\n      0x20\n      add\n      swap1\n      dup2\n      mstore\n      0x20\n      add\n      0x00\n      keccak256\n        /* \"HermesChain.sol\":5354:5394  pendingRequests[msg.sender][_clinicHash] */\n      0x00\n        /* \"HermesChain.sol\":5382:5393  _clinicHash */\n      dup4\n        /* \"HermesChain.sol\":5354:5394  pendingRequests[msg.sender][_clinicHash] */\n      dup2\n      mstore\n      0x20\n      add\n      swap1\n      dup2\n      mstore\n      0x20\n      add\n      0x00\n      keccak256\n        /* \"HermesChain.sol\":5354:5445  pendingRequests[msg.sender][_clinicHash] = Invoice(0x0, 0x0, 0, address(0), Status.Pending) */\n      0x00\n      dup3\n      add\n      mload\n      dup2\n      0x00\n      add\n      sstore\n      0x20\n      dup3\n      add\n      mload\n      dup2\n      0x01\n      add\n      sstore\n      0x40\n      dup3\n      add\n      mload\n      dup2\n      0x02\n      add\n      sstore\n      0x60\n      dup3\n      add\n      mload\n      dup2\n      0x03\n      add\n      exp(0x0100, 0x00)\n      dup2\n      sload\n      dup2\n      0xffffffffffffffffffffffffffffffffffffffff\n      mul\n      not\n      and\n      swap1\n      dup4\n      0xffffffffffffffffffffffffffffffffffffffff\n      and\n      mul\n      or\n      swap1\n      sstore\n      pop\n      0x80\n      dup3\n      add\n      mload\n      dup2\n      0x03\n      add\n      exp(0x0100, 0x14)\n      dup2\n      sload\n      dup2\n      0xff\n      mul\n      not\n      and\n      swap1\n      dup4\n      0x02\n      dup2\n      gt\n      iszero\n      tag_176\n      jumpi\n      tag_177\n      tag_71\n      jump\t// in\n    tag_177:\n    tag_176:\n      mul\n      or\n      swap1\n      sstore\n      pop\n      swap1\n      pop\n      pop\n        /* \"HermesChain.sol\":5489:5500  _clinicHash */\n      dup1\n        /* \"HermesChain.sol\":5477:5487  msg.sender */\n      caller\n        /* \"HermesChain.sol\":5461:5550  InvocieAccepted(msg.sender, _clinicHash, pendingRequests[msg.sender][_clinicHash].amount) */\n      0xffffffffffffffffffffffffffffffffffffffff\n      and\n      0x58e6b4bb20368f9a0b488a5727fff9b8795b7c85245c2a5d7ccbea5552fd2ca5\n        /* \"HermesChain.sol\":5502:5517  pendingRequests */\n      0x07\n        /* \"HermesChain.sol\":5502:5529  pendingRequests[msg.sender] */\n      0x00\n        /* \"HermesChain.sol\":5518:5528  msg.sender */\n      caller\n        /* \"HermesChain.sol\":5502:5529  pendingRequests[msg.sender] */\n      0xffffffffffffffffffffffffffffffffffffffff\n      and\n      0xffffffffffffffffffffffffffffffffffffffff\n      and\n      dup2\n      mstore\n      0x20\n      add\n      swap1\n      dup2\n      mstore\n      0x20\n      add\n      0x00\n      keccak256\n        /* \"HermesChain.sol\":5502:5542  pendingRequests[msg.sender][_clinicHash] */\n      0x00\n        /* \"HermesChain.sol\":5530:5541  _clinicHash */\n      dup6\n        /* \"HermesChain.sol\":5502:5542  pendingRequests[msg.sender][_clinicHash] */\n      dup2\n      mstore\n      0x20\n      add\n      swap1\n      dup2\n      mstore\n      0x20\n      add\n      0x00\n      keccak256\n        /* \"HermesChain.sol\":5502:5549  pendingRequests[msg.sender][_clinicHash].amount */\n      0x02\n      add\n      sload\n        /* \"HermesChain.sol\":5461:5550  InvocieAccepted(msg.sender, _clinicHash, pendingRequests[msg.sender][_clinicHash].amount) */\n      mload(0x40)\n      tag_178\n      swap2\n      swap1\n      tag_94\n      jump\t// in\n    tag_178:\n      mload(0x40)\n      dup1\n      swap2\n      sub\n      swap1\n      log3\n        /* \"HermesChain.sol\":4961:5558  function archiveInvoice(bytes32 _clinicHash) internal {\r... */\n      pop\n      jump\t// out\n    tag_63:\n      mload(0x40)\n      dup1\n      0xa0\n      add\n      0x40\n      mstore\n      dup1\n      0x00\n      dup1\n      not\n      and\n      dup2\n      mstore\n      0x20\n      add\n      0x00\n      dup1\n      not\n      and\n      dup2\n      mstore\n      0x20\n      add\n      0x00\n      dup2\n      mstore\n      0x20\n      add\n      and(0xffffffffffffffffffffffffffffffffffffffff, 0x00)\n      dup2\n      mstore\n      0x20\n      add\n      0x00\n      0x02\n      dup2\n      gt\n      iszero\n      tag_179\n      jumpi\n      tag_180\n      tag_71\n      jump\t// in\n    tag_180:\n    tag_179:\n      dup2\n      mstore\n      pop\n      swap1\n      jump\t// out\n        /* \"#utility.yul\":7:419   */\n    tag_182:\n        /* \"#utility.yul\":85:90   */\n      0x00\n        /* \"#utility.yul\":110:176   */\n      tag_184\n        /* \"#utility.yul\":126:175   */\n      tag_185\n        /* \"#utility.yul\":168:174   */\n      dup5\n        /* \"#utility.yul\":126:175   */\n      tag_186\n      jump\t// in\n    tag_185:\n        /* \"#utility.yul\":110:176   */\n      tag_187\n      jump\t// in\n    tag_184:\n        /* \"#utility.yul\":101:176   */\n      swap1\n      pop\n        /* \"#utility.yul\":199:205   */\n      dup3\n        /* \"#utility.yul\":192:197   */\n      dup2\n        /* \"#utility.yul\":185:206   */\n      mstore\n        /* \"#utility.yul\":237:241   */\n      0x20\n        /* \"#utility.yul\":230:235   */\n      dup2\n        /* \"#utility.yul\":226:242   */\n      add\n        /* \"#utility.yul\":275:278   */\n      dup5\n        /* \"#utility.yul\":266:272   */\n      dup5\n        /* \"#utility.yul\":261:264   */\n      dup5\n        /* \"#utility.yul\":257:273   */\n      add\n        /* \"#utility.yul\":254:279   */\n      gt\n        /* \"#utility.yul\":251:363   */\n      iszero\n      tag_188\n      jumpi\n        /* \"#utility.yul\":282:361   */\n      tag_189\n      tag_190\n      jump\t// in\n    tag_189:\n        /* \"#utility.yul\":251:363   */\n    tag_188:\n        /* \"#utility.yul\":372:413   */\n      tag_191\n        /* \"#utility.yul\":406:412   */\n      dup5\n        /* \"#utility.yul\":401:404   */\n      dup3\n        /* \"#utility.yul\":396:399   */\n      dup6\n        /* \"#utility.yul\":372:413   */\n      tag_192\n      jump\t// in\n    tag_191:\n        /* \"#utility.yul\":91:419   */\n      pop\n        /* \"#utility.yul\":7:419   */\n      swap4\n      swap3\n      pop\n      pop\n      pop\n      jump\t// out\n        /* \"#utility.yul\":425:564   */\n    tag_193:\n        /* \"#utility.yul\":471:476   */\n      0x00\n        /* \"#utility.yul\":509:515   */\n      dup2\n        /* \"#utility.yul\":496:516   */\n      calldataload\n        /* \"#utility.yul\":487:516   */\n      swap1\n      pop\n        /* \"#utility.yul\":525:558   */\n      tag_195\n        /* \"#utility.yul\":552:557   */\n      dup2\n        /* \"#utility.yul\":525:558   */\n      tag_196\n      jump\t// in\n    tag_195:\n        /* \"#utility.yul\":425:564   */\n      swap3\n      swap2\n      pop\n      pop\n      jump\t// out\n        /* \"#utility.yul\":570:703   */\n    tag_197:\n        /* \"#utility.yul\":613:618   */\n      0x00\n        /* \"#utility.yul\":651:657   */\n      dup2\n        /* \"#utility.yul\":638:658   */\n      calldataload\n        /* \"#utility.yul\":629:658   */\n      swap1\n      pop\n        /* \"#utility.yul\":667:697   */\n      tag_199\n        /* \"#utility.yul\":691:696   */\n      dup2\n        /* \"#utility.yul\":667:697   */\n      tag_200\n      jump\t// in\n    tag_199:\n        /* \"#utility.yul\":570:703   */\n      swap3\n      swap2\n      pop\n      pop\n      jump\t// out\n        /* \"#utility.yul\":709:848   */\n    tag_201:\n        /* \"#utility.yul\":755:760   */\n      0x00\n        /* \"#utility.yul\":793:799   */\n      dup2\n        /* \"#utility.yul\":780:800   */\n      calldataload\n        /* \"#utility.yul\":771:800   */\n      swap1\n      pop\n        /* \"#utility.yul\":809:842   */\n      tag_203\n        /* \"#utility.yul\":836:841   */\n      dup2\n        /* \"#utility.yul\":809:842   */\n      tag_204\n      jump\t// in\n    tag_203:\n        /* \"#utility.yul\":709:848   */\n      swap3\n      swap2\n      pop\n      pop\n      jump\t// out\n        /* \"#utility.yul\":868:1208   */\n    tag_205:\n        /* \"#utility.yul\":924:929   */\n      0x00\n        /* \"#utility.yul\":973:976   */\n      dup3\n        /* \"#utility.yul\":966:970   */\n      0x1f\n        /* \"#utility.yul\":958:964   */\n      dup4\n        /* \"#utility.yul\":954:971   */\n      add\n        /* \"#utility.yul\":950:977   */\n      slt\n        /* \"#utility.yul\":940:1062   */\n      tag_207\n      jumpi\n        /* \"#utility.yul\":981:1060   */\n      tag_208\n      tag_209\n      jump\t// in\n    tag_208:\n        /* \"#utility.yul\":940:1062   */\n    tag_207:\n        /* \"#utility.yul\":1098:1104   */\n      dup2\n        /* \"#utility.yul\":1085:1105   */\n      calldataload\n        /* \"#utility.yul\":1123:1202   */\n      tag_210\n        /* \"#utility.yul\":1198:1201   */\n      dup5\n        /* \"#utility.yul\":1190:1196   */\n      dup3\n        /* \"#utility.yul\":1183:1187   */\n      0x20\n        /* \"#utility.yul\":1175:1181   */\n      dup7\n        /* \"#utility.yul\":1171:1188   */\n      add\n        /* \"#utility.yul\":1123:1202   */\n      tag_182\n      jump\t// in\n    tag_210:\n        /* \"#utility.yul\":1114:1202   */\n      swap2\n      pop\n        /* \"#utility.yul\":930:1208   */\n      pop\n        /* \"#utility.yul\":868:1208   */\n      swap3\n      swap2\n      pop\n      pop\n      jump\t// out\n        /* \"#utility.yul\":1214:1353   */\n    tag_211:\n        /* \"#utility.yul\":1260:1265   */\n      0x00\n        /* \"#utility.yul\":1298:1304   */\n      dup2\n        /* \"#utility.yul\":1285:1305   */\n      calldataload\n        /* \"#utility.yul\":1276:1305   */\n      swap1\n      pop\n        /* \"#utility.yul\":1314:1347   */\n      tag_213\n        /* \"#utility.yul\":1341:1346   */\n      dup2\n        /* \"#utility.yul\":1314:1347   */\n      tag_214\n      jump\t// in\n    tag_213:\n        /* \"#utility.yul\":1214:1353   */\n      swap3\n      swap2\n      pop\n      pop\n      jump\t// out\n        /* \"#utility.yul\":1359:1688   */\n    tag_60:\n        /* \"#utility.yul\":1418:1424   */\n      0x00\n        /* \"#utility.yul\":1467:1469   */\n      0x20\n        /* \"#utility.yul\":1455:1464   */\n      dup3\n        /* \"#utility.yul\":1446:1453   */\n      dup5\n        /* \"#utility.yul\":1442:1465   */\n      sub\n        /* \"#utility.yul\":1438:1470   */\n      slt\n        /* \"#utility.yul\":1435:1554   */\n      iszero\n      tag_216\n      jumpi\n        /* \"#utility.yul\":1473:1552   */\n      tag_217\n      tag_218\n      jump\t// in\n    tag_217:\n        /* \"#utility.yul\":1435:1554   */\n    tag_216:\n        /* \"#utility.yul\":1593:1594   */\n      0x00\n        /* \"#utility.yul\":1618:1671   */\n      tag_219\n        /* \"#utility.yul\":1663:1670   */\n      dup5\n        /* \"#utility.yul\":1654:1660   */\n      dup3\n        /* \"#utility.yul\":1643:1652   */\n      dup6\n        /* \"#utility.yul\":1639:1661   */\n      add\n        /* \"#utility.yul\":1618:1671   */\n      tag_193\n      jump\t// in\n    tag_219:\n        /* \"#utility.yul\":1608:1671   */\n      swap2\n      pop\n        /* \"#utility.yul\":1564:1681   */\n      pop\n        /* \"#utility.yul\":1359:1688   */\n      swap3\n      swap2\n      pop\n      pop\n      jump\t// out\n        /* \"#utility.yul\":1694:2168   */\n    tag_39:\n        /* \"#utility.yul\":1762:1768   */\n      0x00\n        /* \"#utility.yul\":1770:1776   */\n      dup1\n        /* \"#utility.yul\":1819:1821   */\n      0x40\n        /* \"#utility.yul\":1807:1816   */\n      dup4\n        /* \"#utility.yul\":1798:1805   */\n      dup6\n        /* \"#utility.yul\":1794:1817   */\n      sub\n        /* \"#utility.yul\":1790:1822   */\n      slt\n        /* \"#utility.yul\":1787:1906   */\n      iszero\n      tag_221\n      jumpi\n        /* \"#utility.yul\":1825:1904   */\n      tag_222\n      tag_218\n      jump\t// in\n    tag_222:\n        /* \"#utility.yul\":1787:1906   */\n    tag_221:\n        /* \"#utility.yul\":1945:1946   */\n      0x00\n        /* \"#utility.yul\":1970:2023   */\n      tag_223\n        /* \"#utility.yul\":2015:2022   */\n      dup6\n        /* \"#utility.yul\":2006:2012   */\n      dup3\n        /* \"#utility.yul\":1995:2004   */\n      dup7\n        /* \"#utility.yul\":1991:2013   */\n      add\n        /* \"#utility.yul\":1970:2023   */\n      tag_193\n      jump\t// in\n    tag_223:\n        /* \"#utility.yul\":1960:2023   */\n      swap3\n      pop\n        /* \"#utility.yul\":1916:2033   */\n      pop\n        /* \"#utility.yul\":2072:2074   */\n      0x20\n        /* \"#utility.yul\":2098:2151   */\n      tag_224\n        /* \"#utility.yul\":2143:2150   */\n      dup6\n        /* \"#utility.yul\":2134:2140   */\n      dup3\n        /* \"#utility.yul\":2123:2132   */\n      dup7\n        /* \"#utility.yul\":2119:2141   */\n      add\n        /* \"#utility.yul\":2098:2151   */\n      tag_201\n      jump\t// in\n    tag_224:\n        /* \"#utility.yul\":2088:2151   */\n      swap2\n      pop\n        /* \"#utility.yul\":2043:2161   */\n      pop\n        /* \"#utility.yul\":1694:2168   */\n      swap3\n      pop\n      swap3\n      swap1\n      pop\n      jump\t// out\n        /* \"#utility.yul\":2174:2648   */\n    tag_17:\n        /* \"#utility.yul\":2242:2248   */\n      0x00\n        /* \"#utility.yul\":2250:2256   */\n      dup1\n        /* \"#utility.yul\":2299:2301   */\n      0x40\n        /* \"#utility.yul\":2287:2296   */\n      dup4\n        /* \"#utility.yul\":2278:2285   */\n      dup6\n        /* \"#utility.yul\":2274:2297   */\n      sub\n        /* \"#utility.yul\":2270:2302   */\n      slt\n        /* \"#utility.yul\":2267:2386   */\n      iszero\n      tag_226\n      jumpi\n        /* \"#utility.yul\":2305:2384   */\n      tag_227\n      tag_218\n      jump\t// in\n    tag_227:\n        /* \"#utility.yul\":2267:2386   */\n    tag_226:\n        /* \"#utility.yul\":2425:2426   */\n      0x00\n        /* \"#utility.yul\":2450:2503   */\n      tag_228\n        /* \"#utility.yul\":2495:2502   */\n      dup6\n        /* \"#utility.yul\":2486:2492   */\n      dup3\n        /* \"#utility.yul\":2475:2484   */\n      dup7\n        /* \"#utility.yul\":2471:2493   */\n      add\n        /* \"#utility.yul\":2450:2503   */\n      tag_193\n      jump\t// in\n    tag_228:\n        /* \"#utility.yul\":2440:2503   */\n      swap3\n      pop\n        /* \"#utility.yul\":2396:2513   */\n      pop\n        /* \"#utility.yul\":2552:2554   */\n      0x20\n        /* \"#utility.yul\":2578:2631   */\n      tag_229\n        /* \"#utility.yul\":2623:2630   */\n      dup6\n        /* \"#utility.yul\":2614:2620   */\n      dup3\n        /* \"#utility.yul\":2603:2612   */\n      dup7\n        /* \"#utility.yul\":2599:2621   */\n      add\n        /* \"#utility.yul\":2578:2631   */\n      tag_211\n      jump\t// in\n    tag_229:\n        /* \"#utility.yul\":2568:2631   */\n      swap2\n      pop\n        /* \"#utility.yul\":2523:2641   */\n      pop\n        /* \"#utility.yul\":2174:2648   */\n      swap3\n      pop\n      swap3\n      swap1\n      pop\n      jump\t// out\n        /* \"#utility.yul\":2654:3273   */\n    tag_23:\n        /* \"#utility.yul\":2731:2737   */\n      0x00\n        /* \"#utility.yul\":2739:2745   */\n      dup1\n        /* \"#utility.yul\":2747:2753   */\n      0x00\n        /* \"#utility.yul\":2796:2798   */\n      0x60\n        /* \"#utility.yul\":2784:2793   */\n      dup5\n        /* \"#utility.yul\":2775:2782   */\n      dup7\n        /* \"#utility.yul\":2771:2794   */\n      sub\n        /* \"#utility.yul\":2767:2799   */\n      slt\n        /* \"#utility.yul\":2764:2883   */\n      iszero\n      tag_231\n      jumpi\n        /* \"#utility.yul\":2802:2881   */\n      tag_232\n      tag_218\n      jump\t// in\n    tag_232:\n        /* \"#utility.yul\":2764:2883   */\n    tag_231:\n        /* \"#utility.yul\":2922:2923   */\n      0x00\n        /* \"#utility.yul\":2947:3000   */\n      tag_233\n        /* \"#utility.yul\":2992:2999   */\n      dup7\n        /* \"#utility.yul\":2983:2989   */\n      dup3\n        /* \"#utility.yul\":2972:2981   */\n      dup8\n        /* \"#utility.yul\":2968:2990   */\n      add\n        /* \"#utility.yul\":2947:3000   */\n      tag_193\n      jump\t// in\n    tag_233:\n        /* \"#utility.yul\":2937:3000   */\n      swap4\n      pop\n        /* \"#utility.yul\":2893:3010   */\n      pop\n        /* \"#utility.yul\":3049:3051   */\n      0x20\n        /* \"#utility.yul\":3075:3128   */\n      tag_234\n        /* \"#utility.yul\":3120:3127   */\n      dup7\n        /* \"#utility.yul\":3111:3117   */\n      dup3\n        /* \"#utility.yul\":3100:3109   */\n      dup8\n        /* \"#utility.yul\":3096:3118   */\n      add\n        /* \"#utility.yul\":3075:3128   */\n      tag_211\n      jump\t// in\n    tag_234:\n        /* \"#utility.yul\":3065:3128   */\n      swap3\n      pop\n        /* \"#utility.yul\":3020:3138   */\n      pop\n        /* \"#utility.yul\":3177:3179   */\n      0x40\n        /* \"#utility.yul\":3203:3256   */\n      tag_235\n        /* \"#utility.yul\":3248:3255   */\n      dup7\n        /* \"#utility.yul\":3239:3245   */\n      dup3\n        /* \"#utility.yul\":3228:3237   */\n      dup8\n        /* \"#utility.yul\":3224:3246   */\n      add\n        /* \"#utility.yul\":3203:3256   */\n      tag_201\n      jump\t// in\n    tag_235:\n        /* \"#utility.yul\":3193:3256   */\n      swap2\n      pop\n        /* \"#utility.yul\":3148:3266   */\n      pop\n        /* \"#utility.yul\":2654:3273   */\n      swap3\n      pop\n      swap3\n      pop\n      swap3\n      jump\t// out\n        /* \"#utility.yul\":3279:3608   */\n    tag_51:\n        /* \"#utility.yul\":3338:3344   */\n      0x00\n        /* \"#utility.yul\":3387:3389   */\n      0x20\n        /* \"#utility.yul\":3375:3384   */\n      dup3\n        /* \"#utility.yul\":3366:3373   */\n      dup5\n        /* \"#utility.yul\":3362:3385   */\n      sub\n        /* \"#utility.yul\":3358:3390   */\n      slt\n        /* \"#utility.yul\":3355:3474   */\n      iszero\n      tag_237\n      jumpi\n        /* \"#utility.yul\":3393:3472   */\n      tag_238\n      tag_218\n      jump\t// in\n    tag_238:\n        /* \"#utility.yul\":3355:3474   */\n    tag_237:\n        /* \"#utility.yul\":3513:3514   */\n      0x00\n        /* \"#utility.yul\":3538:3591   */\n      tag_239\n        /* \"#utility.yul\":3583:3590   */\n      dup5\n        /* \"#utility.yul\":3574:3580   */\n      dup3\n        /* \"#utility.yul\":3563:3572   */\n      dup6\n        /* \"#utility.yul\":3559:3581   */\n      add\n        /* \"#utility.yul\":3538:3591   */\n      tag_201\n      jump\t// in\n    tag_239:\n        /* \"#utility.yul\":3528:3591   */\n      swap2\n      pop\n        /* \"#utility.yul\":3484:3601   */\n      pop\n        /* \"#utility.yul\":3279:3608   */\n      swap3\n      swap2\n      pop\n      pop\n      jump\t// out\n        /* \"#utility.yul\":3614:4088   */\n    tag_47:\n        /* \"#utility.yul\":3682:3688   */\n      0x00\n        /* \"#utility.yul\":3690:3696   */\n      dup1\n        /* \"#utility.yul\":3739:3741   */\n      0x40\n        /* \"#utility.yul\":3727:3736   */\n      dup4\n        /* \"#utility.yul\":3718:3725   */\n      dup6\n        /* \"#utility.yul\":3714:3737   */\n      sub\n        /* \"#utility.yul\":3710:3742   */\n      slt\n        /* \"#utility.yul\":3707:3826   */\n      iszero\n      tag_241\n      jumpi\n        /* \"#utility.yul\":3745:3824   */\n      tag_242\n      tag_218\n      jump\t// in\n    tag_242:\n        /* \"#utility.yul\":3707:3826   */\n    tag_241:\n        /* \"#utility.yul\":3865:3866   */\n      0x00\n        /* \"#utility.yul\":3890:3943   */\n      tag_243\n        /* \"#utility.yul\":3935:3942   */\n      dup6\n        /* \"#utility.yul\":3926:3932   */\n      dup3\n        /* \"#utility.yul\":3915:3924   */\n      dup7\n        /* \"#utility.yul\":3911:3933   */\n      add\n        /* \"#utility.yul\":3890:3943   */\n      tag_201\n      jump\t// in\n    tag_243:\n        /* \"#utility.yul\":3880:3943   */\n      swap3\n      pop\n        /* \"#utility.yul\":3836:3953   */\n      pop\n        /* \"#utility.yul\":3992:3994   */\n      0x20\n        /* \"#utility.yul\":4018:4071   */\n      tag_244\n        /* \"#utility.yul\":4063:4070   */\n      dup6\n        /* \"#utility.yul\":4054:4060   */\n      dup3\n        /* \"#utility.yul\":4043:4052   */\n      dup7\n        /* \"#utility.yul\":4039:4061   */\n      add\n        /* \"#utility.yul\":4018:4071   */\n      tag_193\n      jump\t// in\n    tag_244:\n        /* \"#utility.yul\":4008:4071   */\n      swap2\n      pop\n        /* \"#utility.yul\":3963:4081   */\n      pop\n        /* \"#utility.yul\":3614:4088   */\n      swap3\n      pop\n      swap3\n      swap1\n      pop\n      jump\t// out\n        /* \"#utility.yul\":4094:4562   */\n    tag_56:\n        /* \"#utility.yul\":4159:4165   */\n      0x00\n        /* \"#utility.yul\":4167:4173   */\n      dup1\n        /* \"#utility.yul\":4216:4218   */\n      0x40\n        /* \"#utility.yul\":4204:4213   */\n      dup4\n        /* \"#utility.yul\":4195:4202   */\n      dup6\n        /* \"#utility.yul\":4191:4214   */\n      sub\n        /* \"#utility.yul\":4187:4219   */\n      slt\n        /* \"#utility.yul\":4184:4303   */\n      iszero\n      tag_246\n      jumpi\n        /* \"#utility.yul\":4222:4301   */\n      tag_247\n      tag_218\n      jump\t// in\n    tag_247:\n        /* \"#utility.yul\":4184:4303   */\n    tag_246:\n        /* \"#utility.yul\":4342:4343   */\n      0x00\n        /* \"#utility.yul\":4367:4420   */\n      tag_248\n        /* \"#utility.yul\":4412:4419   */\n      dup6\n        /* \"#utility.yul\":4403:4409   */\n      dup3\n        /* \"#utility.yul\":4392:4401   */\n      dup7\n        /* \"#utility.yul\":4388:4410   */\n      add\n        /* \"#utility.yul\":4367:4420   */\n      tag_201\n      jump\t// in\n    tag_248:\n        /* \"#utility.yul\":4357:4420   */\n      swap3\n      pop\n        /* \"#utility.yul\":4313:4430   */\n      pop\n        /* \"#utility.yul\":4469:4471   */\n      0x20\n        /* \"#utility.yul\":4495:4545   */\n      tag_249\n        /* \"#utility.yul\":4537:4544   */\n      dup6\n        /* \"#utility.yul\":4528:4534   */\n      dup3\n        /* \"#utility.yul\":4517:4526   */\n      dup7\n        /* \"#utility.yul\":4513:4535   */\n      add\n        /* \"#utility.yul\":4495:4545   */\n      tag_197\n      jump\t// in\n    tag_249:\n        /* \"#utility.yul\":4485:4545   */\n      swap2\n      pop\n        /* \"#utility.yul\":4440:4555   */\n      pop\n        /* \"#utility.yul\":4094:4562   */\n      swap3\n      pop\n      swap3\n      swap1\n      pop\n      jump\t// out\n        /* \"#utility.yul\":4568:5042   */\n    tag_27:\n        /* \"#utility.yul\":4636:4642   */\n      0x00\n        /* \"#utility.yul\":4644:4650   */\n      dup1\n        /* \"#utility.yul\":4693:4695   */\n      0x40\n        /* \"#utility.yul\":4681:4690   */\n      dup4\n        /* \"#utility.yul\":4672:4679   */\n      dup6\n        /* \"#utility.yul\":4668:4691   */\n      sub\n        /* \"#utility.yul\":4664:4696   */\n      slt\n        /* \"#utility.yul\":4661:4780   */\n      iszero\n      tag_251\n      jumpi\n        /* \"#utility.yul\":4699:4778   */\n      tag_252\n      tag_218\n      jump\t// in\n    tag_252:\n        /* \"#utility.yul\":4661:4780   */\n    tag_251:\n        /* \"#utility.yul\":4819:4820   */\n      0x00\n        /* \"#utility.yul\":4844:4897   */\n      tag_253\n        /* \"#utility.yul\":4889:4896   */\n      dup6\n        /* \"#utility.yul\":4880:4886   */\n      dup3\n        /* \"#utility.yul\":4869:4878   */\n      dup7\n        /* \"#utility.yul\":4865:4887   */\n      add\n        /* \"#utility.yul\":4844:4897   */\n      tag_201\n      jump\t// in\n    tag_253:\n        /* \"#utility.yul\":4834:4897   */\n      swap3\n      pop\n        /* \"#utility.yul\":4790:4907   */\n      pop\n        /* \"#utility.yul\":4946:4948   */\n      0x20\n        /* \"#utility.yul\":4972:5025   */\n      tag_254\n        /* \"#utility.yul\":5017:5024   */\n      dup6\n        /* \"#utility.yul\":5008:5014   */\n      dup3\n        /* \"#utility.yul\":4997:5006   */\n      dup7\n        /* \"#utility.yul\":4993:5015   */\n      add\n        /* \"#utility.yul\":4972:5025   */\n      tag_211\n      jump\t// in\n    tag_254:\n        /* \"#utility.yul\":4962:5025   */\n      swap2\n      pop\n        /* \"#utility.yul\":4917:5035   */\n      pop\n        /* \"#utility.yul\":4568:5042   */\n      swap3\n      pop\n      swap3\n      swap1\n      pop\n      jump\t// out\n        /* \"#utility.yul\":5048:5557   */\n    tag_31:\n        /* \"#utility.yul\":5117:5123   */\n      0x00\n        /* \"#utility.yul\":5166:5168   */\n      0x20\n        /* \"#utility.yul\":5154:5163   */\n      dup3\n        /* \"#utility.yul\":5145:5152   */\n      dup5\n        /* \"#utility.yul\":5141:5164   */\n      sub\n        /* \"#utility.yul\":5137:5169   */\n      slt\n        /* \"#utility.yul\":5134:5253   */\n      iszero\n      tag_256\n      jumpi\n        /* \"#utility.yul\":5172:5251   */\n      tag_257\n      tag_218\n      jump\t// in\n    tag_257:\n        /* \"#utility.yul\":5134:5253   */\n    tag_256:\n        /* \"#utility.yul\":5320:5321   */\n      0x00\n        /* \"#utility.yul\":5309:5318   */\n      dup3\n        /* \"#utility.yul\":5305:5322   */\n      add\n        /* \"#utility.yul\":5292:5323   */\n      calldataload\n        /* \"#utility.yul\":5350:5368   */\n      0xffffffffffffffff\n        /* \"#utility.yul\":5342:5348   */\n      dup2\n        /* \"#utility.yul\":5339:5369   */\n      gt\n        /* \"#utility.yul\":5336:5453   */\n      iszero\n      tag_258\n      jumpi\n        /* \"#utility.yul\":5372:5451   */\n      tag_259\n      tag_260\n      jump\t// in\n    tag_259:\n        /* \"#utility.yul\":5336:5453   */\n    tag_258:\n        /* \"#utility.yul\":5477:5540   */\n      tag_261\n        /* \"#utility.yul\":5532:5539   */\n      dup5\n        /* \"#utility.yul\":5523:5529   */\n      dup3\n        /* \"#utility.yul\":5512:5521   */\n      dup6\n        /* \"#utility.yul\":5508:5530   */\n      add\n        /* \"#utility.yul\":5477:5540   */\n      tag_205\n      jump\t// in\n    tag_261:\n        /* \"#utility.yul\":5467:5540   */\n      swap2\n      pop\n        /* \"#utility.yul\":5263:5550   */\n      pop\n        /* \"#utility.yul\":5048:5557   */\n      swap3\n      swap2\n      pop\n      pop\n      jump\t// out\n        /* \"#utility.yul\":5563:5671   */\n    tag_262:\n        /* \"#utility.yul\":5640:5664   */\n      tag_264\n        /* \"#utility.yul\":5658:5663   */\n      dup2\n        /* \"#utility.yul\":5640:5664   */\n      tag_265\n      jump\t// in\n    tag_264:\n        /* \"#utility.yul\":5635:5638   */\n      dup3\n        /* \"#utility.yul\":5628:5665   */\n      mstore\n        /* \"#utility.yul\":5563:5671   */\n      pop\n      pop\n      jump\t// out\n        /* \"#utility.yul\":5677:5795   */\n    tag_266:\n        /* \"#utility.yul\":5764:5788   */\n      tag_268\n        /* \"#utility.yul\":5782:5787   */\n      dup2\n        /* \"#utility.yul\":5764:5788   */\n      tag_265\n      jump\t// in\n    tag_268:\n        /* \"#utility.yul\":5759:5762   */\n      dup3\n        /* \"#utility.yul\":5752:5789   */\n      mstore\n        /* \"#utility.yul\":5677:5795   */\n      pop\n      pop\n      jump\t// out\n        /* \"#utility.yul\":5801:5958   */\n    tag_269:\n        /* \"#utility.yul\":5906:5951   */\n      tag_271\n        /* \"#utility.yul\":5926:5950   */\n      tag_272\n        /* \"#utility.yul\":5944:5949   */\n      dup3\n        /* \"#utility.yul\":5926:5950   */\n      tag_265\n      jump\t// in\n    tag_272:\n        /* \"#utility.yul\":5906:5951   */\n      tag_273\n      jump\t// in\n    tag_271:\n        /* \"#utility.yul\":5901:5904   */\n      dup3\n        /* \"#utility.yul\":5894:5952   */\n      mstore\n        /* \"#utility.yul\":5801:5958   */\n      pop\n      pop\n      jump\t// out\n        /* \"#utility.yul\":5964:6072   */\n    tag_274:\n        /* \"#utility.yul\":6041:6065   */\n      tag_276\n        /* \"#utility.yul\":6059:6064   */\n      dup2\n        /* \"#utility.yul\":6041:6065   */\n      tag_277\n      jump\t// in\n    tag_276:\n        /* \"#utility.yul\":6036:6039   */\n      dup3\n        /* \"#utility.yul\":6029:6066   */\n      mstore\n        /* \"#utility.yul\":5964:6072   */\n      pop\n      pop\n      jump\t// out\n        /* \"#utility.yul\":6078:6196   */\n    tag_278:\n        /* \"#utility.yul\":6165:6189   */\n      tag_280\n        /* \"#utility.yul\":6183:6188   */\n      dup2\n        /* \"#utility.yul\":6165:6189   */\n      tag_277\n      jump\t// in\n    tag_280:\n        /* \"#utility.yul\":6160:6163   */\n      dup3\n        /* \"#utility.yul\":6153:6190   */\n      mstore\n        /* \"#utility.yul\":6078:6196   */\n      pop\n      pop\n      jump\t// out\n        /* \"#utility.yul\":6202:6339   */\n    tag_281:\n        /* \"#utility.yul\":6287:6332   */\n      tag_283\n        /* \"#utility.yul\":6326:6331   */\n      dup2\n        /* \"#utility.yul\":6287:6332   */\n      tag_284\n      jump\t// in\n    tag_283:\n        /* \"#utility.yul\":6282:6285   */\n      dup3\n        /* \"#utility.yul\":6275:6333   */\n      mstore\n        /* \"#utility.yul\":6202:6339   */\n      pop\n      pop\n      jump\t// out\n        /* \"#utility.yul\":6345:6722   */\n    tag_285:\n        /* \"#utility.yul\":6451:6454   */\n      0x00\n        /* \"#utility.yul\":6479:6518   */\n      tag_287\n        /* \"#utility.yul\":6512:6517   */\n      dup3\n        /* \"#utility.yul\":6479:6518   */\n      tag_288\n      jump\t// in\n    tag_287:\n        /* \"#utility.yul\":6534:6623   */\n      tag_289\n        /* \"#utility.yul\":6616:6622   */\n      dup2\n        /* \"#utility.yul\":6611:6614   */\n      dup6\n        /* \"#utility.yul\":6534:6623   */\n      tag_290\n      jump\t// in\n    tag_289:\n        /* \"#utility.yul\":6527:6623   */\n      swap4\n      pop\n        /* \"#utility.yul\":6632:6684   */\n      tag_291\n        /* \"#utility.yul\":6677:6683   */\n      dup2\n        /* \"#utility.yul\":6672:6675   */\n      dup6\n        /* \"#utility.yul\":6665:6669   */\n      0x20\n        /* \"#utility.yul\":6658:6663   */\n      dup7\n        /* \"#utility.yul\":6654:6670   */\n      add\n        /* \"#utility.yul\":6632:6684   */\n      tag_292\n      jump\t// in\n    tag_291:\n        /* \"#utility.yul\":6709:6715   */\n      dup1\n        /* \"#utility.yul\":6704:6707   */\n      dup5\n        /* \"#utility.yul\":6700:6716   */\n      add\n        /* \"#utility.yul\":6693:6716   */\n      swap2\n      pop\n        /* \"#utility.yul\":6455:6722   */\n      pop\n        /* \"#utility.yul\":6345:6722   */\n      swap3\n      swap2\n      pop\n      pop\n      jump\t// out\n        /* \"#utility.yul\":6728:7094   */\n    tag_293:\n        /* \"#utility.yul\":6870:6873   */\n      0x00\n        /* \"#utility.yul\":6891:6958   */\n      tag_295\n        /* \"#utility.yul\":6955:6957   */\n      0x26\n        /* \"#utility.yul\":6950:6953   */\n      dup4\n        /* \"#utility.yul\":6891:6958   */\n      tag_296\n      jump\t// in\n    tag_295:\n        /* \"#utility.yul\":6884:6958   */\n      swap2\n      pop\n        /* \"#utility.yul\":6967:7060   */\n      tag_297\n        /* \"#utility.yul\":7056:7059   */\n      dup3\n        /* \"#utility.yul\":6967:7060   */\n      tag_298\n      jump\t// in\n    tag_297:\n        /* \"#utility.yul\":7085:7087   */\n      0x40\n        /* \"#utility.yul\":7080:7083   */\n      dup3\n        /* \"#utility.yul\":7076:7088   */\n      add\n        /* \"#utility.yul\":7069:7088   */\n      swap1\n      pop\n        /* \"#utility.yul\":6728:7094   */\n      swap2\n      swap1\n      pop\n      jump\t// out\n        /* \"#utility.yul\":7100:7466   */\n    tag_299:\n        /* \"#utility.yul\":7242:7245   */\n      0x00\n        /* \"#utility.yul\":7263:7330   */\n      tag_301\n        /* \"#utility.yul\":7327:7329   */\n      0x30\n        /* \"#utility.yul\":7322:7325   */\n      dup4\n        /* \"#utility.yul\":7263:7330   */\n      tag_296\n      jump\t// in\n    tag_301:\n        /* \"#utility.yul\":7256:7330   */\n      swap2\n      pop\n        /* \"#utility.yul\":7339:7432   */\n      tag_302\n        /* \"#utility.yul\":7428:7431   */\n      dup3\n        /* \"#utility.yul\":7339:7432   */\n      tag_303\n      jump\t// in\n    tag_302:\n        /* \"#utility.yul\":7457:7459   */\n      0x40\n        /* \"#utility.yul\":7452:7455   */\n      dup3\n        /* \"#utility.yul\":7448:7460   */\n      add\n        /* \"#utility.yul\":7441:7460   */\n      swap1\n      pop\n        /* \"#utility.yul\":7100:7466   */\n      swap2\n      swap1\n      pop\n      jump\t// out\n        /* \"#utility.yul\":7472:7838   */\n    tag_304:\n        /* \"#utility.yul\":7614:7617   */\n      0x00\n        /* \"#utility.yul\":7635:7702   */\n      tag_306\n        /* \"#utility.yul\":7699:7701   */\n      0x29\n        /* \"#utility.yul\":7694:7697   */\n      dup4\n        /* \"#utility.yul\":7635:7702   */\n      tag_296\n      jump\t// in\n    tag_306:\n        /* \"#utility.yul\":7628:7702   */\n      swap2\n      pop\n        /* \"#utility.yul\":7711:7804   */\n      tag_307\n        /* \"#utility.yul\":7800:7803   */\n      dup3\n        /* \"#utility.yul\":7711:7804   */\n      tag_308\n      jump\t// in\n    tag_307:\n        /* \"#utility.yul\":7829:7831   */\n      0x40\n        /* \"#utility.yul\":7824:7827   */\n      dup3\n        /* \"#utility.yul\":7820:7832   */\n      add\n        /* \"#utility.yul\":7813:7832   */\n      swap1\n      pop\n        /* \"#utility.yul\":7472:7838   */\n      swap2\n      swap1\n      pop\n      jump\t// out\n        /* \"#utility.yul\":7844:8210   */\n    tag_309:\n        /* \"#utility.yul\":7986:7989   */\n      0x00\n        /* \"#utility.yul\":8007:8074   */\n      tag_311\n        /* \"#utility.yul\":8071:8073   */\n      0x13\n        /* \"#utility.yul\":8066:8069   */\n      dup4\n        /* \"#utility.yul\":8007:8074   */\n      tag_296\n      jump\t// in\n    tag_311:\n        /* \"#utility.yul\":8000:8074   */\n      swap2\n      pop\n        /* \"#utility.yul\":8083:8176   */\n      tag_312\n        /* \"#utility.yul\":8172:8175   */\n      dup3\n        /* \"#utility.yul\":8083:8176   */\n      tag_313\n      jump\t// in\n    tag_312:\n        /* \"#utility.yul\":8201:8203   */\n      0x20\n        /* \"#utility.yul\":8196:8199   */\n      dup3\n        /* \"#utility.yul\":8192:8204   */\n      add\n        /* \"#utility.yul\":8185:8204   */\n      swap1\n      pop\n        /* \"#utility.yul\":7844:8210   */\n      swap2\n      swap1\n      pop\n      jump\t// out\n        /* \"#utility.yul\":8216:8582   */\n    tag_314:\n        /* \"#utility.yul\":8358:8361   */\n      0x00\n        /* \"#utility.yul\":8379:8446   */\n      tag_316\n        /* \"#utility.yul\":8443:8445   */\n      0x20\n        /* \"#utility.yul\":8438:8441   */\n      dup4\n        /* \"#utility.yul\":8379:8446   */\n      tag_296\n      jump\t// in\n    tag_316:\n        /* \"#utility.yul\":8372:8446   */\n      swap2\n      pop\n        /* \"#utility.yul\":8455:8548   */\n      tag_317\n        /* \"#utility.yul\":8544:8547   */\n      dup3\n        /* \"#utility.yul\":8455:8548   */\n      tag_318\n      jump\t// in\n    tag_317:\n        /* \"#utility.yul\":8573:8575   */\n      0x20\n        /* \"#utility.yul\":8568:8571   */\n      dup3\n        /* \"#utility.yul\":8564:8576   */\n      add\n        /* \"#utility.yul\":8557:8576   */\n      swap1\n      pop\n        /* \"#utility.yul\":8216:8582   */\n      swap2\n      swap1\n      pop\n      jump\t// out\n        /* \"#utility.yul\":8588:8954   */\n    tag_319:\n        /* \"#utility.yul\":8730:8733   */\n      0x00\n        /* \"#utility.yul\":8751:8818   */\n      tag_321\n        /* \"#utility.yul\":8815:8817   */\n      0x24\n        /* \"#utility.yul\":8810:8813   */\n      dup4\n        /* \"#utility.yul\":8751:8818   */\n      tag_296\n      jump\t// in\n    tag_321:\n        /* \"#utility.yul\":8744:8818   */\n      swap2\n      pop\n        /* \"#utility.yul\":8827:8920   */\n      tag_322\n        /* \"#utility.yul\":8916:8919   */\n      dup3\n        /* \"#utility.yul\":8827:8920   */\n      tag_323\n      jump\t// in\n    tag_322:\n        /* \"#utility.yul\":8945:8947   */\n      0x40\n        /* \"#utility.yul\":8940:8943   */\n      dup3\n        /* \"#utility.yul\":8936:8948   */\n      add\n        /* \"#utility.yul\":8929:8948   */\n      swap1\n      pop\n        /* \"#utility.yul\":8588:8954   */\n      swap2\n      swap1\n      pop\n      jump\t// out\n        /* \"#utility.yul\":8960:9326   */\n    tag_324:\n        /* \"#utility.yul\":9102:9105   */\n      0x00\n        /* \"#utility.yul\":9123:9190   */\n      tag_326\n        /* \"#utility.yul\":9187:9189   */\n      0x19\n        /* \"#utility.yul\":9182:9185   */\n      dup4\n        /* \"#utility.yul\":9123:9190   */\n      tag_296\n      jump\t// in\n    tag_326:\n        /* \"#utility.yul\":9116:9190   */\n      swap2\n      pop\n        /* \"#utility.yul\":9199:9292   */\n      tag_327\n        /* \"#utility.yul\":9288:9291   */\n      dup3\n        /* \"#utility.yul\":9199:9292   */\n      tag_328\n      jump\t// in\n    tag_327:\n        /* \"#utility.yul\":9317:9319   */\n      0x20\n        /* \"#utility.yul\":9312:9315   */\n      dup3\n        /* \"#utility.yul\":9308:9320   */\n      add\n        /* \"#utility.yul\":9301:9320   */\n      swap1\n      pop\n        /* \"#utility.yul\":8960:9326   */\n      swap2\n      swap1\n      pop\n      jump\t// out\n        /* \"#utility.yul\":9332:9698   */\n    tag_329:\n        /* \"#utility.yul\":9474:9477   */\n      0x00\n        /* \"#utility.yul\":9495:9562   */\n      tag_331\n        /* \"#utility.yul\":9559:9561   */\n      0x2a\n        /* \"#utility.yul\":9554:9557   */\n      dup4\n        /* \"#utility.yul\":9495:9562   */\n      tag_296\n      jump\t// in\n    tag_331:\n        /* \"#utility.yul\":9488:9562   */\n      swap2\n      pop\n        /* \"#utility.yul\":9571:9664   */\n      tag_332\n        /* \"#utility.yul\":9660:9663   */\n      dup3\n        /* \"#utility.yul\":9571:9664   */\n      tag_333\n      jump\t// in\n    tag_332:\n        /* \"#utility.yul\":9689:9691   */\n      0x40\n        /* \"#utility.yul\":9684:9687   */\n      dup3\n        /* \"#utility.yul\":9680:9692   */\n      add\n        /* \"#utility.yul\":9673:9692   */\n      swap1\n      pop\n        /* \"#utility.yul\":9332:9698   */\n      swap2\n      swap1\n      pop\n      jump\t// out\n        /* \"#utility.yul\":9758:10814   */\n    tag_334:\n        /* \"#utility.yul\":9903:9907   */\n      0xa0\n        /* \"#utility.yul\":9898:9901   */\n      dup3\n        /* \"#utility.yul\":9894:9908   */\n      add\n        /* \"#utility.yul\":9995:9999   */\n      0x00\n        /* \"#utility.yul\":9988:9993   */\n      dup3\n        /* \"#utility.yul\":9984:10000   */\n      add\n        /* \"#utility.yul\":9978:10001   */\n      mload\n        /* \"#utility.yul\":10014:10077   */\n      tag_336\n        /* \"#utility.yul\":10071:10075   */\n      0x00\n        /* \"#utility.yul\":10066:10069   */\n      dup6\n        /* \"#utility.yul\":10062:10076   */\n      add\n        /* \"#utility.yul\":10048:10060   */\n      dup3\n        /* \"#utility.yul\":10014:10077   */\n      tag_274\n      jump\t// in\n    tag_336:\n        /* \"#utility.yul\":9918:10087   */\n      pop\n        /* \"#utility.yul\":10178:10182   */\n      0x20\n        /* \"#utility.yul\":10171:10176   */\n      dup3\n        /* \"#utility.yul\":10167:10183   */\n      add\n        /* \"#utility.yul\":10161:10184   */\n      mload\n        /* \"#utility.yul\":10197:10260   */\n      tag_337\n        /* \"#utility.yul\":10254:10258   */\n      0x20\n        /* \"#utility.yul\":10249:10252   */\n      dup6\n        /* \"#utility.yul\":10245:10259   */\n      add\n        /* \"#utility.yul\":10231:10243   */\n      dup3\n        /* \"#utility.yul\":10197:10260   */\n      tag_274\n      jump\t// in\n    tag_337:\n        /* \"#utility.yul\":10097:10270   */\n      pop\n        /* \"#utility.yul\":10354:10358   */\n      0x40\n        /* \"#utility.yul\":10347:10352   */\n      dup3\n        /* \"#utility.yul\":10343:10359   */\n      add\n        /* \"#utility.yul\":10337:10360   */\n      mload\n        /* \"#utility.yul\":10373:10436   */\n      tag_338\n        /* \"#utility.yul\":10430:10434   */\n      0x40\n        /* \"#utility.yul\":10425:10428   */\n      dup6\n        /* \"#utility.yul\":10421:10435   */\n      add\n        /* \"#utility.yul\":10407:10419   */\n      dup3\n        /* \"#utility.yul\":10373:10436   */\n      tag_339\n      jump\t// in\n    tag_338:\n        /* \"#utility.yul\":10280:10446   */\n      pop\n        /* \"#utility.yul\":10531:10535   */\n      0x60\n        /* \"#utility.yul\":10524:10529   */\n      dup3\n        /* \"#utility.yul\":10520:10536   */\n      add\n        /* \"#utility.yul\":10514:10537   */\n      mload\n        /* \"#utility.yul\":10550:10613   */\n      tag_340\n        /* \"#utility.yul\":10607:10611   */\n      0x60\n        /* \"#utility.yul\":10602:10605   */\n      dup6\n        /* \"#utility.yul\":10598:10612   */\n      add\n        /* \"#utility.yul\":10584:10596   */\n      dup3\n        /* \"#utility.yul\":10550:10613   */\n      tag_262\n      jump\t// in\n    tag_340:\n        /* \"#utility.yul\":10456:10623   */\n      pop\n        /* \"#utility.yul\":10707:10711   */\n      0x80\n        /* \"#utility.yul\":10700:10705   */\n      dup3\n        /* \"#utility.yul\":10696:10712   */\n      add\n        /* \"#utility.yul\":10690:10713   */\n      mload\n        /* \"#utility.yul\":10726:10797   */\n      tag_341\n        /* \"#utility.yul\":10791:10795   */\n      0x80\n        /* \"#utility.yul\":10786:10789   */\n      dup6\n        /* \"#utility.yul\":10782:10796   */\n      add\n        /* \"#utility.yul\":10768:10780   */\n      dup3\n        /* \"#utility.yul\":10726:10797   */\n      tag_281\n      jump\t// in\n    tag_341:\n        /* \"#utility.yul\":10633:10807   */\n      pop\n        /* \"#utility.yul\":9872:10814   */\n      pop\n        /* \"#utility.yul\":9758:10814   */\n      pop\n      pop\n      jump\t// out\n        /* \"#utility.yul\":10820:10928   */\n    tag_339:\n        /* \"#utility.yul\":10897:10921   */\n      tag_343\n        /* \"#utility.yul\":10915:10920   */\n      dup2\n        /* \"#utility.yul\":10897:10921   */\n      tag_344\n      jump\t// in\n    tag_343:\n        /* \"#utility.yul\":10892:10895   */\n      dup3\n        /* \"#utility.yul\":10885:10922   */\n      mstore\n        /* \"#utility.yul\":10820:10928   */\n      pop\n      pop\n      jump\t// out\n        /* \"#utility.yul\":10934:11052   */\n    tag_345:\n        /* \"#utility.yul\":11021:11045   */\n      tag_347\n        /* \"#utility.yul\":11039:11044   */\n      dup2\n        /* \"#utility.yul\":11021:11045   */\n      tag_344\n      jump\t// in\n    tag_347:\n        /* \"#utility.yul\":11016:11019   */\n      dup3\n        /* \"#utility.yul\":11009:11046   */\n      mstore\n        /* \"#utility.yul\":10934:11052   */\n      pop\n      pop\n      jump\t// out\n        /* \"#utility.yul\":11058:11215   */\n    tag_348:\n        /* \"#utility.yul\":11163:11208   */\n      tag_350\n        /* \"#utility.yul\":11183:11207   */\n      tag_351\n        /* \"#utility.yul\":11201:11206   */\n      dup3\n        /* \"#utility.yul\":11183:11207   */\n      tag_344\n      jump\t// in\n    tag_351:\n        /* \"#utility.yul\":11163:11208   */\n      tag_352\n      jump\t// in\n    tag_350:\n        /* \"#utility.yul\":11158:11161   */\n      dup3\n        /* \"#utility.yul\":11151:11209   */\n      mstore\n        /* \"#utility.yul\":11058:11215   */\n      pop\n      pop\n      jump\t// out\n        /* \"#utility.yul\":11221:12041   */\n    tag_88:\n        /* \"#utility.yul\":11445:11448   */\n      0x00\n        /* \"#utility.yul\":11460:11535   */\n      tag_354\n        /* \"#utility.yul\":11531:11534   */\n      dup3\n        /* \"#utility.yul\":11522:11528   */\n      dup9\n        /* \"#utility.yul\":11460:11535   */\n      tag_269\n      jump\t// in\n    tag_354:\n        /* \"#utility.yul\":11560:11562   */\n      0x14\n        /* \"#utility.yul\":11555:11558   */\n      dup3\n        /* \"#utility.yul\":11551:11563   */\n      add\n        /* \"#utility.yul\":11544:11563   */\n      swap2\n      pop\n        /* \"#utility.yul\":11573:11648   */\n      tag_355\n        /* \"#utility.yul\":11644:11647   */\n      dup3\n        /* \"#utility.yul\":11635:11641   */\n      dup8\n        /* \"#utility.yul\":11573:11648   */\n      tag_269\n      jump\t// in\n    tag_355:\n        /* \"#utility.yul\":11673:11675   */\n      0x14\n        /* \"#utility.yul\":11668:11671   */\n      dup3\n        /* \"#utility.yul\":11664:11676   */\n      add\n        /* \"#utility.yul\":11657:11676   */\n      swap2\n      pop\n        /* \"#utility.yul\":11686:11761   */\n      tag_356\n        /* \"#utility.yul\":11757:11760   */\n      dup3\n        /* \"#utility.yul\":11748:11754   */\n      dup7\n        /* \"#utility.yul\":11686:11761   */\n      tag_348\n      jump\t// in\n    tag_356:\n        /* \"#utility.yul\":11786:11788   */\n      0x20\n        /* \"#utility.yul\":11781:11784   */\n      dup3\n        /* \"#utility.yul\":11777:11789   */\n      add\n        /* \"#utility.yul\":11770:11789   */\n      swap2\n      pop\n        /* \"#utility.yul\":11799:11874   */\n      tag_357\n        /* \"#utility.yul\":11870:11873   */\n      dup3\n        /* \"#utility.yul\":11861:11867   */\n      dup6\n        /* \"#utility.yul\":11799:11874   */\n      tag_348\n      jump\t// in\n    tag_357:\n        /* \"#utility.yul\":11899:11901   */\n      0x20\n        /* \"#utility.yul\":11894:11897   */\n      dup3\n        /* \"#utility.yul\":11890:11902   */\n      add\n        /* \"#utility.yul\":11883:11902   */\n      swap2\n      pop\n        /* \"#utility.yul\":11912:11987   */\n      tag_358\n        /* \"#utility.yul\":11983:11986   */\n      dup3\n        /* \"#utility.yul\":11974:11980   */\n      dup5\n        /* \"#utility.yul\":11912:11987   */\n      tag_348\n      jump\t// in\n    tag_358:\n        /* \"#utility.yul\":12012:12014   */\n      0x20\n        /* \"#utility.yul\":12007:12010   */\n      dup3\n        /* \"#utility.yul\":12003:12015   */\n      add\n        /* \"#utility.yul\":11996:12015   */\n      swap2\n      pop\n        /* \"#utility.yul\":12032:12035   */\n      dup2\n        /* \"#utility.yul\":12025:12035   */\n      swap1\n      pop\n        /* \"#utility.yul\":11221:12041   */\n      swap7\n      swap6\n      pop\n      pop\n      pop\n      pop\n      pop\n      pop\n      jump\t// out\n        /* \"#utility.yul\":12047:12322   */\n    tag_105:\n        /* \"#utility.yul\":12179:12182   */\n      0x00\n        /* \"#utility.yul\":12201:12296   */\n      tag_360\n        /* \"#utility.yul\":12292:12295   */\n      dup3\n        /* \"#utility.yul\":12283:12289   */\n      dup5\n        /* \"#utility.yul\":12201:12296   */\n      tag_285\n      jump\t// in\n    tag_360:\n        /* \"#utility.yul\":12194:12296   */\n      swap2\n      pop\n        /* \"#utility.yul\":12313:12316   */\n      dup2\n        /* \"#utility.yul\":12306:12316   */\n      swap1\n      pop\n        /* \"#utility.yul\":12047:12322   */\n      swap3\n      swap2\n      pop\n      pop\n      jump\t// out\n        /* \"#utility.yul\":12328:12550   */\n    tag_44:\n        /* \"#utility.yul\":12421:12425   */\n      0x00\n        /* \"#utility.yul\":12459:12461   */\n      0x20\n        /* \"#utility.yul\":12448:12457   */\n      dup3\n        /* \"#utility.yul\":12444:12462   */\n      add\n        /* \"#utility.yul\":12436:12462   */\n      swap1\n      pop\n        /* \"#utility.yul\":12472:12543   */\n      tag_362\n        /* \"#utility.yul\":12540:12541   */\n      0x00\n        /* \"#utility.yul\":12529:12538   */\n      dup4\n        /* \"#utility.yul\":12525:12542   */\n      add\n        /* \"#utility.yul\":12516:12522   */\n      dup5\n        /* \"#utility.yul\":12472:12543   */\n      tag_266\n      jump\t// in\n    tag_362:\n        /* \"#utility.yul\":12328:12550   */\n      swap3\n      swap2\n      pop\n      pop\n      jump\t// out\n        /* \"#utility.yul\":12556:12778   */\n    tag_34:\n        /* \"#utility.yul\":12649:12653   */\n      0x00\n        /* \"#utility.yul\":12687:12689   */\n      0x20\n        /* \"#utility.yul\":12676:12685   */\n      dup3\n        /* \"#utility.yul\":12672:12690   */\n      add\n        /* \"#utility.yul\":12664:12690   */\n      swap1\n      pop\n        /* \"#utility.yul\":12700:12771   */\n      tag_364\n        /* \"#utility.yul\":12768:12769   */\n      0x00\n        /* \"#utility.yul\":12757:12766   */\n      dup4\n        /* \"#utility.yul\":12753:12770   */\n      add\n        /* \"#utility.yul\":12744:12750   */\n      dup5\n        /* \"#utility.yul\":12700:12771   */\n      tag_278\n      jump\t// in\n    tag_364:\n        /* \"#utility.yul\":12556:12778   */\n      swap3\n      swap2\n      pop\n      pop\n      jump\t// out\n        /* \"#utility.yul\":12784:13203   */\n    tag_164:\n        /* \"#utility.yul\":12950:12954   */\n      0x00\n        /* \"#utility.yul\":12988:12990   */\n      0x20\n        /* \"#utility.yul\":12977:12986   */\n      dup3\n        /* \"#utility.yul\":12973:12991   */\n      add\n        /* \"#utility.yul\":12965:12991   */\n      swap1\n      pop\n        /* \"#utility.yul\":13037:13046   */\n      dup2\n        /* \"#utility.yul\":13031:13035   */\n      dup2\n        /* \"#utility.yul\":13027:13047   */\n      sub\n        /* \"#utility.yul\":13023:13024   */\n      0x00\n        /* \"#utility.yul\":13012:13021   */\n      dup4\n        /* \"#utility.yul\":13008:13025   */\n      add\n        /* \"#utility.yul\":13001:13048   */\n      mstore\n        /* \"#utility.yul\":13065:13196   */\n      tag_366\n        /* \"#utility.yul\":13191:13195   */\n      dup2\n        /* \"#utility.yul\":13065:13196   */\n      tag_293\n      jump\t// in\n    tag_366:\n        /* \"#utility.yul\":13057:13196   */\n      swap1\n      pop\n        /* \"#utility.yul\":12784:13203   */\n      swap2\n      swap1\n      pop\n      jump\t// out\n        /* \"#utility.yul\":13209:13628   */\n    tag_136:\n        /* \"#utility.yul\":13375:13379   */\n      0x00\n        /* \"#utility.yul\":13413:13415   */\n      0x20\n        /* \"#utility.yul\":13402:13411   */\n      dup3\n        /* \"#utility.yul\":13398:13416   */\n      add\n        /* \"#utility.yul\":13390:13416   */\n      swap1\n      pop\n        /* \"#utility.yul\":13462:13471   */\n      dup2\n        /* \"#utility.yul\":13456:13460   */\n      dup2\n        /* \"#utility.yul\":13452:13472   */\n      sub\n        /* \"#utility.yul\":13448:13449   */\n      0x00\n        /* \"#utility.yul\":13437:13446   */\n      dup4\n        /* \"#utility.yul\":13433:13450   */\n      add\n        /* \"#utility.yul\":13426:13473   */\n      mstore\n        /* \"#utility.yul\":13490:13621   */\n      tag_368\n        /* \"#utility.yul\":13616:13620   */\n      dup2\n        /* \"#utility.yul\":13490:13621   */\n      tag_299\n      jump\t// in\n    tag_368:\n        /* \"#utility.yul\":13482:13621   */\n      swap1\n      pop\n        /* \"#utility.yul\":13209:13628   */\n      swap2\n      swap1\n      pop\n      jump\t// out\n        /* \"#utility.yul\":13634:14053   */\n    tag_77:\n        /* \"#utility.yul\":13800:13804   */\n      0x00\n        /* \"#utility.yul\":13838:13840   */\n      0x20\n        /* \"#utility.yul\":13827:13836   */\n      dup3\n        /* \"#utility.yul\":13823:13841   */\n      add\n        /* \"#utility.yul\":13815:13841   */\n      swap1\n      pop\n        /* \"#utility.yul\":13887:13896   */\n      dup2\n        /* \"#utility.yul\":13881:13885   */\n      dup2\n        /* \"#utility.yul\":13877:13897   */\n      sub\n        /* \"#utility.yul\":13873:13874   */\n      0x00\n        /* \"#utility.yul\":13862:13871   */\n      dup4\n        /* \"#utility.yul\":13858:13875   */\n      add\n        /* \"#utility.yul\":13851:13898   */\n      mstore\n        /* \"#utility.yul\":13915:14046   */\n      tag_370\n        /* \"#utility.yul\":14041:14045   */\n      dup2\n        /* \"#utility.yul\":13915:14046   */\n      tag_304\n      jump\t// in\n    tag_370:\n        /* \"#utility.yul\":13907:14046   */\n      swap1\n      pop\n        /* \"#utility.yul\":13634:14053   */\n      swap2\n      swap1\n      pop\n      jump\t// out\n        /* \"#utility.yul\":14059:14478   */\n    tag_140:\n        /* \"#utility.yul\":14225:14229   */\n      0x00\n        /* \"#utility.yul\":14263:14265   */\n      0x20\n        /* \"#utility.yul\":14252:14261   */\n      dup3\n        /* \"#utility.yul\":14248:14266   */\n      add\n        /* \"#utility.yul\":14240:14266   */\n      swap1\n      pop\n        /* \"#utility.yul\":14312:14321   */\n      dup2\n        /* \"#utility.yul\":14306:14310   */\n      dup2\n        /* \"#utility.yul\":14302:14322   */\n      sub\n        /* \"#utility.yul\":14298:14299   */\n      0x00\n        /* \"#utility.yul\":14287:14296   */\n      dup4\n        /* \"#utility.yul\":14283:14300   */\n      add\n        /* \"#utility.yul\":14276:14323   */\n      mstore\n        /* \"#utility.yul\":14340:14471   */\n      tag_372\n        /* \"#utility.yul\":14466:14470   */\n      dup2\n        /* \"#utility.yul\":14340:14471   */\n      tag_309\n      jump\t// in\n    tag_372:\n        /* \"#utility.yul\":14332:14471   */\n      swap1\n      pop\n        /* \"#utility.yul\":14059:14478   */\n      swap2\n      swap1\n      pop\n      jump\t// out\n        /* \"#utility.yul\":14484:14903   */\n    tag_101:\n        /* \"#utility.yul\":14650:14654   */\n      0x00\n        /* \"#utility.yul\":14688:14690   */\n      0x20\n        /* \"#utility.yul\":14677:14686   */\n      dup3\n        /* \"#utility.yul\":14673:14691   */\n      add\n        /* \"#utility.yul\":14665:14691   */\n      swap1\n      pop\n        /* \"#utility.yul\":14737:14746   */\n      dup2\n        /* \"#utility.yul\":14731:14735   */\n      dup2\n        /* \"#utility.yul\":14727:14747   */\n      sub\n        /* \"#utility.yul\":14723:14724   */\n      0x00\n        /* \"#utility.yul\":14712:14721   */\n      dup4\n        /* \"#utility.yul\":14708:14725   */\n      add\n        /* \"#utility.yul\":14701:14748   */\n      mstore\n        /* \"#utility.yul\":14765:14896   */\n      tag_374\n        /* \"#utility.yul\":14891:14895   */\n      dup2\n        /* \"#utility.yul\":14765:14896   */\n      tag_314\n      jump\t// in\n    tag_374:\n        /* \"#utility.yul\":14757:14896   */\n      swap1\n      pop\n        /* \"#utility.yul\":14484:14903   */\n      swap2\n      swap1\n      pop\n      jump\t// out\n        /* \"#utility.yul\":14909:15328   */\n    tag_86:\n        /* \"#utility.yul\":15075:15079   */\n      0x00\n        /* \"#utility.yul\":15113:15115   */\n      0x20\n        /* \"#utility.yul\":15102:15111   */\n      dup3\n        /* \"#utility.yul\":15098:15116   */\n      add\n        /* \"#utility.yul\":15090:15116   */\n      swap1\n      pop\n        /* \"#utility.yul\":15162:15171   */\n      dup2\n        /* \"#utility.yul\":15156:15160   */\n      dup2\n        /* \"#utility.yul\":15152:15172   */\n      sub\n        /* \"#utility.yul\":15148:15149   */\n      0x00\n        /* \"#utility.yul\":15137:15146   */\n      dup4\n        /* \"#utility.yul\":15133:15150   */\n      add\n        /* \"#utility.yul\":15126:15173   */\n      mstore\n        /* \"#utility.yul\":15190:15321   */\n      tag_376\n        /* \"#utility.yul\":15316:15320   */\n      dup2\n        /* \"#utility.yul\":15190:15321   */\n      tag_319\n      jump\t// in\n    tag_376:\n        /* \"#utility.yul\":15182:15321   */\n      swap1\n      pop\n        /* \"#utility.yul\":14909:15328   */\n      swap2\n      swap1\n      pop\n      jump\t// out\n        /* \"#utility.yul\":15334:15753   */\n    tag_147:\n        /* \"#utility.yul\":15500:15504   */\n      0x00\n        /* \"#utility.yul\":15538:15540   */\n      0x20\n        /* \"#utility.yul\":15527:15536   */\n      dup3\n        /* \"#utility.yul\":15523:15541   */\n      add\n        /* \"#utility.yul\":15515:15541   */\n      swap1\n      pop\n        /* \"#utility.yul\":15587:15596   */\n      dup2\n        /* \"#utility.yul\":15581:15585   */\n      dup2\n        /* \"#utility.yul\":15577:15597   */\n      sub\n        /* \"#utility.yul\":15573:15574   */\n      0x00\n        /* \"#utility.yul\":15562:15571   */\n      dup4\n        /* \"#utility.yul\":15558:15575   */\n      add\n        /* \"#utility.yul\":15551:15598   */\n      mstore\n        /* \"#utility.yul\":15615:15746   */\n      tag_378\n        /* \"#utility.yul\":15741:15745   */\n      dup2\n        /* \"#utility.yul\":15615:15746   */\n      tag_324\n      jump\t// in\n    tag_378:\n        /* \"#utility.yul\":15607:15746   */\n      swap1\n      pop\n        /* \"#utility.yul\":15334:15753   */\n      swap2\n      swap1\n      pop\n      jump\t// out\n        /* \"#utility.yul\":15759:16178   */\n    tag_83:\n        /* \"#utility.yul\":15925:15929   */\n      0x00\n        /* \"#utility.yul\":15963:15965   */\n      0x20\n        /* \"#utility.yul\":15952:15961   */\n      dup3\n        /* \"#utility.yul\":15948:15966   */\n      add\n        /* \"#utility.yul\":15940:15966   */\n      swap1\n      pop\n        /* \"#utility.yul\":16012:16021   */\n      dup2\n        /* \"#utility.yul\":16006:16010   */\n      dup2\n        /* \"#utility.yul\":16002:16022   */\n      sub\n        /* \"#utility.yul\":15998:15999   */\n      0x00\n        /* \"#utility.yul\":15987:15996   */\n      dup4\n        /* \"#utility.yul\":15983:16000   */\n      add\n        /* \"#utility.yul\":15976:16023   */\n      mstore\n        /* \"#utility.yul\":16040:16171   */\n      tag_380\n        /* \"#utility.yul\":16166:16170   */\n      dup2\n        /* \"#utility.yul\":16040:16171   */\n      tag_329\n      jump\t// in\n    tag_380:\n        /* \"#utility.yul\":16032:16171   */\n      swap1\n      pop\n        /* \"#utility.yul\":15759:16178   */\n      swap2\n      swap1\n      pop\n      jump\t// out\n        /* \"#utility.yul\":16184:16503   */\n    tag_20:\n        /* \"#utility.yul\":16325:16329   */\n      0x00\n        /* \"#utility.yul\":16363:16366   */\n      0xa0\n        /* \"#utility.yul\":16352:16361   */\n      dup3\n        /* \"#utility.yul\":16348:16367   */\n      add\n        /* \"#utility.yul\":16340:16367   */\n      swap1\n      pop\n        /* \"#utility.yul\":16377:16496   */\n      tag_382\n        /* \"#utility.yul\":16493:16494   */\n      0x00\n        /* \"#utility.yul\":16482:16491   */\n      dup4\n        /* \"#utility.yul\":16478:16495   */\n      add\n        /* \"#utility.yul\":16469:16475   */\n      dup5\n        /* \"#utility.yul\":16377:16496   */\n      tag_334\n      jump\t// in\n    tag_382:\n        /* \"#utility.yul\":16184:16503   */\n      swap3\n      swap2\n      pop\n      pop\n      jump\t// out\n        /* \"#utility.yul\":16509:16731   */\n    tag_94:\n        /* \"#utility.yul\":16602:16606   */\n      0x00\n        /* \"#utility.yul\":16640:16642   */\n      0x20\n        /* \"#utility.yul\":16629:16638   */\n      dup3\n        /* \"#utility.yul\":16625:16643   */\n      add\n        /* \"#utility.yul\":16617:16643   */\n      swap1\n      pop\n        /* \"#utility.yul\":16653:16724   */\n      tag_384\n        /* \"#utility.yul\":16721:16722   */\n      0x00\n        /* \"#utility.yul\":16710:16719   */\n      dup4\n        /* \"#utility.yul\":16706:16723   */\n      add\n        /* \"#utility.yul\":16697:16703   */\n      dup5\n        /* \"#utility.yul\":16653:16724   */\n      tag_345\n      jump\t// in\n    tag_384:\n        /* \"#utility.yul\":16509:16731   */\n      swap3\n      swap2\n      pop\n      pop\n      jump\t// out\n        /* \"#utility.yul\":16737:16866   */\n    tag_187:\n        /* \"#utility.yul\":16771:16777   */\n      0x00\n        /* \"#utility.yul\":16798:16818   */\n      tag_386\n      tag_387\n      jump\t// in\n    tag_386:\n        /* \"#utility.yul\":16788:16818   */\n      swap1\n      pop\n        /* \"#utility.yul\":16827:16860   */\n      tag_388\n        /* \"#utility.yul\":16855:16859   */\n      dup3\n        /* \"#utility.yul\":16847:16853   */\n      dup3\n        /* \"#utility.yul\":16827:16860   */\n      tag_389\n      jump\t// in\n    tag_388:\n        /* \"#utility.yul\":16737:16866   */\n      swap2\n      swap1\n      pop\n      jump\t// out\n        /* \"#utility.yul\":16872:16947   */\n    tag_387:\n        /* \"#utility.yul\":16905:16911   */\n      0x00\n        /* \"#utility.yul\":16938:16940   */\n      0x40\n        /* \"#utility.yul\":16932:16941   */\n      mload\n        /* \"#utility.yul\":16922:16941   */\n      swap1\n      pop\n        /* \"#utility.yul\":16872:16947   */\n      swap1\n      jump\t// out\n        /* \"#utility.yul\":16953:17261   */\n    tag_186:\n        /* \"#utility.yul\":17015:17019   */\n      0x00\n        /* \"#utility.yul\":17105:17123   */\n      0xffffffffffffffff\n        /* \"#utility.yul\":17097:17103   */\n      dup3\n        /* \"#utility.yul\":17094:17124   */\n      gt\n        /* \"#utility.yul\":17091:17147   */\n      iszero\n      tag_392\n      jumpi\n        /* \"#utility.yul\":17127:17145   */\n      tag_393\n      tag_394\n      jump\t// in\n    tag_393:\n        /* \"#utility.yul\":17091:17147   */\n    tag_392:\n        /* \"#utility.yul\":17165:17194   */\n      tag_395\n        /* \"#utility.yul\":17187:17193   */\n      dup3\n        /* \"#utility.yul\":17165:17194   */\n      tag_396\n      jump\t// in\n    tag_395:\n        /* \"#utility.yul\":17157:17194   */\n      swap1\n      pop\n        /* \"#utility.yul\":17249:17253   */\n      0x20\n        /* \"#utility.yul\":17243:17247   */\n      dup2\n        /* \"#utility.yul\":17239:17254   */\n      add\n        /* \"#utility.yul\":17231:17254   */\n      swap1\n      pop\n        /* \"#utility.yul\":16953:17261   */\n      swap2\n      swap1\n      pop\n      jump\t// out\n        /* \"#utility.yul\":17267:17366   */\n    tag_288:\n        /* \"#utility.yul\":17319:17325   */\n      0x00\n        /* \"#utility.yul\":17353:17358   */\n      dup2\n        /* \"#utility.yul\":17347:17359   */\n      mload\n        /* \"#utility.yul\":17337:17359   */\n      swap1\n      pop\n        /* \"#utility.yul\":17267:17366   */\n      swap2\n      swap1\n      pop\n      jump\t// out\n        /* \"#utility.yul\":17372:17541   */\n    tag_296:\n        /* \"#utility.yul\":17456:17467   */\n      0x00\n        /* \"#utility.yul\":17490:17496   */\n      dup3\n        /* \"#utility.yul\":17485:17488   */\n      dup3\n        /* \"#utility.yul\":17478:17497   */\n      mstore\n        /* \"#utility.yul\":17530:17534   */\n      0x20\n        /* \"#utility.yul\":17525:17528   */\n      dup3\n        /* \"#utility.yul\":17521:17535   */\n      add\n        /* \"#utility.yul\":17506:17535   */\n      swap1\n      pop\n        /* \"#utility.yul\":17372:17541   */\n      swap3\n      swap2\n      pop\n      pop\n      jump\t// out\n        /* \"#utility.yul\":17547:17695   */\n    tag_290:\n        /* \"#utility.yul\":17649:17660   */\n      0x00\n        /* \"#utility.yul\":17686:17689   */\n      dup2\n        /* \"#utility.yul\":17671:17689   */\n      swap1\n      pop\n        /* \"#utility.yul\":17547:17695   */\n      swap3\n      swap2\n      pop\n      pop\n      jump\t// out\n        /* \"#utility.yul\":17701:17797   */\n    tag_265:\n        /* \"#utility.yul\":17738:17745   */\n      0x00\n        /* \"#utility.yul\":17767:17791   */\n      tag_401\n        /* \"#utility.yul\":17785:17790   */\n      dup3\n        /* \"#utility.yul\":17767:17791   */\n      tag_402\n      jump\t// in\n    tag_401:\n        /* \"#utility.yul\":17756:17791   */\n      swap1\n      pop\n        /* \"#utility.yul\":17701:17797   */\n      swap2\n      swap1\n      pop\n      jump\t// out\n        /* \"#utility.yul\":17803:17893   */\n    tag_403:\n        /* \"#utility.yul\":17837:17844   */\n      0x00\n        /* \"#utility.yul\":17880:17885   */\n      dup2\n        /* \"#utility.yul\":17873:17886   */\n      iszero\n        /* \"#utility.yul\":17866:17887   */\n      iszero\n        /* \"#utility.yul\":17855:17887   */\n      swap1\n      pop\n        /* \"#utility.yul\":17803:17893   */\n      swap2\n      swap1\n      pop\n      jump\t// out\n        /* \"#utility.yul\":17899:17976   */\n    tag_277:\n        /* \"#utility.yul\":17936:17943   */\n      0x00\n        /* \"#utility.yul\":17965:17970   */\n      dup2\n        /* \"#utility.yul\":17954:17970   */\n      swap1\n      pop\n        /* \"#utility.yul\":17899:17976   */\n      swap2\n      swap1\n      pop\n      jump\t// out\n        /* \"#utility.yul\":17982:18113   */\n    tag_406:\n        /* \"#utility.yul\":18029:18036   */\n      0x00\n        /* \"#utility.yul\":18058:18063   */\n      dup2\n        /* \"#utility.yul\":18047:18063   */\n      swap1\n      pop\n        /* \"#utility.yul\":18064:18107   */\n      tag_408\n        /* \"#utility.yul\":18101:18106   */\n      dup3\n        /* \"#utility.yul\":18064:18107   */\n      tag_409\n      jump\t// in\n    tag_408:\n        /* \"#utility.yul\":17982:18113   */\n      swap2\n      swap1\n      pop\n      jump\t// out\n        /* \"#utility.yul\":18119:18245   */\n    tag_402:\n        /* \"#utility.yul\":18156:18163   */\n      0x00\n        /* \"#utility.yul\":18196:18238   */\n      0xffffffffffffffffffffffffffffffffffffffff\n        /* \"#utility.yul\":18189:18194   */\n      dup3\n        /* \"#utility.yul\":18185:18239   */\n      and\n        /* \"#utility.yul\":18174:18239   */\n      swap1\n      pop\n        /* \"#utility.yul\":18119:18245   */\n      swap2\n      swap1\n      pop\n      jump\t// out\n        /* \"#utility.yul\":18251:18328   */\n    tag_344:\n        /* \"#utility.yul\":18288:18295   */\n      0x00\n        /* \"#utility.yul\":18317:18322   */\n      dup2\n        /* \"#utility.yul\":18306:18322   */\n      swap1\n      pop\n        /* \"#utility.yul\":18251:18328   */\n      swap2\n      swap1\n      pop\n      jump\t// out\n        /* \"#utility.yul\":18334:18465   */\n    tag_284:\n        /* \"#utility.yul\":18392:18401   */\n      0x00\n        /* \"#utility.yul\":18425:18459   */\n      tag_413\n        /* \"#utility.yul\":18453:18458   */\n      dup3\n        /* \"#utility.yul\":18425:18459   */\n      tag_406\n      jump\t// in\n    tag_413:\n        /* \"#utility.yul\":18412:18459   */\n      swap1\n      pop\n        /* \"#utility.yul\":18334:18465   */\n      swap2\n      swap1\n      pop\n      jump\t// out\n        /* \"#utility.yul\":18471:18625   */\n    tag_192:\n        /* \"#utility.yul\":18555:18561   */\n      dup3\n        /* \"#utility.yul\":18550:18553   */\n      dup2\n        /* \"#utility.yul\":18545:18548   */\n      dup4\n        /* \"#utility.yul\":18532:18562   */\n      calldatacopy\n        /* \"#utility.yul\":18617:18618   */\n      0x00\n        /* \"#utility.yul\":18608:18614   */\n      dup4\n        /* \"#utility.yul\":18603:18606   */\n      dup4\n        /* \"#utility.yul\":18599:18615   */\n      add\n        /* \"#utility.yul\":18592:18619   */\n      mstore\n        /* \"#utility.yul\":18471:18625   */\n      pop\n      pop\n      pop\n      jump\t// out\n        /* \"#utility.yul\":18631:18938   */\n    tag_292:\n        /* \"#utility.yul\":18699:18700   */\n      0x00\n        /* \"#utility.yul\":18709:18822   */\n    tag_416:\n        /* \"#utility.yul\":18723:18729   */\n      dup4\n        /* \"#utility.yul\":18720:18721   */\n      dup2\n        /* \"#utility.yul\":18717:18730   */\n      lt\n        /* \"#utility.yul\":18709:18822   */\n      iszero\n      tag_418\n      jumpi\n        /* \"#utility.yul\":18808:18809   */\n      dup1\n        /* \"#utility.yul\":18803:18806   */\n      dup3\n        /* \"#utility.yul\":18799:18810   */\n      add\n        /* \"#utility.yul\":18793:18811   */\n      mload\n        /* \"#utility.yul\":18789:18790   */\n      dup2\n        /* \"#utility.yul\":18784:18787   */\n      dup5\n        /* \"#utility.yul\":18780:18791   */\n      add\n        /* \"#utility.yul\":18773:18812   */\n      mstore\n        /* \"#utility.yul\":18745:18747   */\n      0x20\n        /* \"#utility.yul\":18742:18743   */\n      dup2\n        /* \"#utility.yul\":18738:18748   */\n      add\n        /* \"#utility.yul\":18733:18748   */\n      swap1\n      pop\n        /* \"#utility.yul\":18709:18822   */\n      jump(tag_416)\n    tag_418:\n        /* \"#utility.yul\":18840:18846   */\n      dup4\n        /* \"#utility.yul\":18837:18838   */\n      dup2\n        /* \"#utility.yul\":18834:18847   */\n      gt\n        /* \"#utility.yul\":18831:18932   */\n      iszero\n      tag_419\n      jumpi\n        /* \"#utility.yul\":18920:18921   */\n      0x00\n        /* \"#utility.yul\":18911:18917   */\n      dup5\n        /* \"#utility.yul\":18906:18909   */\n      dup5\n        /* \"#utility.yul\":18902:18918   */\n      add\n        /* \"#utility.yul\":18895:18922   */\n      mstore\n        /* \"#utility.yul\":18831:18932   */\n    tag_419:\n        /* \"#utility.yul\":18680:18938   */\n      pop\n        /* \"#utility.yul\":18631:18938   */\n      pop\n      pop\n      pop\n      jump\t// out\n        /* \"#utility.yul\":18944:19225   */\n    tag_389:\n        /* \"#utility.yul\":19027:19054   */\n      tag_421\n        /* \"#utility.yul\":19049:19053   */\n      dup3\n        /* \"#utility.yul\":19027:19054   */\n      tag_396\n      jump\t// in\n    tag_421:\n        /* \"#utility.yul\":19019:19025   */\n      dup2\n        /* \"#utility.yul\":19015:19055   */\n      add\n        /* \"#utility.yul\":19157:19163   */\n      dup2\n        /* \"#utility.yul\":19145:19155   */\n      dup2\n        /* \"#utility.yul\":19142:19164   */\n      lt\n        /* \"#utility.yul\":19121:19139   */\n      0xffffffffffffffff\n        /* \"#utility.yul\":19109:19119   */\n      dup3\n        /* \"#utility.yul\":19106:19140   */\n      gt\n        /* \"#utility.yul\":19103:19165   */\n      or\n        /* \"#utility.yul\":19100:19188   */\n      iszero\n      tag_422\n      jumpi\n        /* \"#utility.yul\":19168:19186   */\n      tag_423\n      tag_394\n      jump\t// in\n    tag_423:\n        /* \"#utility.yul\":19100:19188   */\n    tag_422:\n        /* \"#utility.yul\":19208:19218   */\n      dup1\n        /* \"#utility.yul\":19204:19206   */\n      0x40\n        /* \"#utility.yul\":19197:19219   */\n      mstore\n        /* \"#utility.yul\":18987:19225   */\n      pop\n        /* \"#utility.yul\":18944:19225   */\n      pop\n      pop\n      jump\t// out\n        /* \"#utility.yul\":19231:19331   */\n    tag_273:\n        /* \"#utility.yul\":19270:19277   */\n      0x00\n        /* \"#utility.yul\":19299:19325   */\n      tag_425\n        /* \"#utility.yul\":19319:19324   */\n      dup3\n        /* \"#utility.yul\":19299:19325   */\n      tag_426\n      jump\t// in\n    tag_425:\n        /* \"#utility.yul\":19288:19325   */\n      swap1\n      pop\n        /* \"#utility.yul\":19231:19331   */\n      swap2\n      swap1\n      pop\n      jump\t// out\n        /* \"#utility.yul\":19337:19431   */\n    tag_426:\n        /* \"#utility.yul\":19376:19383   */\n      0x00\n        /* \"#utility.yul\":19405:19425   */\n      tag_428\n        /* \"#utility.yul\":19419:19424   */\n      dup3\n        /* \"#utility.yul\":19405:19425   */\n      tag_429\n      jump\t// in\n    tag_428:\n        /* \"#utility.yul\":19394:19425   */\n      swap1\n      pop\n        /* \"#utility.yul\":19337:19431   */\n      swap2\n      swap1\n      pop\n      jump\t// out\n        /* \"#utility.yul\":19437:19516   */\n    tag_352:\n        /* \"#utility.yul\":19476:19483   */\n      0x00\n        /* \"#utility.yul\":19505:19510   */\n      dup2\n        /* \"#utility.yul\":19494:19510   */\n      swap1\n      pop\n        /* \"#utility.yul\":19437:19516   */\n      swap2\n      swap1\n      pop\n      jump\t// out\n        /* \"#utility.yul\":19522:19702   */\n    tag_71:\n        /* \"#utility.yul\":19570:19647   */\n      0x4e487b7100000000000000000000000000000000000000000000000000000000\n        /* \"#utility.yul\":19567:19568   */\n      0x00\n        /* \"#utility.yul\":19560:19648   */\n      mstore\n        /* \"#utility.yul\":19667:19671   */\n      0x21\n        /* \"#utility.yul\":19664:19665   */\n      0x04\n        /* \"#utility.yul\":19657:19672   */\n      mstore\n        /* \"#utility.yul\":19691:19695   */\n      0x24\n        /* \"#utility.yul\":19688:19689   */\n      0x00\n        /* \"#utility.yul\":19681:19696   */\n      revert\n        /* \"#utility.yul\":19708:19888   */\n    tag_67:\n        /* \"#utility.yul\":19756:19833   */\n      0x4e487b7100000000000000000000000000000000000000000000000000000000\n        /* \"#utility.yul\":19753:19754   */\n      0x00\n        /* \"#utility.yul\":19746:19834   */\n      mstore\n        /* \"#utility.yul\":19853:19857   */\n      0x32\n        /* \"#utility.yul\":19850:19851   */\n      0x04\n        /* \"#utility.yul\":19843:19858   */\n      mstore\n        /* \"#utility.yul\":19877:19881   */\n      0x24\n        /* \"#utility.yul\":19874:19875   */\n      0x00\n        /* \"#utility.yul\":19867:19882   */\n      revert\n        /* \"#utility.yul\":19894:20074   */\n    tag_394:\n        /* \"#utility.yul\":19942:20019   */\n      0x4e487b7100000000000000000000000000000000000000000000000000000000\n        /* \"#utility.yul\":19939:19940   */\n      0x00\n        /* \"#utility.yul\":19932:20020   */\n      mstore\n        /* \"#utility.yul\":20039:20043   */\n      0x41\n        /* \"#utility.yul\":20036:20037   */\n      0x04\n        /* \"#utility.yul\":20029:20044   */\n      mstore\n        /* \"#utility.yul\":20063:20067   */\n      0x24\n        /* \"#utility.yul\":20060:20061   */\n      0x00\n        /* \"#utility.yul\":20053:20068   */\n      revert\n        /* \"#utility.yul\":20080:20197   */\n    tag_209:\n        /* \"#utility.yul\":20189:20190   */\n      0x00\n        /* \"#utility.yul\":20186:20187   */\n      dup1\n        /* \"#utility.yul\":20179:20191   */\n      revert\n        /* \"#utility.yul\":20203:20320   */\n    tag_190:\n        /* \"#utility.yul\":20312:20313   */\n      0x00\n        /* \"#utility.yul\":20309:20310   */\n      dup1\n        /* \"#utility.yul\":20302:20314   */\n      revert\n        /* \"#utility.yul\":20326:20443   */\n    tag_260:\n        /* \"#utility.yul\":20435:20436   */\n      0x00\n        /* \"#utility.yul\":20432:20433   */\n      dup1\n        /* \"#utility.yul\":20425:20437   */\n      revert\n        /* \"#utility.yul\":20449:20566   */\n    tag_218:\n        /* \"#utility.yul\":20558:20559   */\n      0x00\n        /* \"#utility.yul\":20555:20556   */\n      dup1\n        /* \"#utility.yul\":20548:20560   */\n      revert\n        /* \"#utility.yul\":20572:20674   */\n    tag_396:\n        /* \"#utility.yul\":20613:20619   */\n      0x00\n        /* \"#utility.yul\":20664:20666   */\n      0x1f\n        /* \"#utility.yul\":20660:20667   */\n      not\n        /* \"#utility.yul\":20655:20657   */\n      0x1f\n        /* \"#utility.yul\":20648:20653   */\n      dup4\n        /* \"#utility.yul\":20644:20658   */\n      add\n        /* \"#utility.yul\":20640:20668   */\n      and\n        /* \"#utility.yul\":20630:20668   */\n      swap1\n      pop\n        /* \"#utility.yul\":20572:20674   */\n      swap2\n      swap1\n      pop\n      jump\t// out\n        /* \"#utility.yul\":20680:20774   */\n    tag_429:\n        /* \"#utility.yul\":20713:20721   */\n      0x00\n        /* \"#utility.yul\":20761:20766   */\n      dup2\n        /* \"#utility.yul\":20757:20759   */\n      0x60\n        /* \"#utility.yul\":20753:20767   */\n      shl\n        /* \"#utility.yul\":20732:20767   */\n      swap1\n      pop\n        /* \"#utility.yul\":20680:20774   */\n      swap2\n      swap1\n      pop\n      jump\t// out\n        /* \"#utility.yul\":20780:21005   */\n    tag_298:\n        /* \"#utility.yul\":20920:20954   */\n      0x4f776e61626c653a206e6577206f776e657220697320746865207a65726f2061\n        /* \"#utility.yul\":20916:20917   */\n      0x00\n        /* \"#utility.yul\":20908:20914   */\n      dup3\n        /* \"#utility.yul\":20904:20918   */\n      add\n        /* \"#utility.yul\":20897:20955   */\n      mstore\n        /* \"#utility.yul\":20989:20997   */\n      0x6464726573730000000000000000000000000000000000000000000000000000\n        /* \"#utility.yul\":20984:20986   */\n      0x20\n        /* \"#utility.yul\":20976:20982   */\n      dup3\n        /* \"#utility.yul\":20972:20987   */\n      add\n        /* \"#utility.yul\":20965:20998   */\n      mstore\n        /* \"#utility.yul\":20780:21005   */\n      pop\n      jump\t// out\n        /* \"#utility.yul\":21011:21246   */\n    tag_303:\n        /* \"#utility.yul\":21151:21185   */\n      0x5468657265206973206e6f2070617469656e7420726567697374657265642077\n        /* \"#utility.yul\":21147:21148   */\n      0x00\n        /* \"#utility.yul\":21139:21145   */\n      dup3\n        /* \"#utility.yul\":21135:21149   */\n      add\n        /* \"#utility.yul\":21128:21186   */\n      mstore\n        /* \"#utility.yul\":21220:21238   */\n      0x6974682074686973206164647265737300000000000000000000000000000000\n        /* \"#utility.yul\":21215:21217   */\n      0x20\n        /* \"#utility.yul\":21207:21213   */\n      dup3\n        /* \"#utility.yul\":21203:21218   */\n      add\n        /* \"#utility.yul\":21196:21239   */\n      mstore\n        /* \"#utility.yul\":21011:21246   */\n      pop\n      jump\t// out\n        /* \"#utility.yul\":21252:21480   */\n    tag_308:\n        /* \"#utility.yul\":21392:21426   */\n      0x4f6e6c7920636c696e6963732063616c6c20706572666f726d2074686973206f\n        /* \"#utility.yul\":21388:21389   */\n      0x00\n        /* \"#utility.yul\":21380:21386   */\n      dup3\n        /* \"#utility.yul\":21376:21390   */\n      add\n        /* \"#utility.yul\":21369:21427   */\n      mstore\n        /* \"#utility.yul\":21461:21472   */\n      0x7065726174696f6e730000000000000000000000000000000000000000000000\n        /* \"#utility.yul\":21456:21458   */\n      0x20\n        /* \"#utility.yul\":21448:21454   */\n      dup3\n        /* \"#utility.yul\":21444:21459   */\n      add\n        /* \"#utility.yul\":21437:21473   */\n      mstore\n        /* \"#utility.yul\":21252:21480   */\n      pop\n      jump\t// out\n        /* \"#utility.yul\":21486:21655   */\n    tag_313:\n        /* \"#utility.yul\":21626:21647   */\n      0x496e766f6963652063616e277420666f756e6400000000000000000000000000\n        /* \"#utility.yul\":21622:21623   */\n      0x00\n        /* \"#utility.yul\":21614:21620   */\n      dup3\n        /* \"#utility.yul\":21610:21624   */\n      add\n        /* \"#utility.yul\":21603:21648   */\n      mstore\n        /* \"#utility.yul\":21486:21655   */\n      pop\n      jump\t// out\n        /* \"#utility.yul\":21661:21843   */\n    tag_318:\n        /* \"#utility.yul\":21801:21835   */\n      0x4f776e61626c653a2063616c6c6572206973206e6f7420746865206f776e6572\n        /* \"#utility.yul\":21797:21798   */\n      0x00\n        /* \"#utility.yul\":21789:21795   */\n      dup3\n        /* \"#utility.yul\":21785:21799   */\n      add\n        /* \"#utility.yul\":21778:21836   */\n      mstore\n        /* \"#utility.yul\":21661:21843   */\n      pop\n      jump\t// out\n        /* \"#utility.yul\":21849:22072   */\n    tag_323:\n        /* \"#utility.yul\":21989:22023   */\n      0x50617469656e742063616e27742062652063686172676564207468697320616d\n        /* \"#utility.yul\":21985:21986   */\n      0x00\n        /* \"#utility.yul\":21977:21983   */\n      dup3\n        /* \"#utility.yul\":21973:21987   */\n      add\n        /* \"#utility.yul\":21966:22024   */\n      mstore\n        /* \"#utility.yul\":22058:22064   */\n      0x6f756e7400000000000000000000000000000000000000000000000000000000\n        /* \"#utility.yul\":22053:22055   */\n      0x20\n        /* \"#utility.yul\":22045:22051   */\n      dup3\n        /* \"#utility.yul\":22041:22056   */\n      add\n        /* \"#utility.yul\":22034:22065   */\n      mstore\n        /* \"#utility.yul\":21849:22072   */\n      pop\n      jump\t// out\n        /* \"#utility.yul\":22078:22253   */\n    tag_328:\n        /* \"#utility.yul\":22218:22245   */\n      0x496e766f6963652063616e277420626520616363657074656400000000000000\n        /* \"#utility.yul\":22214:22215   */\n      0x00\n        /* \"#utility.yul\":22206:22212   */\n      dup3\n        /* \"#utility.yul\":22202:22216   */\n      add\n        /* \"#utility.yul\":22195:22246   */\n      mstore\n        /* \"#utility.yul\":22078:22253   */\n      pop\n      jump\t// out\n        /* \"#utility.yul\":22259:22488   */\n    tag_333:\n        /* \"#utility.yul\":22399:22433   */\n      0x50617469656e742063616e2774206265206368617267656420666f7220746869\n        /* \"#utility.yul\":22395:22396   */\n      0x00\n        /* \"#utility.yul\":22387:22393   */\n      dup3\n        /* \"#utility.yul\":22383:22397   */\n      add\n        /* \"#utility.yul\":22376:22434   */\n      mstore\n        /* \"#utility.yul\":22468:22480   */\n      0x732063617465676f727900000000000000000000000000000000000000000000\n        /* \"#utility.yul\":22463:22465   */\n      0x20\n        /* \"#utility.yul\":22455:22461   */\n      dup3\n        /* \"#utility.yul\":22451:22466   */\n      add\n        /* \"#utility.yul\":22444:22481   */\n      mstore\n        /* \"#utility.yul\":22259:22488   */\n      pop\n      jump\t// out\n        /* \"#utility.yul\":22494:22609   */\n    tag_409:\n        /* \"#utility.yul\":22577:22578   */\n      0x03\n        /* \"#utility.yul\":22570:22575   */\n      dup2\n        /* \"#utility.yul\":22567:22579   */\n      lt\n        /* \"#utility.yul\":22557:22603   */\n      tag_449\n      jumpi\n        /* \"#utility.yul\":22583:22601   */\n      tag_450\n      tag_71\n      jump\t// in\n    tag_450:\n        /* \"#utility.yul\":22557:22603   */\n    tag_449:\n        /* \"#utility.yul\":22494:22609   */\n      pop\n      jump\t// out\n        /* \"#utility.yul\":22615:22737   */\n    tag_196:\n        /* \"#utility.yul\":22688:22712   */\n      tag_452\n        /* \"#utility.yul\":22706:22711   */\n      dup2\n        /* \"#utility.yul\":22688:22712   */\n      tag_265\n      jump\t// in\n    tag_452:\n        /* \"#utility.yul\":22681:22686   */\n      dup2\n        /* \"#utility.yul\":22678:22713   */\n      eq\n        /* \"#utility.yul\":22668:22731   */\n      tag_453\n      jumpi\n        /* \"#utility.yul\":22727:22728   */\n      0x00\n        /* \"#utility.yul\":22724:22725   */\n      dup1\n        /* \"#utility.yul\":22717:22729   */\n      revert\n        /* \"#utility.yul\":22668:22731   */\n    tag_453:\n        /* \"#utility.yul\":22615:22737   */\n      pop\n      jump\t// out\n        /* \"#utility.yul\":22743:22859   */\n    tag_200:\n        /* \"#utility.yul\":22813:22834   */\n      tag_455\n        /* \"#utility.yul\":22828:22833   */\n      dup2\n        /* \"#utility.yul\":22813:22834   */\n      tag_403\n      jump\t// in\n    tag_455:\n        /* \"#utility.yul\":22806:22811   */\n      dup2\n        /* \"#utility.yul\":22803:22835   */\n      eq\n        /* \"#utility.yul\":22793:22853   */\n      tag_456\n      jumpi\n        /* \"#utility.yul\":22849:22850   */\n      0x00\n        /* \"#utility.yul\":22846:22847   */\n      dup1\n        /* \"#utility.yul\":22839:22851   */\n      revert\n        /* \"#utility.yul\":22793:22853   */\n    tag_456:\n        /* \"#utility.yul\":22743:22859   */\n      pop\n      jump\t// out\n        /* \"#utility.yul\":22865:22987   */\n    tag_204:\n        /* \"#utility.yul\":22938:22962   */\n      tag_458\n        /* \"#utility.yul\":22956:22961   */\n      dup2\n        /* \"#utility.yul\":22938:22962   */\n      tag_277\n      jump\t// in\n    tag_458:\n        /* \"#utility.yul\":22931:22936   */\n      dup2\n        /* \"#utility.yul\":22928:22963   */\n      eq\n        /* \"#utility.yul\":22918:22981   */\n      tag_459\n      jumpi\n        /* \"#utility.yul\":22977:22978   */\n      0x00\n        /* \"#utility.yul\":22974:22975   */\n      dup1\n        /* \"#utility.yul\":22967:22979   */\n      revert\n        /* \"#utility.yul\":22918:22981   */\n    tag_459:\n        /* \"#utility.yul\":22865:22987   */\n      pop\n      jump\t// out\n        /* \"#utility.yul\":22993:23115   */\n    tag_214:\n        /* \"#utility.yul\":23066:23090   */\n      tag_461\n        /* \"#utility.yul\":23084:23089   */\n      dup2\n        /* \"#utility.yul\":23066:23090   */\n      tag_344\n      jump\t// in\n    tag_461:\n        /* \"#utility.yul\":23059:23064   */\n      dup2\n        /* \"#utility.yul\":23056:23091   */\n      eq\n        /* \"#utility.yul\":23046:23109   */\n      tag_462\n      jumpi\n        /* \"#utility.yul\":23105:23106   */\n      0x00\n        /* \"#utility.yul\":23102:23103   */\n      dup1\n        /* \"#utility.yul\":23095:23107   */\n      revert\n        /* \"#utility.yul\":23046:23109   */\n    tag_462:\n        /* \"#utility.yul\":22993:23115   */\n      pop\n      jump\t// out\n\n    auxdata: 0xa2646970667358221220afeaea912083db3371159d21503642561fda134f5d970de4ecf555a31c97b0f664736f6c63430008070033\n}\n",
				"bytecode": {
					"linkReferences": {},
					"object": "608060405234801561001057600080fd5b5061002d61002261003260201b60201c565b61003a60201b60201c565b6100fe565b600033905090565b60008060009054906101000a900473ffffffffffffffffffffffffffffffffffffffff169050816000806101000a81548173ffffffffffffffffffffffffffffffffffffffff021916908373ffffffffffffffffffffffffffffffffffffffff1602179055508173ffffffffffffffffffffffffffffffffffffffff168173ffffffffffffffffffffffffffffffffffffffff167f8be0079c531659141344cd1fd0a4f28419497f9722a3daafe3b4186f6b6457e060405160405180910390a35050565b61215c806200010e6000396000f3fe608060405234801561001057600080fd5b50600436106100a95760003560e01c80637f0a44d4116100715780637f0a44d4146101505780638da5cb5b1461016c57806399bf90941461018a578063d367d966146101a6578063ed1f2592146101d6578063f2fde38b146101f2576100a9565b806302cebea5146100ae5780630707613b146100de57806310d8d74d146100fa5780635b6beeb914610116578063715018a614610146575b600080fd5b6100c860048036038101906100c39190611669565b61020e565b6040516100d59190611c26565b60405180910390f35b6100f860048036038101906100f391906116a9565b610337565b005b610114600480360381019061010f91906117a9565b610768565b005b610130600480360381019061012b91906117e9565b610800565b60405161013d9190611b0b565b60405180910390f35b61014e610830565b005b61016a60048036038101906101659190611629565b6108b8565b005b61017461097c565b6040516101819190611af0565b60405180910390f35b6101a4600480360381019061019f9190611729565b6109a5565b005b6101c060048036038101906101bb91906116fc565b610a69565b6040516101cd9190611c26565b60405180910390f35b6101f060048036038101906101eb9190611769565b610b45565b005b61020c600480360381019061020791906115fc565b610e3b565b005b6102166114db565b600560008473ffffffffffffffffffffffffffffffffffffffff1673ffffffffffffffffffffffffffffffffffffffff168152602001908152602001600020828154811061026757610266611e20565b5b90600052602060002090600402016040518060a00160405290816000820154815260200160018201548152602001600282015481526020016003820160009054906101000a900473ffffffffffffffffffffffffffffffffffffffff1673ffffffffffffffffffffffffffffffffffffffff1673ffffffffffffffffffffffffffffffffffffffff1681526020016003820160149054906101000a900460ff16600281111561031957610318611df1565b5b600281111561032b5761032a611df1565b5b81525050905092915050565b6000801b600360003373ffffffffffffffffffffffffffffffffffffffff1673ffffffffffffffffffffffffffffffffffffffff1681526020019081526020016000205414156103bc576040517f08c379a00000000000000000000000000000000000000000000000000000000081526004016103b390611b66565b60405180910390fd5b6000801b600460008573ffffffffffffffffffffffffffffffffffffffff1673ffffffffffffffffffffffffffffffffffffffff16815260200190815260200160002054141561044f5780600460008573ffffffffffffffffffffffffffffffffffffffff1673ffffffffffffffffffffffffffffffffffffffff168152602001908152602001600020819055506104d1565b80600460008573ffffffffffffffffffffffffffffffffffffffff1673ffffffffffffffffffffffffffffffffffffffff16815260200190815260200160002054146104d0576040517f08c379a00000000000000000000000000000000000000000000000000000000081526004016104c790611c06565b60405180910390fd5b5b816003600260008481526020019081526020016000205402101561052a576040517f08c379a000000000000000000000000000000000000000000000000000000000815260040161052190611bc6565b60405180910390fd5b60006040518060a001604052803386864243604051602001610550959493929190611a7a565b6040516020818303038152906040528051906020012081526020018381526020018481526020018573ffffffffffffffffffffffffffffffffffffffff168152602001600060028111156105a7576105a6611df1565b5b815250905080600760008673ffffffffffffffffffffffffffffffffffffffff1673ffffffffffffffffffffffffffffffffffffffff1681526020019081526020016000206000600360003373ffffffffffffffffffffffffffffffffffffffff1673ffffffffffffffffffffffffffffffffffffffff16815260200190815260200160002054815260200190815260200160002060008201518160000155602082015181600101556040820151816002015560608201518160030160006101000a81548173ffffffffffffffffffffffffffffffffffffffff021916908373ffffffffffffffffffffffffffffffffffffffff16021790555060808201518160030160146101000a81548160ff021916908360028111156106cc576106cb611df1565b5b0217905550905050600360003373ffffffffffffffffffffffffffffffffffffffff1673ffffffffffffffffffffffffffffffffffffffff168152602001908152602001600020548473ffffffffffffffffffffffffffffffffffffffff167fad438d062604ef9539e2a0b5152e5071f8d5e9641c488d60234d23fdca24444c8560405161075a9190611c41565b60405180910390a350505050565b610770610f33565b73ffffffffffffffffffffffffffffffffffffffff1661078e61097c565b73ffffffffffffffffffffffffffffffffffffffff16146107e4576040517f08c379a00000000000000000000000000000000000000000000000000000000081526004016107db90611ba6565b60405180910390fd5b8060026000848152602001908152602001600020819055505050565b6000816040516020016108139190611ad9565b604051602081830303815290604052805190602001209050919050565b610838610f33565b73ffffffffffffffffffffffffffffffffffffffff1661085661097c565b73ffffffffffffffffffffffffffffffffffffffff16146108ac576040517f08c379a00000000000000000000000000000000000000000000000000000000081526004016108a390611ba6565b60405180910390fd5b6108b66000610f3b565b565b6108c0610f33565b73ffffffffffffffffffffffffffffffffffffffff166108de61097c565b73ffffffffffffffffffffffffffffffffffffffff1614610934576040517f08c379a000000000000000000000000000000000000000000000000000000000815260040161092b90611ba6565b60405180910390fd5b80600460008473ffffffffffffffffffffffffffffffffffffffff1673ffffffffffffffffffffffffffffffffffffffff168152602001908152602001600020819055505050565b60008060009054906101000a900473ffffffffffffffffffffffffffffffffffffffff16905090565b6109ad610f33565b73ffffffffffffffffffffffffffffffffffffffff166109cb61097c565b73ffffffffffffffffffffffffffffffffffffffff1614610a21576040517f08c379a0000000000000000000000000000000000000000000000000000000008152600401610a1890611ba6565b60405180910390fd5b81600360008373ffffffffffffffffffffffffffffffffffffffff1673ffffffffffffffffffffffffffffffffffffffff168152602001908152602001600020819055505050565b610a716114db565b600660008381526020019081526020016000206040518060a00160405290816000820154815260200160018201548152602001600282015481526020016003820160009054906101000a900473ffffffffffffffffffffffffffffffffffffffff1673ffffffffffffffffffffffffffffffffffffffff1673ffffffffffffffffffffffffffffffffffffffff1681526020016003820160149054906101000a900460ff166002811115610b2857610b27611df1565b5b6002811115610b3a57610b39611df1565b5b815250509050919050565b6000801b600460003373ffffffffffffffffffffffffffffffffffffffff1673ffffffffffffffffffffffffffffffffffffffff168152602001908152602001600020541415610bca576040517f08c379a0000000000000000000000000000000000000000000000000000000008152600401610bc190611b46565b60405180910390fd5b6000801b600760003373ffffffffffffffffffffffffffffffffffffffff1673ffffffffffffffffffffffffffffffffffffffff1681526020019081526020016000206000848152602001908152602001600020600001541415610c63576040517f08c379a0000000000000000000000000000000000000000000000000000000008152600401610c5a90611b86565b60405180910390fd5b60006002811115610c7757610c76611df1565b5b600760003373ffffffffffffffffffffffffffffffffffffffff1673ffffffffffffffffffffffffffffffffffffffff168152602001908152602001600020600084815260200190815260200160002060030160149054906101000a900460ff166002811115610cea57610ce9611df1565b5b14610d2a576040517f08c379a0000000000000000000000000000000000000000000000000000000008152600401610d2190611be6565b60405180910390fd5b8015610db1576001600760003373ffffffffffffffffffffffffffffffffffffffff1673ffffffffffffffffffffffffffffffffffffffff168152602001908152602001600020600084815260200190815260200160002060030160146101000a81548160ff02191690836002811115610da757610da6611df1565b5b0217905550610e2e565b6002600760003373ffffffffffffffffffffffffffffffffffffffff1673ffffffffffffffffffffffffffffffffffffffff168152602001908152602001600020600084815260200190815260200160002060030160146101000a81548160ff02191690836002811115610e2857610e27611df1565b5b02179055505b610e3782610fff565b5050565b610e43610f33565b73ffffffffffffffffffffffffffffffffffffffff16610e6161097c565b73ffffffffffffffffffffffffffffffffffffffff1614610eb7576040517f08c379a0000000000000000000000000000000000000000000000000000000008152600401610eae90611ba6565b60405180910390fd5b600073ffffffffffffffffffffffffffffffffffffffff168173ffffffffffffffffffffffffffffffffffffffff161415610f27576040517f08c379a0000000000000000000000000000000000000000000000000000000008152600401610f1e90611b26565b60405180910390fd5b610f3081610f3b565b50565b600033905090565b60008060009054906101000a900473ffffffffffffffffffffffffffffffffffffffff169050816000806101000a81548173ffffffffffffffffffffffffffffffffffffffff021916908373ffffffffffffffffffffffffffffffffffffffff1602179055508173ffffffffffffffffffffffffffffffffffffffff168173ffffffffffffffffffffffffffffffffffffffff167f8be0079c531659141344cd1fd0a4f28419497f9722a3daafe3b4186f6b6457e060405160405180910390a35050565b600560003373ffffffffffffffffffffffffffffffffffffffff1673ffffffffffffffffffffffffffffffffffffffff168152602001908152602001600020600760003373ffffffffffffffffffffffffffffffffffffffff1673ffffffffffffffffffffffffffffffffffffffff168152602001908152602001600020600083815260200190815260200160002090806001815401808255809150506001900390600052602060002090600402016000909190919091506000820154816000015560018201548160010155600282015481600201556003820160009054906101000a900473ffffffffffffffffffffffffffffffffffffffff168160030160006101000a81548173ffffffffffffffffffffffffffffffffffffffff021916908373ffffffffffffffffffffffffffffffffffffffff1602179055506003820160149054906101000a900460ff168160030160146101000a81548160ff0219169083600281111561117457611173611df1565b5b02179055505050600760003373ffffffffffffffffffffffffffffffffffffffff1673ffffffffffffffffffffffffffffffffffffffff168152602001908152602001600020600082815260200190815260200160002060066000600760003373ffffffffffffffffffffffffffffffffffffffff1673ffffffffffffffffffffffffffffffffffffffff16815260200190815260200160002060008581526020019081526020016000206000015481526020019081526020016000206000820154816000015560018201548160010155600282015481600201556003820160009054906101000a900473ffffffffffffffffffffffffffffffffffffffff168160030160006101000a81548173ffffffffffffffffffffffffffffffffffffffff021916908373ffffffffffffffffffffffffffffffffffffffff1602179055506003820160149054906101000a900460ff168160030160146101000a81548160ff021916908360028111156112ee576112ed611df1565b5b02179055509050506040518060a001604052806000801b81526020016000801b815260200160008152602001600073ffffffffffffffffffffffffffffffffffffffff1681526020016000600281111561134b5761134a611df1565b5b815250600760003373ffffffffffffffffffffffffffffffffffffffff1673ffffffffffffffffffffffffffffffffffffffff168152602001908152602001600020600083815260200190815260200160002060008201518160000155602082015181600101556040820151816002015560608201518160030160006101000a81548173ffffffffffffffffffffffffffffffffffffffff021916908373ffffffffffffffffffffffffffffffffffffffff16021790555060808201518160030160146101000a81548160ff0219169083600281111561142e5761142d611df1565b5b0217905550905050803373ffffffffffffffffffffffffffffffffffffffff167f58e6b4bb20368f9a0b488a5727fff9b8795b7c85245c2a5d7ccbea5552fd2ca5600760003373ffffffffffffffffffffffffffffffffffffffff1673ffffffffffffffffffffffffffffffffffffffff1681526020019081526020016000206000858152602001908152602001600020600201546040516114d09190611c41565b60405180910390a350565b6040518060a00160405280600080191681526020016000801916815260200160008152602001600073ffffffffffffffffffffffffffffffffffffffff1681526020016000600281111561153257611531611df1565b5b81525090565b600061154b61154684611c81565b611c5c565b90508281526020810184848401111561156757611566611e83565b5b611572848285611d50565b509392505050565b600081359050611589816120ca565b92915050565b60008135905061159e816120e1565b92915050565b6000813590506115b3816120f8565b92915050565b600082601f8301126115ce576115cd611e7e565b5b81356115de848260208601611538565b91505092915050565b6000813590506115f68161210f565b92915050565b60006020828403121561161257611611611e8d565b5b60006116208482850161157a565b91505092915050565b600080604083850312156116405761163f611e8d565b5b600061164e8582860161157a565b925050602061165f858286016115a4565b9150509250929050565b600080604083850312156116805761167f611e8d565b5b600061168e8582860161157a565b925050602061169f858286016115e7565b9150509250929050565b6000806000606084860312156116c2576116c1611e8d565b5b60006116d08682870161157a565b93505060206116e1868287016115e7565b92505060406116f2868287016115a4565b9150509250925092565b60006020828403121561171257611711611e8d565b5b6000611720848285016115a4565b91505092915050565b600080604083850312156117405761173f611e8d565b5b600061174e858286016115a4565b925050602061175f8582860161157a565b9150509250929050565b600080604083850312156117805761177f611e8d565b5b600061178e858286016115a4565b925050602061179f8582860161158f565b9150509250929050565b600080604083850312156117c0576117bf611e8d565b5b60006117ce858286016115a4565b92505060206117df858286016115e7565b9150509250929050565b6000602082840312156117ff576117fe611e8d565b5b600082013567ffffffffffffffff81111561181d5761181c611e88565b5b611829848285016115b9565b91505092915050565b61183b81611cd9565b82525050565b61184a81611cd9565b82525050565b61186161185c82611cd9565b611dc3565b82525050565b61187081611cf7565b82525050565b61187f81611cf7565b82525050565b61188e81611d3e565b82525050565b600061189f82611cb2565b6118a98185611cce565b93506118b9818560208601611d5f565b80840191505092915050565b60006118d2602683611cbd565b91506118dd82611eb0565b604082019050919050565b60006118f5603083611cbd565b915061190082611eff565b604082019050919050565b6000611918602983611cbd565b915061192382611f4e565b604082019050919050565b600061193b601383611cbd565b915061194682611f9d565b602082019050919050565b600061195e602083611cbd565b915061196982611fc6565b602082019050919050565b6000611981602483611cbd565b915061198c82611fef565b604082019050919050565b60006119a4601983611cbd565b91506119af8261203e565b602082019050919050565b60006119c7602a83611cbd565b91506119d282612067565b604082019050919050565b60a0820160008201516119f36000850182611867565b506020820151611a066020850182611867565b506040820151611a196040850182611a45565b506060820151611a2c6060850182611832565b506080820151611a3f6080850182611885565b50505050565b611a4e81611d34565b82525050565b611a5d81611d34565b82525050565b611a74611a6f82611d34565b611de7565b82525050565b6000611a868288611850565b601482019150611a968287611850565b601482019150611aa68286611a63565b602082019150611ab68285611a63565b602082019150611ac68284611a63565b6020820191508190509695505050505050565b6000611ae58284611894565b915081905092915050565b6000602082019050611b056000830184611841565b92915050565b6000602082019050611b206000830184611876565b92915050565b60006020820190508181036000830152611b3f816118c5565b9050919050565b60006020820190508181036000830152611b5f816118e8565b9050919050565b60006020820190508181036000830152611b7f8161190b565b9050919050565b60006020820190508181036000830152611b9f8161192e565b9050919050565b60006020820190508181036000830152611bbf81611951565b9050919050565b60006020820190508181036000830152611bdf81611974565b9050919050565b60006020820190508181036000830152611bff81611997565b9050919050565b60006020820190508181036000830152611c1f816119ba565b9050919050565b600060a082019050611c3b60008301846119dd565b92915050565b6000602082019050611c566000830184611a54565b92915050565b6000611c66611c77565b9050611c728282611d92565b919050565b6000604051905090565b600067ffffffffffffffff821115611c9c57611c9b611e4f565b5b611ca582611e92565b9050602081019050919050565b600081519050919050565b600082825260208201905092915050565b600081905092915050565b6000611ce482611d14565b9050919050565b60008115159050919050565b6000819050919050565b6000819050611d0f826120b6565b919050565b600073ffffffffffffffffffffffffffffffffffffffff82169050919050565b6000819050919050565b6000611d4982611d01565b9050919050565b82818337600083830152505050565b60005b83811015611d7d578082015181840152602081019050611d62565b83811115611d8c576000848401525b50505050565b611d9b82611e92565b810181811067ffffffffffffffff82111715611dba57611db9611e4f565b5b80604052505050565b6000611dce82611dd5565b9050919050565b6000611de082611ea3565b9050919050565b6000819050919050565b7f4e487b7100000000000000000000000000000000000000000000000000000000600052602160045260246000fd5b7f4e487b7100000000000000000000000000000000000000000000000000000000600052603260045260246000fd5b7f4e487b7100000000000000000000000000000000000000000000000000000000600052604160045260246000fd5b600080fd5b600080fd5b600080fd5b600080fd5b6000601f19601f8301169050919050565b60008160601b9050919050565b7f4f776e61626c653a206e6577206f776e657220697320746865207a65726f206160008201527f6464726573730000000000000000000000000000000000000000000000000000602082015250565b7f5468657265206973206e6f2070617469656e742072656769737465726564207760008201527f6974682074686973206164647265737300000000000000000000000000000000602082015250565b7f4f6e6c7920636c696e6963732063616c6c20706572666f726d2074686973206f60008201527f7065726174696f6e730000000000000000000000000000000000000000000000602082015250565b7f496e766f6963652063616e277420666f756e6400000000000000000000000000600082015250565b7f4f776e61626c653a2063616c6c6572206973206e6f7420746865206f776e6572600082015250565b7f50617469656e742063616e27742062652063686172676564207468697320616d60008201527f6f756e7400000000000000000000000000000000000000000000000000000000602082015250565b7f496e766f6963652063616e277420626520616363657074656400000000000000600082015250565b7f50617469656e742063616e2774206265206368617267656420666f722074686960008201527f732063617465676f727900000000000000000000000000000000000000000000602082015250565b600381106120c7576120c6611df1565b5b50565b6120d381611cd9565b81146120de57600080fd5b50565b6120ea81611ceb565b81146120f557600080fd5b50565b61210181611cf7565b811461210c57600080fd5b50565b61211881611d34565b811461212357600080fd5b5056fea2646970667358221220afeaea912083db3371159d21503642561fda134f5d970de4ecf555a31c97b0f664736f6c63430008070033",
					"opcodes": "PUSH1 0x80 PUSH1 0x40 MSTORE CALLVALUE DUP1 ISZERO PUSH2 0x10 JUMPI PUSH1 0x0 DUP1 REVERT JUMPDEST POP PUSH2 0x2D PUSH2 0x22 PUSH2 0x32 PUSH1 0x20 SHL PUSH1 0x20 SHR JUMP JUMPDEST PUSH2 0x3A PUSH1 0x20 SHL PUSH1 0x20 SHR JUMP JUMPDEST PUSH2 0xFE JUMP JUMPDEST PUSH1 0x0 CALLER SWAP1 POP SWAP1 JUMP JUMPDEST PUSH1 0x0 DUP1 PUSH1 0x0 SWAP1 SLOAD SWAP1 PUSH2 0x100 EXP SWAP1 DIV PUSH20 0xFFFFFFFFFFFFFFFFFFFFFFFFFFFFFFFFFFFFFFFF AND SWAP1 POP DUP2 PUSH1 0x0 DUP1 PUSH2 0x100 EXP DUP2 SLOAD DUP2 PUSH20 0xFFFFFFFFFFFFFFFFFFFFFFFFFFFFFFFFFFFFFFFF MUL NOT AND SWAP1 DUP4 PUSH20 0xFFFFFFFFFFFFFFFFFFFFFFFFFFFFFFFFFFFFFFFF AND MUL OR SWAP1 SSTORE POP DUP2 PUSH20 0xFFFFFFFFFFFFFFFFFFFFFFFFFFFFFFFFFFFFFFFF AND DUP2 PUSH20 0xFFFFFFFFFFFFFFFFFFFFFFFFFFFFFFFFFFFFFFFF AND PUSH32 0x8BE0079C531659141344CD1FD0A4F28419497F9722A3DAAFE3B4186F6B6457E0 PUSH1 0x40 MLOAD PUSH1 0x40 MLOAD DUP1 SWAP2 SUB SWAP1 LOG3 POP POP JUMP JUMPDEST PUSH2 0x215C DUP1 PUSH3 0x10E PUSH1 0x0 CODECOPY PUSH1 0x0 RETURN INVALID PUSH1 0x80 PUSH1 0x40 MSTORE CALLVALUE DUP1 ISZERO PUSH2 0x10 JUMPI PUSH1 0x0 DUP1 REVERT JUMPDEST POP PUSH1 0x4 CALLDATASIZE LT PUSH2 0xA9 JUMPI PUSH1 0x0 CALLDATALOAD PUSH1 0xE0 SHR DUP1 PUSH4 0x7F0A44D4 GT PUSH2 0x71 JUMPI DUP1 PUSH4 0x7F0A44D4 EQ PUSH2 0x150 JUMPI DUP1 PUSH4 0x8DA5CB5B EQ PUSH2 0x16C JUMPI DUP1 PUSH4 0x99BF9094 EQ PUSH2 0x18A JUMPI DUP1 PUSH4 0xD367D966 EQ PUSH2 0x1A6 JUMPI DUP1 PUSH4 0xED1F2592 EQ PUSH2 0x1D6 JUMPI DUP1 PUSH4 0xF2FDE38B EQ PUSH2 0x1F2 JUMPI PUSH2 0xA9 JUMP JUMPDEST DUP1 PUSH4 0x2CEBEA5 EQ PUSH2 0xAE JUMPI DUP1 PUSH4 0x707613B EQ PUSH2 0xDE JUMPI DUP1 PUSH4 0x10D8D74D EQ PUSH2 0xFA JUMPI DUP1 PUSH4 0x5B6BEEB9 EQ PUSH2 0x116 JUMPI DUP1 PUSH4 0x715018A6 EQ PUSH2 0x146 JUMPI JUMPDEST PUSH1 0x0 DUP1 REVERT JUMPDEST PUSH2 0xC8 PUSH1 0x4 DUP1 CALLDATASIZE SUB DUP2 ADD SWAP1 PUSH2 0xC3 SWAP2 SWAP1 PUSH2 0x1669 JUMP JUMPDEST PUSH2 0x20E JUMP JUMPDEST PUSH1 0x40 MLOAD PUSH2 0xD5 SWAP2 SWAP1 PUSH2 0x1C26 JUMP JUMPDEST PUSH1 0x40 MLOAD DUP1 SWAP2 SUB SWAP1 RETURN JUMPDEST PUSH2 0xF8 PUSH1 0x4 DUP1 CALLDATASIZE SUB DUP2 ADD SWAP1 PUSH2 0xF3 SWAP2 SWAP1 PUSH2 0x16A9 JUMP JUMPDEST PUSH2 0x337 JUMP JUMPDEST STOP JUMPDEST PUSH2 0x114 PUSH1 0x4 DUP1 CALLDATASIZE SUB DUP2 ADD SWAP1 PUSH2 0x10F SWAP2 SWAP1 PUSH2 0x17A9 JUMP JUMPDEST PUSH2 0x768 JUMP JUMPDEST STOP JUMPDEST PUSH2 0x130 PUSH1 0x4 DUP1 CALLDATASIZE SUB DUP2 ADD SWAP1 PUSH2 0x12B SWAP2 SWAP1 PUSH2 0x17E9 JUMP JUMPDEST PUSH2 0x800 JUMP JUMPDEST PUSH1 0x40 MLOAD PUSH2 0x13D SWAP2 SWAP1 PUSH2 0x1B0B JUMP JUMPDEST PUSH1 0x40 MLOAD DUP1 SWAP2 SUB SWAP1 RETURN JUMPDEST PUSH2 0x14E PUSH2 0x830 JUMP JUMPDEST STOP JUMPDEST PUSH2 0x16A PUSH1 0x4 DUP1 CALLDATASIZE SUB DUP2 ADD SWAP1 PUSH2 0x165 SWAP2 SWAP1 PUSH2 0x1629 JUMP JUMPDEST PUSH2 0x8B8 JUMP JUMPDEST STOP JUMPDEST PUSH2 0x174 PUSH2 0x97C JUMP JUMPDEST PUSH1 0x40 MLOAD PUSH2 0x181 SWAP2 SWAP1 PUSH2 0x1AF0 JUMP JUMPDEST PUSH1 0x40 MLOAD DUP1 SWAP2 SUB SWAP1 RETURN JUMPDEST PUSH2 0x1A4 PUSH1 0x4 DUP1 CALLDATASIZE SUB DUP2 ADD SWAP1 PUSH2 0x19F SWAP2 SWAP1 PUSH2 0x1729 JUMP JUMPDEST PUSH2 0x9A5 JUMP JUMPDEST STOP JUMPDEST PUSH2 0x1C0 PUSH1 0x4 DUP1 CALLDATASIZE SUB DUP2 ADD SWAP1 PUSH2 0x1BB SWAP2 SWAP1 PUSH2 0x16FC JUMP JUMPDEST PUSH2 0xA69 JUMP JUMPDEST PUSH1 0x40 MLOAD PUSH2 0x1CD SWAP2 SWAP1 PUSH2 0x1C26 JUMP JUMPDEST PUSH1 0x40 MLOAD DUP1 SWAP2 SUB SWAP1 RETURN JUMPDEST PUSH2 0x1F0 PUSH1 0x4 DUP1 CALLDATASIZE SUB DUP2 ADD SWAP1 PUSH2 0x1EB SWAP2 SWAP1 PUSH2 0x1769 JUMP JUMPDEST PUSH2 0xB45 JUMP JUMPDEST STOP JUMPDEST PUSH2 0x20C PUSH1 0x4 DUP1 CALLDATASIZE SUB DUP2 ADD SWAP1 PUSH2 0x207 SWAP2 SWAP1 PUSH2 0x15FC JUMP JUMPDEST PUSH2 0xE3B JUMP JUMPDEST STOP JUMPDEST PUSH2 0x216 PUSH2 0x14DB JUMP JUMPDEST PUSH1 0x5 PUSH1 0x0 DUP5 PUSH20 0xFFFFFFFFFFFFFFFFFFFFFFFFFFFFFFFFFFFFFFFF AND PUSH20 0xFFFFFFFFFFFFFFFFFFFFFFFFFFFFFFFFFFFFFFFF AND DUP2 MSTORE PUSH1 0x20 ADD SWAP1 DUP2 MSTORE PUSH1 0x20 ADD PUSH1 0x0 KECCAK256 DUP3 DUP2 SLOAD DUP2 LT PUSH2 0x267 JUMPI PUSH2 0x266 PUSH2 0x1E20 JUMP JUMPDEST JUMPDEST SWAP1 PUSH1 0x0 MSTORE PUSH1 0x20 PUSH1 0x0 KECCAK256 SWAP1 PUSH1 0x4 MUL ADD PUSH1 0x40 MLOAD DUP1 PUSH1 0xA0 ADD PUSH1 0x40 MSTORE SWAP1 DUP2 PUSH1 0x0 DUP3 ADD SLOAD DUP2 MSTORE PUSH1 0x20 ADD PUSH1 0x1 DUP3 ADD SLOAD DUP2 MSTORE PUSH1 0x20 ADD PUSH1 0x2 DUP3 ADD SLOAD DUP2 MSTORE PUSH1 0x20 ADD PUSH1 0x3 DUP3 ADD PUSH1 0x0 SWAP1 SLOAD SWAP1 PUSH2 0x100 EXP SWAP1 DIV PUSH20 0xFFFFFFFFFFFFFFFFFFFFFFFFFFFFFFFFFFFFFFFF AND PUSH20 0xFFFFFFFFFFFFFFFFFFFFFFFFFFFFFFFFFFFFFFFF AND PUSH20 0xFFFFFFFFFFFFFFFFFFFFFFFFFFFFFFFFFFFFFFFF AND DUP2 MSTORE PUSH1 0x20 ADD PUSH1 0x3 DUP3 ADD PUSH1 0x14 SWAP1 SLOAD SWAP1 PUSH2 0x100 EXP SWAP1 DIV PUSH1 0xFF AND PUSH1 0x2 DUP2 GT ISZERO PUSH2 0x319 JUMPI PUSH2 0x318 PUSH2 0x1DF1 JUMP JUMPDEST JUMPDEST PUSH1 0x2 DUP2 GT ISZERO PUSH2 0x32B JUMPI PUSH2 0x32A PUSH2 0x1DF1 JUMP JUMPDEST JUMPDEST DUP2 MSTORE POP POP SWAP1 POP SWAP3 SWAP2 POP POP JUMP JUMPDEST PUSH1 0x0 DUP1 SHL PUSH1 0x3 PUSH1 0x0 CALLER PUSH20 0xFFFFFFFFFFFFFFFFFFFFFFFFFFFFFFFFFFFFFFFF AND PUSH20 0xFFFFFFFFFFFFFFFFFFFFFFFFFFFFFFFFFFFFFFFF AND DUP2 MSTORE PUSH1 0x20 ADD SWAP1 DUP2 MSTORE PUSH1 0x20 ADD PUSH1 0x0 KECCAK256 SLOAD EQ ISZERO PUSH2 0x3BC JUMPI PUSH1 0x40 MLOAD PUSH32 0x8C379A000000000000000000000000000000000000000000000000000000000 DUP2 MSTORE PUSH1 0x4 ADD PUSH2 0x3B3 SWAP1 PUSH2 0x1B66 JUMP JUMPDEST PUSH1 0x40 MLOAD DUP1 SWAP2 SUB SWAP1 REVERT JUMPDEST PUSH1 0x0 DUP1 SHL PUSH1 0x4 PUSH1 0x0 DUP6 PUSH20 0xFFFFFFFFFFFFFFFFFFFFFFFFFFFFFFFFFFFFFFFF AND PUSH20 0xFFFFFFFFFFFFFFFFFFFFFFFFFFFFFFFFFFFFFFFF AND DUP2 MSTORE PUSH1 0x20 ADD SWAP1 DUP2 MSTORE PUSH1 0x20 ADD PUSH1 0x0 KECCAK256 SLOAD EQ ISZERO PUSH2 0x44F JUMPI DUP1 PUSH1 0x4 PUSH1 0x0 DUP6 PUSH20 0xFFFFFFFFFFFFFFFFFFFFFFFFFFFFFFFFFFFFFFFF AND PUSH20 0xFFFFFFFFFFFFFFFFFFFFFFFFFFFFFFFFFFFFFFFF AND DUP2 MSTORE PUSH1 0x20 ADD SWAP1 DUP2 MSTORE PUSH1 0x20 ADD PUSH1 0x0 KECCAK256 DUP2 SWAP1 SSTORE POP PUSH2 0x4D1 JUMP JUMPDEST DUP1 PUSH1 0x4 PUSH1 0x0 DUP6 PUSH20 0xFFFFFFFFFFFFFFFFFFFFFFFFFFFFFFFFFFFFFFFF AND PUSH20 0xFFFFFFFFFFFFFFFFFFFFFFFFFFFFFFFFFFFFFFFF AND DUP2 MSTORE PUSH1 0x20 ADD SWAP1 DUP2 MSTORE PUSH1 0x20 ADD PUSH1 0x0 KECCAK256 SLOAD EQ PUSH2 0x4D0 JUMPI PUSH1 0x40 MLOAD PUSH32 0x8C379A000000000000000000000000000000000000000000000000000000000 DUP2 MSTORE PUSH1 0x4 ADD PUSH2 0x4C7 SWAP1 PUSH2 0x1C06 JUMP JUMPDEST PUSH1 0x40 MLOAD DUP1 SWAP2 SUB SWAP1 REVERT JUMPDEST JUMPDEST DUP2 PUSH1 0x3 PUSH1 0x2 PUSH1 0x0 DUP5 DUP2 MSTORE PUSH1 0x20 ADD SWAP1 DUP2 MSTORE PUSH1 0x20 ADD PUSH1 0x0 KECCAK256 SLOAD MUL LT ISZERO PUSH2 0x52A JUMPI PUSH1 0x40 MLOAD PUSH32 0x8C379A000000000000000000000000000000000000000000000000000000000 DUP2 MSTORE PUSH1 0x4 ADD PUSH2 0x521 SWAP1 PUSH2 0x1BC6 JUMP JUMPDEST PUSH1 0x40 MLOAD DUP1 SWAP2 SUB SWAP1 REVERT JUMPDEST PUSH1 0x0 PUSH1 0x40 MLOAD DUP1 PUSH1 0xA0 ADD PUSH1 0x40 MSTORE DUP1 CALLER DUP7 DUP7 TIMESTAMP NUMBER PUSH1 0x40 MLOAD PUSH1 0x20 ADD PUSH2 0x550 SWAP6 SWAP5 SWAP4 SWAP3 SWAP2 SWAP1 PUSH2 0x1A7A JUMP JUMPDEST PUSH1 0x40 MLOAD PUSH1 0x20 DUP2 DUP4 SUB SUB DUP2 MSTORE SWAP1 PUSH1 0x40 MSTORE DUP1 MLOAD SWAP1 PUSH1 0x20 ADD KECCAK256 DUP2 MSTORE PUSH1 0x20 ADD DUP4 DUP2 MSTORE PUSH1 0x20 ADD DUP5 DUP2 MSTORE PUSH1 0x20 ADD DUP6 PUSH20 0xFFFFFFFFFFFFFFFFFFFFFFFFFFFFFFFFFFFFFFFF AND DUP2 MSTORE PUSH1 0x20 ADD PUSH1 0x0 PUSH1 0x2 DUP2 GT ISZERO PUSH2 0x5A7 JUMPI PUSH2 0x5A6 PUSH2 0x1DF1 JUMP JUMPDEST JUMPDEST DUP2 MSTORE POP SWAP1 POP DUP1 PUSH1 0x7 PUSH1 0x0 DUP7 PUSH20 0xFFFFFFFFFFFFFFFFFFFFFFFFFFFFFFFFFFFFFFFF AND PUSH20 0xFFFFFFFFFFFFFFFFFFFFFFFFFFFFFFFFFFFFFFFF AND DUP2 MSTORE PUSH1 0x20 ADD SWAP1 DUP2 MSTORE PUSH1 0x20 ADD PUSH1 0x0 KECCAK256 PUSH1 0x0 PUSH1 0x3 PUSH1 0x0 CALLER PUSH20 0xFFFFFFFFFFFFFFFFFFFFFFFFFFFFFFFFFFFFFFFF AND PUSH20 0xFFFFFFFFFFFFFFFFFFFFFFFFFFFFFFFFFFFFFFFF AND DUP2 MSTORE PUSH1 0x20 ADD SWAP1 DUP2 MSTORE PUSH1 0x20 ADD PUSH1 0x0 KECCAK256 SLOAD DUP2 MSTORE PUSH1 0x20 ADD SWAP1 DUP2 MSTORE PUSH1 0x20 ADD PUSH1 0x0 KECCAK256 PUSH1 0x0 DUP3 ADD MLOAD DUP2 PUSH1 0x0 ADD SSTORE PUSH1 0x20 DUP3 ADD MLOAD DUP2 PUSH1 0x1 ADD SSTORE PUSH1 0x40 DUP3 ADD MLOAD DUP2 PUSH1 0x2 ADD SSTORE PUSH1 0x60 DUP3 ADD MLOAD DUP2 PUSH1 0x3 ADD PUSH1 0x0 PUSH2 0x100 EXP DUP2 SLOAD DUP2 PUSH20 0xFFFFFFFFFFFFFFFFFFFFFFFFFFFFFFFFFFFFFFFF MUL NOT AND SWAP1 DUP4 PUSH20 0xFFFFFFFFFFFFFFFFFFFFFFFFFFFFFFFFFFFFFFFF AND MUL OR SWAP1 SSTORE POP PUSH1 0x80 DUP3 ADD MLOAD DUP2 PUSH1 0x3 ADD PUSH1 0x14 PUSH2 0x100 EXP DUP2 SLOAD DUP2 PUSH1 0xFF MUL NOT AND SWAP1 DUP4 PUSH1 0x2 DUP2 GT ISZERO PUSH2 0x6CC JUMPI PUSH2 0x6CB PUSH2 0x1DF1 JUMP JUMPDEST JUMPDEST MUL OR SWAP1 SSTORE POP SWAP1 POP POP PUSH1 0x3 PUSH1 0x0 CALLER PUSH20 0xFFFFFFFFFFFFFFFFFFFFFFFFFFFFFFFFFFFFFFFF AND PUSH20 0xFFFFFFFFFFFFFFFFFFFFFFFFFFFFFFFFFFFFFFFF AND DUP2 MSTORE PUSH1 0x20 ADD SWAP1 DUP2 MSTORE PUSH1 0x20 ADD PUSH1 0x0 KECCAK256 SLOAD DUP5 PUSH20 0xFFFFFFFFFFFFFFFFFFFFFFFFFFFFFFFFFFFFFFFF AND PUSH32 0xAD438D062604EF9539E2A0B5152E5071F8D5E9641C488D60234D23FDCA24444C DUP6 PUSH1 0x40 MLOAD PUSH2 0x75A SWAP2 SWAP1 PUSH2 0x1C41 JUMP JUMPDEST PUSH1 0x40 MLOAD DUP1 SWAP2 SUB SWAP1 LOG3 POP POP POP POP JUMP JUMPDEST PUSH2 0x770 PUSH2 0xF33 JUMP JUMPDEST PUSH20 0xFFFFFFFFFFFFFFFFFFFFFFFFFFFFFFFFFFFFFFFF AND PUSH2 0x78E PUSH2 0x97C JUMP JUMPDEST PUSH20 0xFFFFFFFFFFFFFFFFFFFFFFFFFFFFFFFFFFFFFFFF AND EQ PUSH2 0x7E4 JUMPI PUSH1 0x40 MLOAD PUSH32 0x8C379A000000000000000000000000000000000000000000000000000000000 DUP2 MSTORE PUSH1 0x4 ADD PUSH2 0x7DB SWAP1 PUSH2 0x1BA6 JUMP JUMPDEST PUSH1 0x40 MLOAD DUP1 SWAP2 SUB SWAP1 REVERT JUMPDEST DUP1 PUSH1 0x2 PUSH1 0x0 DUP5 DUP2 MSTORE PUSH1 0x20 ADD SWAP1 DUP2 MSTORE PUSH1 0x20 ADD PUSH1 0x0 KECCAK256 DUP2 SWAP1 SSTORE POP POP POP JUMP JUMPDEST PUSH1 0x0 DUP2 PUSH1 0x40 MLOAD PUSH1 0x20 ADD PUSH2 0x813 SWAP2 SWAP1 PUSH2 0x1AD9 JUMP JUMPDEST PUSH1 0x40 MLOAD PUSH1 0x20 DUP2 DUP4 SUB SUB DUP2 MSTORE SWAP1 PUSH1 0x40 MSTORE DUP1 MLOAD SWAP1 PUSH1 0x20 ADD KECCAK256 SWAP1 POP SWAP2 SWAP1 POP JUMP JUMPDEST PUSH2 0x838 PUSH2 0xF33 JUMP JUMPDEST PUSH20 0xFFFFFFFFFFFFFFFFFFFFFFFFFFFFFFFFFFFFFFFF AND PUSH2 0x856 PUSH2 0x97C JUMP JUMPDEST PUSH20 0xFFFFFFFFFFFFFFFFFFFFFFFFFFFFFFFFFFFFFFFF AND EQ PUSH2 0x8AC JUMPI PUSH1 0x40 MLOAD PUSH32 0x8C379A000000000000000000000000000000000000000000000000000000000 DUP2 MSTORE PUSH1 0x4 ADD PUSH2 0x8A3 SWAP1 PUSH2 0x1BA6 JUMP JUMPDEST PUSH1 0x40 MLOAD DUP1 SWAP2 SUB SWAP1 REVERT JUMPDEST PUSH2 0x8B6 PUSH1 0x0 PUSH2 0xF3B JUMP JUMPDEST JUMP JUMPDEST PUSH2 0x8C0 PUSH2 0xF33 JUMP JUMPDEST PUSH20 0xFFFFFFFFFFFFFFFFFFFFFFFFFFFFFFFFFFFFFFFF AND PUSH2 0x8DE PUSH2 0x97C JUMP JUMPDEST PUSH20 0xFFFFFFFFFFFFFFFFFFFFFFFFFFFFFFFFFFFFFFFF AND EQ PUSH2 0x934 JUMPI PUSH1 0x40 MLOAD PUSH32 0x8C379A000000000000000000000000000000000000000000000000000000000 DUP2 MSTORE PUSH1 0x4 ADD PUSH2 0x92B SWAP1 PUSH2 0x1BA6 JUMP JUMPDEST PUSH1 0x40 MLOAD DUP1 SWAP2 SUB SWAP1 REVERT JUMPDEST DUP1 PUSH1 0x4 PUSH1 0x0 DUP5 PUSH20 0xFFFFFFFFFFFFFFFFFFFFFFFFFFFFFFFFFFFFFFFF AND PUSH20 0xFFFFFFFFFFFFFFFFFFFFFFFFFFFFFFFFFFFFFFFF AND DUP2 MSTORE PUSH1 0x20 ADD SWAP1 DUP2 MSTORE PUSH1 0x20 ADD PUSH1 0x0 KECCAK256 DUP2 SWAP1 SSTORE POP POP POP JUMP JUMPDEST PUSH1 0x0 DUP1 PUSH1 0x0 SWAP1 SLOAD SWAP1 PUSH2 0x100 EXP SWAP1 DIV PUSH20 0xFFFFFFFFFFFFFFFFFFFFFFFFFFFFFFFFFFFFFFFF AND SWAP1 POP SWAP1 JUMP JUMPDEST PUSH2 0x9AD PUSH2 0xF33 JUMP JUMPDEST PUSH20 0xFFFFFFFFFFFFFFFFFFFFFFFFFFFFFFFFFFFFFFFF AND PUSH2 0x9CB PUSH2 0x97C JUMP JUMPDEST PUSH20 0xFFFFFFFFFFFFFFFFFFFFFFFFFFFFFFFFFFFFFFFF AND EQ PUSH2 0xA21 JUMPI PUSH1 0x40 MLOAD PUSH32 0x8C379A000000000000000000000000000000000000000000000000000000000 DUP2 MSTORE PUSH1 0x4 ADD PUSH2 0xA18 SWAP1 PUSH2 0x1BA6 JUMP JUMPDEST PUSH1 0x40 MLOAD DUP1 SWAP2 SUB SWAP1 REVERT JUMPDEST DUP2 PUSH1 0x3 PUSH1 0x0 DUP4 PUSH20 0xFFFFFFFFFFFFFFFFFFFFFFFFFFFFFFFFFFFFFFFF AND PUSH20 0xFFFFFFFFFFFFFFFFFFFFFFFFFFFFFFFFFFFFFFFF AND DUP2 MSTORE PUSH1 0x20 ADD SWAP1 DUP2 MSTORE PUSH1 0x20 ADD PUSH1 0x0 KECCAK256 DUP2 SWAP1 SSTORE POP POP POP JUMP JUMPDEST PUSH2 0xA71 PUSH2 0x14DB JUMP JUMPDEST PUSH1 0x6 PUSH1 0x0 DUP4 DUP2 MSTORE PUSH1 0x20 ADD SWAP1 DUP2 MSTORE PUSH1 0x20 ADD PUSH1 0x0 KECCAK256 PUSH1 0x40 MLOAD DUP1 PUSH1 0xA0 ADD PUSH1 0x40 MSTORE SWAP1 DUP2 PUSH1 0x0 DUP3 ADD SLOAD DUP2 MSTORE PUSH1 0x20 ADD PUSH1 0x1 DUP3 ADD SLOAD DUP2 MSTORE PUSH1 0x20 ADD PUSH1 0x2 DUP3 ADD SLOAD DUP2 MSTORE PUSH1 0x20 ADD PUSH1 0x3 DUP3 ADD PUSH1 0x0 SWAP1 SLOAD SWAP1 PUSH2 0x100 EXP SWAP1 DIV PUSH20 0xFFFFFFFFFFFFFFFFFFFFFFFFFFFFFFFFFFFFFFFF AND PUSH20 0xFFFFFFFFFFFFFFFFFFFFFFFFFFFFFFFFFFFFFFFF AND PUSH20 0xFFFFFFFFFFFFFFFFFFFFFFFFFFFFFFFFFFFFFFFF AND DUP2 MSTORE PUSH1 0x20 ADD PUSH1 0x3 DUP3 ADD PUSH1 0x14 SWAP1 SLOAD SWAP1 PUSH2 0x100 EXP SWAP1 DIV PUSH1 0xFF AND PUSH1 0x2 DUP2 GT ISZERO PUSH2 0xB28 JUMPI PUSH2 0xB27 PUSH2 0x1DF1 JUMP JUMPDEST JUMPDEST PUSH1 0x2 DUP2 GT ISZERO PUSH2 0xB3A JUMPI PUSH2 0xB39 PUSH2 0x1DF1 JUMP JUMPDEST JUMPDEST DUP2 MSTORE POP POP SWAP1 POP SWAP2 SWAP1 POP JUMP JUMPDEST PUSH1 0x0 DUP1 SHL PUSH1 0x4 PUSH1 0x0 CALLER PUSH20 0xFFFFFFFFFFFFFFFFFFFFFFFFFFFFFFFFFFFFFFFF AND PUSH20 0xFFFFFFFFFFFFFFFFFFFFFFFFFFFFFFFFFFFFFFFF AND DUP2 MSTORE PUSH1 0x20 ADD SWAP1 DUP2 MSTORE PUSH1 0x20 ADD PUSH1 0x0 KECCAK256 SLOAD EQ ISZERO PUSH2 0xBCA JUMPI PUSH1 0x40 MLOAD PUSH32 0x8C379A000000000000000000000000000000000000000000000000000000000 DUP2 MSTORE PUSH1 0x4 ADD PUSH2 0xBC1 SWAP1 PUSH2 0x1B46 JUMP JUMPDEST PUSH1 0x40 MLOAD DUP1 SWAP2 SUB SWAP1 REVERT JUMPDEST PUSH1 0x0 DUP1 SHL PUSH1 0x7 PUSH1 0x0 CALLER PUSH20 0xFFFFFFFFFFFFFFFFFFFFFFFFFFFFFFFFFFFFFFFF AND PUSH20 0xFFFFFFFFFFFFFFFFFFFFFFFFFFFFFFFFFFFFFFFF AND DUP2 MSTORE PUSH1 0x20 ADD SWAP1 DUP2 MSTORE PUSH1 0x20 ADD PUSH1 0x0 KECCAK256 PUSH1 0x0 DUP5 DUP2 MSTORE PUSH1 0x20 ADD SWAP1 DUP2 MSTORE PUSH1 0x20 ADD PUSH1 0x0 KECCAK256 PUSH1 0x0 ADD SLOAD EQ ISZERO PUSH2 0xC63 JUMPI PUSH1 0x40 MLOAD PUSH32 0x8C379A000000000000000000000000000000000000000000000000000000000 DUP2 MSTORE PUSH1 0x4 ADD PUSH2 0xC5A SWAP1 PUSH2 0x1B86 JUMP JUMPDEST PUSH1 0x40 MLOAD DUP1 SWAP2 SUB SWAP1 REVERT JUMPDEST PUSH1 0x0 PUSH1 0x2 DUP2 GT ISZERO PUSH2 0xC77 JUMPI PUSH2 0xC76 PUSH2 0x1DF1 JUMP JUMPDEST JUMPDEST PUSH1 0x7 PUSH1 0x0 CALLER PUSH20 0xFFFFFFFFFFFFFFFFFFFFFFFFFFFFFFFFFFFFFFFF AND PUSH20 0xFFFFFFFFFFFFFFFFFFFFFFFFFFFFFFFFFFFFFFFF AND DUP2 MSTORE PUSH1 0x20 ADD SWAP1 DUP2 MSTORE PUSH1 0x20 ADD PUSH1 0x0 KECCAK256 PUSH1 0x0 DUP5 DUP2 MSTORE PUSH1 0x20 ADD SWAP1 DUP2 MSTORE PUSH1 0x20 ADD PUSH1 0x0 KECCAK256 PUSH1 0x3 ADD PUSH1 0x14 SWAP1 SLOAD SWAP1 PUSH2 0x100 EXP SWAP1 DIV PUSH1 0xFF AND PUSH1 0x2 DUP2 GT ISZERO PUSH2 0xCEA JUMPI PUSH2 0xCE9 PUSH2 0x1DF1 JUMP JUMPDEST JUMPDEST EQ PUSH2 0xD2A JUMPI PUSH1 0x40 MLOAD PUSH32 0x8C379A000000000000000000000000000000000000000000000000000000000 DUP2 MSTORE PUSH1 0x4 ADD PUSH2 0xD21 SWAP1 PUSH2 0x1BE6 JUMP JUMPDEST PUSH1 0x40 MLOAD DUP1 SWAP2 SUB SWAP1 REVERT JUMPDEST DUP1 ISZERO PUSH2 0xDB1 JUMPI PUSH1 0x1 PUSH1 0x7 PUSH1 0x0 CALLER PUSH20 0xFFFFFFFFFFFFFFFFFFFFFFFFFFFFFFFFFFFFFFFF AND PUSH20 0xFFFFFFFFFFFFFFFFFFFFFFFFFFFFFFFFFFFFFFFF AND DUP2 MSTORE PUSH1 0x20 ADD SWAP1 DUP2 MSTORE PUSH1 0x20 ADD PUSH1 0x0 KECCAK256 PUSH1 0x0 DUP5 DUP2 MSTORE PUSH1 0x20 ADD SWAP1 DUP2 MSTORE PUSH1 0x20 ADD PUSH1 0x0 KECCAK256 PUSH1 0x3 ADD PUSH1 0x14 PUSH2 0x100 EXP DUP2 SLOAD DUP2 PUSH1 0xFF MUL NOT AND SWAP1 DUP4 PUSH1 0x2 DUP2 GT ISZERO PUSH2 0xDA7 JUMPI PUSH2 0xDA6 PUSH2 0x1DF1 JUMP JUMPDEST JUMPDEST MUL OR SWAP1 SSTORE POP PUSH2 0xE2E JUMP JUMPDEST PUSH1 0x2 PUSH1 0x7 PUSH1 0x0 CALLER PUSH20 0xFFFFFFFFFFFFFFFFFFFFFFFFFFFFFFFFFFFFFFFF AND PUSH20 0xFFFFFFFFFFFFFFFFFFFFFFFFFFFFFFFFFFFFFFFF AND DUP2 MSTORE PUSH1 0x20 ADD SWAP1 DUP2 MSTORE PUSH1 0x20 ADD PUSH1 0x0 KECCAK256 PUSH1 0x0 DUP5 DUP2 MSTORE PUSH1 0x20 ADD SWAP1 DUP2 MSTORE PUSH1 0x20 ADD PUSH1 0x0 KECCAK256 PUSH1 0x3 ADD PUSH1 0x14 PUSH2 0x100 EXP DUP2 SLOAD DUP2 PUSH1 0xFF MUL NOT AND SWAP1 DUP4 PUSH1 0x2 DUP2 GT ISZERO PUSH2 0xE28 JUMPI PUSH2 0xE27 PUSH2 0x1DF1 JUMP JUMPDEST JUMPDEST MUL OR SWAP1 SSTORE POP JUMPDEST PUSH2 0xE37 DUP3 PUSH2 0xFFF JUMP JUMPDEST POP POP JUMP JUMPDEST PUSH2 0xE43 PUSH2 0xF33 JUMP JUMPDEST PUSH20 0xFFFFFFFFFFFFFFFFFFFFFFFFFFFFFFFFFFFFFFFF AND PUSH2 0xE61 PUSH2 0x97C JUMP JUMPDEST PUSH20 0xFFFFFFFFFFFFFFFFFFFFFFFFFFFFFFFFFFFFFFFF AND EQ PUSH2 0xEB7 JUMPI PUSH1 0x40 MLOAD PUSH32 0x8C379A000000000000000000000000000000000000000000000000000000000 DUP2 MSTORE PUSH1 0x4 ADD PUSH2 0xEAE SWAP1 PUSH2 0x1BA6 JUMP JUMPDEST PUSH1 0x40 MLOAD DUP1 SWAP2 SUB SWAP1 REVERT JUMPDEST PUSH1 0x0 PUSH20 0xFFFFFFFFFFFFFFFFFFFFFFFFFFFFFFFFFFFFFFFF AND DUP2 PUSH20 0xFFFFFFFFFFFFFFFFFFFFFFFFFFFFFFFFFFFFFFFF AND EQ ISZERO PUSH2 0xF27 JUMPI PUSH1 0x40 MLOAD PUSH32 0x8C379A000000000000000000000000000000000000000000000000000000000 DUP2 MSTORE PUSH1 0x4 ADD PUSH2 0xF1E SWAP1 PUSH2 0x1B26 JUMP JUMPDEST PUSH1 0x40 MLOAD DUP1 SWAP2 SUB SWAP1 REVERT JUMPDEST PUSH2 0xF30 DUP2 PUSH2 0xF3B JUMP JUMPDEST POP JUMP JUMPDEST PUSH1 0x0 CALLER SWAP1 POP SWAP1 JUMP JUMPDEST PUSH1 0x0 DUP1 PUSH1 0x0 SWAP1 SLOAD SWAP1 PUSH2 0x100 EXP SWAP1 DIV PUSH20 0xFFFFFFFFFFFFFFFFFFFFFFFFFFFFFFFFFFFFFFFF AND SWAP1 POP DUP2 PUSH1 0x0 DUP1 PUSH2 0x100 EXP DUP2 SLOAD DUP2 PUSH20 0xFFFFFFFFFFFFFFFFFFFFFFFFFFFFFFFFFFFFFFFF MUL NOT AND SWAP1 DUP4 PUSH20 0xFFFFFFFFFFFFFFFFFFFFFFFFFFFFFFFFFFFFFFFF AND MUL OR SWAP1 SSTORE POP DUP2 PUSH20 0xFFFFFFFFFFFFFFFFFFFFFFFFFFFFFFFFFFFFFFFF AND DUP2 PUSH20 0xFFFFFFFFFFFFFFFFFFFFFFFFFFFFFFFFFFFFFFFF AND PUSH32 0x8BE0079C531659141344CD1FD0A4F28419497F9722A3DAAFE3B4186F6B6457E0 PUSH1 0x40 MLOAD PUSH1 0x40 MLOAD DUP1 SWAP2 SUB SWAP1 LOG3 POP POP JUMP JUMPDEST PUSH1 0x5 PUSH1 0x0 CALLER PUSH20 0xFFFFFFFFFFFFFFFFFFFFFFFFFFFFFFFFFFFFFFFF AND PUSH20 0xFFFFFFFFFFFFFFFFFFFFFFFFFFFFFFFFFFFFFFFF AND DUP2 MSTORE PUSH1 0x20 ADD SWAP1 DUP2 MSTORE PUSH1 0x20 ADD PUSH1 0x0 KECCAK256 PUSH1 0x7 PUSH1 0x0 CALLER PUSH20 0xFFFFFFFFFFFFFFFFFFFFFFFFFFFFFFFFFFFFFFFF AND PUSH20 0xFFFFFFFFFFFFFFFFFFFFFFFFFFFFFFFFFFFFFFFF AND DUP2 MSTORE PUSH1 0x20 ADD SWAP1 DUP2 MSTORE PUSH1 0x20 ADD PUSH1 0x0 KECCAK256 PUSH1 0x0 DUP4 DUP2 MSTORE PUSH1 0x20 ADD SWAP1 DUP2 MSTORE PUSH1 0x20 ADD PUSH1 0x0 KECCAK256 SWAP1 DUP1 PUSH1 0x1 DUP2 SLOAD ADD DUP1 DUP3 SSTORE DUP1 SWAP2 POP POP PUSH1 0x1 SWAP1 SUB SWAP1 PUSH1 0x0 MSTORE PUSH1 0x20 PUSH1 0x0 KECCAK256 SWAP1 PUSH1 0x4 MUL ADD PUSH1 0x0 SWAP1 SWAP2 SWAP1 SWAP2 SWAP1 SWAP2 POP PUSH1 0x0 DUP3 ADD SLOAD DUP2 PUSH1 0x0 ADD SSTORE PUSH1 0x1 DUP3 ADD SLOAD DUP2 PUSH1 0x1 ADD SSTORE PUSH1 0x2 DUP3 ADD SLOAD DUP2 PUSH1 0x2 ADD SSTORE PUSH1 0x3 DUP3 ADD PUSH1 0x0 SWAP1 SLOAD SWAP1 PUSH2 0x100 EXP SWAP1 DIV PUSH20 0xFFFFFFFFFFFFFFFFFFFFFFFFFFFFFFFFFFFFFFFF AND DUP2 PUSH1 0x3 ADD PUSH1 0x0 PUSH2 0x100 EXP DUP2 SLOAD DUP2 PUSH20 0xFFFFFFFFFFFFFFFFFFFFFFFFFFFFFFFFFFFFFFFF MUL NOT AND SWAP1 DUP4 PUSH20 0xFFFFFFFFFFFFFFFFFFFFFFFFFFFFFFFFFFFFFFFF AND MUL OR SWAP1 SSTORE POP PUSH1 0x3 DUP3 ADD PUSH1 0x14 SWAP1 SLOAD SWAP1 PUSH2 0x100 EXP SWAP1 DIV PUSH1 0xFF AND DUP2 PUSH1 0x3 ADD PUSH1 0x14 PUSH2 0x100 EXP DUP2 SLOAD DUP2 PUSH1 0xFF MUL NOT AND SWAP1 DUP4 PUSH1 0x2 DUP2 GT ISZERO PUSH2 0x1174 JUMPI PUSH2 0x1173 PUSH2 0x1DF1 JUMP JUMPDEST JUMPDEST MUL OR SWAP1 SSTORE POP POP POP PUSH1 0x7 PUSH1 0x0 CALLER PUSH20 0xFFFFFFFFFFFFFFFFFFFFFFFFFFFFFFFFFFFFFFFF AND PUSH20 0xFFFFFFFFFFFFFFFFFFFFFFFFFFFFFFFFFFFFFFFF AND DUP2 MSTORE PUSH1 0x20 ADD SWAP1 DUP2 MSTORE PUSH1 0x20 ADD PUSH1 0x0 KECCAK256 PUSH1 0x0 DUP3 DUP2 MSTORE PUSH1 0x20 ADD SWAP1 DUP2 MSTORE PUSH1 0x20 ADD PUSH1 0x0 KECCAK256 PUSH1 0x6 PUSH1 0x0 PUSH1 0x7 PUSH1 0x0 CALLER PUSH20 0xFFFFFFFFFFFFFFFFFFFFFFFFFFFFFFFFFFFFFFFF AND PUSH20 0xFFFFFFFFFFFFFFFFFFFFFFFFFFFFFFFFFFFFFFFF AND DUP2 MSTORE PUSH1 0x20 ADD SWAP1 DUP2 MSTORE PUSH1 0x20 ADD PUSH1 0x0 KECCAK256 PUSH1 0x0 DUP6 DUP2 MSTORE PUSH1 0x20 ADD SWAP1 DUP2 MSTORE PUSH1 0x20 ADD PUSH1 0x0 KECCAK256 PUSH1 0x0 ADD SLOAD DUP2 MSTORE PUSH1 0x20 ADD SWAP1 DUP2 MSTORE PUSH1 0x20 ADD PUSH1 0x0 KECCAK256 PUSH1 0x0 DUP3 ADD SLOAD DUP2 PUSH1 0x0 ADD SSTORE PUSH1 0x1 DUP3 ADD SLOAD DUP2 PUSH1 0x1 ADD SSTORE PUSH1 0x2 DUP3 ADD SLOAD DUP2 PUSH1 0x2 ADD SSTORE PUSH1 0x3 DUP3 ADD PUSH1 0x0 SWAP1 SLOAD SWAP1 PUSH2 0x100 EXP SWAP1 DIV PUSH20 0xFFFFFFFFFFFFFFFFFFFFFFFFFFFFFFFFFFFFFFFF AND DUP2 PUSH1 0x3 ADD PUSH1 0x0 PUSH2 0x100 EXP DUP2 SLOAD DUP2 PUSH20 0xFFFFFFFFFFFFFFFFFFFFFFFFFFFFFFFFFFFFFFFF MUL NOT AND SWAP1 DUP4 PUSH20 0xFFFFFFFFFFFFFFFFFFFFFFFFFFFFFFFFFFFFFFFF AND MUL OR SWAP1 SSTORE POP PUSH1 0x3 DUP3 ADD PUSH1 0x14 SWAP1 SLOAD SWAP1 PUSH2 0x100 EXP SWAP1 DIV PUSH1 0xFF AND DUP2 PUSH1 0x3 ADD PUSH1 0x14 PUSH2 0x100 EXP DUP2 SLOAD DUP2 PUSH1 0xFF MUL NOT AND SWAP1 DUP4 PUSH1 0x2 DUP2 GT ISZERO PUSH2 0x12EE JUMPI PUSH2 0x12ED PUSH2 0x1DF1 JUMP JUMPDEST JUMPDEST MUL OR SWAP1 SSTORE POP SWAP1 POP POP PUSH1 0x40 MLOAD DUP1 PUSH1 0xA0 ADD PUSH1 0x40 MSTORE DUP1 PUSH1 0x0 DUP1 SHL DUP2 MSTORE PUSH1 0x20 ADD PUSH1 0x0 DUP1 SHL DUP2 MSTORE PUSH1 0x20 ADD PUSH1 0x0 DUP2 MSTORE PUSH1 0x20 ADD PUSH1 0x0 PUSH20 0xFFFFFFFFFFFFFFFFFFFFFFFFFFFFFFFFFFFFFFFF AND DUP2 MSTORE PUSH1 0x20 ADD PUSH1 0x0 PUSH1 0x2 DUP2 GT ISZERO PUSH2 0x134B JUMPI PUSH2 0x134A PUSH2 0x1DF1 JUMP JUMPDEST JUMPDEST DUP2 MSTORE POP PUSH1 0x7 PUSH1 0x0 CALLER PUSH20 0xFFFFFFFFFFFFFFFFFFFFFFFFFFFFFFFFFFFFFFFF AND PUSH20 0xFFFFFFFFFFFFFFFFFFFFFFFFFFFFFFFFFFFFFFFF AND DUP2 MSTORE PUSH1 0x20 ADD SWAP1 DUP2 MSTORE PUSH1 0x20 ADD PUSH1 0x0 KECCAK256 PUSH1 0x0 DUP4 DUP2 MSTORE PUSH1 0x20 ADD SWAP1 DUP2 MSTORE PUSH1 0x20 ADD PUSH1 0x0 KECCAK256 PUSH1 0x0 DUP3 ADD MLOAD DUP2 PUSH1 0x0 ADD SSTORE PUSH1 0x20 DUP3 ADD MLOAD DUP2 PUSH1 0x1 ADD SSTORE PUSH1 0x40 DUP3 ADD MLOAD DUP2 PUSH1 0x2 ADD SSTORE PUSH1 0x60 DUP3 ADD MLOAD DUP2 PUSH1 0x3 ADD PUSH1 0x0 PUSH2 0x100 EXP DUP2 SLOAD DUP2 PUSH20 0xFFFFFFFFFFFFFFFFFFFFFFFFFFFFFFFFFFFFFFFF MUL NOT AND SWAP1 DUP4 PUSH20 0xFFFFFFFFFFFFFFFFFFFFFFFFFFFFFFFFFFFFFFFF AND MUL OR SWAP1 SSTORE POP PUSH1 0x80 DUP3 ADD MLOAD DUP2 PUSH1 0x3 ADD PUSH1 0x14 PUSH2 0x100 EXP DUP2 SLOAD DUP2 PUSH1 0xFF MUL NOT AND SWAP1 DUP4 PUSH1 0x2 DUP2 GT ISZERO PUSH2 0x142E JUMPI PUSH2 0x142D PUSH2 0x1DF1 JUMP JUMPDEST JUMPDEST MUL OR SWAP1 SSTORE POP SWAP1 POP POP DUP1 CALLER PUSH20 0xFFFFFFFFFFFFFFFFFFFFFFFFFFFFFFFFFFFFFFFF AND PUSH32 0x58E6B4BB20368F9A0B488A5727FFF9B8795B7C85245C2A5D7CCBEA5552FD2CA5 PUSH1 0x7 PUSH1 0x0 CALLER PUSH20 0xFFFFFFFFFFFFFFFFFFFFFFFFFFFFFFFFFFFFFFFF AND PUSH20 0xFFFFFFFFFFFFFFFFFFFFFFFFFFFFFFFFFFFFFFFF AND DUP2 MSTORE PUSH1 0x20 ADD SWAP1 DUP2 MSTORE PUSH1 0x20 ADD PUSH1 0x0 KECCAK256 PUSH1 0x0 DUP6 DUP2 MSTORE PUSH1 0x20 ADD SWAP1 DUP2 MSTORE PUSH1 0x20 ADD PUSH1 0x0 KECCAK256 PUSH1 0x2 ADD SLOAD PUSH1 0x40 MLOAD PUSH2 0x14D0 SWAP2 SWAP1 PUSH2 0x1C41 JUMP JUMPDEST PUSH1 0x40 MLOAD DUP1 SWAP2 SUB SWAP1 LOG3 POP JUMP JUMPDEST PUSH1 0x40 MLOAD DUP1 PUSH1 0xA0 ADD PUSH1 0x40 MSTORE DUP1 PUSH1 0x0 DUP1 NOT AND DUP2 MSTORE PUSH1 0x20 ADD PUSH1 0x0 DUP1 NOT AND DUP2 MSTORE PUSH1 0x20 ADD PUSH1 0x0 DUP2 MSTORE PUSH1 0x20 ADD PUSH1 0x0 PUSH20 0xFFFFFFFFFFFFFFFFFFFFFFFFFFFFFFFFFFFFFFFF AND DUP2 MSTORE PUSH1 0x20 ADD PUSH1 0x0 PUSH1 0x2 DUP2 GT ISZERO PUSH2 0x1532 JUMPI PUSH2 0x1531 PUSH2 0x1DF1 JUMP JUMPDEST JUMPDEST DUP2 MSTORE POP SWAP1 JUMP JUMPDEST PUSH1 0x0 PUSH2 0x154B PUSH2 0x1546 DUP5 PUSH2 0x1C81 JUMP JUMPDEST PUSH2 0x1C5C JUMP JUMPDEST SWAP1 POP DUP3 DUP2 MSTORE PUSH1 0x20 DUP2 ADD DUP5 DUP5 DUP5 ADD GT ISZERO PUSH2 0x1567 JUMPI PUSH2 0x1566 PUSH2 0x1E83 JUMP JUMPDEST JUMPDEST PUSH2 0x1572 DUP5 DUP3 DUP6 PUSH2 0x1D50 JUMP JUMPDEST POP SWAP4 SWAP3 POP POP POP JUMP JUMPDEST PUSH1 0x0 DUP2 CALLDATALOAD SWAP1 POP PUSH2 0x1589 DUP2 PUSH2 0x20CA JUMP JUMPDEST SWAP3 SWAP2 POP POP JUMP JUMPDEST PUSH1 0x0 DUP2 CALLDATALOAD SWAP1 POP PUSH2 0x159E DUP2 PUSH2 0x20E1 JUMP JUMPDEST SWAP3 SWAP2 POP POP JUMP JUMPDEST PUSH1 0x0 DUP2 CALLDATALOAD SWAP1 POP PUSH2 0x15B3 DUP2 PUSH2 0x20F8 JUMP JUMPDEST SWAP3 SWAP2 POP POP JUMP JUMPDEST PUSH1 0x0 DUP3 PUSH1 0x1F DUP4 ADD SLT PUSH2 0x15CE JUMPI PUSH2 0x15CD PUSH2 0x1E7E JUMP JUMPDEST JUMPDEST DUP2 CALLDATALOAD PUSH2 0x15DE DUP5 DUP3 PUSH1 0x20 DUP7 ADD PUSH2 0x1538 JUMP JUMPDEST SWAP2 POP POP SWAP3 SWAP2 POP POP JUMP JUMPDEST PUSH1 0x0 DUP2 CALLDATALOAD SWAP1 POP PUSH2 0x15F6 DUP2 PUSH2 0x210F JUMP JUMPDEST SWAP3 SWAP2 POP POP JUMP JUMPDEST PUSH1 0x0 PUSH1 0x20 DUP3 DUP5 SUB SLT ISZERO PUSH2 0x1612 JUMPI PUSH2 0x1611 PUSH2 0x1E8D JUMP JUMPDEST JUMPDEST PUSH1 0x0 PUSH2 0x1620 DUP5 DUP3 DUP6 ADD PUSH2 0x157A JUMP JUMPDEST SWAP2 POP POP SWAP3 SWAP2 POP POP JUMP JUMPDEST PUSH1 0x0 DUP1 PUSH1 0x40 DUP4 DUP6 SUB SLT ISZERO PUSH2 0x1640 JUMPI PUSH2 0x163F PUSH2 0x1E8D JUMP JUMPDEST JUMPDEST PUSH1 0x0 PUSH2 0x164E DUP6 DUP3 DUP7 ADD PUSH2 0x157A JUMP JUMPDEST SWAP3 POP POP PUSH1 0x20 PUSH2 0x165F DUP6 DUP3 DUP7 ADD PUSH2 0x15A4 JUMP JUMPDEST SWAP2 POP POP SWAP3 POP SWAP3 SWAP1 POP JUMP JUMPDEST PUSH1 0x0 DUP1 PUSH1 0x40 DUP4 DUP6 SUB SLT ISZERO PUSH2 0x1680 JUMPI PUSH2 0x167F PUSH2 0x1E8D JUMP JUMPDEST JUMPDEST PUSH1 0x0 PUSH2 0x168E DUP6 DUP3 DUP7 ADD PUSH2 0x157A JUMP JUMPDEST SWAP3 POP POP PUSH1 0x20 PUSH2 0x169F DUP6 DUP3 DUP7 ADD PUSH2 0x15E7 JUMP JUMPDEST SWAP2 POP POP SWAP3 POP SWAP3 SWAP1 POP JUMP JUMPDEST PUSH1 0x0 DUP1 PUSH1 0x0 PUSH1 0x60 DUP5 DUP7 SUB SLT ISZERO PUSH2 0x16C2 JUMPI PUSH2 0x16C1 PUSH2 0x1E8D JUMP JUMPDEST JUMPDEST PUSH1 0x0 PUSH2 0x16D0 DUP7 DUP3 DUP8 ADD PUSH2 0x157A JUMP JUMPDEST SWAP4 POP POP PUSH1 0x20 PUSH2 0x16E1 DUP7 DUP3 DUP8 ADD PUSH2 0x15E7 JUMP JUMPDEST SWAP3 POP POP PUSH1 0x40 PUSH2 0x16F2 DUP7 DUP3 DUP8 ADD PUSH2 0x15A4 JUMP JUMPDEST SWAP2 POP POP SWAP3 POP SWAP3 POP SWAP3 JUMP JUMPDEST PUSH1 0x0 PUSH1 0x20 DUP3 DUP5 SUB SLT ISZERO PUSH2 0x1712 JUMPI PUSH2 0x1711 PUSH2 0x1E8D JUMP JUMPDEST JUMPDEST PUSH1 0x0 PUSH2 0x1720 DUP5 DUP3 DUP6 ADD PUSH2 0x15A4 JUMP JUMPDEST SWAP2 POP POP SWAP3 SWAP2 POP POP JUMP JUMPDEST PUSH1 0x0 DUP1 PUSH1 0x40 DUP4 DUP6 SUB SLT ISZERO PUSH2 0x1740 JUMPI PUSH2 0x173F PUSH2 0x1E8D JUMP JUMPDEST JUMPDEST PUSH1 0x0 PUSH2 0x174E DUP6 DUP3 DUP7 ADD PUSH2 0x15A4 JUMP JUMPDEST SWAP3 POP POP PUSH1 0x20 PUSH2 0x175F DUP6 DUP3 DUP7 ADD PUSH2 0x157A JUMP JUMPDEST SWAP2 POP POP SWAP3 POP SWAP3 SWAP1 POP JUMP JUMPDEST PUSH1 0x0 DUP1 PUSH1 0x40 DUP4 DUP6 SUB SLT ISZERO PUSH2 0x1780 JUMPI PUSH2 0x177F PUSH2 0x1E8D JUMP JUMPDEST JUMPDEST PUSH1 0x0 PUSH2 0x178E DUP6 DUP3 DUP7 ADD PUSH2 0x15A4 JUMP JUMPDEST SWAP3 POP POP PUSH1 0x20 PUSH2 0x179F DUP6 DUP3 DUP7 ADD PUSH2 0x158F JUMP JUMPDEST SWAP2 POP POP SWAP3 POP SWAP3 SWAP1 POP JUMP JUMPDEST PUSH1 0x0 DUP1 PUSH1 0x40 DUP4 DUP6 SUB SLT ISZERO PUSH2 0x17C0 JUMPI PUSH2 0x17BF PUSH2 0x1E8D JUMP JUMPDEST JUMPDEST PUSH1 0x0 PUSH2 0x17CE DUP6 DUP3 DUP7 ADD PUSH2 0x15A4 JUMP JUMPDEST SWAP3 POP POP PUSH1 0x20 PUSH2 0x17DF DUP6 DUP3 DUP7 ADD PUSH2 0x15E7 JUMP JUMPDEST SWAP2 POP POP SWAP3 POP SWAP3 SWAP1 POP JUMP JUMPDEST PUSH1 0x0 PUSH1 0x20 DUP3 DUP5 SUB SLT ISZERO PUSH2 0x17FF JUMPI PUSH2 0x17FE PUSH2 0x1E8D JUMP JUMPDEST JUMPDEST PUSH1 0x0 DUP3 ADD CALLDATALOAD PUSH8 0xFFFFFFFFFFFFFFFF DUP2 GT ISZERO PUSH2 0x181D JUMPI PUSH2 0x181C PUSH2 0x1E88 JUMP JUMPDEST JUMPDEST PUSH2 0x1829 DUP5 DUP3 DUP6 ADD PUSH2 0x15B9 JUMP JUMPDEST SWAP2 POP POP SWAP3 SWAP2 POP POP JUMP JUMPDEST PUSH2 0x183B DUP2 PUSH2 0x1CD9 JUMP JUMPDEST DUP3 MSTORE POP POP JUMP JUMPDEST PUSH2 0x184A DUP2 PUSH2 0x1CD9 JUMP JUMPDEST DUP3 MSTORE POP POP JUMP JUMPDEST PUSH2 0x1861 PUSH2 0x185C DUP3 PUSH2 0x1CD9 JUMP JUMPDEST PUSH2 0x1DC3 JUMP JUMPDEST DUP3 MSTORE POP POP JUMP JUMPDEST PUSH2 0x1870 DUP2 PUSH2 0x1CF7 JUMP JUMPDEST DUP3 MSTORE POP POP JUMP JUMPDEST PUSH2 0x187F DUP2 PUSH2 0x1CF7 JUMP JUMPDEST DUP3 MSTORE POP POP JUMP JUMPDEST PUSH2 0x188E DUP2 PUSH2 0x1D3E JUMP JUMPDEST DUP3 MSTORE POP POP JUMP JUMPDEST PUSH1 0x0 PUSH2 0x189F DUP3 PUSH2 0x1CB2 JUMP JUMPDEST PUSH2 0x18A9 DUP2 DUP6 PUSH2 0x1CCE JUMP JUMPDEST SWAP4 POP PUSH2 0x18B9 DUP2 DUP6 PUSH1 0x20 DUP7 ADD PUSH2 0x1D5F JUMP JUMPDEST DUP1 DUP5 ADD SWAP2 POP POP SWAP3 SWAP2 POP POP JUMP JUMPDEST PUSH1 0x0 PUSH2 0x18D2 PUSH1 0x26 DUP4 PUSH2 0x1CBD JUMP JUMPDEST SWAP2 POP PUSH2 0x18DD DUP3 PUSH2 0x1EB0 JUMP JUMPDEST PUSH1 0x40 DUP3 ADD SWAP1 POP SWAP2 SWAP1 POP JUMP JUMPDEST PUSH1 0x0 PUSH2 0x18F5 PUSH1 0x30 DUP4 PUSH2 0x1CBD JUMP JUMPDEST SWAP2 POP PUSH2 0x1900 DUP3 PUSH2 0x1EFF JUMP JUMPDEST PUSH1 0x40 DUP3 ADD SWAP1 POP SWAP2 SWAP1 POP JUMP JUMPDEST PUSH1 0x0 PUSH2 0x1918 PUSH1 0x29 DUP4 PUSH2 0x1CBD JUMP JUMPDEST SWAP2 POP PUSH2 0x1923 DUP3 PUSH2 0x1F4E JUMP JUMPDEST PUSH1 0x40 DUP3 ADD SWAP1 POP SWAP2 SWAP1 POP JUMP JUMPDEST PUSH1 0x0 PUSH2 0x193B PUSH1 0x13 DUP4 PUSH2 0x1CBD JUMP JUMPDEST SWAP2 POP PUSH2 0x1946 DUP3 PUSH2 0x1F9D JUMP JUMPDEST PUSH1 0x20 DUP3 ADD SWAP1 POP SWAP2 SWAP1 POP JUMP JUMPDEST PUSH1 0x0 PUSH2 0x195E PUSH1 0x20 DUP4 PUSH2 0x1CBD JUMP JUMPDEST SWAP2 POP PUSH2 0x1969 DUP3 PUSH2 0x1FC6 JUMP JUMPDEST PUSH1 0x20 DUP3 ADD SWAP1 POP SWAP2 SWAP1 POP JUMP JUMPDEST PUSH1 0x0 PUSH2 0x1981 PUSH1 0x24 DUP4 PUSH2 0x1CBD JUMP JUMPDEST SWAP2 POP PUSH2 0x198C DUP3 PUSH2 0x1FEF JUMP JUMPDEST PUSH1 0x40 DUP3 ADD SWAP1 POP SWAP2 SWAP1 POP JUMP JUMPDEST PUSH1 0x0 PUSH2 0x19A4 PUSH1 0x19 DUP4 PUSH2 0x1CBD JUMP JUMPDEST SWAP2 POP PUSH2 0x19AF DUP3 PUSH2 0x203E JUMP JUMPDEST PUSH1 0x20 DUP3 ADD SWAP1 POP SWAP2 SWAP1 POP JUMP JUMPDEST PUSH1 0x0 PUSH2 0x19C7 PUSH1 0x2A DUP4 PUSH2 0x1CBD JUMP JUMPDEST SWAP2 POP PUSH2 0x19D2 DUP3 PUSH2 0x2067 JUMP JUMPDEST PUSH1 0x40 DUP3 ADD SWAP1 POP SWAP2 SWAP1 POP JUMP JUMPDEST PUSH1 0xA0 DUP3 ADD PUSH1 0x0 DUP3 ADD MLOAD PUSH2 0x19F3 PUSH1 0x0 DUP6 ADD DUP3 PUSH2 0x1867 JUMP JUMPDEST POP PUSH1 0x20 DUP3 ADD MLOAD PUSH2 0x1A06 PUSH1 0x20 DUP6 ADD DUP3 PUSH2 0x1867 JUMP JUMPDEST POP PUSH1 0x40 DUP3 ADD MLOAD PUSH2 0x1A19 PUSH1 0x40 DUP6 ADD DUP3 PUSH2 0x1A45 JUMP JUMPDEST POP PUSH1 0x60 DUP3 ADD MLOAD PUSH2 0x1A2C PUSH1 0x60 DUP6 ADD DUP3 PUSH2 0x1832 JUMP JUMPDEST POP PUSH1 0x80 DUP3 ADD MLOAD PUSH2 0x1A3F PUSH1 0x80 DUP6 ADD DUP3 PUSH2 0x1885 JUMP JUMPDEST POP POP POP POP JUMP JUMPDEST PUSH2 0x1A4E DUP2 PUSH2 0x1D34 JUMP JUMPDEST DUP3 MSTORE POP POP JUMP JUMPDEST PUSH2 0x1A5D DUP2 PUSH2 0x1D34 JUMP JUMPDEST DUP3 MSTORE POP POP JUMP JUMPDEST PUSH2 0x1A74 PUSH2 0x1A6F DUP3 PUSH2 0x1D34 JUMP JUMPDEST PUSH2 0x1DE7 JUMP JUMPDEST DUP3 MSTORE POP POP JUMP JUMPDEST PUSH1 0x0 PUSH2 0x1A86 DUP3 DUP9 PUSH2 0x1850 JUMP JUMPDEST PUSH1 0x14 DUP3 ADD SWAP2 POP PUSH2 0x1A96 DUP3 DUP8 PUSH2 0x1850 JUMP JUMPDEST PUSH1 0x14 DUP3 ADD SWAP2 POP PUSH2 0x1AA6 DUP3 DUP7 PUSH2 0x1A63 JUMP JUMPDEST PUSH1 0x20 DUP3 ADD SWAP2 POP PUSH2 0x1AB6 DUP3 DUP6 PUSH2 0x1A63 JUMP JUMPDEST PUSH1 0x20 DUP3 ADD SWAP2 POP PUSH2 0x1AC6 DUP3 DUP5 PUSH2 0x1A63 JUMP JUMPDEST PUSH1 0x20 DUP3 ADD SWAP2 POP DUP2 SWAP1 POP SWAP7 SWAP6 POP POP POP POP POP POP JUMP JUMPDEST PUSH1 0x0 PUSH2 0x1AE5 DUP3 DUP5 PUSH2 0x1894 JUMP JUMPDEST SWAP2 POP DUP2 SWAP1 POP SWAP3 SWAP2 POP POP JUMP JUMPDEST PUSH1 0x0 PUSH1 0x20 DUP3 ADD SWAP1 POP PUSH2 0x1B05 PUSH1 0x0 DUP4 ADD DUP5 PUSH2 0x1841 JUMP JUMPDEST SWAP3 SWAP2 POP POP JUMP JUMPDEST PUSH1 0x0 PUSH1 0x20 DUP3 ADD SWAP1 POP PUSH2 0x1B20 PUSH1 0x0 DUP4 ADD DUP5 PUSH2 0x1876 JUMP JUMPDEST SWAP3 SWAP2 POP POP JUMP JUMPDEST PUSH1 0x0 PUSH1 0x20 DUP3 ADD SWAP1 POP DUP2 DUP2 SUB PUSH1 0x0 DUP4 ADD MSTORE PUSH2 0x1B3F DUP2 PUSH2 0x18C5 JUMP JUMPDEST SWAP1 POP SWAP2 SWAP1 POP JUMP JUMPDEST PUSH1 0x0 PUSH1 0x20 DUP3 ADD SWAP1 POP DUP2 DUP2 SUB PUSH1 0x0 DUP4 ADD MSTORE PUSH2 0x1B5F DUP2 PUSH2 0x18E8 JUMP JUMPDEST SWAP1 POP SWAP2 SWAP1 POP JUMP JUMPDEST PUSH1 0x0 PUSH1 0x20 DUP3 ADD SWAP1 POP DUP2 DUP2 SUB PUSH1 0x0 DUP4 ADD MSTORE PUSH2 0x1B7F DUP2 PUSH2 0x190B JUMP JUMPDEST SWAP1 POP SWAP2 SWAP1 POP JUMP JUMPDEST PUSH1 0x0 PUSH1 0x20 DUP3 ADD SWAP1 POP DUP2 DUP2 SUB PUSH1 0x0 DUP4 ADD MSTORE PUSH2 0x1B9F DUP2 PUSH2 0x192E JUMP JUMPDEST SWAP1 POP SWAP2 SWAP1 POP JUMP JUMPDEST PUSH1 0x0 PUSH1 0x20 DUP3 ADD SWAP1 POP DUP2 DUP2 SUB PUSH1 0x0 DUP4 ADD MSTORE PUSH2 0x1BBF DUP2 PUSH2 0x1951 JUMP JUMPDEST SWAP1 POP SWAP2 SWAP1 POP JUMP JUMPDEST PUSH1 0x0 PUSH1 0x20 DUP3 ADD SWAP1 POP DUP2 DUP2 SUB PUSH1 0x0 DUP4 ADD MSTORE PUSH2 0x1BDF DUP2 PUSH2 0x1974 JUMP JUMPDEST SWAP1 POP SWAP2 SWAP1 POP JUMP JUMPDEST PUSH1 0x0 PUSH1 0x20 DUP3 ADD SWAP1 POP DUP2 DUP2 SUB PUSH1 0x0 DUP4 ADD MSTORE PUSH2 0x1BFF DUP2 PUSH2 0x1997 JUMP JUMPDEST SWAP1 POP SWAP2 SWAP1 POP JUMP JUMPDEST PUSH1 0x0 PUSH1 0x20 DUP3 ADD SWAP1 POP DUP2 DUP2 SUB PUSH1 0x0 DUP4 ADD MSTORE PUSH2 0x1C1F DUP2 PUSH2 0x19BA JUMP JUMPDEST SWAP1 POP SWAP2 SWAP1 POP JUMP JUMPDEST PUSH1 0x0 PUSH1 0xA0 DUP3 ADD SWAP1 POP PUSH2 0x1C3B PUSH1 0x0 DUP4 ADD DUP5 PUSH2 0x19DD JUMP JUMPDEST SWAP3 SWAP2 POP POP JUMP JUMPDEST PUSH1 0x0 PUSH1 0x20 DUP3 ADD SWAP1 POP PUSH2 0x1C56 PUSH1 0x0 DUP4 ADD DUP5 PUSH2 0x1A54 JUMP JUMPDEST SWAP3 SWAP2 POP POP JUMP JUMPDEST PUSH1 0x0 PUSH2 0x1C66 PUSH2 0x1C77 JUMP JUMPDEST SWAP1 POP PUSH2 0x1C72 DUP3 DUP3 PUSH2 0x1D92 JUMP JUMPDEST SWAP2 SWAP1 POP JUMP JUMPDEST PUSH1 0x0 PUSH1 0x40 MLOAD SWAP1 POP SWAP1 JUMP JUMPDEST PUSH1 0x0 PUSH8 0xFFFFFFFFFFFFFFFF DUP3 GT ISZERO PUSH2 0x1C9C JUMPI PUSH2 0x1C9B PUSH2 0x1E4F JUMP JUMPDEST JUMPDEST PUSH2 0x1CA5 DUP3 PUSH2 0x1E92 JUMP JUMPDEST SWAP1 POP PUSH1 0x20 DUP2 ADD SWAP1 POP SWAP2 SWAP1 POP JUMP JUMPDEST PUSH1 0x0 DUP2 MLOAD SWAP1 POP SWAP2 SWAP1 POP JUMP JUMPDEST PUSH1 0x0 DUP3 DUP3 MSTORE PUSH1 0x20 DUP3 ADD SWAP1 POP SWAP3 SWAP2 POP POP JUMP JUMPDEST PUSH1 0x0 DUP2 SWAP1 POP SWAP3 SWAP2 POP POP JUMP JUMPDEST PUSH1 0x0 PUSH2 0x1CE4 DUP3 PUSH2 0x1D14 JUMP JUMPDEST SWAP1 POP SWAP2 SWAP1 POP JUMP JUMPDEST PUSH1 0x0 DUP2 ISZERO ISZERO SWAP1 POP SWAP2 SWAP1 POP JUMP JUMPDEST PUSH1 0x0 DUP2 SWAP1 POP SWAP2 SWAP1 POP JUMP JUMPDEST PUSH1 0x0 DUP2 SWAP1 POP PUSH2 0x1D0F DUP3 PUSH2 0x20B6 JUMP JUMPDEST SWAP2 SWAP1 POP JUMP JUMPDEST PUSH1 0x0 PUSH20 0xFFFFFFFFFFFFFFFFFFFFFFFFFFFFFFFFFFFFFFFF DUP3 AND SWAP1 POP SWAP2 SWAP1 POP JUMP JUMPDEST PUSH1 0x0 DUP2 SWAP1 POP SWAP2 SWAP1 POP JUMP JUMPDEST PUSH1 0x0 PUSH2 0x1D49 DUP3 PUSH2 0x1D01 JUMP JUMPDEST SWAP1 POP SWAP2 SWAP1 POP JUMP JUMPDEST DUP3 DUP2 DUP4 CALLDATACOPY PUSH1 0x0 DUP4 DUP4 ADD MSTORE POP POP POP JUMP JUMPDEST PUSH1 0x0 JUMPDEST DUP4 DUP2 LT ISZERO PUSH2 0x1D7D JUMPI DUP1 DUP3 ADD MLOAD DUP2 DUP5 ADD MSTORE PUSH1 0x20 DUP2 ADD SWAP1 POP PUSH2 0x1D62 JUMP JUMPDEST DUP4 DUP2 GT ISZERO PUSH2 0x1D8C JUMPI PUSH1 0x0 DUP5 DUP5 ADD MSTORE JUMPDEST POP POP POP POP JUMP JUMPDEST PUSH2 0x1D9B DUP3 PUSH2 0x1E92 JUMP JUMPDEST DUP2 ADD DUP2 DUP2 LT PUSH8 0xFFFFFFFFFFFFFFFF DUP3 GT OR ISZERO PUSH2 0x1DBA JUMPI PUSH2 0x1DB9 PUSH2 0x1E4F JUMP JUMPDEST JUMPDEST DUP1 PUSH1 0x40 MSTORE POP POP POP JUMP JUMPDEST PUSH1 0x0 PUSH2 0x1DCE DUP3 PUSH2 0x1DD5 JUMP JUMPDEST SWAP1 POP SWAP2 SWAP1 POP JUMP JUMPDEST PUSH1 0x0 PUSH2 0x1DE0 DUP3 PUSH2 0x1EA3 JUMP JUMPDEST SWAP1 POP SWAP2 SWAP1 POP JUMP JUMPDEST PUSH1 0x0 DUP2 SWAP1 POP SWAP2 SWAP1 POP JUMP JUMPDEST PUSH32 0x4E487B7100000000000000000000000000000000000000000000000000000000 PUSH1 0x0 MSTORE PUSH1 0x21 PUSH1 0x4 MSTORE PUSH1 0x24 PUSH1 0x0 REVERT JUMPDEST PUSH32 0x4E487B7100000000000000000000000000000000000000000000000000000000 PUSH1 0x0 MSTORE PUSH1 0x32 PUSH1 0x4 MSTORE PUSH1 0x24 PUSH1 0x0 REVERT JUMPDEST PUSH32 0x4E487B7100000000000000000000000000000000000000000000000000000000 PUSH1 0x0 MSTORE PUSH1 0x41 PUSH1 0x4 MSTORE PUSH1 0x24 PUSH1 0x0 REVERT JUMPDEST PUSH1 0x0 DUP1 REVERT JUMPDEST PUSH1 0x0 DUP1 REVERT JUMPDEST PUSH1 0x0 DUP1 REVERT JUMPDEST PUSH1 0x0 DUP1 REVERT JUMPDEST PUSH1 0x0 PUSH1 0x1F NOT PUSH1 0x1F DUP4 ADD AND SWAP1 POP SWAP2 SWAP1 POP JUMP JUMPDEST PUSH1 0x0 DUP2 PUSH1 0x60 SHL SWAP1 POP SWAP2 SWAP1 POP JUMP JUMPDEST PUSH32 0x4F776E61626C653A206E6577206F776E657220697320746865207A65726F2061 PUSH1 0x0 DUP3 ADD MSTORE PUSH32 0x6464726573730000000000000000000000000000000000000000000000000000 PUSH1 0x20 DUP3 ADD MSTORE POP JUMP JUMPDEST PUSH32 0x5468657265206973206E6F2070617469656E7420726567697374657265642077 PUSH1 0x0 DUP3 ADD MSTORE PUSH32 0x6974682074686973206164647265737300000000000000000000000000000000 PUSH1 0x20 DUP3 ADD MSTORE POP JUMP JUMPDEST PUSH32 0x4F6E6C7920636C696E6963732063616C6C20706572666F726D2074686973206F PUSH1 0x0 DUP3 ADD MSTORE PUSH32 0x7065726174696F6E730000000000000000000000000000000000000000000000 PUSH1 0x20 DUP3 ADD MSTORE POP JUMP JUMPDEST PUSH32 0x496E766F6963652063616E277420666F756E6400000000000000000000000000 PUSH1 0x0 DUP3 ADD MSTORE POP JUMP JUMPDEST PUSH32 0x4F776E61626C653A2063616C6C6572206973206E6F7420746865206F776E6572 PUSH1 0x0 DUP3 ADD MSTORE POP JUMP JUMPDEST PUSH32 0x50617469656E742063616E27742062652063686172676564207468697320616D PUSH1 0x0 DUP3 ADD MSTORE PUSH32 0x6F756E7400000000000000000000000000000000000000000000000000000000 PUSH1 0x20 DUP3 ADD MSTORE POP JUMP JUMPDEST PUSH32 0x496E766F6963652063616E277420626520616363657074656400000000000000 PUSH1 0x0 DUP3 ADD MSTORE POP JUMP JUMPDEST PUSH32 0x50617469656E742063616E2774206265206368617267656420666F7220746869 PUSH1 0x0 DUP3 ADD MSTORE PUSH32 0x732063617465676F727900000000000000000000000000000000000000000000 PUSH1 0x20 DUP3 ADD MSTORE POP JUMP JUMPDEST PUSH1 0x3 DUP2 LT PUSH2 0x20C7 JUMPI PUSH2 0x20C6 PUSH2 0x1DF1 JUMP JUMPDEST JUMPDEST POP JUMP JUMPDEST PUSH2 0x20D3 DUP2 PUSH2 0x1CD9 JUMP JUMPDEST DUP2 EQ PUSH2 0x20DE JUMPI PUSH1 0x0 DUP1 REVERT JUMPDEST POP JUMP JUMPDEST PUSH2 0x20EA DUP2 PUSH2 0x1CEB JUMP JUMPDEST DUP2 EQ PUSH2 0x20F5 JUMPI PUSH1 0x0 DUP1 REVERT JUMPDEST POP JUMP JUMPDEST PUSH2 0x2101 DUP2 PUSH2 0x1CF7 JUMP JUMPDEST DUP2 EQ PUSH2 0x210C JUMPI PUSH1 0x0 DUP1 REVERT JUMPDEST POP JUMP JUMPDEST PUSH2 0x2118 DUP2 PUSH2 0x1D34 JUMP JUMPDEST DUP2 EQ PUSH2 0x2123 JUMPI PUSH1 0x0 DUP1 REVERT JUMPDEST POP JUMP INVALID LOG2 PUSH5 0x6970667358 0x22 SLT KECCAK256 0xAF 0xEA 0xEA SWAP2 KECCAK256 DUP4 0xDB CALLER PUSH18 0x159D21503642561FDA134F5D970DE4ECF555 LOG3 SHR SWAP8 0xB0 0xF6 PUSH5 0x736F6C6343 STOP ADDMOD SMOD STOP CALLER "
				},
				"gasEstimates": {
					"creation": {
						"codeDepositCost": "1708000",
						"executionCost": "infinite",
						"totalCost": "infinite"
					},
					"external": {
						"approveInvoice(bytes32,bool)": "378789",
						"createInvoice(address,uint256,bytes32)": "infinite",
						"getHash(string)": "infinite",
						"getInvoiceById(bytes32)": "infinite",
						"getInvoiceByPatient(address,uint256)": "infinite",
						"owner()": "2544",
						"registerClinic(bytes32,address)": "25116",
						"renounceOwnership()": "30463",
						"setPrice(bytes32,uint256)": "25056",
						"setUsersCategory(address,bytes32)": "25072",
						"transferOwnership(address)": "30833"
					},
					"internal": {
						"archiveInvoice(bytes32)": "infinite"
					}
				},
				"methodIdentifiers": {
					"approveInvoice(bytes32,bool)": "ed1f2592",
					"createInvoice(address,uint256,bytes32)": "0707613b",
					"getHash(string)": "5b6beeb9",
					"getInvoiceById(bytes32)": "d367d966",
					"getInvoiceByPatient(address,uint256)": "02cebea5",
					"owner()": "8da5cb5b",
					"registerClinic(bytes32,address)": "99bf9094",
					"renounceOwnership()": "715018a6",
					"setPrice(bytes32,uint256)": "10d8d74d",
					"setUsersCategory(address,bytes32)": "7f0a44d4",
					"transferOwnership(address)": "f2fde38b"
				}
			},
			"storageLayout": {
				"storage": [
					{
						"astId": 7,
						"contract": "HermesChain.sol:Hermes",
						"label": "_owner",
						"offset": 0,
						"slot": "0",
						"type": "t_address"
					},
					{
						"astId": 133,
						"contract": "HermesChain.sol:Hermes",
						"label": "invoiceCreated",
						"offset": 0,
						"slot": "1",
						"type": "t_uint256"
					},
					{
						"astId": 137,
						"contract": "HermesChain.sol:Hermes",
						"label": "_prices",
						"offset": 0,
						"slot": "2",
						"type": "t_mapping(t_bytes32,t_uint256)"
					},
					{
						"astId": 141,
						"contract": "HermesChain.sol:Hermes",
						"label": "clinicIds",
						"offset": 0,
						"slot": "3",
						"type": "t_mapping(t_address,t_bytes32)"
					},
					{
						"astId": 145,
						"contract": "HermesChain.sol:Hermes",
						"label": "patientCategories",
						"offset": 0,
						"slot": "4",
						"type": "t_mapping(t_address,t_bytes32)"
					},
					{
						"astId": 151,
						"contract": "HermesChain.sol:Hermes",
						"label": "patientPastInvoices",
						"offset": 0,
						"slot": "5",
						"type": "t_mapping(t_address,t_array(t_struct(Invoice)188_storage)dyn_storage)"
					},
					{
						"astId": 156,
						"contract": "HermesChain.sol:Hermes",
						"label": "invoiceRecordsById",
						"offset": 0,
						"slot": "6",
						"type": "t_mapping(t_bytes32,t_struct(Invoice)188_storage)"
					},
					{
						"astId": 196,
						"contract": "HermesChain.sol:Hermes",
						"label": "pendingRequests",
						"offset": 0,
						"slot": "7",
						"type": "t_mapping(t_address,t_mapping(t_bytes32,t_struct(Invoice)188_storage))"
					}
				],
				"types": {
					"t_address": {
						"encoding": "inplace",
						"label": "address",
						"numberOfBytes": "20"
					},
					"t_array(t_struct(Invoice)188_storage)dyn_storage": {
						"base": "t_struct(Invoice)188_storage",
						"encoding": "dynamic_array",
						"label": "struct Hermes.Invoice[]",
						"numberOfBytes": "32"
					},
					"t_bytes32": {
						"encoding": "inplace",
						"label": "bytes32",
						"numberOfBytes": "32"
					},
					"t_enum(Status)176": {
						"encoding": "inplace",
						"label": "enum Hermes.Status",
						"numberOfBytes": "1"
					},
					"t_mapping(t_address,t_array(t_struct(Invoice)188_storage)dyn_storage)": {
						"encoding": "mapping",
						"key": "t_address",
						"label": "mapping(address => struct Hermes.Invoice[])",
						"numberOfBytes": "32",
						"value": "t_array(t_struct(Invoice)188_storage)dyn_storage"
					},
					"t_mapping(t_address,t_bytes32)": {
						"encoding": "mapping",
						"key": "t_address",
						"label": "mapping(address => bytes32)",
						"numberOfBytes": "32",
						"value": "t_bytes32"
					},
					"t_mapping(t_address,t_mapping(t_bytes32,t_struct(Invoice)188_storage))": {
						"encoding": "mapping",
						"key": "t_address",
						"label": "mapping(address => mapping(bytes32 => struct Hermes.Invoice))",
						"numberOfBytes": "32",
						"value": "t_mapping(t_bytes32,t_struct(Invoice)188_storage)"
					},
					"t_mapping(t_bytes32,t_struct(Invoice)188_storage)": {
						"encoding": "mapping",
						"key": "t_bytes32",
						"label": "mapping(bytes32 => struct Hermes.Invoice)",
						"numberOfBytes": "32",
						"value": "t_struct(Invoice)188_storage"
					},
					"t_mapping(t_bytes32,t_uint256)": {
						"encoding": "mapping",
						"key": "t_bytes32",
						"label": "mapping(bytes32 => uint256)",
						"numberOfBytes": "32",
						"value": "t_uint256"
					},
					"t_struct(Invoice)188_storage": {
						"encoding": "inplace",
						"label": "struct Hermes.Invoice",
						"members": [
							{
								"astId": 178,
								"contract": "HermesChain.sol:Hermes",
								"label": "invoiceId",
								"offset": 0,
								"slot": "0",
								"type": "t_bytes32"
							},
							{
								"astId": 180,
								"contract": "HermesChain.sol:Hermes",
								"label": "typeOfPatient",
								"offset": 0,
								"slot": "1",
								"type": "t_bytes32"
							},
							{
								"astId": 182,
								"contract": "HermesChain.sol:Hermes",
								"label": "amount",
								"offset": 0,
								"slot": "2",
								"type": "t_uint256"
							},
							{
								"astId": 184,
								"contract": "HermesChain.sol:Hermes",
								"label": "patient",
								"offset": 0,
								"slot": "3",
								"type": "t_address"
							},
							{
								"astId": 187,
								"contract": "HermesChain.sol:Hermes",
								"label": "status",
								"offset": 20,
								"slot": "3",
								"type": "t_enum(Status)176"
							}
						],
						"numberOfBytes": "128"
					},
					"t_uint256": {
						"encoding": "inplace",
						"label": "uint256",
						"numberOfBytes": "32"
					}
				}
			},
			"userdoc": {
				"kind": "user",
				"methods": {
					"approveInvoice(bytes32,bool)": {
						"notice": "This function can be called by patientInvoice should be already createdInvoice status should be pendingFunction accepts or rejects invoce and archives it"
					},
					"createInvoice(address,uint256,bytes32)": {
						"notice": "This function can be called by clinicClinic can't create invoice more then 3x of patient category limitsif patients first time, his category will be recordedFunction checks if user belongs to that category"
					},
					"registerClinic(bytes32,address)": {
						"notice": "Bu Fonksiyon Kliniklerden çağrılabilir zaten kayıtlı bir klinik varsa, sözleşme güvenlik nedeniyle tekrar kaydolmasına izin vermez"
					}
				},
				"version": 1
			}
		}
	}
}