{
	"hermesss.sol": {
		"Hermes": {
			"abi": [
				{
					"anonymous": false,
					"inputs": [
						{
							"indexed": true,
							"internalType": "address",
							"name": "patient",
							"type": "address"
						},
						{
							"indexed": true,
							"internalType": "bytes32",
							"name": "clinic",
							"type": "bytes32"
						},
						{
							"indexed": false,
							"internalType": "uint256",
							"name": "timestamp",
							"type": "uint256"
						}
					],
					"name": "InvocieAccepted",
					"type": "event"
				},
				{
					"anonymous": false,
					"inputs": [
						{
							"indexed": true,
							"internalType": "address",
							"name": "patient",
							"type": "address"
						},
						{
							"indexed": true,
							"internalType": "bytes32",
							"name": "clinic",
							"type": "bytes32"
						},
						{
							"indexed": false,
							"internalType": "uint256",
							"name": "timestamp",
							"type": "uint256"
						}
					],
					"name": "InvocieCreated",
					"type": "event"
				},
				{
					"anonymous": false,
					"inputs": [
						{
							"indexed": true,
							"internalType": "address",
							"name": "previousOwner",
							"type": "address"
						},
						{
							"indexed": true,
							"internalType": "address",
							"name": "newOwner",
							"type": "address"
						}
					],
					"name": "OwnershipTransferred",
					"type": "event"
				},
				{
					"inputs": [
						{
							"internalType": "bytes32",
							"name": "_clinicHash",
							"type": "bytes32"
						},
						{
							"internalType": "bool",
							"name": "approveReject",
							"type": "bool"
						}
					],
					"name": "approveInvoice",
					"outputs": [],
					"stateMutability": "nonpayable",
					"type": "function"
				},
				{
					"inputs": [
						{
							"internalType": "address",
							"name": "patientAddress",
							"type": "address"
						},
						{
							"internalType": "uint256",
							"name": "amount",
							"type": "uint256"
						},
						{
							"internalType": "bytes32",
							"name": "patientCategory",
							"type": "bytes32"
						},
						{
							"internalType": "bool",
							"name": "groupA",
							"type": "bool"
						}
					],
					"name": "createInvoice",
					"outputs": [],
					"stateMutability": "nonpayable",
					"type": "function"
				},
				{
					"inputs": [
						{
							"internalType": "string",
							"name": "message",
							"type": "string"
						}
					],
					"name": "getHash",
					"outputs": [
						{
							"internalType": "bytes32",
							"name": "",
							"type": "bytes32"
						}
					],
					"stateMutability": "pure",
					"type": "function"
				},
				{
					"inputs": [
						{
							"internalType": "bytes32",
							"name": "id",
							"type": "bytes32"
						}
					],
					"name": "getInvoiceById",
					"outputs": [
						{
							"components": [
								{
									"internalType": "bytes32",
									"name": "invoiceId",
									"type": "bytes32"
								},
								{
									"internalType": "bytes32",
									"name": "typeOfPatient",
									"type": "bytes32"
								},
								{
									"internalType": "uint256",
									"name": "amount",
									"type": "uint256"
								},
								{
									"internalType": "address",
									"name": "patient",
									"type": "address"
								},
								{
									"internalType": "enum Hermes.Status",
									"name": "status",
									"type": "uint8"
								}
							],
							"internalType": "struct Hermes.Invoice",
							"name": "",
							"type": "tuple"
						}
					],
					"stateMutability": "view",
					"type": "function"
				},
				{
					"inputs": [
						{
							"internalType": "address",
							"name": "patient",
							"type": "address"
						},
						{
							"internalType": "uint256",
							"name": "index",
							"type": "uint256"
						}
					],
					"name": "getInvoiceByPatient",
					"outputs": [
						{
							"components": [
								{
									"internalType": "bytes32",
									"name": "invoiceId",
									"type": "bytes32"
								},
								{
									"internalType": "bytes32",
									"name": "typeOfPatient",
									"type": "bytes32"
								},
								{
									"internalType": "uint256",
									"name": "amount",
									"type": "uint256"
								},
								{
									"internalType": "address",
									"name": "patient",
									"type": "address"
								},
								{
									"internalType": "enum Hermes.Status",
									"name": "status",
									"type": "uint8"
								}
							],
							"internalType": "struct Hermes.Invoice",
							"name": "",
							"type": "tuple"
						}
					],
					"stateMutability": "view",
					"type": "function"
				},
				{
					"inputs": [],
					"name": "owner",
					"outputs": [
						{
							"internalType": "address",
							"name": "",
							"type": "address"
						}
					],
					"stateMutability": "view",
					"type": "function"
				},
				{
					"inputs": [
						{
							"internalType": "bytes32",
							"name": "_clinicHash",
							"type": "bytes32"
						},
						{
							"internalType": "address",
							"name": "clinicAddress",
							"type": "address"
						},
						{
							"internalType": "bool",
							"name": "groupA",
							"type": "bool"
						}
					],
					"name": "registerClinic",
					"outputs": [],
					"stateMutability": "nonpayable",
					"type": "function"
				},
				{
					"inputs": [],
					"name": "renounceOwnership",
					"outputs": [],
					"stateMutability": "nonpayable",
					"type": "function"
				},
				{
					"inputs": [
						{
							"internalType": "bytes32",
							"name": "categoryHash",
							"type": "bytes32"
						},
						{
							"internalType": "uint256",
							"name": "amount",
							"type": "uint256"
						}
					],
					"name": "setPrice",
					"outputs": [],
					"stateMutability": "nonpayable",
					"type": "function"
				},
				{
					"inputs": [
						{
							"internalType": "address",
							"name": "patient",
							"type": "address"
						},
						{
							"internalType": "bytes32",
							"name": "newCategory",
							"type": "bytes32"
						}
					],
					"name": "setUsersCategory",
					"outputs": [],
					"stateMutability": "nonpayable",
					"type": "function"
				},
				{
					"inputs": [
						{
							"internalType": "address",
							"name": "newOwner",
							"type": "address"
						}
					],
					"name": "transferOwnership",
					"outputs": [],
					"stateMutability": "nonpayable",
					"type": "function"
				}
			],
			"devdoc": {
				"kind": "dev",
				"methods": {
					"owner()": {
						"details": "Returns the address of the current owner."
					},
					"renounceOwnership()": {
						"details": "Leaves the contract without owner. It will not be possible to call `onlyOwner` functions anymore. Can only be called by the current owner. NOTE: Renouncing ownership will leave the contract without an owner, thereby removing any functionality that is only available to the owner."
					},
					"transferOwnership(address)": {
						"details": "Transfers ownership of the contract to a new account (`newOwner`). Can only be called by the current owner."
					}
				},
				"version": 1
			},
			"evm": {
				"assembly": "    /* \"hermesss.sol\":170:7472  contract Hermes is Ownable{\r... */\n  mstore(0x40, 0x80)\n  callvalue\n  dup1\n  iszero\n  tag_1\n  jumpi\n  0x00\n  dup1\n  revert\ntag_1:\n  pop\n    /* \"@openzeppelin/contracts/access/Ownable.sol\":921:953  _transferOwnership(_msgSender()) */\n  tag_4\n    /* \"@openzeppelin/contracts/access/Ownable.sol\":940:952  _msgSender() */\n  tag_5\n    /* \"@openzeppelin/contracts/access/Ownable.sol\":940:950  _msgSender */\n  shl(0x20, tag_6)\n    /* \"@openzeppelin/contracts/access/Ownable.sol\":940:952  _msgSender() */\n  0x20\n  shr\n  jump\t// in\ntag_5:\n    /* \"@openzeppelin/contracts/access/Ownable.sol\":921:939  _transferOwnership */\n  shl(0x20, tag_7)\n    /* \"@openzeppelin/contracts/access/Ownable.sol\":921:953  _transferOwnership(_msgSender()) */\n  0x20\n  shr\n  jump\t// in\ntag_4:\n    /* \"hermesss.sol\":170:7472  contract Hermes is Ownable{\r... */\n  jump(tag_8)\n    /* \"@openzeppelin/contracts/utils/Context.sol\":640:736  function _msgSender() internal view virtual returns (address) {... */\ntag_6:\n    /* \"@openzeppelin/contracts/utils/Context.sol\":693:700  address */\n  0x00\n    /* \"@openzeppelin/contracts/utils/Context.sol\":719:729  msg.sender */\n  caller\n    /* \"@openzeppelin/contracts/utils/Context.sol\":712:729  return msg.sender */\n  swap1\n  pop\n    /* \"@openzeppelin/contracts/utils/Context.sol\":640:736  function _msgSender() internal view virtual returns (address) {... */\n  swap1\n  jump\t// out\n    /* \"@openzeppelin/contracts/access/Ownable.sol\":2270:2457  function _transferOwnership(address newOwner) internal virtual {... */\ntag_7:\n    /* \"@openzeppelin/contracts/access/Ownable.sol\":2343:2359  address oldOwner */\n  0x00\n    /* \"@openzeppelin/contracts/access/Ownable.sol\":2362:2368  _owner */\n  dup1\n  0x00\n  swap1\n  sload\n  swap1\n  0x0100\n  exp\n  swap1\n  div\n  0xffffffffffffffffffffffffffffffffffffffff\n  and\n    /* \"@openzeppelin/contracts/access/Ownable.sol\":2343:2368  address oldOwner = _owner */\n  swap1\n  pop\n    /* \"@openzeppelin/contracts/access/Ownable.sol\":2387:2395  newOwner */\n  dup2\n    /* \"@openzeppelin/contracts/access/Ownable.sol\":2378:2384  _owner */\n  0x00\n  dup1\n    /* \"@openzeppelin/contracts/access/Ownable.sol\":2378:2395  _owner = newOwner */\n  0x0100\n  exp\n  dup2\n  sload\n  dup2\n  0xffffffffffffffffffffffffffffffffffffffff\n  mul\n  not\n  and\n  swap1\n  dup4\n  0xffffffffffffffffffffffffffffffffffffffff\n  and\n  mul\n  or\n  swap1\n  sstore\n  pop\n    /* \"@openzeppelin/contracts/access/Ownable.sol\":2441:2449  newOwner */\n  dup2\n    /* \"@openzeppelin/contracts/access/Ownable.sol\":2410:2450  OwnershipTransferred(oldOwner, newOwner) */\n  0xffffffffffffffffffffffffffffffffffffffff\n  and\n    /* \"@openzeppelin/contracts/access/Ownable.sol\":2431:2439  oldOwner */\n  dup2\n    /* \"@openzeppelin/contracts/access/Ownable.sol\":2410:2450  OwnershipTransferred(oldOwner, newOwner) */\n  0xffffffffffffffffffffffffffffffffffffffff\n  and\n  0x8be0079c531659141344cd1fd0a4f28419497f9722a3daafe3b4186f6b6457e0\n  mload(0x40)\n  mload(0x40)\n  dup1\n  swap2\n  sub\n  swap1\n  log3\n    /* \"@openzeppelin/contracts/access/Ownable.sol\":2333:2457  {... */\n  pop\n    /* \"@openzeppelin/contracts/access/Ownable.sol\":2270:2457  function _transferOwnership(address newOwner) internal virtual {... */\n  pop\n  jump\t// out\n    /* \"hermesss.sol\":170:7472  contract Hermes is Ownable{\r... */\ntag_8:\n  dataSize(sub_0)\n  dup1\n  dataOffset(sub_0)\n  0x00\n  codecopy\n  0x00\n  return\nstop\n\nsub_0: assembly {\n        /* \"hermesss.sol\":170:7472  contract Hermes is Ownable{\r... */\n      mstore(0x40, 0x80)\n      callvalue\n      dup1\n      iszero\n      tag_1\n      jumpi\n      0x00\n      dup1\n      revert\n    tag_1:\n      pop\n      jumpi(tag_2, lt(calldatasize, 0x04))\n      shr(0xe0, calldataload(0x00))\n      dup1\n      0x7f0a44d4\n      gt\n      tag_14\n      jumpi\n      dup1\n      0x7f0a44d4\n      eq\n      tag_8\n      jumpi\n      dup1\n      0x8da5cb5b\n      eq\n      tag_9\n      jumpi\n      dup1\n      0x8fc609d0\n      eq\n      tag_10\n      jumpi\n      dup1\n      0xd367d966\n      eq\n      tag_11\n      jumpi\n      dup1\n      0xed1f2592\n      eq\n      tag_12\n      jumpi\n      dup1\n      0xf2fde38b\n      eq\n      tag_13\n      jumpi\n      jump(tag_2)\n    tag_14:\n      dup1\n      0x02cebea5\n      eq\n      tag_3\n      jumpi\n      dup1\n      0x10d8d74d\n      eq\n      tag_4\n      jumpi\n      dup1\n      0x535fd18a\n      eq\n      tag_5\n      jumpi\n      dup1\n      0x5b6beeb9\n      eq\n      tag_6\n      jumpi\n      dup1\n      0x715018a6\n      eq\n      tag_7\n      jumpi\n    tag_2:\n      0x00\n      dup1\n      revert\n        /* \"hermesss.sol\":7067:7226  function getInvoiceByPatient(address patient, uint256 index) external view returns(Invoice memory){\r... */\n    tag_3:\n      tag_15\n      0x04\n      dup1\n      calldatasize\n      sub\n      dup2\n      add\n      swap1\n      tag_16\n      swap2\n      swap1\n      tag_17\n      jump\t// in\n    tag_16:\n      tag_18\n      jump\t// in\n    tag_15:\n      mload(0x40)\n      tag_19\n      swap2\n      swap1\n      tag_20\n      jump\t// in\n    tag_19:\n      mload(0x40)\n      dup1\n      swap2\n      sub\n      swap1\n      return\n        /* \"hermesss.sol\":6540:6663  function setPrice(bytes32 categoryHash, uint256 amount) external onlyOwner{\r... */\n    tag_4:\n      tag_21\n      0x04\n      dup1\n      calldatasize\n      sub\n      dup2\n      add\n      swap1\n      tag_22\n      swap2\n      swap1\n      tag_23\n      jump\t// in\n    tag_22:\n      tag_24\n      jump\t// in\n    tag_21:\n      stop\n        /* \"hermesss.sol\":3162:3421  function registerClinic(bytes32 _clinicHash, address clinicAddress, bool groupA) public onlyOwner{\r... */\n    tag_5:\n      tag_25\n      0x04\n      dup1\n      calldatasize\n      sub\n      dup2\n      add\n      swap1\n      tag_26\n      swap2\n      swap1\n      tag_27\n      jump\t// in\n    tag_26:\n      tag_28\n      jump\t// in\n    tag_25:\n      stop\n        /* \"hermesss.sol\":7331:7463  function getHash(string memory message) external pure returns(bytes32){\r... */\n    tag_6:\n      tag_29\n      0x04\n      dup1\n      calldatasize\n      sub\n      dup2\n      add\n      swap1\n      tag_30\n      swap2\n      swap1\n      tag_31\n      jump\t// in\n    tag_30:\n      tag_32\n      jump\t// in\n    tag_29:\n      mload(0x40)\n      tag_33\n      swap2\n      swap1\n      tag_34\n      jump\t// in\n    tag_33:\n      mload(0x40)\n      dup1\n      swap2\n      sub\n      swap1\n      return\n        /* \"@openzeppelin/contracts/access/Ownable.sol\":1668:1769  function renounceOwnership() public virtual onlyOwner {... */\n    tag_7:\n      tag_35\n      tag_36\n      jump\t// in\n    tag_35:\n      stop\n        /* \"hermesss.sol\":6720:6861  function setUsersCategory(address patient, bytes32 newCategory) external onlyOwner{\r... */\n    tag_8:\n      tag_37\n      0x04\n      dup1\n      calldatasize\n      sub\n      dup2\n      add\n      swap1\n      tag_38\n      swap2\n      swap1\n      tag_39\n      jump\t// in\n    tag_38:\n      tag_40\n      jump\t// in\n    tag_37:\n      stop\n        /* \"@openzeppelin/contracts/access/Ownable.sol\":1036:1121  function owner() public view virtual returns (address) {... */\n    tag_9:\n      tag_41\n      tag_42\n      jump\t// in\n    tag_41:\n      mload(0x40)\n      tag_43\n      swap2\n      swap1\n      tag_44\n      jump\t// in\n    tag_43:\n      mload(0x40)\n      dup1\n      swap2\n      sub\n      swap1\n      return\n        /* \"hermesss.sol\":3775:5071  function createInvoice(address patientAddress, uint256 amount, bytes32 patientCategory, bool groupA) public onlyClinic(groupA){\r... */\n    tag_10:\n      tag_45\n      0x04\n      dup1\n      calldatasize\n      sub\n      dup2\n      add\n      swap1\n      tag_46\n      swap2\n      swap1\n      tag_47\n      jump\t// in\n    tag_46:\n      tag_48\n      jump\t// in\n    tag_45:\n      stop\n        /* \"hermesss.sol\":6902:7023  function getInvoiceById(bytes32 id) external view returns(Invoice memory){\r... */\n    tag_11:\n      tag_49\n      0x04\n      dup1\n      calldatasize\n      sub\n      dup2\n      add\n      swap1\n      tag_50\n      swap2\n      swap1\n      tag_51\n      jump\t// in\n    tag_50:\n      tag_52\n      jump\t// in\n    tag_49:\n      mload(0x40)\n      tag_53\n      swap2\n      swap1\n      tag_20\n      jump\t// in\n    tag_53:\n      mload(0x40)\n      dup1\n      swap2\n      sub\n      swap1\n      return\n        /* \"hermesss.sol\":5334:5935  function approveInvoice(bytes32 _clinicHash, bool approveReject) public onlyPatient{\r... */\n    tag_12:\n      tag_54\n      0x04\n      dup1\n      calldatasize\n      sub\n      dup2\n      add\n      swap1\n      tag_55\n      swap2\n      swap1\n      tag_56\n      jump\t// in\n    tag_55:\n      tag_57\n      jump\t// in\n    tag_54:\n      stop\n        /* \"@openzeppelin/contracts/access/Ownable.sol\":1918:2116  function transferOwnership(address newOwner) public virtual onlyOwner {... */\n    tag_13:\n      tag_58\n      0x04\n      dup1\n      calldatasize\n      sub\n      dup2\n      add\n      swap1\n      tag_59\n      swap2\n      swap1\n      tag_60\n      jump\t// in\n    tag_59:\n      tag_61\n      jump\t// in\n    tag_58:\n      stop\n        /* \"hermesss.sol\":7067:7226  function getInvoiceByPatient(address patient, uint256 index) external view returns(Invoice memory){\r... */\n    tag_18:\n        /* \"hermesss.sol\":7150:7164  Invoice memory */\n      tag_62\n      tag_63\n      jump\t// in\n    tag_62:\n        /* \"hermesss.sol\":7183:7202  patientPastInvoices */\n      0x06\n        /* \"hermesss.sol\":7183:7211  patientPastInvoices[patient] */\n      0x00\n        /* \"hermesss.sol\":7203:7210  patient */\n      dup5\n        /* \"hermesss.sol\":7183:7211  patientPastInvoices[patient] */\n      0xffffffffffffffffffffffffffffffffffffffff\n      and\n      0xffffffffffffffffffffffffffffffffffffffff\n      and\n      dup2\n      mstore\n      0x20\n      add\n      swap1\n      dup2\n      mstore\n      0x20\n      add\n      0x00\n      keccak256\n        /* \"hermesss.sol\":7212:7217  index */\n      dup3\n        /* \"hermesss.sol\":7183:7218  patientPastInvoices[patient][index] */\n      dup2\n      sload\n      dup2\n      lt\n      tag_65\n      jumpi\n      tag_66\n      tag_67\n      jump\t// in\n    tag_66:\n    tag_65:\n      swap1\n      0x00\n      mstore\n      keccak256(0x00, 0x20)\n      swap1\n      0x04\n      mul\n      add\n        /* \"hermesss.sol\":7176:7218  return patientPastInvoices[patient][index] */\n      mload(0x40)\n      dup1\n      0xa0\n      add\n      0x40\n      mstore\n      swap1\n      dup2\n      0x00\n      dup3\n      add\n      sload\n      dup2\n      mstore\n      0x20\n      add\n      0x01\n      dup3\n      add\n      sload\n      dup2\n      mstore\n      0x20\n      add\n      0x02\n      dup3\n      add\n      sload\n      dup2\n      mstore\n      0x20\n      add\n      0x03\n      dup3\n      add\n      0x00\n      swap1\n      sload\n      swap1\n      0x0100\n      exp\n      swap1\n      div\n      0xffffffffffffffffffffffffffffffffffffffff\n      and\n      0xffffffffffffffffffffffffffffffffffffffff\n      and\n      0xffffffffffffffffffffffffffffffffffffffff\n      and\n      dup2\n      mstore\n      0x20\n      add\n      0x03\n      dup3\n      add\n      0x14\n      swap1\n      sload\n      swap1\n      0x0100\n      exp\n      swap1\n      div\n      0xff\n      and\n      0x02\n      dup2\n      gt\n      iszero\n      tag_69\n      jumpi\n      tag_70\n      tag_71\n      jump\t// in\n    tag_70:\n    tag_69:\n      0x02\n      dup2\n      gt\n      iszero\n      tag_72\n      jumpi\n      tag_73\n      tag_71\n      jump\t// in\n    tag_73:\n    tag_72:\n      dup2\n      mstore\n      pop\n      pop\n      swap1\n      pop\n        /* \"hermesss.sol\":7067:7226  function getInvoiceByPatient(address patient, uint256 index) external view returns(Invoice memory){\r... */\n      swap3\n      swap2\n      pop\n      pop\n      jump\t// out\n        /* \"hermesss.sol\":6540:6663  function setPrice(bytes32 categoryHash, uint256 amount) external onlyOwner{\r... */\n    tag_24:\n        /* \"@openzeppelin/contracts/access/Ownable.sol\":1259:1271  _msgSender() */\n      tag_75\n        /* \"@openzeppelin/contracts/access/Ownable.sol\":1259:1269  _msgSender */\n      tag_76\n        /* \"@openzeppelin/contracts/access/Ownable.sol\":1259:1271  _msgSender() */\n      jump\t// in\n    tag_75:\n        /* \"@openzeppelin/contracts/access/Ownable.sol\":1248:1271  owner() == _msgSender() */\n      0xffffffffffffffffffffffffffffffffffffffff\n      and\n        /* \"@openzeppelin/contracts/access/Ownable.sol\":1248:1255  owner() */\n      tag_77\n        /* \"@openzeppelin/contracts/access/Ownable.sol\":1248:1253  owner */\n      tag_42\n        /* \"@openzeppelin/contracts/access/Ownable.sol\":1248:1255  owner() */\n      jump\t// in\n    tag_77:\n        /* \"@openzeppelin/contracts/access/Ownable.sol\":1248:1271  owner() == _msgSender() */\n      0xffffffffffffffffffffffffffffffffffffffff\n      and\n      eq\n        /* \"@openzeppelin/contracts/access/Ownable.sol\":1240:1308  require(owner() == _msgSender(), \"Ownable: caller is not the owner\") */\n      tag_78\n      jumpi\n      mload(0x40)\n      0x08c379a000000000000000000000000000000000000000000000000000000000\n      dup2\n      mstore\n      0x04\n      add\n      tag_79\n      swap1\n      tag_80\n      jump\t// in\n    tag_79:\n      mload(0x40)\n      dup1\n      swap2\n      sub\n      swap1\n      revert\n    tag_78:\n        /* \"hermesss.sol\":6649:6655  amount */\n      dup1\n        /* \"hermesss.sol\":6625:6632  _prices */\n      0x02\n        /* \"hermesss.sol\":6625:6646  _prices[categoryHash] */\n      0x00\n        /* \"hermesss.sol\":6633:6645  categoryHash */\n      dup5\n        /* \"hermesss.sol\":6625:6646  _prices[categoryHash] */\n      dup2\n      mstore\n      0x20\n      add\n      swap1\n      dup2\n      mstore\n      0x20\n      add\n      0x00\n      keccak256\n        /* \"hermesss.sol\":6625:6655  _prices[categoryHash] = amount */\n      dup2\n      swap1\n      sstore\n      pop\n        /* \"hermesss.sol\":6540:6663  function setPrice(bytes32 categoryHash, uint256 amount) external onlyOwner{\r... */\n      pop\n      pop\n      jump\t// out\n        /* \"hermesss.sol\":3162:3421  function registerClinic(bytes32 _clinicHash, address clinicAddress, bool groupA) public onlyOwner{\r... */\n    tag_28:\n        /* \"@openzeppelin/contracts/access/Ownable.sol\":1259:1271  _msgSender() */\n      tag_83\n        /* \"@openzeppelin/contracts/access/Ownable.sol\":1259:1269  _msgSender */\n      tag_76\n        /* \"@openzeppelin/contracts/access/Ownable.sol\":1259:1271  _msgSender() */\n      jump\t// in\n    tag_83:\n        /* \"@openzeppelin/contracts/access/Ownable.sol\":1248:1271  owner() == _msgSender() */\n      0xffffffffffffffffffffffffffffffffffffffff\n      and\n        /* \"@openzeppelin/contracts/access/Ownable.sol\":1248:1255  owner() */\n      tag_84\n        /* \"@openzeppelin/contracts/access/Ownable.sol\":1248:1253  owner */\n      tag_42\n        /* \"@openzeppelin/contracts/access/Ownable.sol\":1248:1255  owner() */\n      jump\t// in\n    tag_84:\n        /* \"@openzeppelin/contracts/access/Ownable.sol\":1248:1271  owner() == _msgSender() */\n      0xffffffffffffffffffffffffffffffffffffffff\n      and\n      eq\n        /* \"@openzeppelin/contracts/access/Ownable.sol\":1240:1308  require(owner() == _msgSender(), \"Ownable: caller is not the owner\") */\n      tag_85\n      jumpi\n      mload(0x40)\n      0x08c379a000000000000000000000000000000000000000000000000000000000\n      dup2\n      mstore\n      0x04\n      add\n      tag_86\n      swap1\n      tag_80\n      jump\t// in\n    tag_86:\n      mload(0x40)\n      dup1\n      swap2\n      sub\n      swap1\n      revert\n    tag_85:\n        /* \"hermesss.sol\":3273:3279  groupA */\n      dup1\n        /* \"hermesss.sol\":3270:3413  if(groupA)\r... */\n      iszero\n      tag_88\n      jumpi\n        /* \"hermesss.sol\":3328:3339  _clinicHash */\n      dup3\n        /* \"hermesss.sol\":3294:3310  groupA_clinicIds */\n      0x03\n        /* \"hermesss.sol\":3294:3325  groupA_clinicIds[clinicAddress] */\n      0x00\n        /* \"hermesss.sol\":3311:3324  clinicAddress */\n      dup5\n        /* \"hermesss.sol\":3294:3325  groupA_clinicIds[clinicAddress] */\n      0xffffffffffffffffffffffffffffffffffffffff\n      and\n      0xffffffffffffffffffffffffffffffffffffffff\n      and\n      dup2\n      mstore\n      0x20\n      add\n      swap1\n      dup2\n      mstore\n      0x20\n      add\n      0x00\n      keccak256\n        /* \"hermesss.sol\":3294:3339  groupA_clinicIds[clinicAddress] = _clinicHash */\n      dup2\n      swap1\n      sstore\n      pop\n        /* \"hermesss.sol\":3270:3413  if(groupA)\r... */\n      jump(tag_89)\n    tag_88:\n        /* \"hermesss.sol\":3402:3413  _clinicHash */\n      dup3\n        /* \"hermesss.sol\":3368:3384  groupB_clinicIds */\n      0x04\n        /* \"hermesss.sol\":3368:3399  groupB_clinicIds[clinicAddress] */\n      0x00\n        /* \"hermesss.sol\":3385:3398  clinicAddress */\n      dup5\n        /* \"hermesss.sol\":3368:3399  groupB_clinicIds[clinicAddress] */\n      0xffffffffffffffffffffffffffffffffffffffff\n      and\n      0xffffffffffffffffffffffffffffffffffffffff\n      and\n      dup2\n      mstore\n      0x20\n      add\n      swap1\n      dup2\n      mstore\n      0x20\n      add\n      0x00\n      keccak256\n        /* \"hermesss.sol\":3368:3413  groupB_clinicIds[clinicAddress] = _clinicHash */\n      dup2\n      swap1\n      sstore\n      pop\n        /* \"hermesss.sol\":3270:3413  if(groupA)\r... */\n    tag_89:\n        /* \"hermesss.sol\":3162:3421  function registerClinic(bytes32 _clinicHash, address clinicAddress, bool groupA) public onlyOwner{\r... */\n      pop\n      pop\n      pop\n      jump\t// out\n        /* \"hermesss.sol\":7331:7463  function getHash(string memory message) external pure returns(bytes32){\r... */\n    tag_32:\n        /* \"hermesss.sol\":7393:7400  bytes32 */\n      0x00\n        /* \"hermesss.sol\":7446:7453  message */\n      dup2\n        /* \"hermesss.sol\":7429:7454  abi.encodePacked(message) */\n      add(0x20, mload(0x40))\n      tag_91\n      swap2\n      swap1\n      tag_92\n      jump\t// in\n    tag_91:\n      mload(0x40)\n      0x20\n      dup2\n      dup4\n      sub\n      sub\n      dup2\n      mstore\n      swap1\n      0x40\n      mstore\n        /* \"hermesss.sol\":7419:7455  keccak256(abi.encodePacked(message)) */\n      dup1\n      mload\n      swap1\n      0x20\n      add\n      keccak256\n        /* \"hermesss.sol\":7412:7455  return keccak256(abi.encodePacked(message)) */\n      swap1\n      pop\n        /* \"hermesss.sol\":7331:7463  function getHash(string memory message) external pure returns(bytes32){\r... */\n      swap2\n      swap1\n      pop\n      jump\t// out\n        /* \"@openzeppelin/contracts/access/Ownable.sol\":1668:1769  function renounceOwnership() public virtual onlyOwner {... */\n    tag_36:\n        /* \"@openzeppelin/contracts/access/Ownable.sol\":1259:1271  _msgSender() */\n      tag_94\n        /* \"@openzeppelin/contracts/access/Ownable.sol\":1259:1269  _msgSender */\n      tag_76\n        /* \"@openzeppelin/contracts/access/Ownable.sol\":1259:1271  _msgSender() */\n      jump\t// in\n    tag_94:\n        /* \"@openzeppelin/contracts/access/Ownable.sol\":1248:1271  owner() == _msgSender() */\n      0xffffffffffffffffffffffffffffffffffffffff\n      and\n        /* \"@openzeppelin/contracts/access/Ownable.sol\":1248:1255  owner() */\n      tag_95\n        /* \"@openzeppelin/contracts/access/Ownable.sol\":1248:1253  owner */\n      tag_42\n        /* \"@openzeppelin/contracts/access/Ownable.sol\":1248:1255  owner() */\n      jump\t// in\n    tag_95:\n        /* \"@openzeppelin/contracts/access/Ownable.sol\":1248:1271  owner() == _msgSender() */\n      0xffffffffffffffffffffffffffffffffffffffff\n      and\n      eq\n        /* \"@openzeppelin/contracts/access/Ownable.sol\":1240:1308  require(owner() == _msgSender(), \"Ownable: caller is not the owner\") */\n      tag_96\n      jumpi\n      mload(0x40)\n      0x08c379a000000000000000000000000000000000000000000000000000000000\n      dup2\n      mstore\n      0x04\n      add\n      tag_97\n      swap1\n      tag_80\n      jump\t// in\n    tag_97:\n      mload(0x40)\n      dup1\n      swap2\n      sub\n      swap1\n      revert\n    tag_96:\n        /* \"@openzeppelin/contracts/access/Ownable.sol\":1732:1762  _transferOwnership(address(0)) */\n      tag_99\n        /* \"@openzeppelin/contracts/access/Ownable.sol\":1759:1760  0 */\n      0x00\n        /* \"@openzeppelin/contracts/access/Ownable.sol\":1732:1750  _transferOwnership */\n      tag_100\n        /* \"@openzeppelin/contracts/access/Ownable.sol\":1732:1762  _transferOwnership(address(0)) */\n      jump\t// in\n    tag_99:\n        /* \"@openzeppelin/contracts/access/Ownable.sol\":1668:1769  function renounceOwnership() public virtual onlyOwner {... */\n      jump\t// out\n        /* \"hermesss.sol\":6720:6861  function setUsersCategory(address patient, bytes32 newCategory) external onlyOwner{\r... */\n    tag_40:\n        /* \"@openzeppelin/contracts/access/Ownable.sol\":1259:1271  _msgSender() */\n      tag_102\n        /* \"@openzeppelin/contracts/access/Ownable.sol\":1259:1269  _msgSender */\n      tag_76\n        /* \"@openzeppelin/contracts/access/Ownable.sol\":1259:1271  _msgSender() */\n      jump\t// in\n    tag_102:\n        /* \"@openzeppelin/contracts/access/Ownable.sol\":1248:1271  owner() == _msgSender() */\n      0xffffffffffffffffffffffffffffffffffffffff\n      and\n        /* \"@openzeppelin/contracts/access/Ownable.sol\":1248:1255  owner() */\n      tag_103\n        /* \"@openzeppelin/contracts/access/Ownable.sol\":1248:1253  owner */\n      tag_42\n        /* \"@openzeppelin/contracts/access/Ownable.sol\":1248:1255  owner() */\n      jump\t// in\n    tag_103:\n        /* \"@openzeppelin/contracts/access/Ownable.sol\":1248:1271  owner() == _msgSender() */\n      0xffffffffffffffffffffffffffffffffffffffff\n      and\n      eq\n        /* \"@openzeppelin/contracts/access/Ownable.sol\":1240:1308  require(owner() == _msgSender(), \"Ownable: caller is not the owner\") */\n      tag_104\n      jumpi\n      mload(0x40)\n      0x08c379a000000000000000000000000000000000000000000000000000000000\n      dup2\n      mstore\n      0x04\n      add\n      tag_105\n      swap1\n      tag_80\n      jump\t// in\n    tag_105:\n      mload(0x40)\n      dup1\n      swap2\n      sub\n      swap1\n      revert\n    tag_104:\n        /* \"hermesss.sol\":6842:6853  newCategory */\n      dup1\n        /* \"hermesss.sol\":6813:6830  patientCategories */\n      0x05\n        /* \"hermesss.sol\":6813:6839  patientCategories[patient] */\n      0x00\n        /* \"hermesss.sol\":6831:6838  patient */\n      dup5\n        /* \"hermesss.sol\":6813:6839  patientCategories[patient] */\n      0xffffffffffffffffffffffffffffffffffffffff\n      and\n      0xffffffffffffffffffffffffffffffffffffffff\n      and\n      dup2\n      mstore\n      0x20\n      add\n      swap1\n      dup2\n      mstore\n      0x20\n      add\n      0x00\n      keccak256\n        /* \"hermesss.sol\":6813:6853  patientCategories[patient] = newCategory */\n      dup2\n      swap1\n      sstore\n      pop\n        /* \"hermesss.sol\":6720:6861  function setUsersCategory(address patient, bytes32 newCategory) external onlyOwner{\r... */\n      pop\n      pop\n      jump\t// out\n        /* \"@openzeppelin/contracts/access/Ownable.sol\":1036:1121  function owner() public view virtual returns (address) {... */\n    tag_42:\n        /* \"@openzeppelin/contracts/access/Ownable.sol\":1082:1089  address */\n      0x00\n        /* \"@openzeppelin/contracts/access/Ownable.sol\":1108:1114  _owner */\n      dup1\n      0x00\n      swap1\n      sload\n      swap1\n      0x0100\n      exp\n      swap1\n      div\n      0xffffffffffffffffffffffffffffffffffffffff\n      and\n        /* \"@openzeppelin/contracts/access/Ownable.sol\":1101:1114  return _owner */\n      swap1\n      pop\n        /* \"@openzeppelin/contracts/access/Ownable.sol\":1036:1121  function owner() public view virtual returns (address) {... */\n      swap1\n      jump\t// out\n        /* \"hermesss.sol\":3775:5071  function createInvoice(address patientAddress, uint256 amount, bytes32 patientCategory, bool groupA) public onlyClinic(groupA){\r... */\n    tag_48:\n        /* \"hermesss.sol\":3894:3900  groupA */\n      dup1\n        /* \"hermesss.sol\":2443:2449  groupA */\n      dup1\n        /* \"hermesss.sol\":2440:2712  if(groupA)\r... */\n      iszero\n      tag_109\n      jumpi\n        /* \"hermesss.sol\":2504:2507  0x0 */\n      0x00\n        /* \"hermesss.sol\":2472:2507  groupA_clinicIds[msg.sender] != 0x0 */\n      dup1\n      shl\n        /* \"hermesss.sol\":2472:2488  groupA_clinicIds */\n      0x03\n        /* \"hermesss.sol\":2472:2500  groupA_clinicIds[msg.sender] */\n      0x00\n        /* \"hermesss.sol\":2489:2499  msg.sender */\n      caller\n        /* \"hermesss.sol\":2472:2500  groupA_clinicIds[msg.sender] */\n      0xffffffffffffffffffffffffffffffffffffffff\n      and\n      0xffffffffffffffffffffffffffffffffffffffff\n      and\n      dup2\n      mstore\n      0x20\n      add\n      swap1\n      dup2\n      mstore\n      0x20\n      add\n      0x00\n      keccak256\n      sload\n        /* \"hermesss.sol\":2472:2507  groupA_clinicIds[msg.sender] != 0x0 */\n      eq\n      iszero\n        /* \"hermesss.sol\":2464:2552  require(groupA_clinicIds[msg.sender] != 0x0 ,\"Only clinics can perform this operations\") */\n      tag_110\n      jumpi\n      mload(0x40)\n      0x08c379a000000000000000000000000000000000000000000000000000000000\n      dup2\n      mstore\n      0x04\n      add\n      tag_111\n      swap1\n      tag_112\n      jump\t// in\n    tag_111:\n      mload(0x40)\n      dup1\n      swap2\n      sub\n      swap1\n      revert\n    tag_110:\n        /* \"hermesss.sol\":2440:2712  if(groupA)\r... */\n      jump(tag_113)\n    tag_109:\n        /* \"hermesss.sol\":2664:2667  0x0 */\n      0x00\n        /* \"hermesss.sol\":2632:2667  groupB_clinicIds[msg.sender] != 0x0 */\n      dup1\n      shl\n        /* \"hermesss.sol\":2632:2648  groupB_clinicIds */\n      0x04\n        /* \"hermesss.sol\":2632:2660  groupB_clinicIds[msg.sender] */\n      0x00\n        /* \"hermesss.sol\":2649:2659  msg.sender */\n      caller\n        /* \"hermesss.sol\":2632:2660  groupB_clinicIds[msg.sender] */\n      0xffffffffffffffffffffffffffffffffffffffff\n      and\n      0xffffffffffffffffffffffffffffffffffffffff\n      and\n      dup2\n      mstore\n      0x20\n      add\n      swap1\n      dup2\n      mstore\n      0x20\n      add\n      0x00\n      keccak256\n      sload\n        /* \"hermesss.sol\":2632:2667  groupB_clinicIds[msg.sender] != 0x0 */\n      eq\n      iszero\n        /* \"hermesss.sol\":2624:2712  require(groupB_clinicIds[msg.sender] != 0x0 ,\"Only clinics can perform this operations\") */\n      tag_114\n      jumpi\n      mload(0x40)\n      0x08c379a000000000000000000000000000000000000000000000000000000000\n      dup2\n      mstore\n      0x04\n      add\n      tag_115\n      swap1\n      tag_112\n      jump\t// in\n    tag_115:\n      mload(0x40)\n      dup1\n      swap2\n      sub\n      swap1\n      revert\n    tag_114:\n        /* \"hermesss.sol\":2440:2712  if(groupA)\r... */\n    tag_113:\n        /* \"hermesss.sol\":3952:3953  0 */\n      0x00\n        /* \"hermesss.sol\":3915:3953  patientCategories[patientAddress] == 0 */\n      dup1\n      shl\n        /* \"hermesss.sol\":3915:3932  patientCategories */\n      0x05\n        /* \"hermesss.sol\":3915:3948  patientCategories[patientAddress] */\n      0x00\n        /* \"hermesss.sol\":3933:3947  patientAddress */\n      dup8\n        /* \"hermesss.sol\":3915:3948  patientCategories[patientAddress] */\n      0xffffffffffffffffffffffffffffffffffffffff\n      and\n      0xffffffffffffffffffffffffffffffffffffffff\n      and\n      dup2\n      mstore\n      0x20\n      add\n      swap1\n      dup2\n      mstore\n      0x20\n      add\n      0x00\n      keccak256\n      sload\n        /* \"hermesss.sol\":3915:3953  patientCategories[patientAddress] == 0 */\n      eq\n        /* \"hermesss.sol\":3912:4171  if(patientCategories[patientAddress] == 0){\r... */\n      iszero\n      tag_117\n      jumpi\n        /* \"hermesss.sol\":4005:4020  patientCategory */\n      dup3\n        /* \"hermesss.sol\":3969:3986  patientCategories */\n      0x05\n        /* \"hermesss.sol\":3969:4002  patientCategories[patientAddress] */\n      0x00\n        /* \"hermesss.sol\":3987:4001  patientAddress */\n      dup8\n        /* \"hermesss.sol\":3969:4002  patientCategories[patientAddress] */\n      0xffffffffffffffffffffffffffffffffffffffff\n      and\n      0xffffffffffffffffffffffffffffffffffffffff\n      and\n      dup2\n      mstore\n      0x20\n      add\n      swap1\n      dup2\n      mstore\n      0x20\n      add\n      0x00\n      keccak256\n        /* \"hermesss.sol\":3969:4020  patientCategories[patientAddress] = patientCategory */\n      dup2\n      swap1\n      sstore\n      pop\n        /* \"hermesss.sol\":3912:4171  if(patientCategories[patientAddress] == 0){\r... */\n      jump(tag_118)\n    tag_117:\n        /* \"hermesss.sol\":4097:4112  patientCategory */\n      dup3\n        /* \"hermesss.sol\":4060:4077  patientCategories */\n      0x05\n        /* \"hermesss.sol\":4060:4093  patientCategories[patientAddress] */\n      0x00\n        /* \"hermesss.sol\":4078:4092  patientAddress */\n      dup8\n        /* \"hermesss.sol\":4060:4093  patientCategories[patientAddress] */\n      0xffffffffffffffffffffffffffffffffffffffff\n      and\n      0xffffffffffffffffffffffffffffffffffffffff\n      and\n      dup2\n      mstore\n      0x20\n      add\n      swap1\n      dup2\n      mstore\n      0x20\n      add\n      0x00\n      keccak256\n      sload\n        /* \"hermesss.sol\":4060:4112  patientCategories[patientAddress] == patientCategory */\n      eq\n        /* \"hermesss.sol\":4052:4159  require(patientCategories[patientAddress] == patientCategory, \"Patient can't be charged for this category\") */\n      tag_119\n      jumpi\n      mload(0x40)\n      0x08c379a000000000000000000000000000000000000000000000000000000000\n      dup2\n      mstore\n      0x04\n      add\n      tag_120\n      swap1\n      tag_121\n      jump\t// in\n    tag_120:\n      mload(0x40)\n      dup1\n      swap2\n      sub\n      swap1\n      revert\n    tag_119:\n        /* \"hermesss.sol\":3912:4171  if(patientCategories[patientAddress] == 0){\r... */\n    tag_118:\n        /* \"hermesss.sol\":4181:4191  uint256 co */\n      0x00\n        /* \"hermesss.sol\":4194:4195  2 */\n      0x02\n        /* \"hermesss.sol\":4181:4195  uint256 co = 2 */\n      swap1\n      pop\n        /* \"hermesss.sol\":4209:4215  groupA */\n      dup3\n        /* \"hermesss.sol\":4206:4236  if(groupA)\r... */\n      iszero\n      tag_122\n      jumpi\n        /* \"hermesss.sol\":4235:4236  3 */\n      0x03\n        /* \"hermesss.sol\":4230:4236  co = 3 */\n      swap1\n      pop\n        /* \"hermesss.sol\":4206:4236  if(groupA)\r... */\n    tag_122:\n        /* \"hermesss.sol\":4312:4318  amount */\n      dup5\n        /* \"hermesss.sol\":4306:4308  co */\n      dup2\n        /* \"hermesss.sol\":4279:4286  _prices */\n      0x02\n        /* \"hermesss.sol\":4279:4303  _prices[patientCategory] */\n      0x00\n        /* \"hermesss.sol\":4287:4302  patientCategory */\n      dup8\n        /* \"hermesss.sol\":4279:4303  _prices[patientCategory] */\n      dup2\n      mstore\n      0x20\n      add\n      swap1\n      dup2\n      mstore\n      0x20\n      add\n      0x00\n      keccak256\n      sload\n        /* \"hermesss.sol\":4279:4308  _prices[patientCategory] * co */\n      mul\n        /* \"hermesss.sol\":4279:4318  _prices[patientCategory] * co >= amount */\n      lt\n      iszero\n        /* \"hermesss.sol\":4271:4359  require(_prices[patientCategory] * co >= amount, \"Patient can't be charged this amount\") */\n      tag_123\n      jumpi\n      mload(0x40)\n      0x08c379a000000000000000000000000000000000000000000000000000000000\n      dup2\n      mstore\n      0x04\n      add\n      tag_124\n      swap1\n      tag_125\n      jump\t// in\n    tag_124:\n      mload(0x40)\n      dup1\n      swap2\n      sub\n      swap1\n      revert\n    tag_123:\n        /* \"hermesss.sol\":4383:4408  Invoice memory newInvoice */\n      0x00\n        /* \"hermesss.sol\":4411:4647  Invoice(\r... */\n      mload(0x40)\n      dup1\n      0xa0\n      add\n      0x40\n      mstore\n      dup1\n        /* \"hermesss.sol\":4460:4470  msg.sender */\n      caller\n        /* \"hermesss.sol\":4472:4486  patientAddress */\n      dup10\n        /* \"hermesss.sol\":4488:4494  amount */\n      dup10\n        /* \"hermesss.sol\":4496:4511  block.timestamp */\n      timestamp\n        /* \"hermesss.sol\":4513:4525  block.number */\n      number\n        /* \"hermesss.sol\":4443:4526  abi.encodePacked(msg.sender, patientAddress, amount, block.timestamp, block.number) */\n      add(0x20, mload(0x40))\n      tag_126\n      swap6\n      swap5\n      swap4\n      swap3\n      swap2\n      swap1\n      tag_127\n      jump\t// in\n    tag_126:\n      mload(0x40)\n      0x20\n      dup2\n      dup4\n      sub\n      sub\n      dup2\n      mstore\n      swap1\n      0x40\n      mstore\n        /* \"hermesss.sol\":4433:4527  keccak256(abi.encodePacked(msg.sender, patientAddress, amount, block.timestamp, block.number)) */\n      dup1\n      mload\n      swap1\n      0x20\n      add\n      keccak256\n        /* \"hermesss.sol\":4411:4647  Invoice(\r... */\n      dup2\n      mstore\n      0x20\n      add\n        /* \"hermesss.sol\":4542:4557  patientCategory */\n      dup7\n        /* \"hermesss.sol\":4411:4647  Invoice(\r... */\n      dup2\n      mstore\n      0x20\n      add\n        /* \"hermesss.sol\":4572:4578  amount */\n      dup8\n        /* \"hermesss.sol\":4411:4647  Invoice(\r... */\n      dup2\n      mstore\n      0x20\n      add\n        /* \"hermesss.sol\":4593:4607  patientAddress */\n      dup9\n        /* \"hermesss.sol\":4411:4647  Invoice(\r... */\n      0xffffffffffffffffffffffffffffffffffffffff\n      and\n      dup2\n      mstore\n      0x20\n      add\n        /* \"hermesss.sol\":4622:4636  Status.Pending */\n      0x00\n        /* \"hermesss.sol\":4411:4647  Invoice(\r... */\n      0x02\n      dup2\n      gt\n      iszero\n      tag_128\n      jumpi\n      tag_129\n      tag_71\n      jump\t// in\n    tag_129:\n    tag_128:\n      dup2\n      mstore\n      pop\n        /* \"hermesss.sol\":4383:4647  Invoice memory newInvoice = Invoice(\r... */\n      swap1\n      pop\n        /* \"hermesss.sol\":4663:4669  groupA */\n      dup4\n        /* \"hermesss.sol\":4660:5052  if(groupA){\r... */\n      iszero\n      tag_130\n      jumpi\n        /* \"hermesss.sol\":4749:4759  newInvoice */\n      dup1\n        /* \"hermesss.sol\":4685:4700  pendingRequests */\n      0x08\n        /* \"hermesss.sol\":4685:4716  pendingRequests[patientAddress] */\n      0x00\n        /* \"hermesss.sol\":4701:4715  patientAddress */\n      dup10\n        /* \"hermesss.sol\":4685:4716  pendingRequests[patientAddress] */\n      0xffffffffffffffffffffffffffffffffffffffff\n      and\n      0xffffffffffffffffffffffffffffffffffffffff\n      and\n      dup2\n      mstore\n      0x20\n      add\n      swap1\n      dup2\n      mstore\n      0x20\n      add\n      0x00\n      keccak256\n        /* \"hermesss.sol\":4685:4746  pendingRequests[patientAddress][groupA_clinicIds[msg.sender]] */\n      0x00\n        /* \"hermesss.sol\":4717:4733  groupA_clinicIds */\n      0x03\n        /* \"hermesss.sol\":4717:4745  groupA_clinicIds[msg.sender] */\n      0x00\n        /* \"hermesss.sol\":4734:4744  msg.sender */\n      caller\n        /* \"hermesss.sol\":4717:4745  groupA_clinicIds[msg.sender] */\n      0xffffffffffffffffffffffffffffffffffffffff\n      and\n      0xffffffffffffffffffffffffffffffffffffffff\n      and\n      dup2\n      mstore\n      0x20\n      add\n      swap1\n      dup2\n      mstore\n      0x20\n      add\n      0x00\n      keccak256\n      sload\n        /* \"hermesss.sol\":4685:4746  pendingRequests[patientAddress][groupA_clinicIds[msg.sender]] */\n      dup2\n      mstore\n      0x20\n      add\n      swap1\n      dup2\n      mstore\n      0x20\n      add\n      0x00\n      keccak256\n        /* \"hermesss.sol\":4685:4759  pendingRequests[patientAddress][groupA_clinicIds[msg.sender]] = newInvoice */\n      0x00\n      dup3\n      add\n      mload\n      dup2\n      0x00\n      add\n      sstore\n      0x20\n      dup3\n      add\n      mload\n      dup2\n      0x01\n      add\n      sstore\n      0x40\n      dup3\n      add\n      mload\n      dup2\n      0x02\n      add\n      sstore\n      0x60\n      dup3\n      add\n      mload\n      dup2\n      0x03\n      add\n      exp(0x0100, 0x00)\n      dup2\n      sload\n      dup2\n      0xffffffffffffffffffffffffffffffffffffffff\n      mul\n      not\n      and\n      swap1\n      dup4\n      0xffffffffffffffffffffffffffffffffffffffff\n      and\n      mul\n      or\n      swap1\n      sstore\n      pop\n      0x80\n      dup3\n      add\n      mload\n      dup2\n      0x03\n      add\n      exp(0x0100, 0x14)\n      dup2\n      sload\n      dup2\n      0xff\n      mul\n      not\n      and\n      swap1\n      dup4\n      0x02\n      dup2\n      gt\n      iszero\n      tag_131\n      jumpi\n      tag_132\n      tag_71\n      jump\t// in\n    tag_132:\n    tag_131:\n      mul\n      or\n      swap1\n      sstore\n      pop\n      swap1\n      pop\n      pop\n        /* \"hermesss.sol\":4810:4826  groupA_clinicIds */\n      0x03\n        /* \"hermesss.sol\":4810:4838  groupA_clinicIds[msg.sender] */\n      0x00\n        /* \"hermesss.sol\":4827:4837  msg.sender */\n      caller\n        /* \"hermesss.sol\":4810:4838  groupA_clinicIds[msg.sender] */\n      0xffffffffffffffffffffffffffffffffffffffff\n      and\n      0xffffffffffffffffffffffffffffffffffffffff\n      and\n      dup2\n      mstore\n      0x20\n      add\n      swap1\n      dup2\n      mstore\n      0x20\n      add\n      0x00\n      keccak256\n      sload\n        /* \"hermesss.sol\":4794:4808  patientAddress */\n      dup8\n        /* \"hermesss.sol\":4779:4847  InvocieCreated(patientAddress, groupA_clinicIds[msg.sender], amount) */\n      0xffffffffffffffffffffffffffffffffffffffff\n      and\n      0xad438d062604ef9539e2a0b5152e5071f8d5e9641c488d60234d23fdca24444c\n        /* \"hermesss.sol\":4840:4846  amount */\n      dup9\n        /* \"hermesss.sol\":4779:4847  InvocieCreated(patientAddress, groupA_clinicIds[msg.sender], amount) */\n      mload(0x40)\n      tag_133\n      swap2\n      swap1\n      tag_134\n      jump\t// in\n    tag_133:\n      mload(0x40)\n      dup1\n      swap2\n      sub\n      swap1\n      log3\n        /* \"hermesss.sol\":4660:5052  if(groupA){\r... */\n      jump(tag_135)\n    tag_130:\n        /* \"hermesss.sol\":4942:4952  newInvoice */\n      dup1\n        /* \"hermesss.sol\":4878:4893  pendingRequests */\n      0x08\n        /* \"hermesss.sol\":4878:4909  pendingRequests[patientAddress] */\n      0x00\n        /* \"hermesss.sol\":4894:4908  patientAddress */\n      dup10\n        /* \"hermesss.sol\":4878:4909  pendingRequests[patientAddress] */\n      0xffffffffffffffffffffffffffffffffffffffff\n      and\n      0xffffffffffffffffffffffffffffffffffffffff\n      and\n      dup2\n      mstore\n      0x20\n      add\n      swap1\n      dup2\n      mstore\n      0x20\n      add\n      0x00\n      keccak256\n        /* \"hermesss.sol\":4878:4939  pendingRequests[patientAddress][groupB_clinicIds[msg.sender]] */\n      0x00\n        /* \"hermesss.sol\":4910:4926  groupB_clinicIds */\n      0x04\n        /* \"hermesss.sol\":4910:4938  groupB_clinicIds[msg.sender] */\n      0x00\n        /* \"hermesss.sol\":4927:4937  msg.sender */\n      caller\n        /* \"hermesss.sol\":4910:4938  groupB_clinicIds[msg.sender] */\n      0xffffffffffffffffffffffffffffffffffffffff\n      and\n      0xffffffffffffffffffffffffffffffffffffffff\n      and\n      dup2\n      mstore\n      0x20\n      add\n      swap1\n      dup2\n      mstore\n      0x20\n      add\n      0x00\n      keccak256\n      sload\n        /* \"hermesss.sol\":4878:4939  pendingRequests[patientAddress][groupB_clinicIds[msg.sender]] */\n      dup2\n      mstore\n      0x20\n      add\n      swap1\n      dup2\n      mstore\n      0x20\n      add\n      0x00\n      keccak256\n        /* \"hermesss.sol\":4878:4952  pendingRequests[patientAddress][groupB_clinicIds[msg.sender]] = newInvoice */\n      0x00\n      dup3\n      add\n      mload\n      dup2\n      0x00\n      add\n      sstore\n      0x20\n      dup3\n      add\n      mload\n      dup2\n      0x01\n      add\n      sstore\n      0x40\n      dup3\n      add\n      mload\n      dup2\n      0x02\n      add\n      sstore\n      0x60\n      dup3\n      add\n      mload\n      dup2\n      0x03\n      add\n      exp(0x0100, 0x00)\n      dup2\n      sload\n      dup2\n      0xffffffffffffffffffffffffffffffffffffffff\n      mul\n      not\n      and\n      swap1\n      dup4\n      0xffffffffffffffffffffffffffffffffffffffff\n      and\n      mul\n      or\n      swap1\n      sstore\n      pop\n      0x80\n      dup3\n      add\n      mload\n      dup2\n      0x03\n      add\n      exp(0x0100, 0x14)\n      dup2\n      sload\n      dup2\n      0xff\n      mul\n      not\n      and\n      swap1\n      dup4\n      0x02\n      dup2\n      gt\n      iszero\n      tag_136\n      jumpi\n      tag_137\n      tag_71\n      jump\t// in\n    tag_137:\n    tag_136:\n      mul\n      or\n      swap1\n      sstore\n      pop\n      swap1\n      pop\n      pop\n        /* \"hermesss.sol\":5003:5019  groupB_clinicIds */\n      0x04\n        /* \"hermesss.sol\":5003:5031  groupB_clinicIds[msg.sender] */\n      0x00\n        /* \"hermesss.sol\":5020:5030  msg.sender */\n      caller\n        /* \"hermesss.sol\":5003:5031  groupB_clinicIds[msg.sender] */\n      0xffffffffffffffffffffffffffffffffffffffff\n      and\n      0xffffffffffffffffffffffffffffffffffffffff\n      and\n      dup2\n      mstore\n      0x20\n      add\n      swap1\n      dup2\n      mstore\n      0x20\n      add\n      0x00\n      keccak256\n      sload\n        /* \"hermesss.sol\":4987:5001  patientAddress */\n      dup8\n        /* \"hermesss.sol\":4972:5040  InvocieCreated(patientAddress, groupB_clinicIds[msg.sender], amount) */\n      0xffffffffffffffffffffffffffffffffffffffff\n      and\n      0xad438d062604ef9539e2a0b5152e5071f8d5e9641c488d60234d23fdca24444c\n        /* \"hermesss.sol\":5033:5039  amount */\n      dup9\n        /* \"hermesss.sol\":4972:5040  InvocieCreated(patientAddress, groupB_clinicIds[msg.sender], amount) */\n      mload(0x40)\n      tag_138\n      swap2\n      swap1\n      tag_134\n      jump\t// in\n    tag_138:\n      mload(0x40)\n      dup1\n      swap2\n      sub\n      swap1\n      log3\n        /* \"hermesss.sol\":4660:5052  if(groupA){\r... */\n    tag_135:\n        /* \"hermesss.sol\":3901:5071  {\r... */\n      pop\n      pop\n        /* \"hermesss.sol\":3775:5071  function createInvoice(address patientAddress, uint256 amount, bytes32 patientCategory, bool groupA) public onlyClinic(groupA){\r... */\n      pop\n      pop\n      pop\n      pop\n      pop\n      jump\t// out\n        /* \"hermesss.sol\":6902:7023  function getInvoiceById(bytes32 id) external view returns(Invoice memory){\r... */\n    tag_52:\n        /* \"hermesss.sol\":6960:6974  Invoice memory */\n      tag_139\n      tag_63\n      jump\t// in\n    tag_139:\n        /* \"hermesss.sol\":6993:7011  invoiceRecordsById */\n      0x07\n        /* \"hermesss.sol\":6993:7015  invoiceRecordsById[id] */\n      0x00\n        /* \"hermesss.sol\":7012:7014  id */\n      dup4\n        /* \"hermesss.sol\":6993:7015  invoiceRecordsById[id] */\n      dup2\n      mstore\n      0x20\n      add\n      swap1\n      dup2\n      mstore\n      0x20\n      add\n      0x00\n      keccak256\n        /* \"hermesss.sol\":6986:7015  return invoiceRecordsById[id] */\n      mload(0x40)\n      dup1\n      0xa0\n      add\n      0x40\n      mstore\n      swap1\n      dup2\n      0x00\n      dup3\n      add\n      sload\n      dup2\n      mstore\n      0x20\n      add\n      0x01\n      dup3\n      add\n      sload\n      dup2\n      mstore\n      0x20\n      add\n      0x02\n      dup3\n      add\n      sload\n      dup2\n      mstore\n      0x20\n      add\n      0x03\n      dup3\n      add\n      0x00\n      swap1\n      sload\n      swap1\n      0x0100\n      exp\n      swap1\n      div\n      0xffffffffffffffffffffffffffffffffffffffff\n      and\n      0xffffffffffffffffffffffffffffffffffffffff\n      and\n      0xffffffffffffffffffffffffffffffffffffffff\n      and\n      dup2\n      mstore\n      0x20\n      add\n      0x03\n      dup3\n      add\n      0x14\n      swap1\n      sload\n      swap1\n      0x0100\n      exp\n      swap1\n      div\n      0xff\n      and\n      0x02\n      dup2\n      gt\n      iszero\n      tag_141\n      jumpi\n      tag_142\n      tag_71\n      jump\t// in\n    tag_142:\n    tag_141:\n      0x02\n      dup2\n      gt\n      iszero\n      tag_143\n      jumpi\n      tag_144\n      tag_71\n      jump\t// in\n    tag_144:\n    tag_143:\n      dup2\n      mstore\n      pop\n      pop\n      swap1\n      pop\n        /* \"hermesss.sol\":6902:7023  function getInvoiceById(bytes32 id) external view returns(Invoice memory){\r... */\n      swap2\n      swap1\n      pop\n      jump\t// out\n        /* \"hermesss.sol\":5334:5935  function approveInvoice(bytes32 _clinicHash, bool approveReject) public onlyPatient{\r... */\n    tag_57:\n        /* \"hermesss.sol\":2854:2857  0x0 */\n      0x00\n        /* \"hermesss.sol\":2821:2857  patientCategories[msg.sender] != 0x0 */\n      dup1\n      shl\n        /* \"hermesss.sol\":2821:2838  patientCategories */\n      0x05\n        /* \"hermesss.sol\":2821:2850  patientCategories[msg.sender] */\n      0x00\n        /* \"hermesss.sol\":2839:2849  msg.sender */\n      caller\n        /* \"hermesss.sol\":2821:2850  patientCategories[msg.sender] */\n      0xffffffffffffffffffffffffffffffffffffffff\n      and\n      0xffffffffffffffffffffffffffffffffffffffff\n      and\n      dup2\n      mstore\n      0x20\n      add\n      swap1\n      dup2\n      mstore\n      0x20\n      add\n      0x00\n      keccak256\n      sload\n        /* \"hermesss.sol\":2821:2857  patientCategories[msg.sender] != 0x0 */\n      eq\n      iszero\n        /* \"hermesss.sol\":2813:2910  require(patientCategories[msg.sender] != 0x0, \"There is no patient registered with this address\") */\n      tag_146\n      jumpi\n      mload(0x40)\n      0x08c379a000000000000000000000000000000000000000000000000000000000\n      dup2\n      mstore\n      0x04\n      add\n      tag_147\n      swap1\n      tag_148\n      jump\t// in\n    tag_147:\n      mload(0x40)\n      dup1\n      swap2\n      sub\n      swap1\n      revert\n    tag_146:\n        /* \"hermesss.sol\":5490:5493  0x0 */\n      0x00\n        /* \"hermesss.sol\":5436:5493  pendingRequests[msg.sender][_clinicHash].invoiceId != 0x0 */\n      dup1\n      shl\n        /* \"hermesss.sol\":5436:5451  pendingRequests */\n      0x08\n        /* \"hermesss.sol\":5436:5463  pendingRequests[msg.sender] */\n      0x00\n        /* \"hermesss.sol\":5452:5462  msg.sender */\n      caller\n        /* \"hermesss.sol\":5436:5463  pendingRequests[msg.sender] */\n      0xffffffffffffffffffffffffffffffffffffffff\n      and\n      0xffffffffffffffffffffffffffffffffffffffff\n      and\n      dup2\n      mstore\n      0x20\n      add\n      swap1\n      dup2\n      mstore\n      0x20\n      add\n      0x00\n      keccak256\n        /* \"hermesss.sol\":5436:5476  pendingRequests[msg.sender][_clinicHash] */\n      0x00\n        /* \"hermesss.sol\":5464:5475  _clinicHash */\n      dup5\n        /* \"hermesss.sol\":5436:5476  pendingRequests[msg.sender][_clinicHash] */\n      dup2\n      mstore\n      0x20\n      add\n      swap1\n      dup2\n      mstore\n      0x20\n      add\n      0x00\n      keccak256\n        /* \"hermesss.sol\":5436:5486  pendingRequests[msg.sender][_clinicHash].invoiceId */\n      0x00\n      add\n      sload\n        /* \"hermesss.sol\":5436:5493  pendingRequests[msg.sender][_clinicHash].invoiceId != 0x0 */\n      eq\n      iszero\n        /* \"hermesss.sol\":5428:5518  require(pendingRequests[msg.sender][_clinicHash].invoiceId != 0x0, \"Invoice can't found\" ) */\n      tag_150\n      jumpi\n      mload(0x40)\n      0x08c379a000000000000000000000000000000000000000000000000000000000\n      dup2\n      mstore\n      0x04\n      add\n      tag_151\n      swap1\n      tag_152\n      jump\t// in\n    tag_151:\n      mload(0x40)\n      dup1\n      swap2\n      sub\n      swap1\n      revert\n    tag_150:\n        /* \"hermesss.sol\":5606:5620  Status.Pending */\n      0x00\n        /* \"hermesss.sol\":5555:5620  pendingRequests[msg.sender][_clinicHash].status == Status.Pending */\n      0x02\n      dup2\n      gt\n      iszero\n      tag_153\n      jumpi\n      tag_154\n      tag_71\n      jump\t// in\n    tag_154:\n    tag_153:\n        /* \"hermesss.sol\":5555:5570  pendingRequests */\n      0x08\n        /* \"hermesss.sol\":5555:5582  pendingRequests[msg.sender] */\n      0x00\n        /* \"hermesss.sol\":5571:5581  msg.sender */\n      caller\n        /* \"hermesss.sol\":5555:5582  pendingRequests[msg.sender] */\n      0xffffffffffffffffffffffffffffffffffffffff\n      and\n      0xffffffffffffffffffffffffffffffffffffffff\n      and\n      dup2\n      mstore\n      0x20\n      add\n      swap1\n      dup2\n      mstore\n      0x20\n      add\n      0x00\n      keccak256\n        /* \"hermesss.sol\":5555:5595  pendingRequests[msg.sender][_clinicHash] */\n      0x00\n        /* \"hermesss.sol\":5583:5594  _clinicHash */\n      dup5\n        /* \"hermesss.sol\":5555:5595  pendingRequests[msg.sender][_clinicHash] */\n      dup2\n      mstore\n      0x20\n      add\n      swap1\n      dup2\n      mstore\n      0x20\n      add\n      0x00\n      keccak256\n        /* \"hermesss.sol\":5555:5602  pendingRequests[msg.sender][_clinicHash].status */\n      0x03\n      add\n      0x14\n      swap1\n      sload\n      swap1\n      0x0100\n      exp\n      swap1\n      div\n      0xff\n      and\n        /* \"hermesss.sol\":5555:5620  pendingRequests[msg.sender][_clinicHash].status == Status.Pending */\n      0x02\n      dup2\n      gt\n      iszero\n      tag_155\n      jumpi\n      tag_156\n      tag_71\n      jump\t// in\n    tag_156:\n    tag_155:\n      eq\n        /* \"hermesss.sol\":5547:5650  require(pendingRequests[msg.sender][_clinicHash].status == Status.Pending, \"Invoice can't be accepted\") */\n      tag_157\n      jumpi\n      mload(0x40)\n      0x08c379a000000000000000000000000000000000000000000000000000000000\n      dup2\n      mstore\n      0x04\n      add\n      tag_158\n      swap1\n      tag_159\n      jump\t// in\n    tag_158:\n      mload(0x40)\n      dup1\n      swap2\n      sub\n      swap1\n      revert\n    tag_157:\n        /* \"hermesss.sol\":5688:5701  approveReject */\n      dup1\n        /* \"hermesss.sol\":5685:5890  if(approveReject){\r... */\n      iszero\n      tag_160\n      jumpi\n        /* \"hermesss.sol\":5767:5782  Status.Accepted */\n      0x01\n        /* \"hermesss.sol\":5717:5732  pendingRequests */\n      0x08\n        /* \"hermesss.sol\":5717:5744  pendingRequests[msg.sender] */\n      0x00\n        /* \"hermesss.sol\":5733:5743  msg.sender */\n      caller\n        /* \"hermesss.sol\":5717:5744  pendingRequests[msg.sender] */\n      0xffffffffffffffffffffffffffffffffffffffff\n      and\n      0xffffffffffffffffffffffffffffffffffffffff\n      and\n      dup2\n      mstore\n      0x20\n      add\n      swap1\n      dup2\n      mstore\n      0x20\n      add\n      0x00\n      keccak256\n        /* \"hermesss.sol\":5717:5757  pendingRequests[msg.sender][_clinicHash] */\n      0x00\n        /* \"hermesss.sol\":5745:5756  _clinicHash */\n      dup5\n        /* \"hermesss.sol\":5717:5757  pendingRequests[msg.sender][_clinicHash] */\n      dup2\n      mstore\n      0x20\n      add\n      swap1\n      dup2\n      mstore\n      0x20\n      add\n      0x00\n      keccak256\n        /* \"hermesss.sol\":5717:5764  pendingRequests[msg.sender][_clinicHash].status */\n      0x03\n      add\n      0x14\n        /* \"hermesss.sol\":5717:5782  pendingRequests[msg.sender][_clinicHash].status = Status.Accepted */\n      0x0100\n      exp\n      dup2\n      sload\n      dup2\n      0xff\n      mul\n      not\n      and\n      swap1\n      dup4\n      0x02\n      dup2\n      gt\n      iszero\n      tag_161\n      jumpi\n      tag_162\n      tag_71\n      jump\t// in\n    tag_162:\n    tag_161:\n      mul\n      or\n      swap1\n      sstore\n      pop\n        /* \"hermesss.sol\":5685:5890  if(approveReject){\r... */\n      jump(tag_163)\n    tag_160:\n        /* \"hermesss.sol\":5863:5878  Status.Rejected */\n      0x02\n        /* \"hermesss.sol\":5813:5828  pendingRequests */\n      0x08\n        /* \"hermesss.sol\":5813:5840  pendingRequests[msg.sender] */\n      0x00\n        /* \"hermesss.sol\":5829:5839  msg.sender */\n      caller\n        /* \"hermesss.sol\":5813:5840  pendingRequests[msg.sender] */\n      0xffffffffffffffffffffffffffffffffffffffff\n      and\n      0xffffffffffffffffffffffffffffffffffffffff\n      and\n      dup2\n      mstore\n      0x20\n      add\n      swap1\n      dup2\n      mstore\n      0x20\n      add\n      0x00\n      keccak256\n        /* \"hermesss.sol\":5813:5853  pendingRequests[msg.sender][_clinicHash] */\n      0x00\n        /* \"hermesss.sol\":5841:5852  _clinicHash */\n      dup5\n        /* \"hermesss.sol\":5813:5853  pendingRequests[msg.sender][_clinicHash] */\n      dup2\n      mstore\n      0x20\n      add\n      swap1\n      dup2\n      mstore\n      0x20\n      add\n      0x00\n      keccak256\n        /* \"hermesss.sol\":5813:5860  pendingRequests[msg.sender][_clinicHash].status */\n      0x03\n      add\n      0x14\n        /* \"hermesss.sol\":5813:5878  pendingRequests[msg.sender][_clinicHash].status = Status.Rejected */\n      0x0100\n      exp\n      dup2\n      sload\n      dup2\n      0xff\n      mul\n      not\n      and\n      swap1\n      dup4\n      0x02\n      dup2\n      gt\n      iszero\n      tag_164\n      jumpi\n      tag_165\n      tag_71\n      jump\t// in\n    tag_165:\n    tag_164:\n      mul\n      or\n      swap1\n      sstore\n      pop\n        /* \"hermesss.sol\":5685:5890  if(approveReject){\r... */\n    tag_163:\n        /* \"hermesss.sol\":5900:5927  archiveInvoice(_clinicHash) */\n      tag_166\n        /* \"hermesss.sol\":5915:5926  _clinicHash */\n      dup3\n        /* \"hermesss.sol\":5900:5914  archiveInvoice */\n      tag_167\n        /* \"hermesss.sol\":5900:5927  archiveInvoice(_clinicHash) */\n      jump\t// in\n    tag_166:\n        /* \"hermesss.sol\":5334:5935  function approveInvoice(bytes32 _clinicHash, bool approveReject) public onlyPatient{\r... */\n      pop\n      pop\n      jump\t// out\n        /* \"@openzeppelin/contracts/access/Ownable.sol\":1918:2116  function transferOwnership(address newOwner) public virtual onlyOwner {... */\n    tag_61:\n        /* \"@openzeppelin/contracts/access/Ownable.sol\":1259:1271  _msgSender() */\n      tag_169\n        /* \"@openzeppelin/contracts/access/Ownable.sol\":1259:1269  _msgSender */\n      tag_76\n        /* \"@openzeppelin/contracts/access/Ownable.sol\":1259:1271  _msgSender() */\n      jump\t// in\n    tag_169:\n        /* \"@openzeppelin/contracts/access/Ownable.sol\":1248:1271  owner() == _msgSender() */\n      0xffffffffffffffffffffffffffffffffffffffff\n      and\n        /* \"@openzeppelin/contracts/access/Ownable.sol\":1248:1255  owner() */\n      tag_170\n        /* \"@openzeppelin/contracts/access/Ownable.sol\":1248:1253  owner */\n      tag_42\n        /* \"@openzeppelin/contracts/access/Ownable.sol\":1248:1255  owner() */\n      jump\t// in\n    tag_170:\n        /* \"@openzeppelin/contracts/access/Ownable.sol\":1248:1271  owner() == _msgSender() */\n      0xffffffffffffffffffffffffffffffffffffffff\n      and\n      eq\n        /* \"@openzeppelin/contracts/access/Ownable.sol\":1240:1308  require(owner() == _msgSender(), \"Ownable: caller is not the owner\") */\n      tag_171\n      jumpi\n      mload(0x40)\n      0x08c379a000000000000000000000000000000000000000000000000000000000\n      dup2\n      mstore\n      0x04\n      add\n      tag_172\n      swap1\n      tag_80\n      jump\t// in\n    tag_172:\n      mload(0x40)\n      dup1\n      swap2\n      sub\n      swap1\n      revert\n    tag_171:\n        /* \"@openzeppelin/contracts/access/Ownable.sol\":2026:2027  0 */\n      0x00\n        /* \"@openzeppelin/contracts/access/Ownable.sol\":2006:2028  newOwner != address(0) */\n      0xffffffffffffffffffffffffffffffffffffffff\n      and\n        /* \"@openzeppelin/contracts/access/Ownable.sol\":2006:2014  newOwner */\n      dup2\n        /* \"@openzeppelin/contracts/access/Ownable.sol\":2006:2028  newOwner != address(0) */\n      0xffffffffffffffffffffffffffffffffffffffff\n      and\n      eq\n      iszero\n        /* \"@openzeppelin/contracts/access/Ownable.sol\":1998:2071  require(newOwner != address(0), \"Ownable: new owner is the zero address\") */\n      tag_174\n      jumpi\n      mload(0x40)\n      0x08c379a000000000000000000000000000000000000000000000000000000000\n      dup2\n      mstore\n      0x04\n      add\n      tag_175\n      swap1\n      tag_176\n      jump\t// in\n    tag_175:\n      mload(0x40)\n      dup1\n      swap2\n      sub\n      swap1\n      revert\n    tag_174:\n        /* \"@openzeppelin/contracts/access/Ownable.sol\":2081:2109  _transferOwnership(newOwner) */\n      tag_177\n        /* \"@openzeppelin/contracts/access/Ownable.sol\":2100:2108  newOwner */\n      dup2\n        /* \"@openzeppelin/contracts/access/Ownable.sol\":2081:2099  _transferOwnership */\n      tag_100\n        /* \"@openzeppelin/contracts/access/Ownable.sol\":2081:2109  _transferOwnership(newOwner) */\n      jump\t// in\n    tag_177:\n        /* \"@openzeppelin/contracts/access/Ownable.sol\":1918:2116  function transferOwnership(address newOwner) public virtual onlyOwner {... */\n      pop\n      jump\t// out\n        /* \"@openzeppelin/contracts/utils/Context.sol\":640:736  function _msgSender() internal view virtual returns (address) {... */\n    tag_76:\n        /* \"@openzeppelin/contracts/utils/Context.sol\":693:700  address */\n      0x00\n        /* \"@openzeppelin/contracts/utils/Context.sol\":719:729  msg.sender */\n      caller\n        /* \"@openzeppelin/contracts/utils/Context.sol\":712:729  return msg.sender */\n      swap1\n      pop\n        /* \"@openzeppelin/contracts/utils/Context.sol\":640:736  function _msgSender() internal view virtual returns (address) {... */\n      swap1\n      jump\t// out\n        /* \"@openzeppelin/contracts/access/Ownable.sol\":2270:2457  function _transferOwnership(address newOwner) internal virtual {... */\n    tag_100:\n        /* \"@openzeppelin/contracts/access/Ownable.sol\":2343:2359  address oldOwner */\n      0x00\n        /* \"@openzeppelin/contracts/access/Ownable.sol\":2362:2368  _owner */\n      dup1\n      0x00\n      swap1\n      sload\n      swap1\n      0x0100\n      exp\n      swap1\n      div\n      0xffffffffffffffffffffffffffffffffffffffff\n      and\n        /* \"@openzeppelin/contracts/access/Ownable.sol\":2343:2368  address oldOwner = _owner */\n      swap1\n      pop\n        /* \"@openzeppelin/contracts/access/Ownable.sol\":2387:2395  newOwner */\n      dup2\n        /* \"@openzeppelin/contracts/access/Ownable.sol\":2378:2384  _owner */\n      0x00\n      dup1\n        /* \"@openzeppelin/contracts/access/Ownable.sol\":2378:2395  _owner = newOwner */\n      0x0100\n      exp\n      dup2\n      sload\n      dup2\n      0xffffffffffffffffffffffffffffffffffffffff\n      mul\n      not\n      and\n      swap1\n      dup4\n      0xffffffffffffffffffffffffffffffffffffffff\n      and\n      mul\n      or\n      swap1\n      sstore\n      pop\n        /* \"@openzeppelin/contracts/access/Ownable.sol\":2441:2449  newOwner */\n      dup2\n        /* \"@openzeppelin/contracts/access/Ownable.sol\":2410:2450  OwnershipTransferred(oldOwner, newOwner) */\n      0xffffffffffffffffffffffffffffffffffffffff\n      and\n        /* \"@openzeppelin/contracts/access/Ownable.sol\":2431:2439  oldOwner */\n      dup2\n        /* \"@openzeppelin/contracts/access/Ownable.sol\":2410:2450  OwnershipTransferred(oldOwner, newOwner) */\n      0xffffffffffffffffffffffffffffffffffffffff\n      and\n      0x8be0079c531659141344cd1fd0a4f28419497f9722a3daafe3b4186f6b6457e0\n      mload(0x40)\n      mload(0x40)\n      dup1\n      swap2\n      sub\n      swap1\n      log3\n        /* \"@openzeppelin/contracts/access/Ownable.sol\":2333:2457  {... */\n      pop\n        /* \"@openzeppelin/contracts/access/Ownable.sol\":2270:2457  function _transferOwnership(address newOwner) internal virtual {... */\n      pop\n      jump\t// out\n        /* \"hermesss.sol\":5943:6492  function archiveInvoice(bytes32 _clinicHash) internal {\r... */\n    tag_167:\n        /* \"hermesss.sol\":6018:6037  patientPastInvoices */\n      0x06\n        /* \"hermesss.sol\":6018:6049  patientPastInvoices[msg.sender] */\n      0x00\n        /* \"hermesss.sol\":6038:6048  msg.sender */\n      caller\n        /* \"hermesss.sol\":6018:6049  patientPastInvoices[msg.sender] */\n      0xffffffffffffffffffffffffffffffffffffffff\n      and\n      0xffffffffffffffffffffffffffffffffffffffff\n      and\n      dup2\n      mstore\n      0x20\n      add\n      swap1\n      dup2\n      mstore\n      0x20\n      add\n      0x00\n      keccak256\n        /* \"hermesss.sol\":6055:6070  pendingRequests */\n      0x08\n        /* \"hermesss.sol\":6055:6082  pendingRequests[msg.sender] */\n      0x00\n        /* \"hermesss.sol\":6071:6081  msg.sender */\n      caller\n        /* \"hermesss.sol\":6055:6082  pendingRequests[msg.sender] */\n      0xffffffffffffffffffffffffffffffffffffffff\n      and\n      0xffffffffffffffffffffffffffffffffffffffff\n      and\n      dup2\n      mstore\n      0x20\n      add\n      swap1\n      dup2\n      mstore\n      0x20\n      add\n      0x00\n      keccak256\n        /* \"hermesss.sol\":6055:6095  pendingRequests[msg.sender][_clinicHash] */\n      0x00\n        /* \"hermesss.sol\":6083:6094  _clinicHash */\n      dup4\n        /* \"hermesss.sol\":6055:6095  pendingRequests[msg.sender][_clinicHash] */\n      dup2\n      mstore\n      0x20\n      add\n      swap1\n      dup2\n      mstore\n      0x20\n      add\n      0x00\n      keccak256\n        /* \"hermesss.sol\":6018:6096  patientPastInvoices[msg.sender].push(pendingRequests[msg.sender][_clinicHash]) */\n      swap1\n      dup1\n      0x01\n      dup2\n      sload\n      add\n      dup1\n      dup3\n      sstore\n      dup1\n      swap2\n      pop\n      pop\n      0x01\n      swap1\n      sub\n      swap1\n      0x00\n      mstore\n      keccak256(0x00, 0x20)\n      swap1\n      0x04\n      mul\n      add\n      0x00\n      swap1\n      swap2\n      swap1\n      swap2\n      swap1\n      swap2\n      pop\n      0x00\n      dup3\n      add\n      sload\n      dup2\n      0x00\n      add\n      sstore\n      0x01\n      dup3\n      add\n      sload\n      dup2\n      0x01\n      add\n      sstore\n      0x02\n      dup3\n      add\n      sload\n      dup2\n      0x02\n      add\n      sstore\n      0x03\n      dup3\n      add\n      0x00\n      swap1\n      sload\n      swap1\n      0x0100\n      exp\n      swap1\n      div\n      0xffffffffffffffffffffffffffffffffffffffff\n      and\n      dup2\n      0x03\n      add\n      exp(0x0100, 0x00)\n      dup2\n      sload\n      dup2\n      0xffffffffffffffffffffffffffffffffffffffff\n      mul\n      not\n      and\n      swap1\n      dup4\n      0xffffffffffffffffffffffffffffffffffffffff\n      and\n      mul\n      or\n      swap1\n      sstore\n      pop\n      0x03\n      dup3\n      add\n      0x14\n      swap1\n      sload\n      swap1\n      0x0100\n      exp\n      swap1\n      div\n      0xff\n      and\n      dup2\n      0x03\n      add\n      exp(0x0100, 0x14)\n      dup2\n      sload\n      dup2\n      0xff\n      mul\n      not\n      and\n      swap1\n      dup4\n      0x02\n      dup2\n      gt\n      iszero\n      tag_182\n      jumpi\n      tag_183\n      tag_71\n      jump\t// in\n    tag_183:\n    tag_182:\n      mul\n      or\n      swap1\n      sstore\n      pop\n      pop\n      pop\n        /* \"hermesss.sol\":6224:6239  pendingRequests */\n      0x08\n        /* \"hermesss.sol\":6224:6251  pendingRequests[msg.sender] */\n      0x00\n        /* \"hermesss.sol\":6240:6250  msg.sender */\n      caller\n        /* \"hermesss.sol\":6224:6251  pendingRequests[msg.sender] */\n      0xffffffffffffffffffffffffffffffffffffffff\n      and\n      0xffffffffffffffffffffffffffffffffffffffff\n      and\n      dup2\n      mstore\n      0x20\n      add\n      swap1\n      dup2\n      mstore\n      0x20\n      add\n      0x00\n      keccak256\n        /* \"hermesss.sol\":6224:6264  pendingRequests[msg.sender][_clinicHash] */\n      0x00\n        /* \"hermesss.sol\":6252:6263  _clinicHash */\n      dup3\n        /* \"hermesss.sol\":6224:6264  pendingRequests[msg.sender][_clinicHash] */\n      dup2\n      mstore\n      0x20\n      add\n      swap1\n      dup2\n      mstore\n      0x20\n      add\n      0x00\n      keccak256\n        /* \"hermesss.sol\":6151:6169  invoiceRecordsById */\n      0x07\n        /* \"hermesss.sol\":6151:6221  invoiceRecordsById[pendingRequests[msg.sender][_clinicHash].invoiceId] */\n      0x00\n        /* \"hermesss.sol\":6170:6185  pendingRequests */\n      0x08\n        /* \"hermesss.sol\":6170:6197  pendingRequests[msg.sender] */\n      0x00\n        /* \"hermesss.sol\":6186:6196  msg.sender */\n      caller\n        /* \"hermesss.sol\":6170:6197  pendingRequests[msg.sender] */\n      0xffffffffffffffffffffffffffffffffffffffff\n      and\n      0xffffffffffffffffffffffffffffffffffffffff\n      and\n      dup2\n      mstore\n      0x20\n      add\n      swap1\n      dup2\n      mstore\n      0x20\n      add\n      0x00\n      keccak256\n        /* \"hermesss.sol\":6170:6210  pendingRequests[msg.sender][_clinicHash] */\n      0x00\n        /* \"hermesss.sol\":6198:6209  _clinicHash */\n      dup6\n        /* \"hermesss.sol\":6170:6210  pendingRequests[msg.sender][_clinicHash] */\n      dup2\n      mstore\n      0x20\n      add\n      swap1\n      dup2\n      mstore\n      0x20\n      add\n      0x00\n      keccak256\n        /* \"hermesss.sol\":6170:6220  pendingRequests[msg.sender][_clinicHash].invoiceId */\n      0x00\n      add\n      sload\n        /* \"hermesss.sol\":6151:6221  invoiceRecordsById[pendingRequests[msg.sender][_clinicHash].invoiceId] */\n      dup2\n      mstore\n      0x20\n      add\n      swap1\n      dup2\n      mstore\n      0x20\n      add\n      0x00\n      keccak256\n        /* \"hermesss.sol\":6151:6264  invoiceRecordsById[pendingRequests[msg.sender][_clinicHash].invoiceId] = pendingRequests[msg.sender][_clinicHash] */\n      0x00\n      dup3\n      add\n      sload\n      dup2\n      0x00\n      add\n      sstore\n      0x01\n      dup3\n      add\n      sload\n      dup2\n      0x01\n      add\n      sstore\n      0x02\n      dup3\n      add\n      sload\n      dup2\n      0x02\n      add\n      sstore\n      0x03\n      dup3\n      add\n      0x00\n      swap1\n      sload\n      swap1\n      0x0100\n      exp\n      swap1\n      div\n      0xffffffffffffffffffffffffffffffffffffffff\n      and\n      dup2\n      0x03\n      add\n      exp(0x0100, 0x00)\n      dup2\n      sload\n      dup2\n      0xffffffffffffffffffffffffffffffffffffffff\n      mul\n      not\n      and\n      swap1\n      dup4\n      0xffffffffffffffffffffffffffffffffffffffff\n      and\n      mul\n      or\n      swap1\n      sstore\n      pop\n      0x03\n      dup3\n      add\n      0x14\n      swap1\n      sload\n      swap1\n      0x0100\n      exp\n      swap1\n      div\n      0xff\n      and\n      dup2\n      0x03\n      add\n      exp(0x0100, 0x14)\n      dup2\n      sload\n      dup2\n      0xff\n      mul\n      not\n      and\n      swap1\n      dup4\n      0x02\n      dup2\n      gt\n      iszero\n      tag_184\n      jumpi\n      tag_185\n      tag_71\n      jump\t// in\n    tag_185:\n    tag_184:\n      mul\n      or\n      swap1\n      sstore\n      pop\n      swap1\n      pop\n      pop\n        /* \"hermesss.sol\":6331:6379  Invoice(0x0, 0x0, 0, address(0), Status.Pending) */\n      mload(0x40)\n      dup1\n      0xa0\n      add\n      0x40\n      mstore\n      dup1\n        /* \"hermesss.sol\":6339:6342  0x0 */\n      0x00\n        /* \"hermesss.sol\":6331:6379  Invoice(0x0, 0x0, 0, address(0), Status.Pending) */\n      dup1\n      shl\n      dup2\n      mstore\n      0x20\n      add\n        /* \"hermesss.sol\":6344:6347  0x0 */\n      0x00\n        /* \"hermesss.sol\":6331:6379  Invoice(0x0, 0x0, 0, address(0), Status.Pending) */\n      dup1\n      shl\n      dup2\n      mstore\n      0x20\n      add\n        /* \"hermesss.sol\":6349:6350  0 */\n      0x00\n        /* \"hermesss.sol\":6331:6379  Invoice(0x0, 0x0, 0, address(0), Status.Pending) */\n      dup2\n      mstore\n      0x20\n      add\n        /* \"hermesss.sol\":6360:6361  0 */\n      0x00\n        /* \"hermesss.sol\":6331:6379  Invoice(0x0, 0x0, 0, address(0), Status.Pending) */\n      0xffffffffffffffffffffffffffffffffffffffff\n      and\n      dup2\n      mstore\n      0x20\n      add\n        /* \"hermesss.sol\":6364:6378  Status.Pending */\n      0x00\n        /* \"hermesss.sol\":6331:6379  Invoice(0x0, 0x0, 0, address(0), Status.Pending) */\n      0x02\n      dup2\n      gt\n      iszero\n      tag_186\n      jumpi\n      tag_187\n      tag_71\n      jump\t// in\n    tag_187:\n    tag_186:\n      dup2\n      mstore\n      pop\n        /* \"hermesss.sol\":6288:6303  pendingRequests */\n      0x08\n        /* \"hermesss.sol\":6288:6315  pendingRequests[msg.sender] */\n      0x00\n        /* \"hermesss.sol\":6304:6314  msg.sender */\n      caller\n        /* \"hermesss.sol\":6288:6315  pendingRequests[msg.sender] */\n      0xffffffffffffffffffffffffffffffffffffffff\n      and\n      0xffffffffffffffffffffffffffffffffffffffff\n      and\n      dup2\n      mstore\n      0x20\n      add\n      swap1\n      dup2\n      mstore\n      0x20\n      add\n      0x00\n      keccak256\n        /* \"hermesss.sol\":6288:6328  pendingRequests[msg.sender][_clinicHash] */\n      0x00\n        /* \"hermesss.sol\":6316:6327  _clinicHash */\n      dup4\n        /* \"hermesss.sol\":6288:6328  pendingRequests[msg.sender][_clinicHash] */\n      dup2\n      mstore\n      0x20\n      add\n      swap1\n      dup2\n      mstore\n      0x20\n      add\n      0x00\n      keccak256\n        /* \"hermesss.sol\":6288:6379  pendingRequests[msg.sender][_clinicHash] = Invoice(0x0, 0x0, 0, address(0), Status.Pending) */\n      0x00\n      dup3\n      add\n      mload\n      dup2\n      0x00\n      add\n      sstore\n      0x20\n      dup3\n      add\n      mload\n      dup2\n      0x01\n      add\n      sstore\n      0x40\n      dup3\n      add\n      mload\n      dup2\n      0x02\n      add\n      sstore\n      0x60\n      dup3\n      add\n      mload\n      dup2\n      0x03\n      add\n      exp(0x0100, 0x00)\n      dup2\n      sload\n      dup2\n      0xffffffffffffffffffffffffffffffffffffffff\n      mul\n      not\n      and\n      swap1\n      dup4\n      0xffffffffffffffffffffffffffffffffffffffff\n      and\n      mul\n      or\n      swap1\n      sstore\n      pop\n      0x80\n      dup3\n      add\n      mload\n      dup2\n      0x03\n      add\n      exp(0x0100, 0x14)\n      dup2\n      sload\n      dup2\n      0xff\n      mul\n      not\n      and\n      swap1\n      dup4\n      0x02\n      dup2\n      gt\n      iszero\n      tag_188\n      jumpi\n      tag_189\n      tag_71\n      jump\t// in\n    tag_189:\n    tag_188:\n      mul\n      or\n      swap1\n      sstore\n      pop\n      swap1\n      pop\n      pop\n        /* \"hermesss.sol\":6423:6434  _clinicHash */\n      dup1\n        /* \"hermesss.sol\":6411:6421  msg.sender */\n      caller\n        /* \"hermesss.sol\":6395:6484  InvocieAccepted(msg.sender, _clinicHash, pendingRequests[msg.sender][_clinicHash].amount) */\n      0xffffffffffffffffffffffffffffffffffffffff\n      and\n      0x58e6b4bb20368f9a0b488a5727fff9b8795b7c85245c2a5d7ccbea5552fd2ca5\n        /* \"hermesss.sol\":6436:6451  pendingRequests */\n      0x08\n        /* \"hermesss.sol\":6436:6463  pendingRequests[msg.sender] */\n      0x00\n        /* \"hermesss.sol\":6452:6462  msg.sender */\n      caller\n        /* \"hermesss.sol\":6436:6463  pendingRequests[msg.sender] */\n      0xffffffffffffffffffffffffffffffffffffffff\n      and\n      0xffffffffffffffffffffffffffffffffffffffff\n      and\n      dup2\n      mstore\n      0x20\n      add\n      swap1\n      dup2\n      mstore\n      0x20\n      add\n      0x00\n      keccak256\n        /* \"hermesss.sol\":6436:6476  pendingRequests[msg.sender][_clinicHash] */\n      0x00\n        /* \"hermesss.sol\":6464:6475  _clinicHash */\n      dup6\n        /* \"hermesss.sol\":6436:6476  pendingRequests[msg.sender][_clinicHash] */\n      dup2\n      mstore\n      0x20\n      add\n      swap1\n      dup2\n      mstore\n      0x20\n      add\n      0x00\n      keccak256\n        /* \"hermesss.sol\":6436:6483  pendingRequests[msg.sender][_clinicHash].amount */\n      0x02\n      add\n      sload\n        /* \"hermesss.sol\":6395:6484  InvocieAccepted(msg.sender, _clinicHash, pendingRequests[msg.sender][_clinicHash].amount) */\n      mload(0x40)\n      tag_190\n      swap2\n      swap1\n      tag_134\n      jump\t// in\n    tag_190:\n      mload(0x40)\n      dup1\n      swap2\n      sub\n      swap1\n      log3\n        /* \"hermesss.sol\":5943:6492  function archiveInvoice(bytes32 _clinicHash) internal {\r... */\n      pop\n      jump\t// out\n    tag_63:\n      mload(0x40)\n      dup1\n      0xa0\n      add\n      0x40\n      mstore\n      dup1\n      0x00\n      dup1\n      not\n      and\n      dup2\n      mstore\n      0x20\n      add\n      0x00\n      dup1\n      not\n      and\n      dup2\n      mstore\n      0x20\n      add\n      0x00\n      dup2\n      mstore\n      0x20\n      add\n      and(0xffffffffffffffffffffffffffffffffffffffff, 0x00)\n      dup2\n      mstore\n      0x20\n      add\n      0x00\n      0x02\n      dup2\n      gt\n      iszero\n      tag_191\n      jumpi\n      tag_192\n      tag_71\n      jump\t// in\n    tag_192:\n    tag_191:\n      dup2\n      mstore\n      pop\n      swap1\n      jump\t// out\n        /* \"#utility.yul\":7:419   */\n    tag_194:\n        /* \"#utility.yul\":85:90   */\n      0x00\n        /* \"#utility.yul\":110:176   */\n      tag_196\n        /* \"#utility.yul\":126:175   */\n      tag_197\n        /* \"#utility.yul\":168:174   */\n      dup5\n        /* \"#utility.yul\":126:175   */\n      tag_198\n      jump\t// in\n    tag_197:\n        /* \"#utility.yul\":110:176   */\n      tag_199\n      jump\t// in\n    tag_196:\n        /* \"#utility.yul\":101:176   */\n      swap1\n      pop\n        /* \"#utility.yul\":199:205   */\n      dup3\n        /* \"#utility.yul\":192:197   */\n      dup2\n        /* \"#utility.yul\":185:206   */\n      mstore\n        /* \"#utility.yul\":237:241   */\n      0x20\n        /* \"#utility.yul\":230:235   */\n      dup2\n        /* \"#utility.yul\":226:242   */\n      add\n        /* \"#utility.yul\":275:278   */\n      dup5\n        /* \"#utility.yul\":266:272   */\n      dup5\n        /* \"#utility.yul\":261:264   */\n      dup5\n        /* \"#utility.yul\":257:273   */\n      add\n        /* \"#utility.yul\":254:279   */\n      gt\n        /* \"#utility.yul\":251:363   */\n      iszero\n      tag_200\n      jumpi\n        /* \"#utility.yul\":282:361   */\n      tag_201\n      tag_202\n      jump\t// in\n    tag_201:\n        /* \"#utility.yul\":251:363   */\n    tag_200:\n        /* \"#utility.yul\":372:413   */\n      tag_203\n        /* \"#utility.yul\":406:412   */\n      dup5\n        /* \"#utility.yul\":401:404   */\n      dup3\n        /* \"#utility.yul\":396:399   */\n      dup6\n        /* \"#utility.yul\":372:413   */\n      tag_204\n      jump\t// in\n    tag_203:\n        /* \"#utility.yul\":91:419   */\n      pop\n        /* \"#utility.yul\":7:419   */\n      swap4\n      swap3\n      pop\n      pop\n      pop\n      jump\t// out\n        /* \"#utility.yul\":425:564   */\n    tag_205:\n        /* \"#utility.yul\":471:476   */\n      0x00\n        /* \"#utility.yul\":509:515   */\n      dup2\n        /* \"#utility.yul\":496:516   */\n      calldataload\n        /* \"#utility.yul\":487:516   */\n      swap1\n      pop\n        /* \"#utility.yul\":525:558   */\n      tag_207\n        /* \"#utility.yul\":552:557   */\n      dup2\n        /* \"#utility.yul\":525:558   */\n      tag_208\n      jump\t// in\n    tag_207:\n        /* \"#utility.yul\":425:564   */\n      swap3\n      swap2\n      pop\n      pop\n      jump\t// out\n        /* \"#utility.yul\":570:703   */\n    tag_209:\n        /* \"#utility.yul\":613:618   */\n      0x00\n        /* \"#utility.yul\":651:657   */\n      dup2\n        /* \"#utility.yul\":638:658   */\n      calldataload\n        /* \"#utility.yul\":629:658   */\n      swap1\n      pop\n        /* \"#utility.yul\":667:697   */\n      tag_211\n        /* \"#utility.yul\":691:696   */\n      dup2\n        /* \"#utility.yul\":667:697   */\n      tag_212\n      jump\t// in\n    tag_211:\n        /* \"#utility.yul\":570:703   */\n      swap3\n      swap2\n      pop\n      pop\n      jump\t// out\n        /* \"#utility.yul\":709:848   */\n    tag_213:\n        /* \"#utility.yul\":755:760   */\n      0x00\n        /* \"#utility.yul\":793:799   */\n      dup2\n        /* \"#utility.yul\":780:800   */\n      calldataload\n        /* \"#utility.yul\":771:800   */\n      swap1\n      pop\n        /* \"#utility.yul\":809:842   */\n      tag_215\n        /* \"#utility.yul\":836:841   */\n      dup2\n        /* \"#utility.yul\":809:842   */\n      tag_216\n      jump\t// in\n    tag_215:\n        /* \"#utility.yul\":709:848   */\n      swap3\n      swap2\n      pop\n      pop\n      jump\t// out\n        /* \"#utility.yul\":868:1208   */\n    tag_217:\n        /* \"#utility.yul\":924:929   */\n      0x00\n        /* \"#utility.yul\":973:976   */\n      dup3\n        /* \"#utility.yul\":966:970   */\n      0x1f\n        /* \"#utility.yul\":958:964   */\n      dup4\n        /* \"#utility.yul\":954:971   */\n      add\n        /* \"#utility.yul\":950:977   */\n      slt\n        /* \"#utility.yul\":940:1062   */\n      tag_219\n      jumpi\n        /* \"#utility.yul\":981:1060   */\n      tag_220\n      tag_221\n      jump\t// in\n    tag_220:\n        /* \"#utility.yul\":940:1062   */\n    tag_219:\n        /* \"#utility.yul\":1098:1104   */\n      dup2\n        /* \"#utility.yul\":1085:1105   */\n      calldataload\n        /* \"#utility.yul\":1123:1202   */\n      tag_222\n        /* \"#utility.yul\":1198:1201   */\n      dup5\n        /* \"#utility.yul\":1190:1196   */\n      dup3\n        /* \"#utility.yul\":1183:1187   */\n      0x20\n        /* \"#utility.yul\":1175:1181   */\n      dup7\n        /* \"#utility.yul\":1171:1188   */\n      add\n        /* \"#utility.yul\":1123:1202   */\n      tag_194\n      jump\t// in\n    tag_222:\n        /* \"#utility.yul\":1114:1202   */\n      swap2\n      pop\n        /* \"#utility.yul\":930:1208   */\n      pop\n        /* \"#utility.yul\":868:1208   */\n      swap3\n      swap2\n      pop\n      pop\n      jump\t// out\n        /* \"#utility.yul\":1214:1353   */\n    tag_223:\n        /* \"#utility.yul\":1260:1265   */\n      0x00\n        /* \"#utility.yul\":1298:1304   */\n      dup2\n        /* \"#utility.yul\":1285:1305   */\n      calldataload\n        /* \"#utility.yul\":1276:1305   */\n      swap1\n      pop\n        /* \"#utility.yul\":1314:1347   */\n      tag_225\n        /* \"#utility.yul\":1341:1346   */\n      dup2\n        /* \"#utility.yul\":1314:1347   */\n      tag_226\n      jump\t// in\n    tag_225:\n        /* \"#utility.yul\":1214:1353   */\n      swap3\n      swap2\n      pop\n      pop\n      jump\t// out\n        /* \"#utility.yul\":1359:1688   */\n    tag_60:\n        /* \"#utility.yul\":1418:1424   */\n      0x00\n        /* \"#utility.yul\":1467:1469   */\n      0x20\n        /* \"#utility.yul\":1455:1464   */\n      dup3\n        /* \"#utility.yul\":1446:1453   */\n      dup5\n        /* \"#utility.yul\":1442:1465   */\n      sub\n        /* \"#utility.yul\":1438:1470   */\n      slt\n        /* \"#utility.yul\":1435:1554   */\n      iszero\n      tag_228\n      jumpi\n        /* \"#utility.yul\":1473:1552   */\n      tag_229\n      tag_230\n      jump\t// in\n    tag_229:\n        /* \"#utility.yul\":1435:1554   */\n    tag_228:\n        /* \"#utility.yul\":1593:1594   */\n      0x00\n        /* \"#utility.yul\":1618:1671   */\n      tag_231\n        /* \"#utility.yul\":1663:1670   */\n      dup5\n        /* \"#utility.yul\":1654:1660   */\n      dup3\n        /* \"#utility.yul\":1643:1652   */\n      dup6\n        /* \"#utility.yul\":1639:1661   */\n      add\n        /* \"#utility.yul\":1618:1671   */\n      tag_205\n      jump\t// in\n    tag_231:\n        /* \"#utility.yul\":1608:1671   */\n      swap2\n      pop\n        /* \"#utility.yul\":1564:1681   */\n      pop\n        /* \"#utility.yul\":1359:1688   */\n      swap3\n      swap2\n      pop\n      pop\n      jump\t// out\n        /* \"#utility.yul\":1694:2168   */\n    tag_39:\n        /* \"#utility.yul\":1762:1768   */\n      0x00\n        /* \"#utility.yul\":1770:1776   */\n      dup1\n        /* \"#utility.yul\":1819:1821   */\n      0x40\n        /* \"#utility.yul\":1807:1816   */\n      dup4\n        /* \"#utility.yul\":1798:1805   */\n      dup6\n        /* \"#utility.yul\":1794:1817   */\n      sub\n        /* \"#utility.yul\":1790:1822   */\n      slt\n        /* \"#utility.yul\":1787:1906   */\n      iszero\n      tag_233\n      jumpi\n        /* \"#utility.yul\":1825:1904   */\n      tag_234\n      tag_230\n      jump\t// in\n    tag_234:\n        /* \"#utility.yul\":1787:1906   */\n    tag_233:\n        /* \"#utility.yul\":1945:1946   */\n      0x00\n        /* \"#utility.yul\":1970:2023   */\n      tag_235\n        /* \"#utility.yul\":2015:2022   */\n      dup6\n        /* \"#utility.yul\":2006:2012   */\n      dup3\n        /* \"#utility.yul\":1995:2004   */\n      dup7\n        /* \"#utility.yul\":1991:2013   */\n      add\n        /* \"#utility.yul\":1970:2023   */\n      tag_205\n      jump\t// in\n    tag_235:\n        /* \"#utility.yul\":1960:2023   */\n      swap3\n      pop\n        /* \"#utility.yul\":1916:2033   */\n      pop\n        /* \"#utility.yul\":2072:2074   */\n      0x20\n        /* \"#utility.yul\":2098:2151   */\n      tag_236\n        /* \"#utility.yul\":2143:2150   */\n      dup6\n        /* \"#utility.yul\":2134:2140   */\n      dup3\n        /* \"#utility.yul\":2123:2132   */\n      dup7\n        /* \"#utility.yul\":2119:2141   */\n      add\n        /* \"#utility.yul\":2098:2151   */\n      tag_213\n      jump\t// in\n    tag_236:\n        /* \"#utility.yul\":2088:2151   */\n      swap2\n      pop\n        /* \"#utility.yul\":2043:2161   */\n      pop\n        /* \"#utility.yul\":1694:2168   */\n      swap3\n      pop\n      swap3\n      swap1\n      pop\n      jump\t// out\n        /* \"#utility.yul\":2174:2648   */\n    tag_17:\n        /* \"#utility.yul\":2242:2248   */\n      0x00\n        /* \"#utility.yul\":2250:2256   */\n      dup1\n        /* \"#utility.yul\":2299:2301   */\n      0x40\n        /* \"#utility.yul\":2287:2296   */\n      dup4\n        /* \"#utility.yul\":2278:2285   */\n      dup6\n        /* \"#utility.yul\":2274:2297   */\n      sub\n        /* \"#utility.yul\":2270:2302   */\n      slt\n        /* \"#utility.yul\":2267:2386   */\n      iszero\n      tag_238\n      jumpi\n        /* \"#utility.yul\":2305:2384   */\n      tag_239\n      tag_230\n      jump\t// in\n    tag_239:\n        /* \"#utility.yul\":2267:2386   */\n    tag_238:\n        /* \"#utility.yul\":2425:2426   */\n      0x00\n        /* \"#utility.yul\":2450:2503   */\n      tag_240\n        /* \"#utility.yul\":2495:2502   */\n      dup6\n        /* \"#utility.yul\":2486:2492   */\n      dup3\n        /* \"#utility.yul\":2475:2484   */\n      dup7\n        /* \"#utility.yul\":2471:2493   */\n      add\n        /* \"#utility.yul\":2450:2503   */\n      tag_205\n      jump\t// in\n    tag_240:\n        /* \"#utility.yul\":2440:2503   */\n      swap3\n      pop\n        /* \"#utility.yul\":2396:2513   */\n      pop\n        /* \"#utility.yul\":2552:2554   */\n      0x20\n        /* \"#utility.yul\":2578:2631   */\n      tag_241\n        /* \"#utility.yul\":2623:2630   */\n      dup6\n        /* \"#utility.yul\":2614:2620   */\n      dup3\n        /* \"#utility.yul\":2603:2612   */\n      dup7\n        /* \"#utility.yul\":2599:2621   */\n      add\n        /* \"#utility.yul\":2578:2631   */\n      tag_223\n      jump\t// in\n    tag_241:\n        /* \"#utility.yul\":2568:2631   */\n      swap2\n      pop\n        /* \"#utility.yul\":2523:2641   */\n      pop\n        /* \"#utility.yul\":2174:2648   */\n      swap3\n      pop\n      swap3\n      swap1\n      pop\n      jump\t// out\n        /* \"#utility.yul\":2654:3413   */\n    tag_47:\n        /* \"#utility.yul\":2737:2743   */\n      0x00\n        /* \"#utility.yul\":2745:2751   */\n      dup1\n        /* \"#utility.yul\":2753:2759   */\n      0x00\n        /* \"#utility.yul\":2761:2767   */\n      dup1\n        /* \"#utility.yul\":2810:2813   */\n      0x80\n        /* \"#utility.yul\":2798:2807   */\n      dup6\n        /* \"#utility.yul\":2789:2796   */\n      dup8\n        /* \"#utility.yul\":2785:2808   */\n      sub\n        /* \"#utility.yul\":2781:2814   */\n      slt\n        /* \"#utility.yul\":2778:2898   */\n      iszero\n      tag_243\n      jumpi\n        /* \"#utility.yul\":2817:2896   */\n      tag_244\n      tag_230\n      jump\t// in\n    tag_244:\n        /* \"#utility.yul\":2778:2898   */\n    tag_243:\n        /* \"#utility.yul\":2937:2938   */\n      0x00\n        /* \"#utility.yul\":2962:3015   */\n      tag_245\n        /* \"#utility.yul\":3007:3014   */\n      dup8\n        /* \"#utility.yul\":2998:3004   */\n      dup3\n        /* \"#utility.yul\":2987:2996   */\n      dup9\n        /* \"#utility.yul\":2983:3005   */\n      add\n        /* \"#utility.yul\":2962:3015   */\n      tag_205\n      jump\t// in\n    tag_245:\n        /* \"#utility.yul\":2952:3015   */\n      swap5\n      pop\n        /* \"#utility.yul\":2908:3025   */\n      pop\n        /* \"#utility.yul\":3064:3066   */\n      0x20\n        /* \"#utility.yul\":3090:3143   */\n      tag_246\n        /* \"#utility.yul\":3135:3142   */\n      dup8\n        /* \"#utility.yul\":3126:3132   */\n      dup3\n        /* \"#utility.yul\":3115:3124   */\n      dup9\n        /* \"#utility.yul\":3111:3133   */\n      add\n        /* \"#utility.yul\":3090:3143   */\n      tag_223\n      jump\t// in\n    tag_246:\n        /* \"#utility.yul\":3080:3143   */\n      swap4\n      pop\n        /* \"#utility.yul\":3035:3153   */\n      pop\n        /* \"#utility.yul\":3192:3194   */\n      0x40\n        /* \"#utility.yul\":3218:3271   */\n      tag_247\n        /* \"#utility.yul\":3263:3270   */\n      dup8\n        /* \"#utility.yul\":3254:3260   */\n      dup3\n        /* \"#utility.yul\":3243:3252   */\n      dup9\n        /* \"#utility.yul\":3239:3261   */\n      add\n        /* \"#utility.yul\":3218:3271   */\n      tag_213\n      jump\t// in\n    tag_247:\n        /* \"#utility.yul\":3208:3271   */\n      swap3\n      pop\n        /* \"#utility.yul\":3163:3281   */\n      pop\n        /* \"#utility.yul\":3320:3322   */\n      0x60\n        /* \"#utility.yul\":3346:3396   */\n      tag_248\n        /* \"#utility.yul\":3388:3395   */\n      dup8\n        /* \"#utility.yul\":3379:3385   */\n      dup3\n        /* \"#utility.yul\":3368:3377   */\n      dup9\n        /* \"#utility.yul\":3364:3386   */\n      add\n        /* \"#utility.yul\":3346:3396   */\n      tag_209\n      jump\t// in\n    tag_248:\n        /* \"#utility.yul\":3336:3396   */\n      swap2\n      pop\n        /* \"#utility.yul\":3291:3406   */\n      pop\n        /* \"#utility.yul\":2654:3413   */\n      swap3\n      swap6\n      swap2\n      swap5\n      pop\n      swap3\n      pop\n      jump\t// out\n        /* \"#utility.yul\":3419:3748   */\n    tag_51:\n        /* \"#utility.yul\":3478:3484   */\n      0x00\n        /* \"#utility.yul\":3527:3529   */\n      0x20\n        /* \"#utility.yul\":3515:3524   */\n      dup3\n        /* \"#utility.yul\":3506:3513   */\n      dup5\n        /* \"#utility.yul\":3502:3525   */\n      sub\n        /* \"#utility.yul\":3498:3530   */\n      slt\n        /* \"#utility.yul\":3495:3614   */\n      iszero\n      tag_250\n      jumpi\n        /* \"#utility.yul\":3533:3612   */\n      tag_251\n      tag_230\n      jump\t// in\n    tag_251:\n        /* \"#utility.yul\":3495:3614   */\n    tag_250:\n        /* \"#utility.yul\":3653:3654   */\n      0x00\n        /* \"#utility.yul\":3678:3731   */\n      tag_252\n        /* \"#utility.yul\":3723:3730   */\n      dup5\n        /* \"#utility.yul\":3714:3720   */\n      dup3\n        /* \"#utility.yul\":3703:3712   */\n      dup6\n        /* \"#utility.yul\":3699:3721   */\n      add\n        /* \"#utility.yul\":3678:3731   */\n      tag_213\n      jump\t// in\n    tag_252:\n        /* \"#utility.yul\":3668:3731   */\n      swap2\n      pop\n        /* \"#utility.yul\":3624:3741   */\n      pop\n        /* \"#utility.yul\":3419:3748   */\n      swap3\n      swap2\n      pop\n      pop\n      jump\t// out\n        /* \"#utility.yul\":3754:4367   */\n    tag_27:\n        /* \"#utility.yul\":3828:3834   */\n      0x00\n        /* \"#utility.yul\":3836:3842   */\n      dup1\n        /* \"#utility.yul\":3844:3850   */\n      0x00\n        /* \"#utility.yul\":3893:3895   */\n      0x60\n        /* \"#utility.yul\":3881:3890   */\n      dup5\n        /* \"#utility.yul\":3872:3879   */\n      dup7\n        /* \"#utility.yul\":3868:3891   */\n      sub\n        /* \"#utility.yul\":3864:3896   */\n      slt\n        /* \"#utility.yul\":3861:3980   */\n      iszero\n      tag_254\n      jumpi\n        /* \"#utility.yul\":3899:3978   */\n      tag_255\n      tag_230\n      jump\t// in\n    tag_255:\n        /* \"#utility.yul\":3861:3980   */\n    tag_254:\n        /* \"#utility.yul\":4019:4020   */\n      0x00\n        /* \"#utility.yul\":4044:4097   */\n      tag_256\n        /* \"#utility.yul\":4089:4096   */\n      dup7\n        /* \"#utility.yul\":4080:4086   */\n      dup3\n        /* \"#utility.yul\":4069:4078   */\n      dup8\n        /* \"#utility.yul\":4065:4087   */\n      add\n        /* \"#utility.yul\":4044:4097   */\n      tag_213\n      jump\t// in\n    tag_256:\n        /* \"#utility.yul\":4034:4097   */\n      swap4\n      pop\n        /* \"#utility.yul\":3990:4107   */\n      pop\n        /* \"#utility.yul\":4146:4148   */\n      0x20\n        /* \"#utility.yul\":4172:4225   */\n      tag_257\n        /* \"#utility.yul\":4217:4224   */\n      dup7\n        /* \"#utility.yul\":4208:4214   */\n      dup3\n        /* \"#utility.yul\":4197:4206   */\n      dup8\n        /* \"#utility.yul\":4193:4215   */\n      add\n        /* \"#utility.yul\":4172:4225   */\n      tag_205\n      jump\t// in\n    tag_257:\n        /* \"#utility.yul\":4162:4225   */\n      swap3\n      pop\n        /* \"#utility.yul\":4117:4235   */\n      pop\n        /* \"#utility.yul\":4274:4276   */\n      0x40\n        /* \"#utility.yul\":4300:4350   */\n      tag_258\n        /* \"#utility.yul\":4342:4349   */\n      dup7\n        /* \"#utility.yul\":4333:4339   */\n      dup3\n        /* \"#utility.yul\":4322:4331   */\n      dup8\n        /* \"#utility.yul\":4318:4340   */\n      add\n        /* \"#utility.yul\":4300:4350   */\n      tag_209\n      jump\t// in\n    tag_258:\n        /* \"#utility.yul\":4290:4350   */\n      swap2\n      pop\n        /* \"#utility.yul\":4245:4360   */\n      pop\n        /* \"#utility.yul\":3754:4367   */\n      swap3\n      pop\n      swap3\n      pop\n      swap3\n      jump\t// out\n        /* \"#utility.yul\":4373:4841   */\n    tag_56:\n        /* \"#utility.yul\":4438:4444   */\n      0x00\n        /* \"#utility.yul\":4446:4452   */\n      dup1\n        /* \"#utility.yul\":4495:4497   */\n      0x40\n        /* \"#utility.yul\":4483:4492   */\n      dup4\n        /* \"#utility.yul\":4474:4481   */\n      dup6\n        /* \"#utility.yul\":4470:4493   */\n      sub\n        /* \"#utility.yul\":4466:4498   */\n      slt\n        /* \"#utility.yul\":4463:4582   */\n      iszero\n      tag_260\n      jumpi\n        /* \"#utility.yul\":4501:4580   */\n      tag_261\n      tag_230\n      jump\t// in\n    tag_261:\n        /* \"#utility.yul\":4463:4582   */\n    tag_260:\n        /* \"#utility.yul\":4621:4622   */\n      0x00\n        /* \"#utility.yul\":4646:4699   */\n      tag_262\n        /* \"#utility.yul\":4691:4698   */\n      dup6\n        /* \"#utility.yul\":4682:4688   */\n      dup3\n        /* \"#utility.yul\":4671:4680   */\n      dup7\n        /* \"#utility.yul\":4667:4689   */\n      add\n        /* \"#utility.yul\":4646:4699   */\n      tag_213\n      jump\t// in\n    tag_262:\n        /* \"#utility.yul\":4636:4699   */\n      swap3\n      pop\n        /* \"#utility.yul\":4592:4709   */\n      pop\n        /* \"#utility.yul\":4748:4750   */\n      0x20\n        /* \"#utility.yul\":4774:4824   */\n      tag_263\n        /* \"#utility.yul\":4816:4823   */\n      dup6\n        /* \"#utility.yul\":4807:4813   */\n      dup3\n        /* \"#utility.yul\":4796:4805   */\n      dup7\n        /* \"#utility.yul\":4792:4814   */\n      add\n        /* \"#utility.yul\":4774:4824   */\n      tag_209\n      jump\t// in\n    tag_263:\n        /* \"#utility.yul\":4764:4824   */\n      swap2\n      pop\n        /* \"#utility.yul\":4719:4834   */\n      pop\n        /* \"#utility.yul\":4373:4841   */\n      swap3\n      pop\n      swap3\n      swap1\n      pop\n      jump\t// out\n        /* \"#utility.yul\":4847:5321   */\n    tag_23:\n        /* \"#utility.yul\":4915:4921   */\n      0x00\n        /* \"#utility.yul\":4923:4929   */\n      dup1\n        /* \"#utility.yul\":4972:4974   */\n      0x40\n        /* \"#utility.yul\":4960:4969   */\n      dup4\n        /* \"#utility.yul\":4951:4958   */\n      dup6\n        /* \"#utility.yul\":4947:4970   */\n      sub\n        /* \"#utility.yul\":4943:4975   */\n      slt\n        /* \"#utility.yul\":4940:5059   */\n      iszero\n      tag_265\n      jumpi\n        /* \"#utility.yul\":4978:5057   */\n      tag_266\n      tag_230\n      jump\t// in\n    tag_266:\n        /* \"#utility.yul\":4940:5059   */\n    tag_265:\n        /* \"#utility.yul\":5098:5099   */\n      0x00\n        /* \"#utility.yul\":5123:5176   */\n      tag_267\n        /* \"#utility.yul\":5168:5175   */\n      dup6\n        /* \"#utility.yul\":5159:5165   */\n      dup3\n        /* \"#utility.yul\":5148:5157   */\n      dup7\n        /* \"#utility.yul\":5144:5166   */\n      add\n        /* \"#utility.yul\":5123:5176   */\n      tag_213\n      jump\t// in\n    tag_267:\n        /* \"#utility.yul\":5113:5176   */\n      swap3\n      pop\n        /* \"#utility.yul\":5069:5186   */\n      pop\n        /* \"#utility.yul\":5225:5227   */\n      0x20\n        /* \"#utility.yul\":5251:5304   */\n      tag_268\n        /* \"#utility.yul\":5296:5303   */\n      dup6\n        /* \"#utility.yul\":5287:5293   */\n      dup3\n        /* \"#utility.yul\":5276:5285   */\n      dup7\n        /* \"#utility.yul\":5272:5294   */\n      add\n        /* \"#utility.yul\":5251:5304   */\n      tag_223\n      jump\t// in\n    tag_268:\n        /* \"#utility.yul\":5241:5304   */\n      swap2\n      pop\n        /* \"#utility.yul\":5196:5314   */\n      pop\n        /* \"#utility.yul\":4847:5321   */\n      swap3\n      pop\n      swap3\n      swap1\n      pop\n      jump\t// out\n        /* \"#utility.yul\":5327:5836   */\n    tag_31:\n        /* \"#utility.yul\":5396:5402   */\n      0x00\n        /* \"#utility.yul\":5445:5447   */\n      0x20\n        /* \"#utility.yul\":5433:5442   */\n      dup3\n        /* \"#utility.yul\":5424:5431   */\n      dup5\n        /* \"#utility.yul\":5420:5443   */\n      sub\n        /* \"#utility.yul\":5416:5448   */\n      slt\n        /* \"#utility.yul\":5413:5532   */\n      iszero\n      tag_270\n      jumpi\n        /* \"#utility.yul\":5451:5530   */\n      tag_271\n      tag_230\n      jump\t// in\n    tag_271:\n        /* \"#utility.yul\":5413:5532   */\n    tag_270:\n        /* \"#utility.yul\":5599:5600   */\n      0x00\n        /* \"#utility.yul\":5588:5597   */\n      dup3\n        /* \"#utility.yul\":5584:5601   */\n      add\n        /* \"#utility.yul\":5571:5602   */\n      calldataload\n        /* \"#utility.yul\":5629:5647   */\n      0xffffffffffffffff\n        /* \"#utility.yul\":5621:5627   */\n      dup2\n        /* \"#utility.yul\":5618:5648   */\n      gt\n        /* \"#utility.yul\":5615:5732   */\n      iszero\n      tag_272\n      jumpi\n        /* \"#utility.yul\":5651:5730   */\n      tag_273\n      tag_274\n      jump\t// in\n    tag_273:\n        /* \"#utility.yul\":5615:5732   */\n    tag_272:\n        /* \"#utility.yul\":5756:5819   */\n      tag_275\n        /* \"#utility.yul\":5811:5818   */\n      dup5\n        /* \"#utility.yul\":5802:5808   */\n      dup3\n        /* \"#utility.yul\":5791:5800   */\n      dup6\n        /* \"#utility.yul\":5787:5809   */\n      add\n        /* \"#utility.yul\":5756:5819   */\n      tag_217\n      jump\t// in\n    tag_275:\n        /* \"#utility.yul\":5746:5819   */\n      swap2\n      pop\n        /* \"#utility.yul\":5542:5829   */\n      pop\n        /* \"#utility.yul\":5327:5836   */\n      swap3\n      swap2\n      pop\n      pop\n      jump\t// out\n        /* \"#utility.yul\":5842:5950   */\n    tag_276:\n        /* \"#utility.yul\":5919:5943   */\n      tag_278\n        /* \"#utility.yul\":5937:5942   */\n      dup2\n        /* \"#utility.yul\":5919:5943   */\n      tag_279\n      jump\t// in\n    tag_278:\n        /* \"#utility.yul\":5914:5917   */\n      dup3\n        /* \"#utility.yul\":5907:5944   */\n      mstore\n        /* \"#utility.yul\":5842:5950   */\n      pop\n      pop\n      jump\t// out\n        /* \"#utility.yul\":5956:6074   */\n    tag_280:\n        /* \"#utility.yul\":6043:6067   */\n      tag_282\n        /* \"#utility.yul\":6061:6066   */\n      dup2\n        /* \"#utility.yul\":6043:6067   */\n      tag_279\n      jump\t// in\n    tag_282:\n        /* \"#utility.yul\":6038:6041   */\n      dup3\n        /* \"#utility.yul\":6031:6068   */\n      mstore\n        /* \"#utility.yul\":5956:6074   */\n      pop\n      pop\n      jump\t// out\n        /* \"#utility.yul\":6080:6237   */\n    tag_283:\n        /* \"#utility.yul\":6185:6230   */\n      tag_285\n        /* \"#utility.yul\":6205:6229   */\n      tag_286\n        /* \"#utility.yul\":6223:6228   */\n      dup3\n        /* \"#utility.yul\":6205:6229   */\n      tag_279\n      jump\t// in\n    tag_286:\n        /* \"#utility.yul\":6185:6230   */\n      tag_287\n      jump\t// in\n    tag_285:\n        /* \"#utility.yul\":6180:6183   */\n      dup3\n        /* \"#utility.yul\":6173:6231   */\n      mstore\n        /* \"#utility.yul\":6080:6237   */\n      pop\n      pop\n      jump\t// out\n        /* \"#utility.yul\":6243:6351   */\n    tag_288:\n        /* \"#utility.yul\":6320:6344   */\n      tag_290\n        /* \"#utility.yul\":6338:6343   */\n      dup2\n        /* \"#utility.yul\":6320:6344   */\n      tag_291\n      jump\t// in\n    tag_290:\n        /* \"#utility.yul\":6315:6318   */\n      dup3\n        /* \"#utility.yul\":6308:6345   */\n      mstore\n        /* \"#utility.yul\":6243:6351   */\n      pop\n      pop\n      jump\t// out\n        /* \"#utility.yul\":6357:6475   */\n    tag_292:\n        /* \"#utility.yul\":6444:6468   */\n      tag_294\n        /* \"#utility.yul\":6462:6467   */\n      dup2\n        /* \"#utility.yul\":6444:6468   */\n      tag_291\n      jump\t// in\n    tag_294:\n        /* \"#utility.yul\":6439:6442   */\n      dup3\n        /* \"#utility.yul\":6432:6469   */\n      mstore\n        /* \"#utility.yul\":6357:6475   */\n      pop\n      pop\n      jump\t// out\n        /* \"#utility.yul\":6481:6618   */\n    tag_295:\n        /* \"#utility.yul\":6566:6611   */\n      tag_297\n        /* \"#utility.yul\":6605:6610   */\n      dup2\n        /* \"#utility.yul\":6566:6611   */\n      tag_298\n      jump\t// in\n    tag_297:\n        /* \"#utility.yul\":6561:6564   */\n      dup3\n        /* \"#utility.yul\":6554:6612   */\n      mstore\n        /* \"#utility.yul\":6481:6618   */\n      pop\n      pop\n      jump\t// out\n        /* \"#utility.yul\":6624:7001   */\n    tag_299:\n        /* \"#utility.yul\":6730:6733   */\n      0x00\n        /* \"#utility.yul\":6758:6797   */\n      tag_301\n        /* \"#utility.yul\":6791:6796   */\n      dup3\n        /* \"#utility.yul\":6758:6797   */\n      tag_302\n      jump\t// in\n    tag_301:\n        /* \"#utility.yul\":6813:6902   */\n      tag_303\n        /* \"#utility.yul\":6895:6901   */\n      dup2\n        /* \"#utility.yul\":6890:6893   */\n      dup6\n        /* \"#utility.yul\":6813:6902   */\n      tag_304\n      jump\t// in\n    tag_303:\n        /* \"#utility.yul\":6806:6902   */\n      swap4\n      pop\n        /* \"#utility.yul\":6911:6963   */\n      tag_305\n        /* \"#utility.yul\":6956:6962   */\n      dup2\n        /* \"#utility.yul\":6951:6954   */\n      dup6\n        /* \"#utility.yul\":6944:6948   */\n      0x20\n        /* \"#utility.yul\":6937:6942   */\n      dup7\n        /* \"#utility.yul\":6933:6949   */\n      add\n        /* \"#utility.yul\":6911:6963   */\n      tag_306\n      jump\t// in\n    tag_305:\n        /* \"#utility.yul\":6988:6994   */\n      dup1\n        /* \"#utility.yul\":6983:6986   */\n      dup5\n        /* \"#utility.yul\":6979:6995   */\n      add\n        /* \"#utility.yul\":6972:6995   */\n      swap2\n      pop\n        /* \"#utility.yul\":6734:7001   */\n      pop\n        /* \"#utility.yul\":6624:7001   */\n      swap3\n      swap2\n      pop\n      pop\n      jump\t// out\n        /* \"#utility.yul\":7007:7373   */\n    tag_307:\n        /* \"#utility.yul\":7149:7152   */\n      0x00\n        /* \"#utility.yul\":7170:7237   */\n      tag_309\n        /* \"#utility.yul\":7234:7236   */\n      0x26\n        /* \"#utility.yul\":7229:7232   */\n      dup4\n        /* \"#utility.yul\":7170:7237   */\n      tag_310\n      jump\t// in\n    tag_309:\n        /* \"#utility.yul\":7163:7237   */\n      swap2\n      pop\n        /* \"#utility.yul\":7246:7339   */\n      tag_311\n        /* \"#utility.yul\":7335:7338   */\n      dup3\n        /* \"#utility.yul\":7246:7339   */\n      tag_312\n      jump\t// in\n    tag_311:\n        /* \"#utility.yul\":7364:7366   */\n      0x40\n        /* \"#utility.yul\":7359:7362   */\n      dup3\n        /* \"#utility.yul\":7355:7367   */\n      add\n        /* \"#utility.yul\":7348:7367   */\n      swap1\n      pop\n        /* \"#utility.yul\":7007:7373   */\n      swap2\n      swap1\n      pop\n      jump\t// out\n        /* \"#utility.yul\":7379:7745   */\n    tag_313:\n        /* \"#utility.yul\":7521:7524   */\n      0x00\n        /* \"#utility.yul\":7542:7609   */\n      tag_315\n        /* \"#utility.yul\":7606:7608   */\n      0x30\n        /* \"#utility.yul\":7601:7604   */\n      dup4\n        /* \"#utility.yul\":7542:7609   */\n      tag_310\n      jump\t// in\n    tag_315:\n        /* \"#utility.yul\":7535:7609   */\n      swap2\n      pop\n        /* \"#utility.yul\":7618:7711   */\n      tag_316\n        /* \"#utility.yul\":7707:7710   */\n      dup3\n        /* \"#utility.yul\":7618:7711   */\n      tag_317\n      jump\t// in\n    tag_316:\n        /* \"#utility.yul\":7736:7738   */\n      0x40\n        /* \"#utility.yul\":7731:7734   */\n      dup3\n        /* \"#utility.yul\":7727:7739   */\n      add\n        /* \"#utility.yul\":7720:7739   */\n      swap1\n      pop\n        /* \"#utility.yul\":7379:7745   */\n      swap2\n      swap1\n      pop\n      jump\t// out\n        /* \"#utility.yul\":7751:8117   */\n    tag_318:\n        /* \"#utility.yul\":7893:7896   */\n      0x00\n        /* \"#utility.yul\":7914:7981   */\n      tag_320\n        /* \"#utility.yul\":7978:7980   */\n      0x13\n        /* \"#utility.yul\":7973:7976   */\n      dup4\n        /* \"#utility.yul\":7914:7981   */\n      tag_310\n      jump\t// in\n    tag_320:\n        /* \"#utility.yul\":7907:7981   */\n      swap2\n      pop\n        /* \"#utility.yul\":7990:8083   */\n      tag_321\n        /* \"#utility.yul\":8079:8082   */\n      dup3\n        /* \"#utility.yul\":7990:8083   */\n      tag_322\n      jump\t// in\n    tag_321:\n        /* \"#utility.yul\":8108:8110   */\n      0x20\n        /* \"#utility.yul\":8103:8106   */\n      dup3\n        /* \"#utility.yul\":8099:8111   */\n      add\n        /* \"#utility.yul\":8092:8111   */\n      swap1\n      pop\n        /* \"#utility.yul\":7751:8117   */\n      swap2\n      swap1\n      pop\n      jump\t// out\n        /* \"#utility.yul\":8123:8489   */\n    tag_323:\n        /* \"#utility.yul\":8265:8268   */\n      0x00\n        /* \"#utility.yul\":8286:8353   */\n      tag_325\n        /* \"#utility.yul\":8350:8352   */\n      0x20\n        /* \"#utility.yul\":8345:8348   */\n      dup4\n        /* \"#utility.yul\":8286:8353   */\n      tag_310\n      jump\t// in\n    tag_325:\n        /* \"#utility.yul\":8279:8353   */\n      swap2\n      pop\n        /* \"#utility.yul\":8362:8455   */\n      tag_326\n        /* \"#utility.yul\":8451:8454   */\n      dup3\n        /* \"#utility.yul\":8362:8455   */\n      tag_327\n      jump\t// in\n    tag_326:\n        /* \"#utility.yul\":8480:8482   */\n      0x20\n        /* \"#utility.yul\":8475:8478   */\n      dup3\n        /* \"#utility.yul\":8471:8483   */\n      add\n        /* \"#utility.yul\":8464:8483   */\n      swap1\n      pop\n        /* \"#utility.yul\":8123:8489   */\n      swap2\n      swap1\n      pop\n      jump\t// out\n        /* \"#utility.yul\":8495:8861   */\n    tag_328:\n        /* \"#utility.yul\":8637:8640   */\n      0x00\n        /* \"#utility.yul\":8658:8725   */\n      tag_330\n        /* \"#utility.yul\":8722:8724   */\n      0x28\n        /* \"#utility.yul\":8717:8720   */\n      dup4\n        /* \"#utility.yul\":8658:8725   */\n      tag_310\n      jump\t// in\n    tag_330:\n        /* \"#utility.yul\":8651:8725   */\n      swap2\n      pop\n        /* \"#utility.yul\":8734:8827   */\n      tag_331\n        /* \"#utility.yul\":8823:8826   */\n      dup3\n        /* \"#utility.yul\":8734:8827   */\n      tag_332\n      jump\t// in\n    tag_331:\n        /* \"#utility.yul\":8852:8854   */\n      0x40\n        /* \"#utility.yul\":8847:8850   */\n      dup3\n        /* \"#utility.yul\":8843:8855   */\n      add\n        /* \"#utility.yul\":8836:8855   */\n      swap1\n      pop\n        /* \"#utility.yul\":8495:8861   */\n      swap2\n      swap1\n      pop\n      jump\t// out\n        /* \"#utility.yul\":8867:9233   */\n    tag_333:\n        /* \"#utility.yul\":9009:9012   */\n      0x00\n        /* \"#utility.yul\":9030:9097   */\n      tag_335\n        /* \"#utility.yul\":9094:9096   */\n      0x24\n        /* \"#utility.yul\":9089:9092   */\n      dup4\n        /* \"#utility.yul\":9030:9097   */\n      tag_310\n      jump\t// in\n    tag_335:\n        /* \"#utility.yul\":9023:9097   */\n      swap2\n      pop\n        /* \"#utility.yul\":9106:9199   */\n      tag_336\n        /* \"#utility.yul\":9195:9198   */\n      dup3\n        /* \"#utility.yul\":9106:9199   */\n      tag_337\n      jump\t// in\n    tag_336:\n        /* \"#utility.yul\":9224:9226   */\n      0x40\n        /* \"#utility.yul\":9219:9222   */\n      dup3\n        /* \"#utility.yul\":9215:9227   */\n      add\n        /* \"#utility.yul\":9208:9227   */\n      swap1\n      pop\n        /* \"#utility.yul\":8867:9233   */\n      swap2\n      swap1\n      pop\n      jump\t// out\n        /* \"#utility.yul\":9239:9605   */\n    tag_338:\n        /* \"#utility.yul\":9381:9384   */\n      0x00\n        /* \"#utility.yul\":9402:9469   */\n      tag_340\n        /* \"#utility.yul\":9466:9468   */\n      0x19\n        /* \"#utility.yul\":9461:9464   */\n      dup4\n        /* \"#utility.yul\":9402:9469   */\n      tag_310\n      jump\t// in\n    tag_340:\n        /* \"#utility.yul\":9395:9469   */\n      swap2\n      pop\n        /* \"#utility.yul\":9478:9571   */\n      tag_341\n        /* \"#utility.yul\":9567:9570   */\n      dup3\n        /* \"#utility.yul\":9478:9571   */\n      tag_342\n      jump\t// in\n    tag_341:\n        /* \"#utility.yul\":9596:9598   */\n      0x20\n        /* \"#utility.yul\":9591:9594   */\n      dup3\n        /* \"#utility.yul\":9587:9599   */\n      add\n        /* \"#utility.yul\":9580:9599   */\n      swap1\n      pop\n        /* \"#utility.yul\":9239:9605   */\n      swap2\n      swap1\n      pop\n      jump\t// out\n        /* \"#utility.yul\":9611:9977   */\n    tag_343:\n        /* \"#utility.yul\":9753:9756   */\n      0x00\n        /* \"#utility.yul\":9774:9841   */\n      tag_345\n        /* \"#utility.yul\":9838:9840   */\n      0x2a\n        /* \"#utility.yul\":9833:9836   */\n      dup4\n        /* \"#utility.yul\":9774:9841   */\n      tag_310\n      jump\t// in\n    tag_345:\n        /* \"#utility.yul\":9767:9841   */\n      swap2\n      pop\n        /* \"#utility.yul\":9850:9943   */\n      tag_346\n        /* \"#utility.yul\":9939:9942   */\n      dup3\n        /* \"#utility.yul\":9850:9943   */\n      tag_347\n      jump\t// in\n    tag_346:\n        /* \"#utility.yul\":9968:9970   */\n      0x40\n        /* \"#utility.yul\":9963:9966   */\n      dup3\n        /* \"#utility.yul\":9959:9971   */\n      add\n        /* \"#utility.yul\":9952:9971   */\n      swap1\n      pop\n        /* \"#utility.yul\":9611:9977   */\n      swap2\n      swap1\n      pop\n      jump\t// out\n        /* \"#utility.yul\":10037:11093   */\n    tag_348:\n        /* \"#utility.yul\":10182:10186   */\n      0xa0\n        /* \"#utility.yul\":10177:10180   */\n      dup3\n        /* \"#utility.yul\":10173:10187   */\n      add\n        /* \"#utility.yul\":10274:10278   */\n      0x00\n        /* \"#utility.yul\":10267:10272   */\n      dup3\n        /* \"#utility.yul\":10263:10279   */\n      add\n        /* \"#utility.yul\":10257:10280   */\n      mload\n        /* \"#utility.yul\":10293:10356   */\n      tag_350\n        /* \"#utility.yul\":10350:10354   */\n      0x00\n        /* \"#utility.yul\":10345:10348   */\n      dup6\n        /* \"#utility.yul\":10341:10355   */\n      add\n        /* \"#utility.yul\":10327:10339   */\n      dup3\n        /* \"#utility.yul\":10293:10356   */\n      tag_288\n      jump\t// in\n    tag_350:\n        /* \"#utility.yul\":10197:10366   */\n      pop\n        /* \"#utility.yul\":10457:10461   */\n      0x20\n        /* \"#utility.yul\":10450:10455   */\n      dup3\n        /* \"#utility.yul\":10446:10462   */\n      add\n        /* \"#utility.yul\":10440:10463   */\n      mload\n        /* \"#utility.yul\":10476:10539   */\n      tag_351\n        /* \"#utility.yul\":10533:10537   */\n      0x20\n        /* \"#utility.yul\":10528:10531   */\n      dup6\n        /* \"#utility.yul\":10524:10538   */\n      add\n        /* \"#utility.yul\":10510:10522   */\n      dup3\n        /* \"#utility.yul\":10476:10539   */\n      tag_288\n      jump\t// in\n    tag_351:\n        /* \"#utility.yul\":10376:10549   */\n      pop\n        /* \"#utility.yul\":10633:10637   */\n      0x40\n        /* \"#utility.yul\":10626:10631   */\n      dup3\n        /* \"#utility.yul\":10622:10638   */\n      add\n        /* \"#utility.yul\":10616:10639   */\n      mload\n        /* \"#utility.yul\":10652:10715   */\n      tag_352\n        /* \"#utility.yul\":10709:10713   */\n      0x40\n        /* \"#utility.yul\":10704:10707   */\n      dup6\n        /* \"#utility.yul\":10700:10714   */\n      add\n        /* \"#utility.yul\":10686:10698   */\n      dup3\n        /* \"#utility.yul\":10652:10715   */\n      tag_353\n      jump\t// in\n    tag_352:\n        /* \"#utility.yul\":10559:10725   */\n      pop\n        /* \"#utility.yul\":10810:10814   */\n      0x60\n        /* \"#utility.yul\":10803:10808   */\n      dup3\n        /* \"#utility.yul\":10799:10815   */\n      add\n        /* \"#utility.yul\":10793:10816   */\n      mload\n        /* \"#utility.yul\":10829:10892   */\n      tag_354\n        /* \"#utility.yul\":10886:10890   */\n      0x60\n        /* \"#utility.yul\":10881:10884   */\n      dup6\n        /* \"#utility.yul\":10877:10891   */\n      add\n        /* \"#utility.yul\":10863:10875   */\n      dup3\n        /* \"#utility.yul\":10829:10892   */\n      tag_276\n      jump\t// in\n    tag_354:\n        /* \"#utility.yul\":10735:10902   */\n      pop\n        /* \"#utility.yul\":10986:10990   */\n      0x80\n        /* \"#utility.yul\":10979:10984   */\n      dup3\n        /* \"#utility.yul\":10975:10991   */\n      add\n        /* \"#utility.yul\":10969:10992   */\n      mload\n        /* \"#utility.yul\":11005:11076   */\n      tag_355\n        /* \"#utility.yul\":11070:11074   */\n      0x80\n        /* \"#utility.yul\":11065:11068   */\n      dup6\n        /* \"#utility.yul\":11061:11075   */\n      add\n        /* \"#utility.yul\":11047:11059   */\n      dup3\n        /* \"#utility.yul\":11005:11076   */\n      tag_295\n      jump\t// in\n    tag_355:\n        /* \"#utility.yul\":10912:11086   */\n      pop\n        /* \"#utility.yul\":10151:11093   */\n      pop\n        /* \"#utility.yul\":10037:11093   */\n      pop\n      pop\n      jump\t// out\n        /* \"#utility.yul\":11099:11207   */\n    tag_353:\n        /* \"#utility.yul\":11176:11200   */\n      tag_357\n        /* \"#utility.yul\":11194:11199   */\n      dup2\n        /* \"#utility.yul\":11176:11200   */\n      tag_358\n      jump\t// in\n    tag_357:\n        /* \"#utility.yul\":11171:11174   */\n      dup3\n        /* \"#utility.yul\":11164:11201   */\n      mstore\n        /* \"#utility.yul\":11099:11207   */\n      pop\n      pop\n      jump\t// out\n        /* \"#utility.yul\":11213:11331   */\n    tag_359:\n        /* \"#utility.yul\":11300:11324   */\n      tag_361\n        /* \"#utility.yul\":11318:11323   */\n      dup2\n        /* \"#utility.yul\":11300:11324   */\n      tag_358\n      jump\t// in\n    tag_361:\n        /* \"#utility.yul\":11295:11298   */\n      dup3\n        /* \"#utility.yul\":11288:11325   */\n      mstore\n        /* \"#utility.yul\":11213:11331   */\n      pop\n      pop\n      jump\t// out\n        /* \"#utility.yul\":11337:11494   */\n    tag_362:\n        /* \"#utility.yul\":11442:11487   */\n      tag_364\n        /* \"#utility.yul\":11462:11486   */\n      tag_365\n        /* \"#utility.yul\":11480:11485   */\n      dup3\n        /* \"#utility.yul\":11462:11486   */\n      tag_358\n      jump\t// in\n    tag_365:\n        /* \"#utility.yul\":11442:11487   */\n      tag_366\n      jump\t// in\n    tag_364:\n        /* \"#utility.yul\":11437:11440   */\n      dup3\n        /* \"#utility.yul\":11430:11488   */\n      mstore\n        /* \"#utility.yul\":11337:11494   */\n      pop\n      pop\n      jump\t// out\n        /* \"#utility.yul\":11500:12320   */\n    tag_127:\n        /* \"#utility.yul\":11724:11727   */\n      0x00\n        /* \"#utility.yul\":11739:11814   */\n      tag_368\n        /* \"#utility.yul\":11810:11813   */\n      dup3\n        /* \"#utility.yul\":11801:11807   */\n      dup9\n        /* \"#utility.yul\":11739:11814   */\n      tag_283\n      jump\t// in\n    tag_368:\n        /* \"#utility.yul\":11839:11841   */\n      0x14\n        /* \"#utility.yul\":11834:11837   */\n      dup3\n        /* \"#utility.yul\":11830:11842   */\n      add\n        /* \"#utility.yul\":11823:11842   */\n      swap2\n      pop\n        /* \"#utility.yul\":11852:11927   */\n      tag_369\n        /* \"#utility.yul\":11923:11926   */\n      dup3\n        /* \"#utility.yul\":11914:11920   */\n      dup8\n        /* \"#utility.yul\":11852:11927   */\n      tag_283\n      jump\t// in\n    tag_369:\n        /* \"#utility.yul\":11952:11954   */\n      0x14\n        /* \"#utility.yul\":11947:11950   */\n      dup3\n        /* \"#utility.yul\":11943:11955   */\n      add\n        /* \"#utility.yul\":11936:11955   */\n      swap2\n      pop\n        /* \"#utility.yul\":11965:12040   */\n      tag_370\n        /* \"#utility.yul\":12036:12039   */\n      dup3\n        /* \"#utility.yul\":12027:12033   */\n      dup7\n        /* \"#utility.yul\":11965:12040   */\n      tag_362\n      jump\t// in\n    tag_370:\n        /* \"#utility.yul\":12065:12067   */\n      0x20\n        /* \"#utility.yul\":12060:12063   */\n      dup3\n        /* \"#utility.yul\":12056:12068   */\n      add\n        /* \"#utility.yul\":12049:12068   */\n      swap2\n      pop\n        /* \"#utility.yul\":12078:12153   */\n      tag_371\n        /* \"#utility.yul\":12149:12152   */\n      dup3\n        /* \"#utility.yul\":12140:12146   */\n      dup6\n        /* \"#utility.yul\":12078:12153   */\n      tag_362\n      jump\t// in\n    tag_371:\n        /* \"#utility.yul\":12178:12180   */\n      0x20\n        /* \"#utility.yul\":12173:12176   */\n      dup3\n        /* \"#utility.yul\":12169:12181   */\n      add\n        /* \"#utility.yul\":12162:12181   */\n      swap2\n      pop\n        /* \"#utility.yul\":12191:12266   */\n      tag_372\n        /* \"#utility.yul\":12262:12265   */\n      dup3\n        /* \"#utility.yul\":12253:12259   */\n      dup5\n        /* \"#utility.yul\":12191:12266   */\n      tag_362\n      jump\t// in\n    tag_372:\n        /* \"#utility.yul\":12291:12293   */\n      0x20\n        /* \"#utility.yul\":12286:12289   */\n      dup3\n        /* \"#utility.yul\":12282:12294   */\n      add\n        /* \"#utility.yul\":12275:12294   */\n      swap2\n      pop\n        /* \"#utility.yul\":12311:12314   */\n      dup2\n        /* \"#utility.yul\":12304:12314   */\n      swap1\n      pop\n        /* \"#utility.yul\":11500:12320   */\n      swap7\n      swap6\n      pop\n      pop\n      pop\n      pop\n      pop\n      pop\n      jump\t// out\n        /* \"#utility.yul\":12326:12601   */\n    tag_92:\n        /* \"#utility.yul\":12458:12461   */\n      0x00\n        /* \"#utility.yul\":12480:12575   */\n      tag_374\n        /* \"#utility.yul\":12571:12574   */\n      dup3\n        /* \"#utility.yul\":12562:12568   */\n      dup5\n        /* \"#utility.yul\":12480:12575   */\n      tag_299\n      jump\t// in\n    tag_374:\n        /* \"#utility.yul\":12473:12575   */\n      swap2\n      pop\n        /* \"#utility.yul\":12592:12595   */\n      dup2\n        /* \"#utility.yul\":12585:12595   */\n      swap1\n      pop\n        /* \"#utility.yul\":12326:12601   */\n      swap3\n      swap2\n      pop\n      pop\n      jump\t// out\n        /* \"#utility.yul\":12607:12829   */\n    tag_44:\n        /* \"#utility.yul\":12700:12704   */\n      0x00\n        /* \"#utility.yul\":12738:12740   */\n      0x20\n        /* \"#utility.yul\":12727:12736   */\n      dup3\n        /* \"#utility.yul\":12723:12741   */\n      add\n        /* \"#utility.yul\":12715:12741   */\n      swap1\n      pop\n        /* \"#utility.yul\":12751:12822   */\n      tag_376\n        /* \"#utility.yul\":12819:12820   */\n      0x00\n        /* \"#utility.yul\":12808:12817   */\n      dup4\n        /* \"#utility.yul\":12804:12821   */\n      add\n        /* \"#utility.yul\":12795:12801   */\n      dup5\n        /* \"#utility.yul\":12751:12822   */\n      tag_280\n      jump\t// in\n    tag_376:\n        /* \"#utility.yul\":12607:12829   */\n      swap3\n      swap2\n      pop\n      pop\n      jump\t// out\n        /* \"#utility.yul\":12835:13057   */\n    tag_34:\n        /* \"#utility.yul\":12928:12932   */\n      0x00\n        /* \"#utility.yul\":12966:12968   */\n      0x20\n        /* \"#utility.yul\":12955:12964   */\n      dup3\n        /* \"#utility.yul\":12951:12969   */\n      add\n        /* \"#utility.yul\":12943:12969   */\n      swap1\n      pop\n        /* \"#utility.yul\":12979:13050   */\n      tag_378\n        /* \"#utility.yul\":13047:13048   */\n      0x00\n        /* \"#utility.yul\":13036:13045   */\n      dup4\n        /* \"#utility.yul\":13032:13049   */\n      add\n        /* \"#utility.yul\":13023:13029   */\n      dup5\n        /* \"#utility.yul\":12979:13050   */\n      tag_292\n      jump\t// in\n    tag_378:\n        /* \"#utility.yul\":12835:13057   */\n      swap3\n      swap2\n      pop\n      pop\n      jump\t// out\n        /* \"#utility.yul\":13063:13482   */\n    tag_176:\n        /* \"#utility.yul\":13229:13233   */\n      0x00\n        /* \"#utility.yul\":13267:13269   */\n      0x20\n        /* \"#utility.yul\":13256:13265   */\n      dup3\n        /* \"#utility.yul\":13252:13270   */\n      add\n        /* \"#utility.yul\":13244:13270   */\n      swap1\n      pop\n        /* \"#utility.yul\":13316:13325   */\n      dup2\n        /* \"#utility.yul\":13310:13314   */\n      dup2\n        /* \"#utility.yul\":13306:13326   */\n      sub\n        /* \"#utility.yul\":13302:13303   */\n      0x00\n        /* \"#utility.yul\":13291:13300   */\n      dup4\n        /* \"#utility.yul\":13287:13304   */\n      add\n        /* \"#utility.yul\":13280:13327   */\n      mstore\n        /* \"#utility.yul\":13344:13475   */\n      tag_380\n        /* \"#utility.yul\":13470:13474   */\n      dup2\n        /* \"#utility.yul\":13344:13475   */\n      tag_307\n      jump\t// in\n    tag_380:\n        /* \"#utility.yul\":13336:13475   */\n      swap1\n      pop\n        /* \"#utility.yul\":13063:13482   */\n      swap2\n      swap1\n      pop\n      jump\t// out\n        /* \"#utility.yul\":13488:13907   */\n    tag_148:\n        /* \"#utility.yul\":13654:13658   */\n      0x00\n        /* \"#utility.yul\":13692:13694   */\n      0x20\n        /* \"#utility.yul\":13681:13690   */\n      dup3\n        /* \"#utility.yul\":13677:13695   */\n      add\n        /* \"#utility.yul\":13669:13695   */\n      swap1\n      pop\n        /* \"#utility.yul\":13741:13750   */\n      dup2\n        /* \"#utility.yul\":13735:13739   */\n      dup2\n        /* \"#utility.yul\":13731:13751   */\n      sub\n        /* \"#utility.yul\":13727:13728   */\n      0x00\n        /* \"#utility.yul\":13716:13725   */\n      dup4\n        /* \"#utility.yul\":13712:13729   */\n      add\n        /* \"#utility.yul\":13705:13752   */\n      mstore\n        /* \"#utility.yul\":13769:13900   */\n      tag_382\n        /* \"#utility.yul\":13895:13899   */\n      dup2\n        /* \"#utility.yul\":13769:13900   */\n      tag_313\n      jump\t// in\n    tag_382:\n        /* \"#utility.yul\":13761:13900   */\n      swap1\n      pop\n        /* \"#utility.yul\":13488:13907   */\n      swap2\n      swap1\n      pop\n      jump\t// out\n        /* \"#utility.yul\":13913:14332   */\n    tag_152:\n        /* \"#utility.yul\":14079:14083   */\n      0x00\n        /* \"#utility.yul\":14117:14119   */\n      0x20\n        /* \"#utility.yul\":14106:14115   */\n      dup3\n        /* \"#utility.yul\":14102:14120   */\n      add\n        /* \"#utility.yul\":14094:14120   */\n      swap1\n      pop\n        /* \"#utility.yul\":14166:14175   */\n      dup2\n        /* \"#utility.yul\":14160:14164   */\n      dup2\n        /* \"#utility.yul\":14156:14176   */\n      sub\n        /* \"#utility.yul\":14152:14153   */\n      0x00\n        /* \"#utility.yul\":14141:14150   */\n      dup4\n        /* \"#utility.yul\":14137:14154   */\n      add\n        /* \"#utility.yul\":14130:14177   */\n      mstore\n        /* \"#utility.yul\":14194:14325   */\n      tag_384\n        /* \"#utility.yul\":14320:14324   */\n      dup2\n        /* \"#utility.yul\":14194:14325   */\n      tag_318\n      jump\t// in\n    tag_384:\n        /* \"#utility.yul\":14186:14325   */\n      swap1\n      pop\n        /* \"#utility.yul\":13913:14332   */\n      swap2\n      swap1\n      pop\n      jump\t// out\n        /* \"#utility.yul\":14338:14757   */\n    tag_80:\n        /* \"#utility.yul\":14504:14508   */\n      0x00\n        /* \"#utility.yul\":14542:14544   */\n      0x20\n        /* \"#utility.yul\":14531:14540   */\n      dup3\n        /* \"#utility.yul\":14527:14545   */\n      add\n        /* \"#utility.yul\":14519:14545   */\n      swap1\n      pop\n        /* \"#utility.yul\":14591:14600   */\n      dup2\n        /* \"#utility.yul\":14585:14589   */\n      dup2\n        /* \"#utility.yul\":14581:14601   */\n      sub\n        /* \"#utility.yul\":14577:14578   */\n      0x00\n        /* \"#utility.yul\":14566:14575   */\n      dup4\n        /* \"#utility.yul\":14562:14579   */\n      add\n        /* \"#utility.yul\":14555:14602   */\n      mstore\n        /* \"#utility.yul\":14619:14750   */\n      tag_386\n        /* \"#utility.yul\":14745:14749   */\n      dup2\n        /* \"#utility.yul\":14619:14750   */\n      tag_323\n      jump\t// in\n    tag_386:\n        /* \"#utility.yul\":14611:14750   */\n      swap1\n      pop\n        /* \"#utility.yul\":14338:14757   */\n      swap2\n      swap1\n      pop\n      jump\t// out\n        /* \"#utility.yul\":14763:15182   */\n    tag_112:\n        /* \"#utility.yul\":14929:14933   */\n      0x00\n        /* \"#utility.yul\":14967:14969   */\n      0x20\n        /* \"#utility.yul\":14956:14965   */\n      dup3\n        /* \"#utility.yul\":14952:14970   */\n      add\n        /* \"#utility.yul\":14944:14970   */\n      swap1\n      pop\n        /* \"#utility.yul\":15016:15025   */\n      dup2\n        /* \"#utility.yul\":15010:15014   */\n      dup2\n        /* \"#utility.yul\":15006:15026   */\n      sub\n        /* \"#utility.yul\":15002:15003   */\n      0x00\n        /* \"#utility.yul\":14991:15000   */\n      dup4\n        /* \"#utility.yul\":14987:15004   */\n      add\n        /* \"#utility.yul\":14980:15027   */\n      mstore\n        /* \"#utility.yul\":15044:15175   */\n      tag_388\n        /* \"#utility.yul\":15170:15174   */\n      dup2\n        /* \"#utility.yul\":15044:15175   */\n      tag_328\n      jump\t// in\n    tag_388:\n        /* \"#utility.yul\":15036:15175   */\n      swap1\n      pop\n        /* \"#utility.yul\":14763:15182   */\n      swap2\n      swap1\n      pop\n      jump\t// out\n        /* \"#utility.yul\":15188:15607   */\n    tag_125:\n        /* \"#utility.yul\":15354:15358   */\n      0x00\n        /* \"#utility.yul\":15392:15394   */\n      0x20\n        /* \"#utility.yul\":15381:15390   */\n      dup3\n        /* \"#utility.yul\":15377:15395   */\n      add\n        /* \"#utility.yul\":15369:15395   */\n      swap1\n      pop\n        /* \"#utility.yul\":15441:15450   */\n      dup2\n        /* \"#utility.yul\":15435:15439   */\n      dup2\n        /* \"#utility.yul\":15431:15451   */\n      sub\n        /* \"#utility.yul\":15427:15428   */\n      0x00\n        /* \"#utility.yul\":15416:15425   */\n      dup4\n        /* \"#utility.yul\":15412:15429   */\n      add\n        /* \"#utility.yul\":15405:15452   */\n      mstore\n        /* \"#utility.yul\":15469:15600   */\n      tag_390\n        /* \"#utility.yul\":15595:15599   */\n      dup2\n        /* \"#utility.yul\":15469:15600   */\n      tag_333\n      jump\t// in\n    tag_390:\n        /* \"#utility.yul\":15461:15600   */\n      swap1\n      pop\n        /* \"#utility.yul\":15188:15607   */\n      swap2\n      swap1\n      pop\n      jump\t// out\n        /* \"#utility.yul\":15613:16032   */\n    tag_159:\n        /* \"#utility.yul\":15779:15783   */\n      0x00\n        /* \"#utility.yul\":15817:15819   */\n      0x20\n        /* \"#utility.yul\":15806:15815   */\n      dup3\n        /* \"#utility.yul\":15802:15820   */\n      add\n        /* \"#utility.yul\":15794:15820   */\n      swap1\n      pop\n        /* \"#utility.yul\":15866:15875   */\n      dup2\n        /* \"#utility.yul\":15860:15864   */\n      dup2\n        /* \"#utility.yul\":15856:15876   */\n      sub\n        /* \"#utility.yul\":15852:15853   */\n      0x00\n        /* \"#utility.yul\":15841:15850   */\n      dup4\n        /* \"#utility.yul\":15837:15854   */\n      add\n        /* \"#utility.yul\":15830:15877   */\n      mstore\n        /* \"#utility.yul\":15894:16025   */\n      tag_392\n        /* \"#utility.yul\":16020:16024   */\n      dup2\n        /* \"#utility.yul\":15894:16025   */\n      tag_338\n      jump\t// in\n    tag_392:\n        /* \"#utility.yul\":15886:16025   */\n      swap1\n      pop\n        /* \"#utility.yul\":15613:16032   */\n      swap2\n      swap1\n      pop\n      jump\t// out\n        /* \"#utility.yul\":16038:16457   */\n    tag_121:\n        /* \"#utility.yul\":16204:16208   */\n      0x00\n        /* \"#utility.yul\":16242:16244   */\n      0x20\n        /* \"#utility.yul\":16231:16240   */\n      dup3\n        /* \"#utility.yul\":16227:16245   */\n      add\n        /* \"#utility.yul\":16219:16245   */\n      swap1\n      pop\n        /* \"#utility.yul\":16291:16300   */\n      dup2\n        /* \"#utility.yul\":16285:16289   */\n      dup2\n        /* \"#utility.yul\":16281:16301   */\n      sub\n        /* \"#utility.yul\":16277:16278   */\n      0x00\n        /* \"#utility.yul\":16266:16275   */\n      dup4\n        /* \"#utility.yul\":16262:16279   */\n      add\n        /* \"#utility.yul\":16255:16302   */\n      mstore\n        /* \"#utility.yul\":16319:16450   */\n      tag_394\n        /* \"#utility.yul\":16445:16449   */\n      dup2\n        /* \"#utility.yul\":16319:16450   */\n      tag_343\n      jump\t// in\n    tag_394:\n        /* \"#utility.yul\":16311:16450   */\n      swap1\n      pop\n        /* \"#utility.yul\":16038:16457   */\n      swap2\n      swap1\n      pop\n      jump\t// out\n        /* \"#utility.yul\":16463:16782   */\n    tag_20:\n        /* \"#utility.yul\":16604:16608   */\n      0x00\n        /* \"#utility.yul\":16642:16645   */\n      0xa0\n        /* \"#utility.yul\":16631:16640   */\n      dup3\n        /* \"#utility.yul\":16627:16646   */\n      add\n        /* \"#utility.yul\":16619:16646   */\n      swap1\n      pop\n        /* \"#utility.yul\":16656:16775   */\n      tag_396\n        /* \"#utility.yul\":16772:16773   */\n      0x00\n        /* \"#utility.yul\":16761:16770   */\n      dup4\n        /* \"#utility.yul\":16757:16774   */\n      add\n        /* \"#utility.yul\":16748:16754   */\n      dup5\n        /* \"#utility.yul\":16656:16775   */\n      tag_348\n      jump\t// in\n    tag_396:\n        /* \"#utility.yul\":16463:16782   */\n      swap3\n      swap2\n      pop\n      pop\n      jump\t// out\n        /* \"#utility.yul\":16788:17010   */\n    tag_134:\n        /* \"#utility.yul\":16881:16885   */\n      0x00\n        /* \"#utility.yul\":16919:16921   */\n      0x20\n        /* \"#utility.yul\":16908:16917   */\n      dup3\n        /* \"#utility.yul\":16904:16922   */\n      add\n        /* \"#utility.yul\":16896:16922   */\n      swap1\n      pop\n        /* \"#utility.yul\":16932:17003   */\n      tag_398\n        /* \"#utility.yul\":17000:17001   */\n      0x00\n        /* \"#utility.yul\":16989:16998   */\n      dup4\n        /* \"#utility.yul\":16985:17002   */\n      add\n        /* \"#utility.yul\":16976:16982   */\n      dup5\n        /* \"#utility.yul\":16932:17003   */\n      tag_359\n      jump\t// in\n    tag_398:\n        /* \"#utility.yul\":16788:17010   */\n      swap3\n      swap2\n      pop\n      pop\n      jump\t// out\n        /* \"#utility.yul\":17016:17145   */\n    tag_199:\n        /* \"#utility.yul\":17050:17056   */\n      0x00\n        /* \"#utility.yul\":17077:17097   */\n      tag_400\n      tag_401\n      jump\t// in\n    tag_400:\n        /* \"#utility.yul\":17067:17097   */\n      swap1\n      pop\n        /* \"#utility.yul\":17106:17139   */\n      tag_402\n        /* \"#utility.yul\":17134:17138   */\n      dup3\n        /* \"#utility.yul\":17126:17132   */\n      dup3\n        /* \"#utility.yul\":17106:17139   */\n      tag_403\n      jump\t// in\n    tag_402:\n        /* \"#utility.yul\":17016:17145   */\n      swap2\n      swap1\n      pop\n      jump\t// out\n        /* \"#utility.yul\":17151:17226   */\n    tag_401:\n        /* \"#utility.yul\":17184:17190   */\n      0x00\n        /* \"#utility.yul\":17217:17219   */\n      0x40\n        /* \"#utility.yul\":17211:17220   */\n      mload\n        /* \"#utility.yul\":17201:17220   */\n      swap1\n      pop\n        /* \"#utility.yul\":17151:17226   */\n      swap1\n      jump\t// out\n        /* \"#utility.yul\":17232:17540   */\n    tag_198:\n        /* \"#utility.yul\":17294:17298   */\n      0x00\n        /* \"#utility.yul\":17384:17402   */\n      0xffffffffffffffff\n        /* \"#utility.yul\":17376:17382   */\n      dup3\n        /* \"#utility.yul\":17373:17403   */\n      gt\n        /* \"#utility.yul\":17370:17426   */\n      iszero\n      tag_406\n      jumpi\n        /* \"#utility.yul\":17406:17424   */\n      tag_407\n      tag_408\n      jump\t// in\n    tag_407:\n        /* \"#utility.yul\":17370:17426   */\n    tag_406:\n        /* \"#utility.yul\":17444:17473   */\n      tag_409\n        /* \"#utility.yul\":17466:17472   */\n      dup3\n        /* \"#utility.yul\":17444:17473   */\n      tag_410\n      jump\t// in\n    tag_409:\n        /* \"#utility.yul\":17436:17473   */\n      swap1\n      pop\n        /* \"#utility.yul\":17528:17532   */\n      0x20\n        /* \"#utility.yul\":17522:17526   */\n      dup2\n        /* \"#utility.yul\":17518:17533   */\n      add\n        /* \"#utility.yul\":17510:17533   */\n      swap1\n      pop\n        /* \"#utility.yul\":17232:17540   */\n      swap2\n      swap1\n      pop\n      jump\t// out\n        /* \"#utility.yul\":17546:17645   */\n    tag_302:\n        /* \"#utility.yul\":17598:17604   */\n      0x00\n        /* \"#utility.yul\":17632:17637   */\n      dup2\n        /* \"#utility.yul\":17626:17638   */\n      mload\n        /* \"#utility.yul\":17616:17638   */\n      swap1\n      pop\n        /* \"#utility.yul\":17546:17645   */\n      swap2\n      swap1\n      pop\n      jump\t// out\n        /* \"#utility.yul\":17651:17820   */\n    tag_310:\n        /* \"#utility.yul\":17735:17746   */\n      0x00\n        /* \"#utility.yul\":17769:17775   */\n      dup3\n        /* \"#utility.yul\":17764:17767   */\n      dup3\n        /* \"#utility.yul\":17757:17776   */\n      mstore\n        /* \"#utility.yul\":17809:17813   */\n      0x20\n        /* \"#utility.yul\":17804:17807   */\n      dup3\n        /* \"#utility.yul\":17800:17814   */\n      add\n        /* \"#utility.yul\":17785:17814   */\n      swap1\n      pop\n        /* \"#utility.yul\":17651:17820   */\n      swap3\n      swap2\n      pop\n      pop\n      jump\t// out\n        /* \"#utility.yul\":17826:17974   */\n    tag_304:\n        /* \"#utility.yul\":17928:17939   */\n      0x00\n        /* \"#utility.yul\":17965:17968   */\n      dup2\n        /* \"#utility.yul\":17950:17968   */\n      swap1\n      pop\n        /* \"#utility.yul\":17826:17974   */\n      swap3\n      swap2\n      pop\n      pop\n      jump\t// out\n        /* \"#utility.yul\":17980:18076   */\n    tag_279:\n        /* \"#utility.yul\":18017:18024   */\n      0x00\n        /* \"#utility.yul\":18046:18070   */\n      tag_415\n        /* \"#utility.yul\":18064:18069   */\n      dup3\n        /* \"#utility.yul\":18046:18070   */\n      tag_416\n      jump\t// in\n    tag_415:\n        /* \"#utility.yul\":18035:18070   */\n      swap1\n      pop\n        /* \"#utility.yul\":17980:18076   */\n      swap2\n      swap1\n      pop\n      jump\t// out\n        /* \"#utility.yul\":18082:18172   */\n    tag_417:\n        /* \"#utility.yul\":18116:18123   */\n      0x00\n        /* \"#utility.yul\":18159:18164   */\n      dup2\n        /* \"#utility.yul\":18152:18165   */\n      iszero\n        /* \"#utility.yul\":18145:18166   */\n      iszero\n        /* \"#utility.yul\":18134:18166   */\n      swap1\n      pop\n        /* \"#utility.yul\":18082:18172   */\n      swap2\n      swap1\n      pop\n      jump\t// out\n        /* \"#utility.yul\":18178:18255   */\n    tag_291:\n        /* \"#utility.yul\":18215:18222   */\n      0x00\n        /* \"#utility.yul\":18244:18249   */\n      dup2\n        /* \"#utility.yul\":18233:18249   */\n      swap1\n      pop\n        /* \"#utility.yul\":18178:18255   */\n      swap2\n      swap1\n      pop\n      jump\t// out\n        /* \"#utility.yul\":18261:18392   */\n    tag_420:\n        /* \"#utility.yul\":18308:18315   */\n      0x00\n        /* \"#utility.yul\":18337:18342   */\n      dup2\n        /* \"#utility.yul\":18326:18342   */\n      swap1\n      pop\n        /* \"#utility.yul\":18343:18386   */\n      tag_422\n        /* \"#utility.yul\":18380:18385   */\n      dup3\n        /* \"#utility.yul\":18343:18386   */\n      tag_423\n      jump\t// in\n    tag_422:\n        /* \"#utility.yul\":18261:18392   */\n      swap2\n      swap1\n      pop\n      jump\t// out\n        /* \"#utility.yul\":18398:18524   */\n    tag_416:\n        /* \"#utility.yul\":18435:18442   */\n      0x00\n        /* \"#utility.yul\":18475:18517   */\n      0xffffffffffffffffffffffffffffffffffffffff\n        /* \"#utility.yul\":18468:18473   */\n      dup3\n        /* \"#utility.yul\":18464:18518   */\n      and\n        /* \"#utility.yul\":18453:18518   */\n      swap1\n      pop\n        /* \"#utility.yul\":18398:18524   */\n      swap2\n      swap1\n      pop\n      jump\t// out\n        /* \"#utility.yul\":18530:18607   */\n    tag_358:\n        /* \"#utility.yul\":18567:18574   */\n      0x00\n        /* \"#utility.yul\":18596:18601   */\n      dup2\n        /* \"#utility.yul\":18585:18601   */\n      swap1\n      pop\n        /* \"#utility.yul\":18530:18607   */\n      swap2\n      swap1\n      pop\n      jump\t// out\n        /* \"#utility.yul\":18613:18744   */\n    tag_298:\n        /* \"#utility.yul\":18671:18680   */\n      0x00\n        /* \"#utility.yul\":18704:18738   */\n      tag_427\n        /* \"#utility.yul\":18732:18737   */\n      dup3\n        /* \"#utility.yul\":18704:18738   */\n      tag_420\n      jump\t// in\n    tag_427:\n        /* \"#utility.yul\":18691:18738   */\n      swap1\n      pop\n        /* \"#utility.yul\":18613:18744   */\n      swap2\n      swap1\n      pop\n      jump\t// out\n        /* \"#utility.yul\":18750:18904   */\n    tag_204:\n        /* \"#utility.yul\":18834:18840   */\n      dup3\n        /* \"#utility.yul\":18829:18832   */\n      dup2\n        /* \"#utility.yul\":18824:18827   */\n      dup4\n        /* \"#utility.yul\":18811:18841   */\n      calldatacopy\n        /* \"#utility.yul\":18896:18897   */\n      0x00\n        /* \"#utility.yul\":18887:18893   */\n      dup4\n        /* \"#utility.yul\":18882:18885   */\n      dup4\n        /* \"#utility.yul\":18878:18894   */\n      add\n        /* \"#utility.yul\":18871:18898   */\n      mstore\n        /* \"#utility.yul\":18750:18904   */\n      pop\n      pop\n      pop\n      jump\t// out\n        /* \"#utility.yul\":18910:19217   */\n    tag_306:\n        /* \"#utility.yul\":18978:18979   */\n      0x00\n        /* \"#utility.yul\":18988:19101   */\n    tag_430:\n        /* \"#utility.yul\":19002:19008   */\n      dup4\n        /* \"#utility.yul\":18999:19000   */\n      dup2\n        /* \"#utility.yul\":18996:19009   */\n      lt\n        /* \"#utility.yul\":18988:19101   */\n      iszero\n      tag_432\n      jumpi\n        /* \"#utility.yul\":19087:19088   */\n      dup1\n        /* \"#utility.yul\":19082:19085   */\n      dup3\n        /* \"#utility.yul\":19078:19089   */\n      add\n        /* \"#utility.yul\":19072:19090   */\n      mload\n        /* \"#utility.yul\":19068:19069   */\n      dup2\n        /* \"#utility.yul\":19063:19066   */\n      dup5\n        /* \"#utility.yul\":19059:19070   */\n      add\n        /* \"#utility.yul\":19052:19091   */\n      mstore\n        /* \"#utility.yul\":19024:19026   */\n      0x20\n        /* \"#utility.yul\":19021:19022   */\n      dup2\n        /* \"#utility.yul\":19017:19027   */\n      add\n        /* \"#utility.yul\":19012:19027   */\n      swap1\n      pop\n        /* \"#utility.yul\":18988:19101   */\n      jump(tag_430)\n    tag_432:\n        /* \"#utility.yul\":19119:19125   */\n      dup4\n        /* \"#utility.yul\":19116:19117   */\n      dup2\n        /* \"#utility.yul\":19113:19126   */\n      gt\n        /* \"#utility.yul\":19110:19211   */\n      iszero\n      tag_433\n      jumpi\n        /* \"#utility.yul\":19199:19200   */\n      0x00\n        /* \"#utility.yul\":19190:19196   */\n      dup5\n        /* \"#utility.yul\":19185:19188   */\n      dup5\n        /* \"#utility.yul\":19181:19197   */\n      add\n        /* \"#utility.yul\":19174:19201   */\n      mstore\n        /* \"#utility.yul\":19110:19211   */\n    tag_433:\n        /* \"#utility.yul\":18959:19217   */\n      pop\n        /* \"#utility.yul\":18910:19217   */\n      pop\n      pop\n      pop\n      jump\t// out\n        /* \"#utility.yul\":19223:19504   */\n    tag_403:\n        /* \"#utility.yul\":19306:19333   */\n      tag_435\n        /* \"#utility.yul\":19328:19332   */\n      dup3\n        /* \"#utility.yul\":19306:19333   */\n      tag_410\n      jump\t// in\n    tag_435:\n        /* \"#utility.yul\":19298:19304   */\n      dup2\n        /* \"#utility.yul\":19294:19334   */\n      add\n        /* \"#utility.yul\":19436:19442   */\n      dup2\n        /* \"#utility.yul\":19424:19434   */\n      dup2\n        /* \"#utility.yul\":19421:19443   */\n      lt\n        /* \"#utility.yul\":19400:19418   */\n      0xffffffffffffffff\n        /* \"#utility.yul\":19388:19398   */\n      dup3\n        /* \"#utility.yul\":19385:19419   */\n      gt\n        /* \"#utility.yul\":19382:19444   */\n      or\n        /* \"#utility.yul\":19379:19467   */\n      iszero\n      tag_436\n      jumpi\n        /* \"#utility.yul\":19447:19465   */\n      tag_437\n      tag_408\n      jump\t// in\n    tag_437:\n        /* \"#utility.yul\":19379:19467   */\n    tag_436:\n        /* \"#utility.yul\":19487:19497   */\n      dup1\n        /* \"#utility.yul\":19483:19485   */\n      0x40\n        /* \"#utility.yul\":19476:19498   */\n      mstore\n        /* \"#utility.yul\":19266:19504   */\n      pop\n        /* \"#utility.yul\":19223:19504   */\n      pop\n      pop\n      jump\t// out\n        /* \"#utility.yul\":19510:19610   */\n    tag_287:\n        /* \"#utility.yul\":19549:19556   */\n      0x00\n        /* \"#utility.yul\":19578:19604   */\n      tag_439\n        /* \"#utility.yul\":19598:19603   */\n      dup3\n        /* \"#utility.yul\":19578:19604   */\n      tag_440\n      jump\t// in\n    tag_439:\n        /* \"#utility.yul\":19567:19604   */\n      swap1\n      pop\n        /* \"#utility.yul\":19510:19610   */\n      swap2\n      swap1\n      pop\n      jump\t// out\n        /* \"#utility.yul\":19616:19710   */\n    tag_440:\n        /* \"#utility.yul\":19655:19662   */\n      0x00\n        /* \"#utility.yul\":19684:19704   */\n      tag_442\n        /* \"#utility.yul\":19698:19703   */\n      dup3\n        /* \"#utility.yul\":19684:19704   */\n      tag_443\n      jump\t// in\n    tag_442:\n        /* \"#utility.yul\":19673:19704   */\n      swap1\n      pop\n        /* \"#utility.yul\":19616:19710   */\n      swap2\n      swap1\n      pop\n      jump\t// out\n        /* \"#utility.yul\":19716:19795   */\n    tag_366:\n        /* \"#utility.yul\":19755:19762   */\n      0x00\n        /* \"#utility.yul\":19784:19789   */\n      dup2\n        /* \"#utility.yul\":19773:19789   */\n      swap1\n      pop\n        /* \"#utility.yul\":19716:19795   */\n      swap2\n      swap1\n      pop\n      jump\t// out\n        /* \"#utility.yul\":19801:19981   */\n    tag_71:\n        /* \"#utility.yul\":19849:19926   */\n      0x4e487b7100000000000000000000000000000000000000000000000000000000\n        /* \"#utility.yul\":19846:19847   */\n      0x00\n        /* \"#utility.yul\":19839:19927   */\n      mstore\n        /* \"#utility.yul\":19946:19950   */\n      0x21\n        /* \"#utility.yul\":19943:19944   */\n      0x04\n        /* \"#utility.yul\":19936:19951   */\n      mstore\n        /* \"#utility.yul\":19970:19974   */\n      0x24\n        /* \"#utility.yul\":19967:19968   */\n      0x00\n        /* \"#utility.yul\":19960:19975   */\n      revert\n        /* \"#utility.yul\":19987:20167   */\n    tag_67:\n        /* \"#utility.yul\":20035:20112   */\n      0x4e487b7100000000000000000000000000000000000000000000000000000000\n        /* \"#utility.yul\":20032:20033   */\n      0x00\n        /* \"#utility.yul\":20025:20113   */\n      mstore\n        /* \"#utility.yul\":20132:20136   */\n      0x32\n        /* \"#utility.yul\":20129:20130   */\n      0x04\n        /* \"#utility.yul\":20122:20137   */\n      mstore\n        /* \"#utility.yul\":20156:20160   */\n      0x24\n        /* \"#utility.yul\":20153:20154   */\n      0x00\n        /* \"#utility.yul\":20146:20161   */\n      revert\n        /* \"#utility.yul\":20173:20353   */\n    tag_408:\n        /* \"#utility.yul\":20221:20298   */\n      0x4e487b7100000000000000000000000000000000000000000000000000000000\n        /* \"#utility.yul\":20218:20219   */\n      0x00\n        /* \"#utility.yul\":20211:20299   */\n      mstore\n        /* \"#utility.yul\":20318:20322   */\n      0x41\n        /* \"#utility.yul\":20315:20316   */\n      0x04\n        /* \"#utility.yul\":20308:20323   */\n      mstore\n        /* \"#utility.yul\":20342:20346   */\n      0x24\n        /* \"#utility.yul\":20339:20340   */\n      0x00\n        /* \"#utility.yul\":20332:20347   */\n      revert\n        /* \"#utility.yul\":20359:20476   */\n    tag_221:\n        /* \"#utility.yul\":20468:20469   */\n      0x00\n        /* \"#utility.yul\":20465:20466   */\n      dup1\n        /* \"#utility.yul\":20458:20470   */\n      revert\n        /* \"#utility.yul\":20482:20599   */\n    tag_202:\n        /* \"#utility.yul\":20591:20592   */\n      0x00\n        /* \"#utility.yul\":20588:20589   */\n      dup1\n        /* \"#utility.yul\":20581:20593   */\n      revert\n        /* \"#utility.yul\":20605:20722   */\n    tag_274:\n        /* \"#utility.yul\":20714:20715   */\n      0x00\n        /* \"#utility.yul\":20711:20712   */\n      dup1\n        /* \"#utility.yul\":20704:20716   */\n      revert\n        /* \"#utility.yul\":20728:20845   */\n    tag_230:\n        /* \"#utility.yul\":20837:20838   */\n      0x00\n        /* \"#utility.yul\":20834:20835   */\n      dup1\n        /* \"#utility.yul\":20827:20839   */\n      revert\n        /* \"#utility.yul\":20851:20953   */\n    tag_410:\n        /* \"#utility.yul\":20892:20898   */\n      0x00\n        /* \"#utility.yul\":20943:20945   */\n      0x1f\n        /* \"#utility.yul\":20939:20946   */\n      not\n        /* \"#utility.yul\":20934:20936   */\n      0x1f\n        /* \"#utility.yul\":20927:20932   */\n      dup4\n        /* \"#utility.yul\":20923:20937   */\n      add\n        /* \"#utility.yul\":20919:20947   */\n      and\n        /* \"#utility.yul\":20909:20947   */\n      swap1\n      pop\n        /* \"#utility.yul\":20851:20953   */\n      swap2\n      swap1\n      pop\n      jump\t// out\n        /* \"#utility.yul\":20959:21053   */\n    tag_443:\n        /* \"#utility.yul\":20992:21000   */\n      0x00\n        /* \"#utility.yul\":21040:21045   */\n      dup2\n        /* \"#utility.yul\":21036:21038   */\n      0x60\n        /* \"#utility.yul\":21032:21046   */\n      shl\n        /* \"#utility.yul\":21011:21046   */\n      swap1\n      pop\n        /* \"#utility.yul\":20959:21053   */\n      swap2\n      swap1\n      pop\n      jump\t// out\n        /* \"#utility.yul\":21059:21284   */\n    tag_312:\n        /* \"#utility.yul\":21199:21233   */\n      0x4f776e61626c653a206e6577206f776e657220697320746865207a65726f2061\n        /* \"#utility.yul\":21195:21196   */\n      0x00\n        /* \"#utility.yul\":21187:21193   */\n      dup3\n        /* \"#utility.yul\":21183:21197   */\n      add\n        /* \"#utility.yul\":21176:21234   */\n      mstore\n        /* \"#utility.yul\":21268:21276   */\n      0x6464726573730000000000000000000000000000000000000000000000000000\n        /* \"#utility.yul\":21263:21265   */\n      0x20\n        /* \"#utility.yul\":21255:21261   */\n      dup3\n        /* \"#utility.yul\":21251:21266   */\n      add\n        /* \"#utility.yul\":21244:21277   */\n      mstore\n        /* \"#utility.yul\":21059:21284   */\n      pop\n      jump\t// out\n        /* \"#utility.yul\":21290:21525   */\n    tag_317:\n        /* \"#utility.yul\":21430:21464   */\n      0x5468657265206973206e6f2070617469656e7420726567697374657265642077\n        /* \"#utility.yul\":21426:21427   */\n      0x00\n        /* \"#utility.yul\":21418:21424   */\n      dup3\n        /* \"#utility.yul\":21414:21428   */\n      add\n        /* \"#utility.yul\":21407:21465   */\n      mstore\n        /* \"#utility.yul\":21499:21517   */\n      0x6974682074686973206164647265737300000000000000000000000000000000\n        /* \"#utility.yul\":21494:21496   */\n      0x20\n        /* \"#utility.yul\":21486:21492   */\n      dup3\n        /* \"#utility.yul\":21482:21497   */\n      add\n        /* \"#utility.yul\":21475:21518   */\n      mstore\n        /* \"#utility.yul\":21290:21525   */\n      pop\n      jump\t// out\n        /* \"#utility.yul\":21531:21700   */\n    tag_322:\n        /* \"#utility.yul\":21671:21692   */\n      0x496e766f6963652063616e277420666f756e6400000000000000000000000000\n        /* \"#utility.yul\":21667:21668   */\n      0x00\n        /* \"#utility.yul\":21659:21665   */\n      dup3\n        /* \"#utility.yul\":21655:21669   */\n      add\n        /* \"#utility.yul\":21648:21693   */\n      mstore\n        /* \"#utility.yul\":21531:21700   */\n      pop\n      jump\t// out\n        /* \"#utility.yul\":21706:21888   */\n    tag_327:\n        /* \"#utility.yul\":21846:21880   */\n      0x4f776e61626c653a2063616c6c6572206973206e6f7420746865206f776e6572\n        /* \"#utility.yul\":21842:21843   */\n      0x00\n        /* \"#utility.yul\":21834:21840   */\n      dup3\n        /* \"#utility.yul\":21830:21844   */\n      add\n        /* \"#utility.yul\":21823:21881   */\n      mstore\n        /* \"#utility.yul\":21706:21888   */\n      pop\n      jump\t// out\n        /* \"#utility.yul\":21894:22121   */\n    tag_332:\n        /* \"#utility.yul\":22034:22068   */\n      0x4f6e6c7920636c696e6963732063616e20706572666f726d2074686973206f70\n        /* \"#utility.yul\":22030:22031   */\n      0x00\n        /* \"#utility.yul\":22022:22028   */\n      dup3\n        /* \"#utility.yul\":22018:22032   */\n      add\n        /* \"#utility.yul\":22011:22069   */\n      mstore\n        /* \"#utility.yul\":22103:22113   */\n      0x65726174696f6e73000000000000000000000000000000000000000000000000\n        /* \"#utility.yul\":22098:22100   */\n      0x20\n        /* \"#utility.yul\":22090:22096   */\n      dup3\n        /* \"#utility.yul\":22086:22101   */\n      add\n        /* \"#utility.yul\":22079:22114   */\n      mstore\n        /* \"#utility.yul\":21894:22121   */\n      pop\n      jump\t// out\n        /* \"#utility.yul\":22127:22350   */\n    tag_337:\n        /* \"#utility.yul\":22267:22301   */\n      0x50617469656e742063616e27742062652063686172676564207468697320616d\n        /* \"#utility.yul\":22263:22264   */\n      0x00\n        /* \"#utility.yul\":22255:22261   */\n      dup3\n        /* \"#utility.yul\":22251:22265   */\n      add\n        /* \"#utility.yul\":22244:22302   */\n      mstore\n        /* \"#utility.yul\":22336:22342   */\n      0x6f756e7400000000000000000000000000000000000000000000000000000000\n        /* \"#utility.yul\":22331:22333   */\n      0x20\n        /* \"#utility.yul\":22323:22329   */\n      dup3\n        /* \"#utility.yul\":22319:22334   */\n      add\n        /* \"#utility.yul\":22312:22343   */\n      mstore\n        /* \"#utility.yul\":22127:22350   */\n      pop\n      jump\t// out\n        /* \"#utility.yul\":22356:22531   */\n    tag_342:\n        /* \"#utility.yul\":22496:22523   */\n      0x496e766f6963652063616e277420626520616363657074656400000000000000\n        /* \"#utility.yul\":22492:22493   */\n      0x00\n        /* \"#utility.yul\":22484:22490   */\n      dup3\n        /* \"#utility.yul\":22480:22494   */\n      add\n        /* \"#utility.yul\":22473:22524   */\n      mstore\n        /* \"#utility.yul\":22356:22531   */\n      pop\n      jump\t// out\n        /* \"#utility.yul\":22537:22766   */\n    tag_347:\n        /* \"#utility.yul\":22677:22711   */\n      0x50617469656e742063616e2774206265206368617267656420666f7220746869\n        /* \"#utility.yul\":22673:22674   */\n      0x00\n        /* \"#utility.yul\":22665:22671   */\n      dup3\n        /* \"#utility.yul\":22661:22675   */\n      add\n        /* \"#utility.yul\":22654:22712   */\n      mstore\n        /* \"#utility.yul\":22746:22758   */\n      0x732063617465676f727900000000000000000000000000000000000000000000\n        /* \"#utility.yul\":22741:22743   */\n      0x20\n        /* \"#utility.yul\":22733:22739   */\n      dup3\n        /* \"#utility.yul\":22729:22744   */\n      add\n        /* \"#utility.yul\":22722:22759   */\n      mstore\n        /* \"#utility.yul\":22537:22766   */\n      pop\n      jump\t// out\n        /* \"#utility.yul\":22772:22887   */\n    tag_423:\n        /* \"#utility.yul\":22855:22856   */\n      0x03\n        /* \"#utility.yul\":22848:22853   */\n      dup2\n        /* \"#utility.yul\":22845:22857   */\n      lt\n        /* \"#utility.yul\":22835:22881   */\n      tag_463\n      jumpi\n        /* \"#utility.yul\":22861:22879   */\n      tag_464\n      tag_71\n      jump\t// in\n    tag_464:\n        /* \"#utility.yul\":22835:22881   */\n    tag_463:\n        /* \"#utility.yul\":22772:22887   */\n      pop\n      jump\t// out\n        /* \"#utility.yul\":22893:23015   */\n    tag_208:\n        /* \"#utility.yul\":22966:22990   */\n      tag_466\n        /* \"#utility.yul\":22984:22989   */\n      dup2\n        /* \"#utility.yul\":22966:22990   */\n      tag_279\n      jump\t// in\n    tag_466:\n        /* \"#utility.yul\":22959:22964   */\n      dup2\n        /* \"#utility.yul\":22956:22991   */\n      eq\n        /* \"#utility.yul\":22946:23009   */\n      tag_467\n      jumpi\n        /* \"#utility.yul\":23005:23006   */\n      0x00\n        /* \"#utility.yul\":23002:23003   */\n      dup1\n        /* \"#utility.yul\":22995:23007   */\n      revert\n        /* \"#utility.yul\":22946:23009   */\n    tag_467:\n        /* \"#utility.yul\":22893:23015   */\n      pop\n      jump\t// out\n        /* \"#utility.yul\":23021:23137   */\n    tag_212:\n        /* \"#utility.yul\":23091:23112   */\n      tag_469\n        /* \"#utility.yul\":23106:23111   */\n      dup2\n        /* \"#utility.yul\":23091:23112   */\n      tag_417\n      jump\t// in\n    tag_469:\n        /* \"#utility.yul\":23084:23089   */\n      dup2\n        /* \"#utility.yul\":23081:23113   */\n      eq\n        /* \"#utility.yul\":23071:23131   */\n      tag_470\n      jumpi\n        /* \"#utility.yul\":23127:23128   */\n      0x00\n        /* \"#utility.yul\":23124:23125   */\n      dup1\n        /* \"#utility.yul\":23117:23129   */\n      revert\n        /* \"#utility.yul\":23071:23131   */\n    tag_470:\n        /* \"#utility.yul\":23021:23137   */\n      pop\n      jump\t// out\n        /* \"#utility.yul\":23143:23265   */\n    tag_216:\n        /* \"#utility.yul\":23216:23240   */\n      tag_472\n        /* \"#utility.yul\":23234:23239   */\n      dup2\n        /* \"#utility.yul\":23216:23240   */\n      tag_291\n      jump\t// in\n    tag_472:\n        /* \"#utility.yul\":23209:23214   */\n      dup2\n        /* \"#utility.yul\":23206:23241   */\n      eq\n        /* \"#utility.yul\":23196:23259   */\n      tag_473\n      jumpi\n        /* \"#utility.yul\":23255:23256   */\n      0x00\n        /* \"#utility.yul\":23252:23253   */\n      dup1\n        /* \"#utility.yul\":23245:23257   */\n      revert\n        /* \"#utility.yul\":23196:23259   */\n    tag_473:\n        /* \"#utility.yul\":23143:23265   */\n      pop\n      jump\t// out\n        /* \"#utility.yul\":23271:23393   */\n    tag_226:\n        /* \"#utility.yul\":23344:23368   */\n      tag_475\n        /* \"#utility.yul\":23362:23367   */\n      dup2\n        /* \"#utility.yul\":23344:23368   */\n      tag_358\n      jump\t// in\n    tag_475:\n        /* \"#utility.yul\":23337:23342   */\n      dup2\n        /* \"#utility.yul\":23334:23369   */\n      eq\n        /* \"#utility.yul\":23324:23387   */\n      tag_476\n      jumpi\n        /* \"#utility.yul\":23383:23384   */\n      0x00\n        /* \"#utility.yul\":23380:23381   */\n      dup1\n        /* \"#utility.yul\":23373:23385   */\n      revert\n        /* \"#utility.yul\":23324:23387   */\n    tag_476:\n        /* \"#utility.yul\":23271:23393   */\n      pop\n      jump\t// out\n\n    auxdata: 0xa264697066735822122070b657640a8c20b63076810156ba04c17cd0eb8d41eaee4c36e6019f942d864364736f6c63430008070033\n}\n",
				"bytecode": {
					"linkReferences": {},
					"object": "608060405234801561001057600080fd5b5061002d61002261003260201b60201c565b61003a60201b60201c565b6100fe565b600033905090565b60008060009054906101000a900473ffffffffffffffffffffffffffffffffffffffff169050816000806101000a81548173ffffffffffffffffffffffffffffffffffffffff021916908373ffffffffffffffffffffffffffffffffffffffff1602179055508173ffffffffffffffffffffffffffffffffffffffff168173ffffffffffffffffffffffffffffffffffffffff167f8be0079c531659141344cd1fd0a4f28419497f9722a3daafe3b4186f6b6457e060405160405180910390a35050565b61243b806200010e6000396000f3fe608060405234801561001057600080fd5b50600436106100a95760003560e01c80637f0a44d4116100715780637f0a44d4146101505780638da5cb5b1461016c5780638fc609d01461018a578063d367d966146101a6578063ed1f2592146101d6578063f2fde38b146101f2576100a9565b806302cebea5146100ae57806310d8d74d146100de578063535fd18a146100fa5780635b6beeb914610116578063715018a614610146575b600080fd5b6100c860048036038101906100c39190611921565b61020e565b6040516100d59190611f05565b60405180910390f35b6100f860048036038101906100f39190611a88565b610337565b005b610114600480360381019061010f91906119f5565b6103cf565b005b610130600480360381019061012b9190611ac8565b6104e4565b60405161013d9190611dea565b60405180910390f35b61014e610514565b005b61016a600480360381019061016591906118e1565b61059c565b005b610174610660565b6040516101819190611dcf565b60405180910390f35b6101a4600480360381019061019f9190611961565b610689565b005b6101c060048036038101906101bb91906119c8565b610d21565b6040516101cd9190611f05565b60405180910390f35b6101f060048036038101906101eb9190611a48565b610dfd565b005b61020c600480360381019061020791906118b4565b6110f3565b005b610216611793565b600660008473ffffffffffffffffffffffffffffffffffffffff1673ffffffffffffffffffffffffffffffffffffffff1681526020019081526020016000208281548110610267576102666120ff565b5b90600052602060002090600402016040518060a00160405290816000820154815260200160018201548152602001600282015481526020016003820160009054906101000a900473ffffffffffffffffffffffffffffffffffffffff1673ffffffffffffffffffffffffffffffffffffffff1673ffffffffffffffffffffffffffffffffffffffff1681526020016003820160149054906101000a900460ff166002811115610319576103186120d0565b5b600281111561032b5761032a6120d0565b5b81525050905092915050565b61033f6111eb565b73ffffffffffffffffffffffffffffffffffffffff1661035d610660565b73ffffffffffffffffffffffffffffffffffffffff16146103b3576040517f08c379a00000000000000000000000000000000000000000000000000000000081526004016103aa90611e65565b60405180910390fd5b8060026000848152602001908152602001600020819055505050565b6103d76111eb565b73ffffffffffffffffffffffffffffffffffffffff166103f5610660565b73ffffffffffffffffffffffffffffffffffffffff161461044b576040517f08c379a000000000000000000000000000000000000000000000000000000000815260040161044290611e65565b60405180910390fd5b801561049a5782600360008473ffffffffffffffffffffffffffffffffffffffff1673ffffffffffffffffffffffffffffffffffffffff168152602001908152602001600020819055506104df565b82600460008473ffffffffffffffffffffffffffffffffffffffff1673ffffffffffffffffffffffffffffffffffffffff168152602001908152602001600020819055505b505050565b6000816040516020016104f79190611db8565b604051602081830303815290604052805190602001209050919050565b61051c6111eb565b73ffffffffffffffffffffffffffffffffffffffff1661053a610660565b73ffffffffffffffffffffffffffffffffffffffff1614610590576040517f08c379a000000000000000000000000000000000000000000000000000000000815260040161058790611e65565b60405180910390fd5b61059a60006111f3565b565b6105a46111eb565b73ffffffffffffffffffffffffffffffffffffffff166105c2610660565b73ffffffffffffffffffffffffffffffffffffffff1614610618576040517f08c379a000000000000000000000000000000000000000000000000000000000815260040161060f90611e65565b60405180910390fd5b80600560008473ffffffffffffffffffffffffffffffffffffffff1673ffffffffffffffffffffffffffffffffffffffff168152602001908152602001600020819055505050565b60008060009054906101000a900473ffffffffffffffffffffffffffffffffffffffff16905090565b80801561071a576000801b600360003373ffffffffffffffffffffffffffffffffffffffff1673ffffffffffffffffffffffffffffffffffffffff168152602001908152602001600020541415610715576040517f08c379a000000000000000000000000000000000000000000000000000000000815260040161070c90611e85565b60405180910390fd5b6107a0565b6000801b600460003373ffffffffffffffffffffffffffffffffffffffff1673ffffffffffffffffffffffffffffffffffffffff16815260200190815260200160002054141561079f576040517f08c379a000000000000000000000000000000000000000000000000000000000815260040161079690611e85565b60405180910390fd5b5b6000801b600560008773ffffffffffffffffffffffffffffffffffffffff1673ffffffffffffffffffffffffffffffffffffffff1681526020019081526020016000205414156108335782600560008773ffffffffffffffffffffffffffffffffffffffff1673ffffffffffffffffffffffffffffffffffffffff168152602001908152602001600020819055506108b5565b82600560008773ffffffffffffffffffffffffffffffffffffffff1673ffffffffffffffffffffffffffffffffffffffff16815260200190815260200160002054146108b4576040517f08c379a00000000000000000000000000000000000000000000000000000000081526004016108ab90611ee5565b60405180910390fd5b5b60006002905082156108c657600390505b8481600260008781526020019081526020016000205402101561091e576040517f08c379a000000000000000000000000000000000000000000000000000000000815260040161091590611ea5565b60405180910390fd5b60006040518060a001604052803389894243604051602001610944959493929190611d59565b6040516020818303038152906040528051906020012081526020018681526020018781526020018873ffffffffffffffffffffffffffffffffffffffff1681526020016000600281111561099b5761099a6120d0565b5b81525090508315610b615780600860008973ffffffffffffffffffffffffffffffffffffffff1673ffffffffffffffffffffffffffffffffffffffff1681526020019081526020016000206000600360003373ffffffffffffffffffffffffffffffffffffffff1673ffffffffffffffffffffffffffffffffffffffff16815260200190815260200160002054815260200190815260200160002060008201518160000155602082015181600101556040820151816002015560608201518160030160006101000a81548173ffffffffffffffffffffffffffffffffffffffff021916908373ffffffffffffffffffffffffffffffffffffffff16021790555060808201518160030160146101000a81548160ff02191690836002811115610ac657610ac56120d0565b5b0217905550905050600360003373ffffffffffffffffffffffffffffffffffffffff1673ffffffffffffffffffffffffffffffffffffffff168152602001908152602001600020548773ffffffffffffffffffffffffffffffffffffffff167fad438d062604ef9539e2a0b5152e5071f8d5e9641c488d60234d23fdca24444c88604051610b549190611f20565b60405180910390a3610d18565b80600860008973ffffffffffffffffffffffffffffffffffffffff1673ffffffffffffffffffffffffffffffffffffffff1681526020019081526020016000206000600460003373ffffffffffffffffffffffffffffffffffffffff1673ffffffffffffffffffffffffffffffffffffffff16815260200190815260200160002054815260200190815260200160002060008201518160000155602082015181600101556040820151816002015560608201518160030160006101000a81548173ffffffffffffffffffffffffffffffffffffffff021916908373ffffffffffffffffffffffffffffffffffffffff16021790555060808201518160030160146101000a81548160ff02191690836002811115610c8157610c806120d0565b5b0217905550905050600460003373ffffffffffffffffffffffffffffffffffffffff1673ffffffffffffffffffffffffffffffffffffffff168152602001908152602001600020548773ffffffffffffffffffffffffffffffffffffffff167fad438d062604ef9539e2a0b5152e5071f8d5e9641c488d60234d23fdca24444c88604051610d0f9190611f20565b60405180910390a35b50505050505050565b610d29611793565b600760008381526020019081526020016000206040518060a00160405290816000820154815260200160018201548152602001600282015481526020016003820160009054906101000a900473ffffffffffffffffffffffffffffffffffffffff1673ffffffffffffffffffffffffffffffffffffffff1673ffffffffffffffffffffffffffffffffffffffff1681526020016003820160149054906101000a900460ff166002811115610de057610ddf6120d0565b5b6002811115610df257610df16120d0565b5b815250509050919050565b6000801b600560003373ffffffffffffffffffffffffffffffffffffffff1673ffffffffffffffffffffffffffffffffffffffff168152602001908152602001600020541415610e82576040517f08c379a0000000000000000000000000000000000000000000000000000000008152600401610e7990611e25565b60405180910390fd5b6000801b600860003373ffffffffffffffffffffffffffffffffffffffff1673ffffffffffffffffffffffffffffffffffffffff1681526020019081526020016000206000848152602001908152602001600020600001541415610f1b576040517f08c379a0000000000000000000000000000000000000000000000000000000008152600401610f1290611e45565b60405180910390fd5b60006002811115610f2f57610f2e6120d0565b5b600860003373ffffffffffffffffffffffffffffffffffffffff1673ffffffffffffffffffffffffffffffffffffffff168152602001908152602001600020600084815260200190815260200160002060030160149054906101000a900460ff166002811115610fa257610fa16120d0565b5b14610fe2576040517f08c379a0000000000000000000000000000000000000000000000000000000008152600401610fd990611ec5565b60405180910390fd5b8015611069576001600860003373ffffffffffffffffffffffffffffffffffffffff1673ffffffffffffffffffffffffffffffffffffffff168152602001908152602001600020600084815260200190815260200160002060030160146101000a81548160ff0219169083600281111561105f5761105e6120d0565b5b02179055506110e6565b6002600860003373ffffffffffffffffffffffffffffffffffffffff1673ffffffffffffffffffffffffffffffffffffffff168152602001908152602001600020600084815260200190815260200160002060030160146101000a81548160ff021916908360028111156110e0576110df6120d0565b5b02179055505b6110ef826112b7565b5050565b6110fb6111eb565b73ffffffffffffffffffffffffffffffffffffffff16611119610660565b73ffffffffffffffffffffffffffffffffffffffff161461116f576040517f08c379a000000000000000000000000000000000000000000000000000000000815260040161116690611e65565b60405180910390fd5b600073ffffffffffffffffffffffffffffffffffffffff168173ffffffffffffffffffffffffffffffffffffffff1614156111df576040517f08c379a00000000000000000000000000000000000000000000000000000000081526004016111d690611e05565b60405180910390fd5b6111e8816111f3565b50565b600033905090565b60008060009054906101000a900473ffffffffffffffffffffffffffffffffffffffff169050816000806101000a81548173ffffffffffffffffffffffffffffffffffffffff021916908373ffffffffffffffffffffffffffffffffffffffff1602179055508173ffffffffffffffffffffffffffffffffffffffff168173ffffffffffffffffffffffffffffffffffffffff167f8be0079c531659141344cd1fd0a4f28419497f9722a3daafe3b4186f6b6457e060405160405180910390a35050565b600660003373ffffffffffffffffffffffffffffffffffffffff1673ffffffffffffffffffffffffffffffffffffffff168152602001908152602001600020600860003373ffffffffffffffffffffffffffffffffffffffff1673ffffffffffffffffffffffffffffffffffffffff168152602001908152602001600020600083815260200190815260200160002090806001815401808255809150506001900390600052602060002090600402016000909190919091506000820154816000015560018201548160010155600282015481600201556003820160009054906101000a900473ffffffffffffffffffffffffffffffffffffffff168160030160006101000a81548173ffffffffffffffffffffffffffffffffffffffff021916908373ffffffffffffffffffffffffffffffffffffffff1602179055506003820160149054906101000a900460ff168160030160146101000a81548160ff0219169083600281111561142c5761142b6120d0565b5b02179055505050600860003373ffffffffffffffffffffffffffffffffffffffff1673ffffffffffffffffffffffffffffffffffffffff168152602001908152602001600020600082815260200190815260200160002060076000600860003373ffffffffffffffffffffffffffffffffffffffff1673ffffffffffffffffffffffffffffffffffffffff16815260200190815260200160002060008581526020019081526020016000206000015481526020019081526020016000206000820154816000015560018201548160010155600282015481600201556003820160009054906101000a900473ffffffffffffffffffffffffffffffffffffffff168160030160006101000a81548173ffffffffffffffffffffffffffffffffffffffff021916908373ffffffffffffffffffffffffffffffffffffffff1602179055506003820160149054906101000a900460ff168160030160146101000a81548160ff021916908360028111156115a6576115a56120d0565b5b02179055509050506040518060a001604052806000801b81526020016000801b815260200160008152602001600073ffffffffffffffffffffffffffffffffffffffff16815260200160006002811115611603576116026120d0565b5b815250600860003373ffffffffffffffffffffffffffffffffffffffff1673ffffffffffffffffffffffffffffffffffffffff168152602001908152602001600020600083815260200190815260200160002060008201518160000155602082015181600101556040820151816002015560608201518160030160006101000a81548173ffffffffffffffffffffffffffffffffffffffff021916908373ffffffffffffffffffffffffffffffffffffffff16021790555060808201518160030160146101000a81548160ff021916908360028111156116e6576116e56120d0565b5b0217905550905050803373ffffffffffffffffffffffffffffffffffffffff167f58e6b4bb20368f9a0b488a5727fff9b8795b7c85245c2a5d7ccbea5552fd2ca5600860003373ffffffffffffffffffffffffffffffffffffffff1673ffffffffffffffffffffffffffffffffffffffff1681526020019081526020016000206000858152602001908152602001600020600201546040516117889190611f20565b60405180910390a350565b6040518060a00160405280600080191681526020016000801916815260200160008152602001600073ffffffffffffffffffffffffffffffffffffffff168152602001600060028111156117ea576117e96120d0565b5b81525090565b60006118036117fe84611f60565b611f3b565b90508281526020810184848401111561181f5761181e612162565b5b61182a84828561202f565b509392505050565b600081359050611841816123a9565b92915050565b600081359050611856816123c0565b92915050565b60008135905061186b816123d7565b92915050565b600082601f8301126118865761188561215d565b5b81356118968482602086016117f0565b91505092915050565b6000813590506118ae816123ee565b92915050565b6000602082840312156118ca576118c961216c565b5b60006118d884828501611832565b91505092915050565b600080604083850312156118f8576118f761216c565b5b600061190685828601611832565b92505060206119178582860161185c565b9150509250929050565b600080604083850312156119385761193761216c565b5b600061194685828601611832565b92505060206119578582860161189f565b9150509250929050565b6000806000806080858703121561197b5761197a61216c565b5b600061198987828801611832565b945050602061199a8782880161189f565b93505060406119ab8782880161185c565b92505060606119bc87828801611847565b91505092959194509250565b6000602082840312156119de576119dd61216c565b5b60006119ec8482850161185c565b91505092915050565b600080600060608486031215611a0e57611a0d61216c565b5b6000611a1c8682870161185c565b9350506020611a2d86828701611832565b9250506040611a3e86828701611847565b9150509250925092565b60008060408385031215611a5f57611a5e61216c565b5b6000611a6d8582860161185c565b9250506020611a7e85828601611847565b9150509250929050565b60008060408385031215611a9f57611a9e61216c565b5b6000611aad8582860161185c565b9250506020611abe8582860161189f565b9150509250929050565b600060208284031215611ade57611add61216c565b5b600082013567ffffffffffffffff811115611afc57611afb612167565b5b611b0884828501611871565b91505092915050565b611b1a81611fb8565b82525050565b611b2981611fb8565b82525050565b611b40611b3b82611fb8565b6120a2565b82525050565b611b4f81611fd6565b82525050565b611b5e81611fd6565b82525050565b611b6d8161201d565b82525050565b6000611b7e82611f91565b611b888185611fad565b9350611b9881856020860161203e565b80840191505092915050565b6000611bb1602683611f9c565b9150611bbc8261218f565b604082019050919050565b6000611bd4603083611f9c565b9150611bdf826121de565b604082019050919050565b6000611bf7601383611f9c565b9150611c028261222d565b602082019050919050565b6000611c1a602083611f9c565b9150611c2582612256565b602082019050919050565b6000611c3d602883611f9c565b9150611c488261227f565b604082019050919050565b6000611c60602483611f9c565b9150611c6b826122ce565b604082019050919050565b6000611c83601983611f9c565b9150611c8e8261231d565b602082019050919050565b6000611ca6602a83611f9c565b9150611cb182612346565b604082019050919050565b60a082016000820151611cd26000850182611b46565b506020820151611ce56020850182611b46565b506040820151611cf86040850182611d24565b506060820151611d0b6060850182611b11565b506080820151611d1e6080850182611b64565b50505050565b611d2d81612013565b82525050565b611d3c81612013565b82525050565b611d53611d4e82612013565b6120c6565b82525050565b6000611d658288611b2f565b601482019150611d758287611b2f565b601482019150611d858286611d42565b602082019150611d958285611d42565b602082019150611da58284611d42565b6020820191508190509695505050505050565b6000611dc48284611b73565b915081905092915050565b6000602082019050611de46000830184611b20565b92915050565b6000602082019050611dff6000830184611b55565b92915050565b60006020820190508181036000830152611e1e81611ba4565b9050919050565b60006020820190508181036000830152611e3e81611bc7565b9050919050565b60006020820190508181036000830152611e5e81611bea565b9050919050565b60006020820190508181036000830152611e7e81611c0d565b9050919050565b60006020820190508181036000830152611e9e81611c30565b9050919050565b60006020820190508181036000830152611ebe81611c53565b9050919050565b60006020820190508181036000830152611ede81611c76565b9050919050565b60006020820190508181036000830152611efe81611c99565b9050919050565b600060a082019050611f1a6000830184611cbc565b92915050565b6000602082019050611f356000830184611d33565b92915050565b6000611f45611f56565b9050611f518282612071565b919050565b6000604051905090565b600067ffffffffffffffff821115611f7b57611f7a61212e565b5b611f8482612171565b9050602081019050919050565b600081519050919050565b600082825260208201905092915050565b600081905092915050565b6000611fc382611ff3565b9050919050565b60008115159050919050565b6000819050919050565b6000819050611fee82612395565b919050565b600073ffffffffffffffffffffffffffffffffffffffff82169050919050565b6000819050919050565b600061202882611fe0565b9050919050565b82818337600083830152505050565b60005b8381101561205c578082015181840152602081019050612041565b8381111561206b576000848401525b50505050565b61207a82612171565b810181811067ffffffffffffffff821117156120995761209861212e565b5b80604052505050565b60006120ad826120b4565b9050919050565b60006120bf82612182565b9050919050565b6000819050919050565b7f4e487b7100000000000000000000000000000000000000000000000000000000600052602160045260246000fd5b7f4e487b7100000000000000000000000000000000000000000000000000000000600052603260045260246000fd5b7f4e487b7100000000000000000000000000000000000000000000000000000000600052604160045260246000fd5b600080fd5b600080fd5b600080fd5b600080fd5b6000601f19601f8301169050919050565b60008160601b9050919050565b7f4f776e61626c653a206e6577206f776e657220697320746865207a65726f206160008201527f6464726573730000000000000000000000000000000000000000000000000000602082015250565b7f5468657265206973206e6f2070617469656e742072656769737465726564207760008201527f6974682074686973206164647265737300000000000000000000000000000000602082015250565b7f496e766f6963652063616e277420666f756e6400000000000000000000000000600082015250565b7f4f776e61626c653a2063616c6c6572206973206e6f7420746865206f776e6572600082015250565b7f4f6e6c7920636c696e6963732063616e20706572666f726d2074686973206f7060008201527f65726174696f6e73000000000000000000000000000000000000000000000000602082015250565b7f50617469656e742063616e27742062652063686172676564207468697320616d60008201527f6f756e7400000000000000000000000000000000000000000000000000000000602082015250565b7f496e766f6963652063616e277420626520616363657074656400000000000000600082015250565b7f50617469656e742063616e2774206265206368617267656420666f722074686960008201527f732063617465676f727900000000000000000000000000000000000000000000602082015250565b600381106123a6576123a56120d0565b5b50565b6123b281611fb8565b81146123bd57600080fd5b50565b6123c981611fca565b81146123d457600080fd5b50565b6123e081611fd6565b81146123eb57600080fd5b50565b6123f781612013565b811461240257600080fd5b5056fea264697066735822122070b657640a8c20b63076810156ba04c17cd0eb8d41eaee4c36e6019f942d864364736f6c63430008070033",
					"opcodes": "PUSH1 0x80 PUSH1 0x40 MSTORE CALLVALUE DUP1 ISZERO PUSH2 0x10 JUMPI PUSH1 0x0 DUP1 REVERT JUMPDEST POP PUSH2 0x2D PUSH2 0x22 PUSH2 0x32 PUSH1 0x20 SHL PUSH1 0x20 SHR JUMP JUMPDEST PUSH2 0x3A PUSH1 0x20 SHL PUSH1 0x20 SHR JUMP JUMPDEST PUSH2 0xFE JUMP JUMPDEST PUSH1 0x0 CALLER SWAP1 POP SWAP1 JUMP JUMPDEST PUSH1 0x0 DUP1 PUSH1 0x0 SWAP1 SLOAD SWAP1 PUSH2 0x100 EXP SWAP1 DIV PUSH20 0xFFFFFFFFFFFFFFFFFFFFFFFFFFFFFFFFFFFFFFFF AND SWAP1 POP DUP2 PUSH1 0x0 DUP1 PUSH2 0x100 EXP DUP2 SLOAD DUP2 PUSH20 0xFFFFFFFFFFFFFFFFFFFFFFFFFFFFFFFFFFFFFFFF MUL NOT AND SWAP1 DUP4 PUSH20 0xFFFFFFFFFFFFFFFFFFFFFFFFFFFFFFFFFFFFFFFF AND MUL OR SWAP1 SSTORE POP DUP2 PUSH20 0xFFFFFFFFFFFFFFFFFFFFFFFFFFFFFFFFFFFFFFFF AND DUP2 PUSH20 0xFFFFFFFFFFFFFFFFFFFFFFFFFFFFFFFFFFFFFFFF AND PUSH32 0x8BE0079C531659141344CD1FD0A4F28419497F9722A3DAAFE3B4186F6B6457E0 PUSH1 0x40 MLOAD PUSH1 0x40 MLOAD DUP1 SWAP2 SUB SWAP1 LOG3 POP POP JUMP JUMPDEST PUSH2 0x243B DUP1 PUSH3 0x10E PUSH1 0x0 CODECOPY PUSH1 0x0 RETURN INVALID PUSH1 0x80 PUSH1 0x40 MSTORE CALLVALUE DUP1 ISZERO PUSH2 0x10 JUMPI PUSH1 0x0 DUP1 REVERT JUMPDEST POP PUSH1 0x4 CALLDATASIZE LT PUSH2 0xA9 JUMPI PUSH1 0x0 CALLDATALOAD PUSH1 0xE0 SHR DUP1 PUSH4 0x7F0A44D4 GT PUSH2 0x71 JUMPI DUP1 PUSH4 0x7F0A44D4 EQ PUSH2 0x150 JUMPI DUP1 PUSH4 0x8DA5CB5B EQ PUSH2 0x16C JUMPI DUP1 PUSH4 0x8FC609D0 EQ PUSH2 0x18A JUMPI DUP1 PUSH4 0xD367D966 EQ PUSH2 0x1A6 JUMPI DUP1 PUSH4 0xED1F2592 EQ PUSH2 0x1D6 JUMPI DUP1 PUSH4 0xF2FDE38B EQ PUSH2 0x1F2 JUMPI PUSH2 0xA9 JUMP JUMPDEST DUP1 PUSH4 0x2CEBEA5 EQ PUSH2 0xAE JUMPI DUP1 PUSH4 0x10D8D74D EQ PUSH2 0xDE JUMPI DUP1 PUSH4 0x535FD18A EQ PUSH2 0xFA JUMPI DUP1 PUSH4 0x5B6BEEB9 EQ PUSH2 0x116 JUMPI DUP1 PUSH4 0x715018A6 EQ PUSH2 0x146 JUMPI JUMPDEST PUSH1 0x0 DUP1 REVERT JUMPDEST PUSH2 0xC8 PUSH1 0x4 DUP1 CALLDATASIZE SUB DUP2 ADD SWAP1 PUSH2 0xC3 SWAP2 SWAP1 PUSH2 0x1921 JUMP JUMPDEST PUSH2 0x20E JUMP JUMPDEST PUSH1 0x40 MLOAD PUSH2 0xD5 SWAP2 SWAP1 PUSH2 0x1F05 JUMP JUMPDEST PUSH1 0x40 MLOAD DUP1 SWAP2 SUB SWAP1 RETURN JUMPDEST PUSH2 0xF8 PUSH1 0x4 DUP1 CALLDATASIZE SUB DUP2 ADD SWAP1 PUSH2 0xF3 SWAP2 SWAP1 PUSH2 0x1A88 JUMP JUMPDEST PUSH2 0x337 JUMP JUMPDEST STOP JUMPDEST PUSH2 0x114 PUSH1 0x4 DUP1 CALLDATASIZE SUB DUP2 ADD SWAP1 PUSH2 0x10F SWAP2 SWAP1 PUSH2 0x19F5 JUMP JUMPDEST PUSH2 0x3CF JUMP JUMPDEST STOP JUMPDEST PUSH2 0x130 PUSH1 0x4 DUP1 CALLDATASIZE SUB DUP2 ADD SWAP1 PUSH2 0x12B SWAP2 SWAP1 PUSH2 0x1AC8 JUMP JUMPDEST PUSH2 0x4E4 JUMP JUMPDEST PUSH1 0x40 MLOAD PUSH2 0x13D SWAP2 SWAP1 PUSH2 0x1DEA JUMP JUMPDEST PUSH1 0x40 MLOAD DUP1 SWAP2 SUB SWAP1 RETURN JUMPDEST PUSH2 0x14E PUSH2 0x514 JUMP JUMPDEST STOP JUMPDEST PUSH2 0x16A PUSH1 0x4 DUP1 CALLDATASIZE SUB DUP2 ADD SWAP1 PUSH2 0x165 SWAP2 SWAP1 PUSH2 0x18E1 JUMP JUMPDEST PUSH2 0x59C JUMP JUMPDEST STOP JUMPDEST PUSH2 0x174 PUSH2 0x660 JUMP JUMPDEST PUSH1 0x40 MLOAD PUSH2 0x181 SWAP2 SWAP1 PUSH2 0x1DCF JUMP JUMPDEST PUSH1 0x40 MLOAD DUP1 SWAP2 SUB SWAP1 RETURN JUMPDEST PUSH2 0x1A4 PUSH1 0x4 DUP1 CALLDATASIZE SUB DUP2 ADD SWAP1 PUSH2 0x19F SWAP2 SWAP1 PUSH2 0x1961 JUMP JUMPDEST PUSH2 0x689 JUMP JUMPDEST STOP JUMPDEST PUSH2 0x1C0 PUSH1 0x4 DUP1 CALLDATASIZE SUB DUP2 ADD SWAP1 PUSH2 0x1BB SWAP2 SWAP1 PUSH2 0x19C8 JUMP JUMPDEST PUSH2 0xD21 JUMP JUMPDEST PUSH1 0x40 MLOAD PUSH2 0x1CD SWAP2 SWAP1 PUSH2 0x1F05 JUMP JUMPDEST PUSH1 0x40 MLOAD DUP1 SWAP2 SUB SWAP1 RETURN JUMPDEST PUSH2 0x1F0 PUSH1 0x4 DUP1 CALLDATASIZE SUB DUP2 ADD SWAP1 PUSH2 0x1EB SWAP2 SWAP1 PUSH2 0x1A48 JUMP JUMPDEST PUSH2 0xDFD JUMP JUMPDEST STOP JUMPDEST PUSH2 0x20C PUSH1 0x4 DUP1 CALLDATASIZE SUB DUP2 ADD SWAP1 PUSH2 0x207 SWAP2 SWAP1 PUSH2 0x18B4 JUMP JUMPDEST PUSH2 0x10F3 JUMP JUMPDEST STOP JUMPDEST PUSH2 0x216 PUSH2 0x1793 JUMP JUMPDEST PUSH1 0x6 PUSH1 0x0 DUP5 PUSH20 0xFFFFFFFFFFFFFFFFFFFFFFFFFFFFFFFFFFFFFFFF AND PUSH20 0xFFFFFFFFFFFFFFFFFFFFFFFFFFFFFFFFFFFFFFFF AND DUP2 MSTORE PUSH1 0x20 ADD SWAP1 DUP2 MSTORE PUSH1 0x20 ADD PUSH1 0x0 KECCAK256 DUP3 DUP2 SLOAD DUP2 LT PUSH2 0x267 JUMPI PUSH2 0x266 PUSH2 0x20FF JUMP JUMPDEST JUMPDEST SWAP1 PUSH1 0x0 MSTORE PUSH1 0x20 PUSH1 0x0 KECCAK256 SWAP1 PUSH1 0x4 MUL ADD PUSH1 0x40 MLOAD DUP1 PUSH1 0xA0 ADD PUSH1 0x40 MSTORE SWAP1 DUP2 PUSH1 0x0 DUP3 ADD SLOAD DUP2 MSTORE PUSH1 0x20 ADD PUSH1 0x1 DUP3 ADD SLOAD DUP2 MSTORE PUSH1 0x20 ADD PUSH1 0x2 DUP3 ADD SLOAD DUP2 MSTORE PUSH1 0x20 ADD PUSH1 0x3 DUP3 ADD PUSH1 0x0 SWAP1 SLOAD SWAP1 PUSH2 0x100 EXP SWAP1 DIV PUSH20 0xFFFFFFFFFFFFFFFFFFFFFFFFFFFFFFFFFFFFFFFF AND PUSH20 0xFFFFFFFFFFFFFFFFFFFFFFFFFFFFFFFFFFFFFFFF AND PUSH20 0xFFFFFFFFFFFFFFFFFFFFFFFFFFFFFFFFFFFFFFFF AND DUP2 MSTORE PUSH1 0x20 ADD PUSH1 0x3 DUP3 ADD PUSH1 0x14 SWAP1 SLOAD SWAP1 PUSH2 0x100 EXP SWAP1 DIV PUSH1 0xFF AND PUSH1 0x2 DUP2 GT ISZERO PUSH2 0x319 JUMPI PUSH2 0x318 PUSH2 0x20D0 JUMP JUMPDEST JUMPDEST PUSH1 0x2 DUP2 GT ISZERO PUSH2 0x32B JUMPI PUSH2 0x32A PUSH2 0x20D0 JUMP JUMPDEST JUMPDEST DUP2 MSTORE POP POP SWAP1 POP SWAP3 SWAP2 POP POP JUMP JUMPDEST PUSH2 0x33F PUSH2 0x11EB JUMP JUMPDEST PUSH20 0xFFFFFFFFFFFFFFFFFFFFFFFFFFFFFFFFFFFFFFFF AND PUSH2 0x35D PUSH2 0x660 JUMP JUMPDEST PUSH20 0xFFFFFFFFFFFFFFFFFFFFFFFFFFFFFFFFFFFFFFFF AND EQ PUSH2 0x3B3 JUMPI PUSH1 0x40 MLOAD PUSH32 0x8C379A000000000000000000000000000000000000000000000000000000000 DUP2 MSTORE PUSH1 0x4 ADD PUSH2 0x3AA SWAP1 PUSH2 0x1E65 JUMP JUMPDEST PUSH1 0x40 MLOAD DUP1 SWAP2 SUB SWAP1 REVERT JUMPDEST DUP1 PUSH1 0x2 PUSH1 0x0 DUP5 DUP2 MSTORE PUSH1 0x20 ADD SWAP1 DUP2 MSTORE PUSH1 0x20 ADD PUSH1 0x0 KECCAK256 DUP2 SWAP1 SSTORE POP POP POP JUMP JUMPDEST PUSH2 0x3D7 PUSH2 0x11EB JUMP JUMPDEST PUSH20 0xFFFFFFFFFFFFFFFFFFFFFFFFFFFFFFFFFFFFFFFF AND PUSH2 0x3F5 PUSH2 0x660 JUMP JUMPDEST PUSH20 0xFFFFFFFFFFFFFFFFFFFFFFFFFFFFFFFFFFFFFFFF AND EQ PUSH2 0x44B JUMPI PUSH1 0x40 MLOAD PUSH32 0x8C379A000000000000000000000000000000000000000000000000000000000 DUP2 MSTORE PUSH1 0x4 ADD PUSH2 0x442 SWAP1 PUSH2 0x1E65 JUMP JUMPDEST PUSH1 0x40 MLOAD DUP1 SWAP2 SUB SWAP1 REVERT JUMPDEST DUP1 ISZERO PUSH2 0x49A JUMPI DUP3 PUSH1 0x3 PUSH1 0x0 DUP5 PUSH20 0xFFFFFFFFFFFFFFFFFFFFFFFFFFFFFFFFFFFFFFFF AND PUSH20 0xFFFFFFFFFFFFFFFFFFFFFFFFFFFFFFFFFFFFFFFF AND DUP2 MSTORE PUSH1 0x20 ADD SWAP1 DUP2 MSTORE PUSH1 0x20 ADD PUSH1 0x0 KECCAK256 DUP2 SWAP1 SSTORE POP PUSH2 0x4DF JUMP JUMPDEST DUP3 PUSH1 0x4 PUSH1 0x0 DUP5 PUSH20 0xFFFFFFFFFFFFFFFFFFFFFFFFFFFFFFFFFFFFFFFF AND PUSH20 0xFFFFFFFFFFFFFFFFFFFFFFFFFFFFFFFFFFFFFFFF AND DUP2 MSTORE PUSH1 0x20 ADD SWAP1 DUP2 MSTORE PUSH1 0x20 ADD PUSH1 0x0 KECCAK256 DUP2 SWAP1 SSTORE POP JUMPDEST POP POP POP JUMP JUMPDEST PUSH1 0x0 DUP2 PUSH1 0x40 MLOAD PUSH1 0x20 ADD PUSH2 0x4F7 SWAP2 SWAP1 PUSH2 0x1DB8 JUMP JUMPDEST PUSH1 0x40 MLOAD PUSH1 0x20 DUP2 DUP4 SUB SUB DUP2 MSTORE SWAP1 PUSH1 0x40 MSTORE DUP1 MLOAD SWAP1 PUSH1 0x20 ADD KECCAK256 SWAP1 POP SWAP2 SWAP1 POP JUMP JUMPDEST PUSH2 0x51C PUSH2 0x11EB JUMP JUMPDEST PUSH20 0xFFFFFFFFFFFFFFFFFFFFFFFFFFFFFFFFFFFFFFFF AND PUSH2 0x53A PUSH2 0x660 JUMP JUMPDEST PUSH20 0xFFFFFFFFFFFFFFFFFFFFFFFFFFFFFFFFFFFFFFFF AND EQ PUSH2 0x590 JUMPI PUSH1 0x40 MLOAD PUSH32 0x8C379A000000000000000000000000000000000000000000000000000000000 DUP2 MSTORE PUSH1 0x4 ADD PUSH2 0x587 SWAP1 PUSH2 0x1E65 JUMP JUMPDEST PUSH1 0x40 MLOAD DUP1 SWAP2 SUB SWAP1 REVERT JUMPDEST PUSH2 0x59A PUSH1 0x0 PUSH2 0x11F3 JUMP JUMPDEST JUMP JUMPDEST PUSH2 0x5A4 PUSH2 0x11EB JUMP JUMPDEST PUSH20 0xFFFFFFFFFFFFFFFFFFFFFFFFFFFFFFFFFFFFFFFF AND PUSH2 0x5C2 PUSH2 0x660 JUMP JUMPDEST PUSH20 0xFFFFFFFFFFFFFFFFFFFFFFFFFFFFFFFFFFFFFFFF AND EQ PUSH2 0x618 JUMPI PUSH1 0x40 MLOAD PUSH32 0x8C379A000000000000000000000000000000000000000000000000000000000 DUP2 MSTORE PUSH1 0x4 ADD PUSH2 0x60F SWAP1 PUSH2 0x1E65 JUMP JUMPDEST PUSH1 0x40 MLOAD DUP1 SWAP2 SUB SWAP1 REVERT JUMPDEST DUP1 PUSH1 0x5 PUSH1 0x0 DUP5 PUSH20 0xFFFFFFFFFFFFFFFFFFFFFFFFFFFFFFFFFFFFFFFF AND PUSH20 0xFFFFFFFFFFFFFFFFFFFFFFFFFFFFFFFFFFFFFFFF AND DUP2 MSTORE PUSH1 0x20 ADD SWAP1 DUP2 MSTORE PUSH1 0x20 ADD PUSH1 0x0 KECCAK256 DUP2 SWAP1 SSTORE POP POP POP JUMP JUMPDEST PUSH1 0x0 DUP1 PUSH1 0x0 SWAP1 SLOAD SWAP1 PUSH2 0x100 EXP SWAP1 DIV PUSH20 0xFFFFFFFFFFFFFFFFFFFFFFFFFFFFFFFFFFFFFFFF AND SWAP1 POP SWAP1 JUMP JUMPDEST DUP1 DUP1 ISZERO PUSH2 0x71A JUMPI PUSH1 0x0 DUP1 SHL PUSH1 0x3 PUSH1 0x0 CALLER PUSH20 0xFFFFFFFFFFFFFFFFFFFFFFFFFFFFFFFFFFFFFFFF AND PUSH20 0xFFFFFFFFFFFFFFFFFFFFFFFFFFFFFFFFFFFFFFFF AND DUP2 MSTORE PUSH1 0x20 ADD SWAP1 DUP2 MSTORE PUSH1 0x20 ADD PUSH1 0x0 KECCAK256 SLOAD EQ ISZERO PUSH2 0x715 JUMPI PUSH1 0x40 MLOAD PUSH32 0x8C379A000000000000000000000000000000000000000000000000000000000 DUP2 MSTORE PUSH1 0x4 ADD PUSH2 0x70C SWAP1 PUSH2 0x1E85 JUMP JUMPDEST PUSH1 0x40 MLOAD DUP1 SWAP2 SUB SWAP1 REVERT JUMPDEST PUSH2 0x7A0 JUMP JUMPDEST PUSH1 0x0 DUP1 SHL PUSH1 0x4 PUSH1 0x0 CALLER PUSH20 0xFFFFFFFFFFFFFFFFFFFFFFFFFFFFFFFFFFFFFFFF AND PUSH20 0xFFFFFFFFFFFFFFFFFFFFFFFFFFFFFFFFFFFFFFFF AND DUP2 MSTORE PUSH1 0x20 ADD SWAP1 DUP2 MSTORE PUSH1 0x20 ADD PUSH1 0x0 KECCAK256 SLOAD EQ ISZERO PUSH2 0x79F JUMPI PUSH1 0x40 MLOAD PUSH32 0x8C379A000000000000000000000000000000000000000000000000000000000 DUP2 MSTORE PUSH1 0x4 ADD PUSH2 0x796 SWAP1 PUSH2 0x1E85 JUMP JUMPDEST PUSH1 0x40 MLOAD DUP1 SWAP2 SUB SWAP1 REVERT JUMPDEST JUMPDEST PUSH1 0x0 DUP1 SHL PUSH1 0x5 PUSH1 0x0 DUP8 PUSH20 0xFFFFFFFFFFFFFFFFFFFFFFFFFFFFFFFFFFFFFFFF AND PUSH20 0xFFFFFFFFFFFFFFFFFFFFFFFFFFFFFFFFFFFFFFFF AND DUP2 MSTORE PUSH1 0x20 ADD SWAP1 DUP2 MSTORE PUSH1 0x20 ADD PUSH1 0x0 KECCAK256 SLOAD EQ ISZERO PUSH2 0x833 JUMPI DUP3 PUSH1 0x5 PUSH1 0x0 DUP8 PUSH20 0xFFFFFFFFFFFFFFFFFFFFFFFFFFFFFFFFFFFFFFFF AND PUSH20 0xFFFFFFFFFFFFFFFFFFFFFFFFFFFFFFFFFFFFFFFF AND DUP2 MSTORE PUSH1 0x20 ADD SWAP1 DUP2 MSTORE PUSH1 0x20 ADD PUSH1 0x0 KECCAK256 DUP2 SWAP1 SSTORE POP PUSH2 0x8B5 JUMP JUMPDEST DUP3 PUSH1 0x5 PUSH1 0x0 DUP8 PUSH20 0xFFFFFFFFFFFFFFFFFFFFFFFFFFFFFFFFFFFFFFFF AND PUSH20 0xFFFFFFFFFFFFFFFFFFFFFFFFFFFFFFFFFFFFFFFF AND DUP2 MSTORE PUSH1 0x20 ADD SWAP1 DUP2 MSTORE PUSH1 0x20 ADD PUSH1 0x0 KECCAK256 SLOAD EQ PUSH2 0x8B4 JUMPI PUSH1 0x40 MLOAD PUSH32 0x8C379A000000000000000000000000000000000000000000000000000000000 DUP2 MSTORE PUSH1 0x4 ADD PUSH2 0x8AB SWAP1 PUSH2 0x1EE5 JUMP JUMPDEST PUSH1 0x40 MLOAD DUP1 SWAP2 SUB SWAP1 REVERT JUMPDEST JUMPDEST PUSH1 0x0 PUSH1 0x2 SWAP1 POP DUP3 ISZERO PUSH2 0x8C6 JUMPI PUSH1 0x3 SWAP1 POP JUMPDEST DUP5 DUP2 PUSH1 0x2 PUSH1 0x0 DUP8 DUP2 MSTORE PUSH1 0x20 ADD SWAP1 DUP2 MSTORE PUSH1 0x20 ADD PUSH1 0x0 KECCAK256 SLOAD MUL LT ISZERO PUSH2 0x91E JUMPI PUSH1 0x40 MLOAD PUSH32 0x8C379A000000000000000000000000000000000000000000000000000000000 DUP2 MSTORE PUSH1 0x4 ADD PUSH2 0x915 SWAP1 PUSH2 0x1EA5 JUMP JUMPDEST PUSH1 0x40 MLOAD DUP1 SWAP2 SUB SWAP1 REVERT JUMPDEST PUSH1 0x0 PUSH1 0x40 MLOAD DUP1 PUSH1 0xA0 ADD PUSH1 0x40 MSTORE DUP1 CALLER DUP10 DUP10 TIMESTAMP NUMBER PUSH1 0x40 MLOAD PUSH1 0x20 ADD PUSH2 0x944 SWAP6 SWAP5 SWAP4 SWAP3 SWAP2 SWAP1 PUSH2 0x1D59 JUMP JUMPDEST PUSH1 0x40 MLOAD PUSH1 0x20 DUP2 DUP4 SUB SUB DUP2 MSTORE SWAP1 PUSH1 0x40 MSTORE DUP1 MLOAD SWAP1 PUSH1 0x20 ADD KECCAK256 DUP2 MSTORE PUSH1 0x20 ADD DUP7 DUP2 MSTORE PUSH1 0x20 ADD DUP8 DUP2 MSTORE PUSH1 0x20 ADD DUP9 PUSH20 0xFFFFFFFFFFFFFFFFFFFFFFFFFFFFFFFFFFFFFFFF AND DUP2 MSTORE PUSH1 0x20 ADD PUSH1 0x0 PUSH1 0x2 DUP2 GT ISZERO PUSH2 0x99B JUMPI PUSH2 0x99A PUSH2 0x20D0 JUMP JUMPDEST JUMPDEST DUP2 MSTORE POP SWAP1 POP DUP4 ISZERO PUSH2 0xB61 JUMPI DUP1 PUSH1 0x8 PUSH1 0x0 DUP10 PUSH20 0xFFFFFFFFFFFFFFFFFFFFFFFFFFFFFFFFFFFFFFFF AND PUSH20 0xFFFFFFFFFFFFFFFFFFFFFFFFFFFFFFFFFFFFFFFF AND DUP2 MSTORE PUSH1 0x20 ADD SWAP1 DUP2 MSTORE PUSH1 0x20 ADD PUSH1 0x0 KECCAK256 PUSH1 0x0 PUSH1 0x3 PUSH1 0x0 CALLER PUSH20 0xFFFFFFFFFFFFFFFFFFFFFFFFFFFFFFFFFFFFFFFF AND PUSH20 0xFFFFFFFFFFFFFFFFFFFFFFFFFFFFFFFFFFFFFFFF AND DUP2 MSTORE PUSH1 0x20 ADD SWAP1 DUP2 MSTORE PUSH1 0x20 ADD PUSH1 0x0 KECCAK256 SLOAD DUP2 MSTORE PUSH1 0x20 ADD SWAP1 DUP2 MSTORE PUSH1 0x20 ADD PUSH1 0x0 KECCAK256 PUSH1 0x0 DUP3 ADD MLOAD DUP2 PUSH1 0x0 ADD SSTORE PUSH1 0x20 DUP3 ADD MLOAD DUP2 PUSH1 0x1 ADD SSTORE PUSH1 0x40 DUP3 ADD MLOAD DUP2 PUSH1 0x2 ADD SSTORE PUSH1 0x60 DUP3 ADD MLOAD DUP2 PUSH1 0x3 ADD PUSH1 0x0 PUSH2 0x100 EXP DUP2 SLOAD DUP2 PUSH20 0xFFFFFFFFFFFFFFFFFFFFFFFFFFFFFFFFFFFFFFFF MUL NOT AND SWAP1 DUP4 PUSH20 0xFFFFFFFFFFFFFFFFFFFFFFFFFFFFFFFFFFFFFFFF AND MUL OR SWAP1 SSTORE POP PUSH1 0x80 DUP3 ADD MLOAD DUP2 PUSH1 0x3 ADD PUSH1 0x14 PUSH2 0x100 EXP DUP2 SLOAD DUP2 PUSH1 0xFF MUL NOT AND SWAP1 DUP4 PUSH1 0x2 DUP2 GT ISZERO PUSH2 0xAC6 JUMPI PUSH2 0xAC5 PUSH2 0x20D0 JUMP JUMPDEST JUMPDEST MUL OR SWAP1 SSTORE POP SWAP1 POP POP PUSH1 0x3 PUSH1 0x0 CALLER PUSH20 0xFFFFFFFFFFFFFFFFFFFFFFFFFFFFFFFFFFFFFFFF AND PUSH20 0xFFFFFFFFFFFFFFFFFFFFFFFFFFFFFFFFFFFFFFFF AND DUP2 MSTORE PUSH1 0x20 ADD SWAP1 DUP2 MSTORE PUSH1 0x20 ADD PUSH1 0x0 KECCAK256 SLOAD DUP8 PUSH20 0xFFFFFFFFFFFFFFFFFFFFFFFFFFFFFFFFFFFFFFFF AND PUSH32 0xAD438D062604EF9539E2A0B5152E5071F8D5E9641C488D60234D23FDCA24444C DUP9 PUSH1 0x40 MLOAD PUSH2 0xB54 SWAP2 SWAP1 PUSH2 0x1F20 JUMP JUMPDEST PUSH1 0x40 MLOAD DUP1 SWAP2 SUB SWAP1 LOG3 PUSH2 0xD18 JUMP JUMPDEST DUP1 PUSH1 0x8 PUSH1 0x0 DUP10 PUSH20 0xFFFFFFFFFFFFFFFFFFFFFFFFFFFFFFFFFFFFFFFF AND PUSH20 0xFFFFFFFFFFFFFFFFFFFFFFFFFFFFFFFFFFFFFFFF AND DUP2 MSTORE PUSH1 0x20 ADD SWAP1 DUP2 MSTORE PUSH1 0x20 ADD PUSH1 0x0 KECCAK256 PUSH1 0x0 PUSH1 0x4 PUSH1 0x0 CALLER PUSH20 0xFFFFFFFFFFFFFFFFFFFFFFFFFFFFFFFFFFFFFFFF AND PUSH20 0xFFFFFFFFFFFFFFFFFFFFFFFFFFFFFFFFFFFFFFFF AND DUP2 MSTORE PUSH1 0x20 ADD SWAP1 DUP2 MSTORE PUSH1 0x20 ADD PUSH1 0x0 KECCAK256 SLOAD DUP2 MSTORE PUSH1 0x20 ADD SWAP1 DUP2 MSTORE PUSH1 0x20 ADD PUSH1 0x0 KECCAK256 PUSH1 0x0 DUP3 ADD MLOAD DUP2 PUSH1 0x0 ADD SSTORE PUSH1 0x20 DUP3 ADD MLOAD DUP2 PUSH1 0x1 ADD SSTORE PUSH1 0x40 DUP3 ADD MLOAD DUP2 PUSH1 0x2 ADD SSTORE PUSH1 0x60 DUP3 ADD MLOAD DUP2 PUSH1 0x3 ADD PUSH1 0x0 PUSH2 0x100 EXP DUP2 SLOAD DUP2 PUSH20 0xFFFFFFFFFFFFFFFFFFFFFFFFFFFFFFFFFFFFFFFF MUL NOT AND SWAP1 DUP4 PUSH20 0xFFFFFFFFFFFFFFFFFFFFFFFFFFFFFFFFFFFFFFFF AND MUL OR SWAP1 SSTORE POP PUSH1 0x80 DUP3 ADD MLOAD DUP2 PUSH1 0x3 ADD PUSH1 0x14 PUSH2 0x100 EXP DUP2 SLOAD DUP2 PUSH1 0xFF MUL NOT AND SWAP1 DUP4 PUSH1 0x2 DUP2 GT ISZERO PUSH2 0xC81 JUMPI PUSH2 0xC80 PUSH2 0x20D0 JUMP JUMPDEST JUMPDEST MUL OR SWAP1 SSTORE POP SWAP1 POP POP PUSH1 0x4 PUSH1 0x0 CALLER PUSH20 0xFFFFFFFFFFFFFFFFFFFFFFFFFFFFFFFFFFFFFFFF AND PUSH20 0xFFFFFFFFFFFFFFFFFFFFFFFFFFFFFFFFFFFFFFFF AND DUP2 MSTORE PUSH1 0x20 ADD SWAP1 DUP2 MSTORE PUSH1 0x20 ADD PUSH1 0x0 KECCAK256 SLOAD DUP8 PUSH20 0xFFFFFFFFFFFFFFFFFFFFFFFFFFFFFFFFFFFFFFFF AND PUSH32 0xAD438D062604EF9539E2A0B5152E5071F8D5E9641C488D60234D23FDCA24444C DUP9 PUSH1 0x40 MLOAD PUSH2 0xD0F SWAP2 SWAP1 PUSH2 0x1F20 JUMP JUMPDEST PUSH1 0x40 MLOAD DUP1 SWAP2 SUB SWAP1 LOG3 JUMPDEST POP POP POP POP POP POP POP JUMP JUMPDEST PUSH2 0xD29 PUSH2 0x1793 JUMP JUMPDEST PUSH1 0x7 PUSH1 0x0 DUP4 DUP2 MSTORE PUSH1 0x20 ADD SWAP1 DUP2 MSTORE PUSH1 0x20 ADD PUSH1 0x0 KECCAK256 PUSH1 0x40 MLOAD DUP1 PUSH1 0xA0 ADD PUSH1 0x40 MSTORE SWAP1 DUP2 PUSH1 0x0 DUP3 ADD SLOAD DUP2 MSTORE PUSH1 0x20 ADD PUSH1 0x1 DUP3 ADD SLOAD DUP2 MSTORE PUSH1 0x20 ADD PUSH1 0x2 DUP3 ADD SLOAD DUP2 MSTORE PUSH1 0x20 ADD PUSH1 0x3 DUP3 ADD PUSH1 0x0 SWAP1 SLOAD SWAP1 PUSH2 0x100 EXP SWAP1 DIV PUSH20 0xFFFFFFFFFFFFFFFFFFFFFFFFFFFFFFFFFFFFFFFF AND PUSH20 0xFFFFFFFFFFFFFFFFFFFFFFFFFFFFFFFFFFFFFFFF AND PUSH20 0xFFFFFFFFFFFFFFFFFFFFFFFFFFFFFFFFFFFFFFFF AND DUP2 MSTORE PUSH1 0x20 ADD PUSH1 0x3 DUP3 ADD PUSH1 0x14 SWAP1 SLOAD SWAP1 PUSH2 0x100 EXP SWAP1 DIV PUSH1 0xFF AND PUSH1 0x2 DUP2 GT ISZERO PUSH2 0xDE0 JUMPI PUSH2 0xDDF PUSH2 0x20D0 JUMP JUMPDEST JUMPDEST PUSH1 0x2 DUP2 GT ISZERO PUSH2 0xDF2 JUMPI PUSH2 0xDF1 PUSH2 0x20D0 JUMP JUMPDEST JUMPDEST DUP2 MSTORE POP POP SWAP1 POP SWAP2 SWAP1 POP JUMP JUMPDEST PUSH1 0x0 DUP1 SHL PUSH1 0x5 PUSH1 0x0 CALLER PUSH20 0xFFFFFFFFFFFFFFFFFFFFFFFFFFFFFFFFFFFFFFFF AND PUSH20 0xFFFFFFFFFFFFFFFFFFFFFFFFFFFFFFFFFFFFFFFF AND DUP2 MSTORE PUSH1 0x20 ADD SWAP1 DUP2 MSTORE PUSH1 0x20 ADD PUSH1 0x0 KECCAK256 SLOAD EQ ISZERO PUSH2 0xE82 JUMPI PUSH1 0x40 MLOAD PUSH32 0x8C379A000000000000000000000000000000000000000000000000000000000 DUP2 MSTORE PUSH1 0x4 ADD PUSH2 0xE79 SWAP1 PUSH2 0x1E25 JUMP JUMPDEST PUSH1 0x40 MLOAD DUP1 SWAP2 SUB SWAP1 REVERT JUMPDEST PUSH1 0x0 DUP1 SHL PUSH1 0x8 PUSH1 0x0 CALLER PUSH20 0xFFFFFFFFFFFFFFFFFFFFFFFFFFFFFFFFFFFFFFFF AND PUSH20 0xFFFFFFFFFFFFFFFFFFFFFFFFFFFFFFFFFFFFFFFF AND DUP2 MSTORE PUSH1 0x20 ADD SWAP1 DUP2 MSTORE PUSH1 0x20 ADD PUSH1 0x0 KECCAK256 PUSH1 0x0 DUP5 DUP2 MSTORE PUSH1 0x20 ADD SWAP1 DUP2 MSTORE PUSH1 0x20 ADD PUSH1 0x0 KECCAK256 PUSH1 0x0 ADD SLOAD EQ ISZERO PUSH2 0xF1B JUMPI PUSH1 0x40 MLOAD PUSH32 0x8C379A000000000000000000000000000000000000000000000000000000000 DUP2 MSTORE PUSH1 0x4 ADD PUSH2 0xF12 SWAP1 PUSH2 0x1E45 JUMP JUMPDEST PUSH1 0x40 MLOAD DUP1 SWAP2 SUB SWAP1 REVERT JUMPDEST PUSH1 0x0 PUSH1 0x2 DUP2 GT ISZERO PUSH2 0xF2F JUMPI PUSH2 0xF2E PUSH2 0x20D0 JUMP JUMPDEST JUMPDEST PUSH1 0x8 PUSH1 0x0 CALLER PUSH20 0xFFFFFFFFFFFFFFFFFFFFFFFFFFFFFFFFFFFFFFFF AND PUSH20 0xFFFFFFFFFFFFFFFFFFFFFFFFFFFFFFFFFFFFFFFF AND DUP2 MSTORE PUSH1 0x20 ADD SWAP1 DUP2 MSTORE PUSH1 0x20 ADD PUSH1 0x0 KECCAK256 PUSH1 0x0 DUP5 DUP2 MSTORE PUSH1 0x20 ADD SWAP1 DUP2 MSTORE PUSH1 0x20 ADD PUSH1 0x0 KECCAK256 PUSH1 0x3 ADD PUSH1 0x14 SWAP1 SLOAD SWAP1 PUSH2 0x100 EXP SWAP1 DIV PUSH1 0xFF AND PUSH1 0x2 DUP2 GT ISZERO PUSH2 0xFA2 JUMPI PUSH2 0xFA1 PUSH2 0x20D0 JUMP JUMPDEST JUMPDEST EQ PUSH2 0xFE2 JUMPI PUSH1 0x40 MLOAD PUSH32 0x8C379A000000000000000000000000000000000000000000000000000000000 DUP2 MSTORE PUSH1 0x4 ADD PUSH2 0xFD9 SWAP1 PUSH2 0x1EC5 JUMP JUMPDEST PUSH1 0x40 MLOAD DUP1 SWAP2 SUB SWAP1 REVERT JUMPDEST DUP1 ISZERO PUSH2 0x1069 JUMPI PUSH1 0x1 PUSH1 0x8 PUSH1 0x0 CALLER PUSH20 0xFFFFFFFFFFFFFFFFFFFFFFFFFFFFFFFFFFFFFFFF AND PUSH20 0xFFFFFFFFFFFFFFFFFFFFFFFFFFFFFFFFFFFFFFFF AND DUP2 MSTORE PUSH1 0x20 ADD SWAP1 DUP2 MSTORE PUSH1 0x20 ADD PUSH1 0x0 KECCAK256 PUSH1 0x0 DUP5 DUP2 MSTORE PUSH1 0x20 ADD SWAP1 DUP2 MSTORE PUSH1 0x20 ADD PUSH1 0x0 KECCAK256 PUSH1 0x3 ADD PUSH1 0x14 PUSH2 0x100 EXP DUP2 SLOAD DUP2 PUSH1 0xFF MUL NOT AND SWAP1 DUP4 PUSH1 0x2 DUP2 GT ISZERO PUSH2 0x105F JUMPI PUSH2 0x105E PUSH2 0x20D0 JUMP JUMPDEST JUMPDEST MUL OR SWAP1 SSTORE POP PUSH2 0x10E6 JUMP JUMPDEST PUSH1 0x2 PUSH1 0x8 PUSH1 0x0 CALLER PUSH20 0xFFFFFFFFFFFFFFFFFFFFFFFFFFFFFFFFFFFFFFFF AND PUSH20 0xFFFFFFFFFFFFFFFFFFFFFFFFFFFFFFFFFFFFFFFF AND DUP2 MSTORE PUSH1 0x20 ADD SWAP1 DUP2 MSTORE PUSH1 0x20 ADD PUSH1 0x0 KECCAK256 PUSH1 0x0 DUP5 DUP2 MSTORE PUSH1 0x20 ADD SWAP1 DUP2 MSTORE PUSH1 0x20 ADD PUSH1 0x0 KECCAK256 PUSH1 0x3 ADD PUSH1 0x14 PUSH2 0x100 EXP DUP2 SLOAD DUP2 PUSH1 0xFF MUL NOT AND SWAP1 DUP4 PUSH1 0x2 DUP2 GT ISZERO PUSH2 0x10E0 JUMPI PUSH2 0x10DF PUSH2 0x20D0 JUMP JUMPDEST JUMPDEST MUL OR SWAP1 SSTORE POP JUMPDEST PUSH2 0x10EF DUP3 PUSH2 0x12B7 JUMP JUMPDEST POP POP JUMP JUMPDEST PUSH2 0x10FB PUSH2 0x11EB JUMP JUMPDEST PUSH20 0xFFFFFFFFFFFFFFFFFFFFFFFFFFFFFFFFFFFFFFFF AND PUSH2 0x1119 PUSH2 0x660 JUMP JUMPDEST PUSH20 0xFFFFFFFFFFFFFFFFFFFFFFFFFFFFFFFFFFFFFFFF AND EQ PUSH2 0x116F JUMPI PUSH1 0x40 MLOAD PUSH32 0x8C379A000000000000000000000000000000000000000000000000000000000 DUP2 MSTORE PUSH1 0x4 ADD PUSH2 0x1166 SWAP1 PUSH2 0x1E65 JUMP JUMPDEST PUSH1 0x40 MLOAD DUP1 SWAP2 SUB SWAP1 REVERT JUMPDEST PUSH1 0x0 PUSH20 0xFFFFFFFFFFFFFFFFFFFFFFFFFFFFFFFFFFFFFFFF AND DUP2 PUSH20 0xFFFFFFFFFFFFFFFFFFFFFFFFFFFFFFFFFFFFFFFF AND EQ ISZERO PUSH2 0x11DF JUMPI PUSH1 0x40 MLOAD PUSH32 0x8C379A000000000000000000000000000000000000000000000000000000000 DUP2 MSTORE PUSH1 0x4 ADD PUSH2 0x11D6 SWAP1 PUSH2 0x1E05 JUMP JUMPDEST PUSH1 0x40 MLOAD DUP1 SWAP2 SUB SWAP1 REVERT JUMPDEST PUSH2 0x11E8 DUP2 PUSH2 0x11F3 JUMP JUMPDEST POP JUMP JUMPDEST PUSH1 0x0 CALLER SWAP1 POP SWAP1 JUMP JUMPDEST PUSH1 0x0 DUP1 PUSH1 0x0 SWAP1 SLOAD SWAP1 PUSH2 0x100 EXP SWAP1 DIV PUSH20 0xFFFFFFFFFFFFFFFFFFFFFFFFFFFFFFFFFFFFFFFF AND SWAP1 POP DUP2 PUSH1 0x0 DUP1 PUSH2 0x100 EXP DUP2 SLOAD DUP2 PUSH20 0xFFFFFFFFFFFFFFFFFFFFFFFFFFFFFFFFFFFFFFFF MUL NOT AND SWAP1 DUP4 PUSH20 0xFFFFFFFFFFFFFFFFFFFFFFFFFFFFFFFFFFFFFFFF AND MUL OR SWAP1 SSTORE POP DUP2 PUSH20 0xFFFFFFFFFFFFFFFFFFFFFFFFFFFFFFFFFFFFFFFF AND DUP2 PUSH20 0xFFFFFFFFFFFFFFFFFFFFFFFFFFFFFFFFFFFFFFFF AND PUSH32 0x8BE0079C531659141344CD1FD0A4F28419497F9722A3DAAFE3B4186F6B6457E0 PUSH1 0x40 MLOAD PUSH1 0x40 MLOAD DUP1 SWAP2 SUB SWAP1 LOG3 POP POP JUMP JUMPDEST PUSH1 0x6 PUSH1 0x0 CALLER PUSH20 0xFFFFFFFFFFFFFFFFFFFFFFFFFFFFFFFFFFFFFFFF AND PUSH20 0xFFFFFFFFFFFFFFFFFFFFFFFFFFFFFFFFFFFFFFFF AND DUP2 MSTORE PUSH1 0x20 ADD SWAP1 DUP2 MSTORE PUSH1 0x20 ADD PUSH1 0x0 KECCAK256 PUSH1 0x8 PUSH1 0x0 CALLER PUSH20 0xFFFFFFFFFFFFFFFFFFFFFFFFFFFFFFFFFFFFFFFF AND PUSH20 0xFFFFFFFFFFFFFFFFFFFFFFFFFFFFFFFFFFFFFFFF AND DUP2 MSTORE PUSH1 0x20 ADD SWAP1 DUP2 MSTORE PUSH1 0x20 ADD PUSH1 0x0 KECCAK256 PUSH1 0x0 DUP4 DUP2 MSTORE PUSH1 0x20 ADD SWAP1 DUP2 MSTORE PUSH1 0x20 ADD PUSH1 0x0 KECCAK256 SWAP1 DUP1 PUSH1 0x1 DUP2 SLOAD ADD DUP1 DUP3 SSTORE DUP1 SWAP2 POP POP PUSH1 0x1 SWAP1 SUB SWAP1 PUSH1 0x0 MSTORE PUSH1 0x20 PUSH1 0x0 KECCAK256 SWAP1 PUSH1 0x4 MUL ADD PUSH1 0x0 SWAP1 SWAP2 SWAP1 SWAP2 SWAP1 SWAP2 POP PUSH1 0x0 DUP3 ADD SLOAD DUP2 PUSH1 0x0 ADD SSTORE PUSH1 0x1 DUP3 ADD SLOAD DUP2 PUSH1 0x1 ADD SSTORE PUSH1 0x2 DUP3 ADD SLOAD DUP2 PUSH1 0x2 ADD SSTORE PUSH1 0x3 DUP3 ADD PUSH1 0x0 SWAP1 SLOAD SWAP1 PUSH2 0x100 EXP SWAP1 DIV PUSH20 0xFFFFFFFFFFFFFFFFFFFFFFFFFFFFFFFFFFFFFFFF AND DUP2 PUSH1 0x3 ADD PUSH1 0x0 PUSH2 0x100 EXP DUP2 SLOAD DUP2 PUSH20 0xFFFFFFFFFFFFFFFFFFFFFFFFFFFFFFFFFFFFFFFF MUL NOT AND SWAP1 DUP4 PUSH20 0xFFFFFFFFFFFFFFFFFFFFFFFFFFFFFFFFFFFFFFFF AND MUL OR SWAP1 SSTORE POP PUSH1 0x3 DUP3 ADD PUSH1 0x14 SWAP1 SLOAD SWAP1 PUSH2 0x100 EXP SWAP1 DIV PUSH1 0xFF AND DUP2 PUSH1 0x3 ADD PUSH1 0x14 PUSH2 0x100 EXP DUP2 SLOAD DUP2 PUSH1 0xFF MUL NOT AND SWAP1 DUP4 PUSH1 0x2 DUP2 GT ISZERO PUSH2 0x142C JUMPI PUSH2 0x142B PUSH2 0x20D0 JUMP JUMPDEST JUMPDEST MUL OR SWAP1 SSTORE POP POP POP PUSH1 0x8 PUSH1 0x0 CALLER PUSH20 0xFFFFFFFFFFFFFFFFFFFFFFFFFFFFFFFFFFFFFFFF AND PUSH20 0xFFFFFFFFFFFFFFFFFFFFFFFFFFFFFFFFFFFFFFFF AND DUP2 MSTORE PUSH1 0x20 ADD SWAP1 DUP2 MSTORE PUSH1 0x20 ADD PUSH1 0x0 KECCAK256 PUSH1 0x0 DUP3 DUP2 MSTORE PUSH1 0x20 ADD SWAP1 DUP2 MSTORE PUSH1 0x20 ADD PUSH1 0x0 KECCAK256 PUSH1 0x7 PUSH1 0x0 PUSH1 0x8 PUSH1 0x0 CALLER PUSH20 0xFFFFFFFFFFFFFFFFFFFFFFFFFFFFFFFFFFFFFFFF AND PUSH20 0xFFFFFFFFFFFFFFFFFFFFFFFFFFFFFFFFFFFFFFFF AND DUP2 MSTORE PUSH1 0x20 ADD SWAP1 DUP2 MSTORE PUSH1 0x20 ADD PUSH1 0x0 KECCAK256 PUSH1 0x0 DUP6 DUP2 MSTORE PUSH1 0x20 ADD SWAP1 DUP2 MSTORE PUSH1 0x20 ADD PUSH1 0x0 KECCAK256 PUSH1 0x0 ADD SLOAD DUP2 MSTORE PUSH1 0x20 ADD SWAP1 DUP2 MSTORE PUSH1 0x20 ADD PUSH1 0x0 KECCAK256 PUSH1 0x0 DUP3 ADD SLOAD DUP2 PUSH1 0x0 ADD SSTORE PUSH1 0x1 DUP3 ADD SLOAD DUP2 PUSH1 0x1 ADD SSTORE PUSH1 0x2 DUP3 ADD SLOAD DUP2 PUSH1 0x2 ADD SSTORE PUSH1 0x3 DUP3 ADD PUSH1 0x0 SWAP1 SLOAD SWAP1 PUSH2 0x100 EXP SWAP1 DIV PUSH20 0xFFFFFFFFFFFFFFFFFFFFFFFFFFFFFFFFFFFFFFFF AND DUP2 PUSH1 0x3 ADD PUSH1 0x0 PUSH2 0x100 EXP DUP2 SLOAD DUP2 PUSH20 0xFFFFFFFFFFFFFFFFFFFFFFFFFFFFFFFFFFFFFFFF MUL NOT AND SWAP1 DUP4 PUSH20 0xFFFFFFFFFFFFFFFFFFFFFFFFFFFFFFFFFFFFFFFF AND MUL OR SWAP1 SSTORE POP PUSH1 0x3 DUP3 ADD PUSH1 0x14 SWAP1 SLOAD SWAP1 PUSH2 0x100 EXP SWAP1 DIV PUSH1 0xFF AND DUP2 PUSH1 0x3 ADD PUSH1 0x14 PUSH2 0x100 EXP DUP2 SLOAD DUP2 PUSH1 0xFF MUL NOT AND SWAP1 DUP4 PUSH1 0x2 DUP2 GT ISZERO PUSH2 0x15A6 JUMPI PUSH2 0x15A5 PUSH2 0x20D0 JUMP JUMPDEST JUMPDEST MUL OR SWAP1 SSTORE POP SWAP1 POP POP PUSH1 0x40 MLOAD DUP1 PUSH1 0xA0 ADD PUSH1 0x40 MSTORE DUP1 PUSH1 0x0 DUP1 SHL DUP2 MSTORE PUSH1 0x20 ADD PUSH1 0x0 DUP1 SHL DUP2 MSTORE PUSH1 0x20 ADD PUSH1 0x0 DUP2 MSTORE PUSH1 0x20 ADD PUSH1 0x0 PUSH20 0xFFFFFFFFFFFFFFFFFFFFFFFFFFFFFFFFFFFFFFFF AND DUP2 MSTORE PUSH1 0x20 ADD PUSH1 0x0 PUSH1 0x2 DUP2 GT ISZERO PUSH2 0x1603 JUMPI PUSH2 0x1602 PUSH2 0x20D0 JUMP JUMPDEST JUMPDEST DUP2 MSTORE POP PUSH1 0x8 PUSH1 0x0 CALLER PUSH20 0xFFFFFFFFFFFFFFFFFFFFFFFFFFFFFFFFFFFFFFFF AND PUSH20 0xFFFFFFFFFFFFFFFFFFFFFFFFFFFFFFFFFFFFFFFF AND DUP2 MSTORE PUSH1 0x20 ADD SWAP1 DUP2 MSTORE PUSH1 0x20 ADD PUSH1 0x0 KECCAK256 PUSH1 0x0 DUP4 DUP2 MSTORE PUSH1 0x20 ADD SWAP1 DUP2 MSTORE PUSH1 0x20 ADD PUSH1 0x0 KECCAK256 PUSH1 0x0 DUP3 ADD MLOAD DUP2 PUSH1 0x0 ADD SSTORE PUSH1 0x20 DUP3 ADD MLOAD DUP2 PUSH1 0x1 ADD SSTORE PUSH1 0x40 DUP3 ADD MLOAD DUP2 PUSH1 0x2 ADD SSTORE PUSH1 0x60 DUP3 ADD MLOAD DUP2 PUSH1 0x3 ADD PUSH1 0x0 PUSH2 0x100 EXP DUP2 SLOAD DUP2 PUSH20 0xFFFFFFFFFFFFFFFFFFFFFFFFFFFFFFFFFFFFFFFF MUL NOT AND SWAP1 DUP4 PUSH20 0xFFFFFFFFFFFFFFFFFFFFFFFFFFFFFFFFFFFFFFFF AND MUL OR SWAP1 SSTORE POP PUSH1 0x80 DUP3 ADD MLOAD DUP2 PUSH1 0x3 ADD PUSH1 0x14 PUSH2 0x100 EXP DUP2 SLOAD DUP2 PUSH1 0xFF MUL NOT AND SWAP1 DUP4 PUSH1 0x2 DUP2 GT ISZERO PUSH2 0x16E6 JUMPI PUSH2 0x16E5 PUSH2 0x20D0 JUMP JUMPDEST JUMPDEST MUL OR SWAP1 SSTORE POP SWAP1 POP POP DUP1 CALLER PUSH20 0xFFFFFFFFFFFFFFFFFFFFFFFFFFFFFFFFFFFFFFFF AND PUSH32 0x58E6B4BB20368F9A0B488A5727FFF9B8795B7C85245C2A5D7CCBEA5552FD2CA5 PUSH1 0x8 PUSH1 0x0 CALLER PUSH20 0xFFFFFFFFFFFFFFFFFFFFFFFFFFFFFFFFFFFFFFFF AND PUSH20 0xFFFFFFFFFFFFFFFFFFFFFFFFFFFFFFFFFFFFFFFF AND DUP2 MSTORE PUSH1 0x20 ADD SWAP1 DUP2 MSTORE PUSH1 0x20 ADD PUSH1 0x0 KECCAK256 PUSH1 0x0 DUP6 DUP2 MSTORE PUSH1 0x20 ADD SWAP1 DUP2 MSTORE PUSH1 0x20 ADD PUSH1 0x0 KECCAK256 PUSH1 0x2 ADD SLOAD PUSH1 0x40 MLOAD PUSH2 0x1788 SWAP2 SWAP1 PUSH2 0x1F20 JUMP JUMPDEST PUSH1 0x40 MLOAD DUP1 SWAP2 SUB SWAP1 LOG3 POP JUMP JUMPDEST PUSH1 0x40 MLOAD DUP1 PUSH1 0xA0 ADD PUSH1 0x40 MSTORE DUP1 PUSH1 0x0 DUP1 NOT AND DUP2 MSTORE PUSH1 0x20 ADD PUSH1 0x0 DUP1 NOT AND DUP2 MSTORE PUSH1 0x20 ADD PUSH1 0x0 DUP2 MSTORE PUSH1 0x20 ADD PUSH1 0x0 PUSH20 0xFFFFFFFFFFFFFFFFFFFFFFFFFFFFFFFFFFFFFFFF AND DUP2 MSTORE PUSH1 0x20 ADD PUSH1 0x0 PUSH1 0x2 DUP2 GT ISZERO PUSH2 0x17EA JUMPI PUSH2 0x17E9 PUSH2 0x20D0 JUMP JUMPDEST JUMPDEST DUP2 MSTORE POP SWAP1 JUMP JUMPDEST PUSH1 0x0 PUSH2 0x1803 PUSH2 0x17FE DUP5 PUSH2 0x1F60 JUMP JUMPDEST PUSH2 0x1F3B JUMP JUMPDEST SWAP1 POP DUP3 DUP2 MSTORE PUSH1 0x20 DUP2 ADD DUP5 DUP5 DUP5 ADD GT ISZERO PUSH2 0x181F JUMPI PUSH2 0x181E PUSH2 0x2162 JUMP JUMPDEST JUMPDEST PUSH2 0x182A DUP5 DUP3 DUP6 PUSH2 0x202F JUMP JUMPDEST POP SWAP4 SWAP3 POP POP POP JUMP JUMPDEST PUSH1 0x0 DUP2 CALLDATALOAD SWAP1 POP PUSH2 0x1841 DUP2 PUSH2 0x23A9 JUMP JUMPDEST SWAP3 SWAP2 POP POP JUMP JUMPDEST PUSH1 0x0 DUP2 CALLDATALOAD SWAP1 POP PUSH2 0x1856 DUP2 PUSH2 0x23C0 JUMP JUMPDEST SWAP3 SWAP2 POP POP JUMP JUMPDEST PUSH1 0x0 DUP2 CALLDATALOAD SWAP1 POP PUSH2 0x186B DUP2 PUSH2 0x23D7 JUMP JUMPDEST SWAP3 SWAP2 POP POP JUMP JUMPDEST PUSH1 0x0 DUP3 PUSH1 0x1F DUP4 ADD SLT PUSH2 0x1886 JUMPI PUSH2 0x1885 PUSH2 0x215D JUMP JUMPDEST JUMPDEST DUP2 CALLDATALOAD PUSH2 0x1896 DUP5 DUP3 PUSH1 0x20 DUP7 ADD PUSH2 0x17F0 JUMP JUMPDEST SWAP2 POP POP SWAP3 SWAP2 POP POP JUMP JUMPDEST PUSH1 0x0 DUP2 CALLDATALOAD SWAP1 POP PUSH2 0x18AE DUP2 PUSH2 0x23EE JUMP JUMPDEST SWAP3 SWAP2 POP POP JUMP JUMPDEST PUSH1 0x0 PUSH1 0x20 DUP3 DUP5 SUB SLT ISZERO PUSH2 0x18CA JUMPI PUSH2 0x18C9 PUSH2 0x216C JUMP JUMPDEST JUMPDEST PUSH1 0x0 PUSH2 0x18D8 DUP5 DUP3 DUP6 ADD PUSH2 0x1832 JUMP JUMPDEST SWAP2 POP POP SWAP3 SWAP2 POP POP JUMP JUMPDEST PUSH1 0x0 DUP1 PUSH1 0x40 DUP4 DUP6 SUB SLT ISZERO PUSH2 0x18F8 JUMPI PUSH2 0x18F7 PUSH2 0x216C JUMP JUMPDEST JUMPDEST PUSH1 0x0 PUSH2 0x1906 DUP6 DUP3 DUP7 ADD PUSH2 0x1832 JUMP JUMPDEST SWAP3 POP POP PUSH1 0x20 PUSH2 0x1917 DUP6 DUP3 DUP7 ADD PUSH2 0x185C JUMP JUMPDEST SWAP2 POP POP SWAP3 POP SWAP3 SWAP1 POP JUMP JUMPDEST PUSH1 0x0 DUP1 PUSH1 0x40 DUP4 DUP6 SUB SLT ISZERO PUSH2 0x1938 JUMPI PUSH2 0x1937 PUSH2 0x216C JUMP JUMPDEST JUMPDEST PUSH1 0x0 PUSH2 0x1946 DUP6 DUP3 DUP7 ADD PUSH2 0x1832 JUMP JUMPDEST SWAP3 POP POP PUSH1 0x20 PUSH2 0x1957 DUP6 DUP3 DUP7 ADD PUSH2 0x189F JUMP JUMPDEST SWAP2 POP POP SWAP3 POP SWAP3 SWAP1 POP JUMP JUMPDEST PUSH1 0x0 DUP1 PUSH1 0x0 DUP1 PUSH1 0x80 DUP6 DUP8 SUB SLT ISZERO PUSH2 0x197B JUMPI PUSH2 0x197A PUSH2 0x216C JUMP JUMPDEST JUMPDEST PUSH1 0x0 PUSH2 0x1989 DUP8 DUP3 DUP9 ADD PUSH2 0x1832 JUMP JUMPDEST SWAP5 POP POP PUSH1 0x20 PUSH2 0x199A DUP8 DUP3 DUP9 ADD PUSH2 0x189F JUMP JUMPDEST SWAP4 POP POP PUSH1 0x40 PUSH2 0x19AB DUP8 DUP3 DUP9 ADD PUSH2 0x185C JUMP JUMPDEST SWAP3 POP POP PUSH1 0x60 PUSH2 0x19BC DUP8 DUP3 DUP9 ADD PUSH2 0x1847 JUMP JUMPDEST SWAP2 POP POP SWAP3 SWAP6 SWAP2 SWAP5 POP SWAP3 POP JUMP JUMPDEST PUSH1 0x0 PUSH1 0x20 DUP3 DUP5 SUB SLT ISZERO PUSH2 0x19DE JUMPI PUSH2 0x19DD PUSH2 0x216C JUMP JUMPDEST JUMPDEST PUSH1 0x0 PUSH2 0x19EC DUP5 DUP3 DUP6 ADD PUSH2 0x185C JUMP JUMPDEST SWAP2 POP POP SWAP3 SWAP2 POP POP JUMP JUMPDEST PUSH1 0x0 DUP1 PUSH1 0x0 PUSH1 0x60 DUP5 DUP7 SUB SLT ISZERO PUSH2 0x1A0E JUMPI PUSH2 0x1A0D PUSH2 0x216C JUMP JUMPDEST JUMPDEST PUSH1 0x0 PUSH2 0x1A1C DUP7 DUP3 DUP8 ADD PUSH2 0x185C JUMP JUMPDEST SWAP4 POP POP PUSH1 0x20 PUSH2 0x1A2D DUP7 DUP3 DUP8 ADD PUSH2 0x1832 JUMP JUMPDEST SWAP3 POP POP PUSH1 0x40 PUSH2 0x1A3E DUP7 DUP3 DUP8 ADD PUSH2 0x1847 JUMP JUMPDEST SWAP2 POP POP SWAP3 POP SWAP3 POP SWAP3 JUMP JUMPDEST PUSH1 0x0 DUP1 PUSH1 0x40 DUP4 DUP6 SUB SLT ISZERO PUSH2 0x1A5F JUMPI PUSH2 0x1A5E PUSH2 0x216C JUMP JUMPDEST JUMPDEST PUSH1 0x0 PUSH2 0x1A6D DUP6 DUP3 DUP7 ADD PUSH2 0x185C JUMP JUMPDEST SWAP3 POP POP PUSH1 0x20 PUSH2 0x1A7E DUP6 DUP3 DUP7 ADD PUSH2 0x1847 JUMP JUMPDEST SWAP2 POP POP SWAP3 POP SWAP3 SWAP1 POP JUMP JUMPDEST PUSH1 0x0 DUP1 PUSH1 0x40 DUP4 DUP6 SUB SLT ISZERO PUSH2 0x1A9F JUMPI PUSH2 0x1A9E PUSH2 0x216C JUMP JUMPDEST JUMPDEST PUSH1 0x0 PUSH2 0x1AAD DUP6 DUP3 DUP7 ADD PUSH2 0x185C JUMP JUMPDEST SWAP3 POP POP PUSH1 0x20 PUSH2 0x1ABE DUP6 DUP3 DUP7 ADD PUSH2 0x189F JUMP JUMPDEST SWAP2 POP POP SWAP3 POP SWAP3 SWAP1 POP JUMP JUMPDEST PUSH1 0x0 PUSH1 0x20 DUP3 DUP5 SUB SLT ISZERO PUSH2 0x1ADE JUMPI PUSH2 0x1ADD PUSH2 0x216C JUMP JUMPDEST JUMPDEST PUSH1 0x0 DUP3 ADD CALLDATALOAD PUSH8 0xFFFFFFFFFFFFFFFF DUP2 GT ISZERO PUSH2 0x1AFC JUMPI PUSH2 0x1AFB PUSH2 0x2167 JUMP JUMPDEST JUMPDEST PUSH2 0x1B08 DUP5 DUP3 DUP6 ADD PUSH2 0x1871 JUMP JUMPDEST SWAP2 POP POP SWAP3 SWAP2 POP POP JUMP JUMPDEST PUSH2 0x1B1A DUP2 PUSH2 0x1FB8 JUMP JUMPDEST DUP3 MSTORE POP POP JUMP JUMPDEST PUSH2 0x1B29 DUP2 PUSH2 0x1FB8 JUMP JUMPDEST DUP3 MSTORE POP POP JUMP JUMPDEST PUSH2 0x1B40 PUSH2 0x1B3B DUP3 PUSH2 0x1FB8 JUMP JUMPDEST PUSH2 0x20A2 JUMP JUMPDEST DUP3 MSTORE POP POP JUMP JUMPDEST PUSH2 0x1B4F DUP2 PUSH2 0x1FD6 JUMP JUMPDEST DUP3 MSTORE POP POP JUMP JUMPDEST PUSH2 0x1B5E DUP2 PUSH2 0x1FD6 JUMP JUMPDEST DUP3 MSTORE POP POP JUMP JUMPDEST PUSH2 0x1B6D DUP2 PUSH2 0x201D JUMP JUMPDEST DUP3 MSTORE POP POP JUMP JUMPDEST PUSH1 0x0 PUSH2 0x1B7E DUP3 PUSH2 0x1F91 JUMP JUMPDEST PUSH2 0x1B88 DUP2 DUP6 PUSH2 0x1FAD JUMP JUMPDEST SWAP4 POP PUSH2 0x1B98 DUP2 DUP6 PUSH1 0x20 DUP7 ADD PUSH2 0x203E JUMP JUMPDEST DUP1 DUP5 ADD SWAP2 POP POP SWAP3 SWAP2 POP POP JUMP JUMPDEST PUSH1 0x0 PUSH2 0x1BB1 PUSH1 0x26 DUP4 PUSH2 0x1F9C JUMP JUMPDEST SWAP2 POP PUSH2 0x1BBC DUP3 PUSH2 0x218F JUMP JUMPDEST PUSH1 0x40 DUP3 ADD SWAP1 POP SWAP2 SWAP1 POP JUMP JUMPDEST PUSH1 0x0 PUSH2 0x1BD4 PUSH1 0x30 DUP4 PUSH2 0x1F9C JUMP JUMPDEST SWAP2 POP PUSH2 0x1BDF DUP3 PUSH2 0x21DE JUMP JUMPDEST PUSH1 0x40 DUP3 ADD SWAP1 POP SWAP2 SWAP1 POP JUMP JUMPDEST PUSH1 0x0 PUSH2 0x1BF7 PUSH1 0x13 DUP4 PUSH2 0x1F9C JUMP JUMPDEST SWAP2 POP PUSH2 0x1C02 DUP3 PUSH2 0x222D JUMP JUMPDEST PUSH1 0x20 DUP3 ADD SWAP1 POP SWAP2 SWAP1 POP JUMP JUMPDEST PUSH1 0x0 PUSH2 0x1C1A PUSH1 0x20 DUP4 PUSH2 0x1F9C JUMP JUMPDEST SWAP2 POP PUSH2 0x1C25 DUP3 PUSH2 0x2256 JUMP JUMPDEST PUSH1 0x20 DUP3 ADD SWAP1 POP SWAP2 SWAP1 POP JUMP JUMPDEST PUSH1 0x0 PUSH2 0x1C3D PUSH1 0x28 DUP4 PUSH2 0x1F9C JUMP JUMPDEST SWAP2 POP PUSH2 0x1C48 DUP3 PUSH2 0x227F JUMP JUMPDEST PUSH1 0x40 DUP3 ADD SWAP1 POP SWAP2 SWAP1 POP JUMP JUMPDEST PUSH1 0x0 PUSH2 0x1C60 PUSH1 0x24 DUP4 PUSH2 0x1F9C JUMP JUMPDEST SWAP2 POP PUSH2 0x1C6B DUP3 PUSH2 0x22CE JUMP JUMPDEST PUSH1 0x40 DUP3 ADD SWAP1 POP SWAP2 SWAP1 POP JUMP JUMPDEST PUSH1 0x0 PUSH2 0x1C83 PUSH1 0x19 DUP4 PUSH2 0x1F9C JUMP JUMPDEST SWAP2 POP PUSH2 0x1C8E DUP3 PUSH2 0x231D JUMP JUMPDEST PUSH1 0x20 DUP3 ADD SWAP1 POP SWAP2 SWAP1 POP JUMP JUMPDEST PUSH1 0x0 PUSH2 0x1CA6 PUSH1 0x2A DUP4 PUSH2 0x1F9C JUMP JUMPDEST SWAP2 POP PUSH2 0x1CB1 DUP3 PUSH2 0x2346 JUMP JUMPDEST PUSH1 0x40 DUP3 ADD SWAP1 POP SWAP2 SWAP1 POP JUMP JUMPDEST PUSH1 0xA0 DUP3 ADD PUSH1 0x0 DUP3 ADD MLOAD PUSH2 0x1CD2 PUSH1 0x0 DUP6 ADD DUP3 PUSH2 0x1B46 JUMP JUMPDEST POP PUSH1 0x20 DUP3 ADD MLOAD PUSH2 0x1CE5 PUSH1 0x20 DUP6 ADD DUP3 PUSH2 0x1B46 JUMP JUMPDEST POP PUSH1 0x40 DUP3 ADD MLOAD PUSH2 0x1CF8 PUSH1 0x40 DUP6 ADD DUP3 PUSH2 0x1D24 JUMP JUMPDEST POP PUSH1 0x60 DUP3 ADD MLOAD PUSH2 0x1D0B PUSH1 0x60 DUP6 ADD DUP3 PUSH2 0x1B11 JUMP JUMPDEST POP PUSH1 0x80 DUP3 ADD MLOAD PUSH2 0x1D1E PUSH1 0x80 DUP6 ADD DUP3 PUSH2 0x1B64 JUMP JUMPDEST POP POP POP POP JUMP JUMPDEST PUSH2 0x1D2D DUP2 PUSH2 0x2013 JUMP JUMPDEST DUP3 MSTORE POP POP JUMP JUMPDEST PUSH2 0x1D3C DUP2 PUSH2 0x2013 JUMP JUMPDEST DUP3 MSTORE POP POP JUMP JUMPDEST PUSH2 0x1D53 PUSH2 0x1D4E DUP3 PUSH2 0x2013 JUMP JUMPDEST PUSH2 0x20C6 JUMP JUMPDEST DUP3 MSTORE POP POP JUMP JUMPDEST PUSH1 0x0 PUSH2 0x1D65 DUP3 DUP9 PUSH2 0x1B2F JUMP JUMPDEST PUSH1 0x14 DUP3 ADD SWAP2 POP PUSH2 0x1D75 DUP3 DUP8 PUSH2 0x1B2F JUMP JUMPDEST PUSH1 0x14 DUP3 ADD SWAP2 POP PUSH2 0x1D85 DUP3 DUP7 PUSH2 0x1D42 JUMP JUMPDEST PUSH1 0x20 DUP3 ADD SWAP2 POP PUSH2 0x1D95 DUP3 DUP6 PUSH2 0x1D42 JUMP JUMPDEST PUSH1 0x20 DUP3 ADD SWAP2 POP PUSH2 0x1DA5 DUP3 DUP5 PUSH2 0x1D42 JUMP JUMPDEST PUSH1 0x20 DUP3 ADD SWAP2 POP DUP2 SWAP1 POP SWAP7 SWAP6 POP POP POP POP POP POP JUMP JUMPDEST PUSH1 0x0 PUSH2 0x1DC4 DUP3 DUP5 PUSH2 0x1B73 JUMP JUMPDEST SWAP2 POP DUP2 SWAP1 POP SWAP3 SWAP2 POP POP JUMP JUMPDEST PUSH1 0x0 PUSH1 0x20 DUP3 ADD SWAP1 POP PUSH2 0x1DE4 PUSH1 0x0 DUP4 ADD DUP5 PUSH2 0x1B20 JUMP JUMPDEST SWAP3 SWAP2 POP POP JUMP JUMPDEST PUSH1 0x0 PUSH1 0x20 DUP3 ADD SWAP1 POP PUSH2 0x1DFF PUSH1 0x0 DUP4 ADD DUP5 PUSH2 0x1B55 JUMP JUMPDEST SWAP3 SWAP2 POP POP JUMP JUMPDEST PUSH1 0x0 PUSH1 0x20 DUP3 ADD SWAP1 POP DUP2 DUP2 SUB PUSH1 0x0 DUP4 ADD MSTORE PUSH2 0x1E1E DUP2 PUSH2 0x1BA4 JUMP JUMPDEST SWAP1 POP SWAP2 SWAP1 POP JUMP JUMPDEST PUSH1 0x0 PUSH1 0x20 DUP3 ADD SWAP1 POP DUP2 DUP2 SUB PUSH1 0x0 DUP4 ADD MSTORE PUSH2 0x1E3E DUP2 PUSH2 0x1BC7 JUMP JUMPDEST SWAP1 POP SWAP2 SWAP1 POP JUMP JUMPDEST PUSH1 0x0 PUSH1 0x20 DUP3 ADD SWAP1 POP DUP2 DUP2 SUB PUSH1 0x0 DUP4 ADD MSTORE PUSH2 0x1E5E DUP2 PUSH2 0x1BEA JUMP JUMPDEST SWAP1 POP SWAP2 SWAP1 POP JUMP JUMPDEST PUSH1 0x0 PUSH1 0x20 DUP3 ADD SWAP1 POP DUP2 DUP2 SUB PUSH1 0x0 DUP4 ADD MSTORE PUSH2 0x1E7E DUP2 PUSH2 0x1C0D JUMP JUMPDEST SWAP1 POP SWAP2 SWAP1 POP JUMP JUMPDEST PUSH1 0x0 PUSH1 0x20 DUP3 ADD SWAP1 POP DUP2 DUP2 SUB PUSH1 0x0 DUP4 ADD MSTORE PUSH2 0x1E9E DUP2 PUSH2 0x1C30 JUMP JUMPDEST SWAP1 POP SWAP2 SWAP1 POP JUMP JUMPDEST PUSH1 0x0 PUSH1 0x20 DUP3 ADD SWAP1 POP DUP2 DUP2 SUB PUSH1 0x0 DUP4 ADD MSTORE PUSH2 0x1EBE DUP2 PUSH2 0x1C53 JUMP JUMPDEST SWAP1 POP SWAP2 SWAP1 POP JUMP JUMPDEST PUSH1 0x0 PUSH1 0x20 DUP3 ADD SWAP1 POP DUP2 DUP2 SUB PUSH1 0x0 DUP4 ADD MSTORE PUSH2 0x1EDE DUP2 PUSH2 0x1C76 JUMP JUMPDEST SWAP1 POP SWAP2 SWAP1 POP JUMP JUMPDEST PUSH1 0x0 PUSH1 0x20 DUP3 ADD SWAP1 POP DUP2 DUP2 SUB PUSH1 0x0 DUP4 ADD MSTORE PUSH2 0x1EFE DUP2 PUSH2 0x1C99 JUMP JUMPDEST SWAP1 POP SWAP2 SWAP1 POP JUMP JUMPDEST PUSH1 0x0 PUSH1 0xA0 DUP3 ADD SWAP1 POP PUSH2 0x1F1A PUSH1 0x0 DUP4 ADD DUP5 PUSH2 0x1CBC JUMP JUMPDEST SWAP3 SWAP2 POP POP JUMP JUMPDEST PUSH1 0x0 PUSH1 0x20 DUP3 ADD SWAP1 POP PUSH2 0x1F35 PUSH1 0x0 DUP4 ADD DUP5 PUSH2 0x1D33 JUMP JUMPDEST SWAP3 SWAP2 POP POP JUMP JUMPDEST PUSH1 0x0 PUSH2 0x1F45 PUSH2 0x1F56 JUMP JUMPDEST SWAP1 POP PUSH2 0x1F51 DUP3 DUP3 PUSH2 0x2071 JUMP JUMPDEST SWAP2 SWAP1 POP JUMP JUMPDEST PUSH1 0x0 PUSH1 0x40 MLOAD SWAP1 POP SWAP1 JUMP JUMPDEST PUSH1 0x0 PUSH8 0xFFFFFFFFFFFFFFFF DUP3 GT ISZERO PUSH2 0x1F7B JUMPI PUSH2 0x1F7A PUSH2 0x212E JUMP JUMPDEST JUMPDEST PUSH2 0x1F84 DUP3 PUSH2 0x2171 JUMP JUMPDEST SWAP1 POP PUSH1 0x20 DUP2 ADD SWAP1 POP SWAP2 SWAP1 POP JUMP JUMPDEST PUSH1 0x0 DUP2 MLOAD SWAP1 POP SWAP2 SWAP1 POP JUMP JUMPDEST PUSH1 0x0 DUP3 DUP3 MSTORE PUSH1 0x20 DUP3 ADD SWAP1 POP SWAP3 SWAP2 POP POP JUMP JUMPDEST PUSH1 0x0 DUP2 SWAP1 POP SWAP3 SWAP2 POP POP JUMP JUMPDEST PUSH1 0x0 PUSH2 0x1FC3 DUP3 PUSH2 0x1FF3 JUMP JUMPDEST SWAP1 POP SWAP2 SWAP1 POP JUMP JUMPDEST PUSH1 0x0 DUP2 ISZERO ISZERO SWAP1 POP SWAP2 SWAP1 POP JUMP JUMPDEST PUSH1 0x0 DUP2 SWAP1 POP SWAP2 SWAP1 POP JUMP JUMPDEST PUSH1 0x0 DUP2 SWAP1 POP PUSH2 0x1FEE DUP3 PUSH2 0x2395 JUMP JUMPDEST SWAP2 SWAP1 POP JUMP JUMPDEST PUSH1 0x0 PUSH20 0xFFFFFFFFFFFFFFFFFFFFFFFFFFFFFFFFFFFFFFFF DUP3 AND SWAP1 POP SWAP2 SWAP1 POP JUMP JUMPDEST PUSH1 0x0 DUP2 SWAP1 POP SWAP2 SWAP1 POP JUMP JUMPDEST PUSH1 0x0 PUSH2 0x2028 DUP3 PUSH2 0x1FE0 JUMP JUMPDEST SWAP1 POP SWAP2 SWAP1 POP JUMP JUMPDEST DUP3 DUP2 DUP4 CALLDATACOPY PUSH1 0x0 DUP4 DUP4 ADD MSTORE POP POP POP JUMP JUMPDEST PUSH1 0x0 JUMPDEST DUP4 DUP2 LT ISZERO PUSH2 0x205C JUMPI DUP1 DUP3 ADD MLOAD DUP2 DUP5 ADD MSTORE PUSH1 0x20 DUP2 ADD SWAP1 POP PUSH2 0x2041 JUMP JUMPDEST DUP4 DUP2 GT ISZERO PUSH2 0x206B JUMPI PUSH1 0x0 DUP5 DUP5 ADD MSTORE JUMPDEST POP POP POP POP JUMP JUMPDEST PUSH2 0x207A DUP3 PUSH2 0x2171 JUMP JUMPDEST DUP2 ADD DUP2 DUP2 LT PUSH8 0xFFFFFFFFFFFFFFFF DUP3 GT OR ISZERO PUSH2 0x2099 JUMPI PUSH2 0x2098 PUSH2 0x212E JUMP JUMPDEST JUMPDEST DUP1 PUSH1 0x40 MSTORE POP POP POP JUMP JUMPDEST PUSH1 0x0 PUSH2 0x20AD DUP3 PUSH2 0x20B4 JUMP JUMPDEST SWAP1 POP SWAP2 SWAP1 POP JUMP JUMPDEST PUSH1 0x0 PUSH2 0x20BF DUP3 PUSH2 0x2182 JUMP JUMPDEST SWAP1 POP SWAP2 SWAP1 POP JUMP JUMPDEST PUSH1 0x0 DUP2 SWAP1 POP SWAP2 SWAP1 POP JUMP JUMPDEST PUSH32 0x4E487B7100000000000000000000000000000000000000000000000000000000 PUSH1 0x0 MSTORE PUSH1 0x21 PUSH1 0x4 MSTORE PUSH1 0x24 PUSH1 0x0 REVERT JUMPDEST PUSH32 0x4E487B7100000000000000000000000000000000000000000000000000000000 PUSH1 0x0 MSTORE PUSH1 0x32 PUSH1 0x4 MSTORE PUSH1 0x24 PUSH1 0x0 REVERT JUMPDEST PUSH32 0x4E487B7100000000000000000000000000000000000000000000000000000000 PUSH1 0x0 MSTORE PUSH1 0x41 PUSH1 0x4 MSTORE PUSH1 0x24 PUSH1 0x0 REVERT JUMPDEST PUSH1 0x0 DUP1 REVERT JUMPDEST PUSH1 0x0 DUP1 REVERT JUMPDEST PUSH1 0x0 DUP1 REVERT JUMPDEST PUSH1 0x0 DUP1 REVERT JUMPDEST PUSH1 0x0 PUSH1 0x1F NOT PUSH1 0x1F DUP4 ADD AND SWAP1 POP SWAP2 SWAP1 POP JUMP JUMPDEST PUSH1 0x0 DUP2 PUSH1 0x60 SHL SWAP1 POP SWAP2 SWAP1 POP JUMP JUMPDEST PUSH32 0x4F776E61626C653A206E6577206F776E657220697320746865207A65726F2061 PUSH1 0x0 DUP3 ADD MSTORE PUSH32 0x6464726573730000000000000000000000000000000000000000000000000000 PUSH1 0x20 DUP3 ADD MSTORE POP JUMP JUMPDEST PUSH32 0x5468657265206973206E6F2070617469656E7420726567697374657265642077 PUSH1 0x0 DUP3 ADD MSTORE PUSH32 0x6974682074686973206164647265737300000000000000000000000000000000 PUSH1 0x20 DUP3 ADD MSTORE POP JUMP JUMPDEST PUSH32 0x496E766F6963652063616E277420666F756E6400000000000000000000000000 PUSH1 0x0 DUP3 ADD MSTORE POP JUMP JUMPDEST PUSH32 0x4F776E61626C653A2063616C6C6572206973206E6F7420746865206F776E6572 PUSH1 0x0 DUP3 ADD MSTORE POP JUMP JUMPDEST PUSH32 0x4F6E6C7920636C696E6963732063616E20706572666F726D2074686973206F70 PUSH1 0x0 DUP3 ADD MSTORE PUSH32 0x65726174696F6E73000000000000000000000000000000000000000000000000 PUSH1 0x20 DUP3 ADD MSTORE POP JUMP JUMPDEST PUSH32 0x50617469656E742063616E27742062652063686172676564207468697320616D PUSH1 0x0 DUP3 ADD MSTORE PUSH32 0x6F756E7400000000000000000000000000000000000000000000000000000000 PUSH1 0x20 DUP3 ADD MSTORE POP JUMP JUMPDEST PUSH32 0x496E766F6963652063616E277420626520616363657074656400000000000000 PUSH1 0x0 DUP3 ADD MSTORE POP JUMP JUMPDEST PUSH32 0x50617469656E742063616E2774206265206368617267656420666F7220746869 PUSH1 0x0 DUP3 ADD MSTORE PUSH32 0x732063617465676F727900000000000000000000000000000000000000000000 PUSH1 0x20 DUP3 ADD MSTORE POP JUMP JUMPDEST PUSH1 0x3 DUP2 LT PUSH2 0x23A6 JUMPI PUSH2 0x23A5 PUSH2 0x20D0 JUMP JUMPDEST JUMPDEST POP JUMP JUMPDEST PUSH2 0x23B2 DUP2 PUSH2 0x1FB8 JUMP JUMPDEST DUP2 EQ PUSH2 0x23BD JUMPI PUSH1 0x0 DUP1 REVERT JUMPDEST POP JUMP JUMPDEST PUSH2 0x23C9 DUP2 PUSH2 0x1FCA JUMP JUMPDEST DUP2 EQ PUSH2 0x23D4 JUMPI PUSH1 0x0 DUP1 REVERT JUMPDEST POP JUMP JUMPDEST PUSH2 0x23E0 DUP2 PUSH2 0x1FD6 JUMP JUMPDEST DUP2 EQ PUSH2 0x23EB JUMPI PUSH1 0x0 DUP1 REVERT JUMPDEST POP JUMP JUMPDEST PUSH2 0x23F7 DUP2 PUSH2 0x2013 JUMP JUMPDEST DUP2 EQ PUSH2 0x2402 JUMPI PUSH1 0x0 DUP1 REVERT JUMPDEST POP JUMP INVALID LOG2 PUSH5 0x6970667358 0x22 SLT KECCAK256 PUSH17 0xB657640A8C20B63076810156BA04C17CD0 0xEB DUP14 COINBASE 0xEA 0xEE 0x4C CALLDATASIZE 0xE6 ADD SWAP16 SWAP5 0x2D DUP7 NUMBER PUSH5 0x736F6C6343 STOP ADDMOD SMOD STOP CALLER "
				},
				"gasEstimates": {
					"creation": {
						"codeDepositCost": "1855000",
						"executionCost": "infinite",
						"totalCost": "infinite"
					},
					"external": {
						"approveInvoice(bytes32,bool)": "378789",
						"createInvoice(address,uint256,bytes32,bool)": "infinite",
						"getHash(string)": "infinite",
						"getInvoiceById(bytes32)": "infinite",
						"getInvoiceByPatient(address,uint256)": "infinite",
						"owner()": "2544",
						"registerClinic(bytes32,address,bool)": "25324",
						"renounceOwnership()": "30463",
						"setPrice(bytes32,uint256)": "25034",
						"setUsersCategory(address,bytes32)": "25072",
						"transferOwnership(address)": "30833"
					},
					"internal": {
						"archiveInvoice(bytes32)": "infinite"
					}
				},
				"methodIdentifiers": {
					"approveInvoice(bytes32,bool)": "ed1f2592",
					"createInvoice(address,uint256,bytes32,bool)": "8fc609d0",
					"getHash(string)": "5b6beeb9",
					"getInvoiceById(bytes32)": "d367d966",
					"getInvoiceByPatient(address,uint256)": "02cebea5",
					"owner()": "8da5cb5b",
					"registerClinic(bytes32,address,bool)": "535fd18a",
					"renounceOwnership()": "715018a6",
					"setPrice(bytes32,uint256)": "10d8d74d",
					"setUsersCategory(address,bytes32)": "7f0a44d4",
					"transferOwnership(address)": "f2fde38b"
				}
			},
			"storageLayout": {
				"storage": [
					{
						"astId": 7,
						"contract": "hermesss.sol:Hermes",
						"label": "_owner",
						"offset": 0,
						"slot": "0",
						"type": "t_address"
					},
					{
						"astId": 133,
						"contract": "hermesss.sol:Hermes",
						"label": "invoiceCreated",
						"offset": 0,
						"slot": "1",
						"type": "t_uint256"
					},
					{
						"astId": 137,
						"contract": "hermesss.sol:Hermes",
						"label": "_prices",
						"offset": 0,
						"slot": "2",
						"type": "t_mapping(t_bytes32,t_uint256)"
					},
					{
						"astId": 141,
						"contract": "hermesss.sol:Hermes",
						"label": "groupA_clinicIds",
						"offset": 0,
						"slot": "3",
						"type": "t_mapping(t_address,t_bytes32)"
					},
					{
						"astId": 145,
						"contract": "hermesss.sol:Hermes",
						"label": "groupB_clinicIds",
						"offset": 0,
						"slot": "4",
						"type": "t_mapping(t_address,t_bytes32)"
					},
					{
						"astId": 149,
						"contract": "hermesss.sol:Hermes",
						"label": "patientCategories",
						"offset": 0,
						"slot": "5",
						"type": "t_mapping(t_address,t_bytes32)"
					},
					{
						"astId": 155,
						"contract": "hermesss.sol:Hermes",
						"label": "patientPastInvoices",
						"offset": 0,
						"slot": "6",
						"type": "t_mapping(t_address,t_array(t_struct(Invoice)192_storage)dyn_storage)"
					},
					{
						"astId": 160,
						"contract": "hermesss.sol:Hermes",
						"label": "invoiceRecordsById",
						"offset": 0,
						"slot": "7",
						"type": "t_mapping(t_bytes32,t_struct(Invoice)192_storage)"
					},
					{
						"astId": 200,
						"contract": "hermesss.sol:Hermes",
						"label": "pendingRequests",
						"offset": 0,
						"slot": "8",
						"type": "t_mapping(t_address,t_mapping(t_bytes32,t_struct(Invoice)192_storage))"
					}
				],
				"types": {
					"t_address": {
						"encoding": "inplace",
						"label": "address",
						"numberOfBytes": "20"
					},
					"t_array(t_struct(Invoice)192_storage)dyn_storage": {
						"base": "t_struct(Invoice)192_storage",
						"encoding": "dynamic_array",
						"label": "struct Hermes.Invoice[]",
						"numberOfBytes": "32"
					},
					"t_bytes32": {
						"encoding": "inplace",
						"label": "bytes32",
						"numberOfBytes": "32"
					},
					"t_enum(Status)180": {
						"encoding": "inplace",
						"label": "enum Hermes.Status",
						"numberOfBytes": "1"
					},
					"t_mapping(t_address,t_array(t_struct(Invoice)192_storage)dyn_storage)": {
						"encoding": "mapping",
						"key": "t_address",
						"label": "mapping(address => struct Hermes.Invoice[])",
						"numberOfBytes": "32",
						"value": "t_array(t_struct(Invoice)192_storage)dyn_storage"
					},
					"t_mapping(t_address,t_bytes32)": {
						"encoding": "mapping",
						"key": "t_address",
						"label": "mapping(address => bytes32)",
						"numberOfBytes": "32",
						"value": "t_bytes32"
					},
					"t_mapping(t_address,t_mapping(t_bytes32,t_struct(Invoice)192_storage))": {
						"encoding": "mapping",
						"key": "t_address",
						"label": "mapping(address => mapping(bytes32 => struct Hermes.Invoice))",
						"numberOfBytes": "32",
						"value": "t_mapping(t_bytes32,t_struct(Invoice)192_storage)"
					},
					"t_mapping(t_bytes32,t_struct(Invoice)192_storage)": {
						"encoding": "mapping",
						"key": "t_bytes32",
						"label": "mapping(bytes32 => struct Hermes.Invoice)",
						"numberOfBytes": "32",
						"value": "t_struct(Invoice)192_storage"
					},
					"t_mapping(t_bytes32,t_uint256)": {
						"encoding": "mapping",
						"key": "t_bytes32",
						"label": "mapping(bytes32 => uint256)",
						"numberOfBytes": "32",
						"value": "t_uint256"
					},
					"t_struct(Invoice)192_storage": {
						"encoding": "inplace",
						"label": "struct Hermes.Invoice",
						"members": [
							{
								"astId": 182,
								"contract": "hermesss.sol:Hermes",
								"label": "invoiceId",
								"offset": 0,
								"slot": "0",
								"type": "t_bytes32"
							},
							{
								"astId": 184,
								"contract": "hermesss.sol:Hermes",
								"label": "typeOfPatient",
								"offset": 0,
								"slot": "1",
								"type": "t_bytes32"
							},
							{
								"astId": 186,
								"contract": "hermesss.sol:Hermes",
								"label": "amount",
								"offset": 0,
								"slot": "2",
								"type": "t_uint256"
							},
							{
								"astId": 188,
								"contract": "hermesss.sol:Hermes",
								"label": "patient",
								"offset": 0,
								"slot": "3",
								"type": "t_address"
							},
							{
								"astId": 191,
								"contract": "hermesss.sol:Hermes",
								"label": "status",
								"offset": 20,
								"slot": "3",
								"type": "t_enum(Status)180"
							}
						],
						"numberOfBytes": "128"
					},
					"t_uint256": {
						"encoding": "inplace",
						"label": "uint256",
						"numberOfBytes": "32"
					}
				}
			},
			"userdoc": {
				"kind": "user",
				"methods": {
					"approveInvoice(bytes32,bool)": {
						"notice": "Bu fonksiyon hasta tarafından çağrılabilir Fatura önceden oluşturulmuş olmalıdır Fatura durumu beklemede olmalıdır İşlev faturayı kabul eder veya reddeder ve onu arşivle"
					},
					"createInvoice(address,uint256,bytes32,bool)": {
						"notice": "Bu işlev klinik tarafından çağrılabilir Clinic, hasta kategorisi sınırının 3 katından fazla fatura oluşturamaz eğer hastalar ilk kez gelirse, kategorisi kaydedilecektir İşlev, kullanıcının o kategoriye ait olup olmadığını kontrol eder PatientAddress adres fatura sahibi"
					},
					"registerClinic(bytes32,address,bool)": {
						"notice": "Bu Fonksiyon Kliniklerden çağrılabilir zaten kayıtlı bir klinik varsa, sözleşme güvenlik nedeniyle tekrar kaydolmasına izin vermez"
					}
				},
				"version": 1
			}
		}
	}
}