{
	"HermesChain.sol": {
		"Hermes": {
			"abi": [
				{
					"anonymous": false,
					"inputs": [
						{
							"indexed": true,
							"internalType": "address",
							"name": "patient",
							"type": "address"
						},
						{
							"indexed": true,
							"internalType": "bytes32",
							"name": "clinic",
							"type": "bytes32"
						},
						{
							"indexed": false,
							"internalType": "uint256",
							"name": "timestamp",
							"type": "uint256"
						}
					],
					"name": "InvocieAccepted",
					"type": "event"
				},
				{
					"anonymous": false,
					"inputs": [
						{
							"indexed": true,
							"internalType": "address",
							"name": "patient",
							"type": "address"
						},
						{
							"indexed": true,
							"internalType": "bytes32",
							"name": "clinic",
							"type": "bytes32"
						},
						{
							"indexed": false,
							"internalType": "uint256",
							"name": "timestamp",
							"type": "uint256"
						}
					],
					"name": "InvocieCreated",
					"type": "event"
				},
				{
					"anonymous": false,
					"inputs": [
						{
							"indexed": true,
							"internalType": "address",
							"name": "previousOwner",
							"type": "address"
						},
						{
							"indexed": true,
							"internalType": "address",
							"name": "newOwner",
							"type": "address"
						}
					],
					"name": "OwnershipTransferred",
					"type": "event"
				},
				{
					"inputs": [
						{
							"internalType": "bytes32",
							"name": "_clinicHash",
							"type": "bytes32"
						},
						{
							"internalType": "bool",
							"name": "approveReject",
							"type": "bool"
						}
					],
					"name": "approveInvoice",
					"outputs": [],
					"stateMutability": "nonpayable",
					"type": "function"
				},
				{
					"inputs": [
						{
							"internalType": "address",
							"name": "patientAddress",
							"type": "address"
						},
						{
							"internalType": "uint256",
							"name": "amount",
							"type": "uint256"
						},
						{
							"internalType": "bytes32",
							"name": "patientCategory",
							"type": "bytes32"
						}
					],
					"name": "createInvoice",
					"outputs": [],
					"stateMutability": "nonpayable",
					"type": "function"
				},
				{
					"inputs": [],
					"name": "owner",
					"outputs": [
						{
							"internalType": "address",
							"name": "",
							"type": "address"
						}
					],
					"stateMutability": "view",
					"type": "function"
				},
				{
					"inputs": [
						{
							"internalType": "bytes32",
							"name": "_clinicHash",
							"type": "bytes32"
						},
						{
							"internalType": "address",
							"name": "clinicAddress",
							"type": "address"
						}
					],
					"name": "registerClinic",
					"outputs": [],
					"stateMutability": "nonpayable",
					"type": "function"
				},
				{
					"inputs": [],
					"name": "renounceOwnership",
					"outputs": [],
					"stateMutability": "nonpayable",
					"type": "function"
				},
				{
					"inputs": [
						{
							"internalType": "address",
							"name": "newOwner",
							"type": "address"
						}
					],
					"name": "transferOwnership",
					"outputs": [],
					"stateMutability": "nonpayable",
					"type": "function"
				}
			],
			"devdoc": {
				"kind": "dev",
				"methods": {
					"createInvoice(address,uint256,bytes32)": {
						"params": {
							"amount": "uint256 value of total invoice amount",
							"patientAddress": "address owner of invoice",
							"patientCategory": "bytes32 for sanity check or registering patient"
						}
					},
					"owner()": {
						"details": "Returns the address of the current owner."
					},
					"renounceOwnership()": {
						"details": "Leaves the contract without owner. It will not be possible to call `onlyOwner` functions anymore. Can only be called by the current owner. NOTE: Renouncing ownership will leave the contract without an owner, thereby removing any functionality that is only available to the owner."
					},
					"transferOwnership(address)": {
						"details": "Transfers ownership of the contract to a new account (`newOwner`). Can only be called by the current owner."
					}
				},
				"version": 1
			},
			"evm": {
				"assembly": "    /* \"HermesChain.sol\":170:5443  contract Hermes is Ownable{\r... */\n  mstore(0x40, 0x80)\n  callvalue\n  dup1\n  iszero\n  tag_1\n  jumpi\n  0x00\n  dup1\n  revert\ntag_1:\n  pop\n    /* \"@openzeppelin/contracts/access/Ownable.sol\":921:953  _transferOwnership(_msgSender()) */\n  tag_4\n    /* \"@openzeppelin/contracts/access/Ownable.sol\":940:952  _msgSender() */\n  tag_5\n    /* \"@openzeppelin/contracts/access/Ownable.sol\":940:950  _msgSender */\n  shl(0x20, tag_6)\n    /* \"@openzeppelin/contracts/access/Ownable.sol\":940:952  _msgSender() */\n  0x20\n  shr\n  jump\t// in\ntag_5:\n    /* \"@openzeppelin/contracts/access/Ownable.sol\":921:939  _transferOwnership */\n  shl(0x20, tag_7)\n    /* \"@openzeppelin/contracts/access/Ownable.sol\":921:953  _transferOwnership(_msgSender()) */\n  0x20\n  shr\n  jump\t// in\ntag_4:\n    /* \"HermesChain.sol\":170:5443  contract Hermes is Ownable{\r... */\n  jump(tag_8)\n    /* \"@openzeppelin/contracts/utils/Context.sol\":640:736  function _msgSender() internal view virtual returns (address) {... */\ntag_6:\n    /* \"@openzeppelin/contracts/utils/Context.sol\":693:700  address */\n  0x00\n    /* \"@openzeppelin/contracts/utils/Context.sol\":719:729  msg.sender */\n  caller\n    /* \"@openzeppelin/contracts/utils/Context.sol\":712:729  return msg.sender */\n  swap1\n  pop\n    /* \"@openzeppelin/contracts/utils/Context.sol\":640:736  function _msgSender() internal view virtual returns (address) {... */\n  swap1\n  jump\t// out\n    /* \"@openzeppelin/contracts/access/Ownable.sol\":2270:2457  function _transferOwnership(address newOwner) internal virtual {... */\ntag_7:\n    /* \"@openzeppelin/contracts/access/Ownable.sol\":2343:2359  address oldOwner */\n  0x00\n    /* \"@openzeppelin/contracts/access/Ownable.sol\":2362:2368  _owner */\n  dup1\n  0x00\n  swap1\n  sload\n  swap1\n  0x0100\n  exp\n  swap1\n  div\n  0xffffffffffffffffffffffffffffffffffffffff\n  and\n    /* \"@openzeppelin/contracts/access/Ownable.sol\":2343:2368  address oldOwner = _owner */\n  swap1\n  pop\n    /* \"@openzeppelin/contracts/access/Ownable.sol\":2387:2395  newOwner */\n  dup2\n    /* \"@openzeppelin/contracts/access/Ownable.sol\":2378:2384  _owner */\n  0x00\n  dup1\n    /* \"@openzeppelin/contracts/access/Ownable.sol\":2378:2395  _owner = newOwner */\n  0x0100\n  exp\n  dup2\n  sload\n  dup2\n  0xffffffffffffffffffffffffffffffffffffffff\n  mul\n  not\n  and\n  swap1\n  dup4\n  0xffffffffffffffffffffffffffffffffffffffff\n  and\n  mul\n  or\n  swap1\n  sstore\n  pop\n    /* \"@openzeppelin/contracts/access/Ownable.sol\":2441:2449  newOwner */\n  dup2\n    /* \"@openzeppelin/contracts/access/Ownable.sol\":2410:2450  OwnershipTransferred(oldOwner, newOwner) */\n  0xffffffffffffffffffffffffffffffffffffffff\n  and\n    /* \"@openzeppelin/contracts/access/Ownable.sol\":2431:2439  oldOwner */\n  dup2\n    /* \"@openzeppelin/contracts/access/Ownable.sol\":2410:2450  OwnershipTransferred(oldOwner, newOwner) */\n  0xffffffffffffffffffffffffffffffffffffffff\n  and\n  0x8be0079c531659141344cd1fd0a4f28419497f9722a3daafe3b4186f6b6457e0\n  mload(0x40)\n  mload(0x40)\n  dup1\n  swap2\n  sub\n  swap1\n  log3\n    /* \"@openzeppelin/contracts/access/Ownable.sol\":2333:2457  {... */\n  pop\n    /* \"@openzeppelin/contracts/access/Ownable.sol\":2270:2457  function _transferOwnership(address newOwner) internal virtual {... */\n  pop\n  jump\t// out\n    /* \"HermesChain.sol\":170:5443  contract Hermes is Ownable{\r... */\ntag_8:\n  dataSize(sub_0)\n  dup1\n  dataOffset(sub_0)\n  0x00\n  codecopy\n  0x00\n  return\nstop\n\nsub_0: assembly {\n        /* \"HermesChain.sol\":170:5443  contract Hermes is Ownable{\r... */\n      mstore(0x40, 0x80)\n      callvalue\n      dup1\n      iszero\n      tag_1\n      jumpi\n      0x00\n      dup1\n      revert\n    tag_1:\n      pop\n      jumpi(tag_2, lt(calldatasize, 0x04))\n      shr(0xe0, calldataload(0x00))\n      dup1\n      0x0707613b\n      eq\n      tag_3\n      jumpi\n      dup1\n      0x715018a6\n      eq\n      tag_4\n      jumpi\n      dup1\n      0x8da5cb5b\n      eq\n      tag_5\n      jumpi\n      dup1\n      0x99bf9094\n      eq\n      tag_6\n      jumpi\n      dup1\n      0xed1f2592\n      eq\n      tag_7\n      jumpi\n      dup1\n      0xf2fde38b\n      eq\n      tag_8\n      jumpi\n    tag_2:\n      0x00\n      dup1\n      revert\n        /* \"HermesChain.sol\":3007:4004  function createInvoice(address patientAddress, uint256 amount, bytes32 patientCategory) public onlyClinic{\r... */\n    tag_3:\n      tag_9\n      0x04\n      dup1\n      calldatasize\n      sub\n      dup2\n      add\n      swap1\n      tag_10\n      swap2\n      swap1\n      tag_11\n      jump\t// in\n    tag_10:\n      tag_12\n      jump\t// in\n    tag_9:\n      stop\n        /* \"@openzeppelin/contracts/access/Ownable.sol\":1668:1769  function renounceOwnership() public virtual onlyOwner {... */\n    tag_4:\n      tag_13\n      tag_14\n      jump\t// in\n    tag_13:\n      stop\n        /* \"@openzeppelin/contracts/access/Ownable.sol\":1036:1121  function owner() public view virtual returns (address) {... */\n    tag_5:\n      tag_15\n      tag_16\n      jump\t// in\n    tag_15:\n      mload(0x40)\n      tag_17\n      swap2\n      swap1\n      tag_18\n      jump\t// in\n    tag_17:\n      mload(0x40)\n      dup1\n      swap2\n      sub\n      swap1\n      return\n        /* \"HermesChain.sol\":2383:2524  function registerClinic(bytes32 _clinicHash, address clinicAddress) public onlyOwner{\r... */\n    tag_6:\n      tag_19\n      0x04\n      dup1\n      calldatasize\n      sub\n      dup2\n      add\n      swap1\n      tag_20\n      swap2\n      swap1\n      tag_21\n      jump\t// in\n    tag_20:\n      tag_22\n      jump\t// in\n    tag_19:\n      stop\n        /* \"HermesChain.sol\":4269:4870  function approveInvoice(bytes32 _clinicHash, bool approveReject) public onlyPatient{\r... */\n    tag_7:\n      tag_23\n      0x04\n      dup1\n      calldatasize\n      sub\n      dup2\n      add\n      swap1\n      tag_24\n      swap2\n      swap1\n      tag_25\n      jump\t// in\n    tag_24:\n      tag_26\n      jump\t// in\n    tag_23:\n      stop\n        /* \"@openzeppelin/contracts/access/Ownable.sol\":1918:2116  function transferOwnership(address newOwner) public virtual onlyOwner {... */\n    tag_8:\n      tag_27\n      0x04\n      dup1\n      calldatasize\n      sub\n      dup2\n      add\n      swap1\n      tag_28\n      swap2\n      swap1\n      tag_29\n      jump\t// in\n    tag_28:\n      tag_30\n      jump\t// in\n    tag_27:\n      stop\n        /* \"HermesChain.sol\":3007:4004  function createInvoice(address patientAddress, uint256 amount, bytes32 patientCategory) public onlyClinic{\r... */\n    tag_12:\n        /* \"HermesChain.sol\":1886:1889  0x0 */\n      0x00\n        /* \"HermesChain.sol\":1861:1889  clinicIds[msg.sender] != 0x0 */\n      dup1\n      shl\n        /* \"HermesChain.sol\":1861:1870  clinicIds */\n      0x03\n        /* \"HermesChain.sol\":1861:1882  clinicIds[msg.sender] */\n      0x00\n        /* \"HermesChain.sol\":1871:1881  msg.sender */\n      caller\n        /* \"HermesChain.sol\":1861:1882  clinicIds[msg.sender] */\n      0xffffffffffffffffffffffffffffffffffffffff\n      and\n      0xffffffffffffffffffffffffffffffffffffffff\n      and\n      dup2\n      mstore\n      0x20\n      add\n      swap1\n      dup2\n      mstore\n      0x20\n      add\n      0x00\n      keccak256\n      sload\n        /* \"HermesChain.sol\":1861:1889  clinicIds[msg.sender] != 0x0 */\n      eq\n      iszero\n        /* \"HermesChain.sol\":1853:1934  require(clinicIds[msg.sender] != 0x0,\"Only clinics call perform this operations\") */\n      tag_32\n      jumpi\n      mload(0x40)\n      0x08c379a000000000000000000000000000000000000000000000000000000000\n      dup2\n      mstore\n      0x04\n      add\n      tag_33\n      swap1\n      tag_34\n      jump\t// in\n    tag_33:\n      mload(0x40)\n      dup1\n      swap2\n      sub\n      swap1\n      revert\n    tag_32:\n        /* \"HermesChain.sol\":3163:3164  0 */\n      0x00\n        /* \"HermesChain.sol\":3126:3164  patientCategories[patientAddress] == 0 */\n      dup1\n      shl\n        /* \"HermesChain.sol\":3126:3143  patientCategories */\n      0x04\n        /* \"HermesChain.sol\":3126:3159  patientCategories[patientAddress] */\n      0x00\n        /* \"HermesChain.sol\":3144:3158  patientAddress */\n      dup6\n        /* \"HermesChain.sol\":3126:3159  patientCategories[patientAddress] */\n      0xffffffffffffffffffffffffffffffffffffffff\n      and\n      0xffffffffffffffffffffffffffffffffffffffff\n      and\n      dup2\n      mstore\n      0x20\n      add\n      swap1\n      dup2\n      mstore\n      0x20\n      add\n      0x00\n      keccak256\n      sload\n        /* \"HermesChain.sol\":3126:3164  patientCategories[patientAddress] == 0 */\n      eq\n        /* \"HermesChain.sol\":3123:3429  if(patientCategories[patientAddress] == 0){\r... */\n      iszero\n      tag_36\n      jumpi\n        /* \"HermesChain.sol\":3216:3231  patientCategory */\n      dup1\n        /* \"HermesChain.sol\":3180:3197  patientCategories */\n      0x04\n        /* \"HermesChain.sol\":3180:3213  patientCategories[patientAddress] */\n      0x00\n        /* \"HermesChain.sol\":3198:3212  patientAddress */\n      dup6\n        /* \"HermesChain.sol\":3180:3213  patientCategories[patientAddress] */\n      0xffffffffffffffffffffffffffffffffffffffff\n      and\n      0xffffffffffffffffffffffffffffffffffffffff\n      and\n      dup2\n      mstore\n      0x20\n      add\n      swap1\n      dup2\n      mstore\n      0x20\n      add\n      0x00\n      keccak256\n        /* \"HermesChain.sol\":3180:3231  patientCategories[patientAddress] = patientCategory */\n      dup2\n      swap1\n      sstore\n      pop\n        /* \"HermesChain.sol\":3123:3429  if(patientCategories[patientAddress] == 0){\r... */\n      jump(tag_37)\n    tag_36:\n        /* \"HermesChain.sol\":3355:3370  patientCategory */\n      dup1\n        /* \"HermesChain.sol\":3318:3335  patientCategories */\n      0x04\n        /* \"HermesChain.sol\":3318:3351  patientCategories[patientAddress] */\n      0x00\n        /* \"HermesChain.sol\":3336:3350  patientAddress */\n      dup6\n        /* \"HermesChain.sol\":3318:3351  patientCategories[patientAddress] */\n      0xffffffffffffffffffffffffffffffffffffffff\n      and\n      0xffffffffffffffffffffffffffffffffffffffff\n      and\n      dup2\n      mstore\n      0x20\n      add\n      swap1\n      dup2\n      mstore\n      0x20\n      add\n      0x00\n      keccak256\n      sload\n        /* \"HermesChain.sol\":3318:3370  patientCategories[patientAddress] == patientCategory */\n      eq\n        /* \"HermesChain.sol\":3310:3417  require(patientCategories[patientAddress] == patientCategory, \"Patient can't be charged for this category\") */\n      tag_38\n      jumpi\n      mload(0x40)\n      0x08c379a000000000000000000000000000000000000000000000000000000000\n      dup2\n      mstore\n      0x04\n      add\n      tag_39\n      swap1\n      tag_40\n      jump\t// in\n    tag_39:\n      mload(0x40)\n      dup1\n      swap2\n      sub\n      swap1\n      revert\n    tag_38:\n        /* \"HermesChain.sol\":3123:3429  if(patientCategories[patientAddress] == 0){\r... */\n    tag_37:\n        /* \"HermesChain.sol\":3502:3508  amount */\n      dup2\n        /* \"HermesChain.sol\":3497:3498  3 */\n      0x03\n        /* \"HermesChain.sol\":3471:3478  _prices */\n      0x02\n        /* \"HermesChain.sol\":3471:3495  _prices[patientCategory] */\n      0x00\n        /* \"HermesChain.sol\":3479:3494  patientCategory */\n      dup5\n        /* \"HermesChain.sol\":3471:3495  _prices[patientCategory] */\n      dup2\n      mstore\n      0x20\n      add\n      swap1\n      dup2\n      mstore\n      0x20\n      add\n      0x00\n      keccak256\n      sload\n        /* \"HermesChain.sol\":3471:3498  _prices[patientCategory] *3 */\n      mul\n        /* \"HermesChain.sol\":3471:3508  _prices[patientCategory] *3 >= amount */\n      lt\n      iszero\n        /* \"HermesChain.sol\":3463:3549  require(_prices[patientCategory] *3 >= amount, \"Patient can't be charged this amount\") */\n      tag_41\n      jumpi\n      mload(0x40)\n      0x08c379a000000000000000000000000000000000000000000000000000000000\n      dup2\n      mstore\n      0x04\n      add\n      tag_42\n      swap1\n      tag_43\n      jump\t// in\n    tag_42:\n      mload(0x40)\n      dup1\n      swap2\n      sub\n      swap1\n      revert\n    tag_41:\n        /* \"HermesChain.sol\":3573:3598  Invoice memory newInvoice */\n      0x00\n        /* \"HermesChain.sol\":3601:3837  Invoice(\r... */\n      mload(0x40)\n      dup1\n      0xa0\n      add\n      0x40\n      mstore\n      dup1\n        /* \"HermesChain.sol\":3650:3660  msg.sender */\n      caller\n        /* \"HermesChain.sol\":3662:3676  patientAddress */\n      dup7\n        /* \"HermesChain.sol\":3678:3684  amount */\n      dup7\n        /* \"HermesChain.sol\":3686:3701  block.timestamp */\n      timestamp\n        /* \"HermesChain.sol\":3703:3715  block.number */\n      number\n        /* \"HermesChain.sol\":3633:3716  abi.encodePacked(msg.sender, patientAddress, amount, block.timestamp, block.number) */\n      add(0x20, mload(0x40))\n      tag_44\n      swap6\n      swap5\n      swap4\n      swap3\n      swap2\n      swap1\n      tag_45\n      jump\t// in\n    tag_44:\n      mload(0x40)\n      0x20\n      dup2\n      dup4\n      sub\n      sub\n      dup2\n      mstore\n      swap1\n      0x40\n      mstore\n        /* \"HermesChain.sol\":3623:3717  keccak256(abi.encodePacked(msg.sender, patientAddress, amount, block.timestamp, block.number)) */\n      dup1\n      mload\n      swap1\n      0x20\n      add\n      keccak256\n        /* \"HermesChain.sol\":3601:3837  Invoice(\r... */\n      dup2\n      mstore\n      0x20\n      add\n        /* \"HermesChain.sol\":3732:3747  patientCategory */\n      dup4\n        /* \"HermesChain.sol\":3601:3837  Invoice(\r... */\n      dup2\n      mstore\n      0x20\n      add\n        /* \"HermesChain.sol\":3762:3768  amount */\n      dup5\n        /* \"HermesChain.sol\":3601:3837  Invoice(\r... */\n      dup2\n      mstore\n      0x20\n      add\n        /* \"HermesChain.sol\":3783:3797  patientAddress */\n      dup6\n        /* \"HermesChain.sol\":3601:3837  Invoice(\r... */\n      0xffffffffffffffffffffffffffffffffffffffff\n      and\n      dup2\n      mstore\n      0x20\n      add\n        /* \"HermesChain.sol\":3812:3826  Status.Pending */\n      0x00\n        /* \"HermesChain.sol\":3601:3837  Invoice(\r... */\n      0x02\n      dup2\n      gt\n      iszero\n      tag_46\n      jumpi\n      tag_47\n      tag_48\n      jump\t// in\n    tag_47:\n    tag_46:\n      dup2\n      mstore\n      pop\n        /* \"HermesChain.sol\":3573:3837  Invoice memory newInvoice = Invoice(\r... */\n      swap1\n      pop\n        /* \"HermesChain.sol\":3907:3917  newInvoice */\n      dup1\n        /* \"HermesChain.sol\":3850:3865  pendingRequests */\n      0x07\n        /* \"HermesChain.sol\":3850:3881  pendingRequests[patientAddress] */\n      0x00\n        /* \"HermesChain.sol\":3866:3880  patientAddress */\n      dup7\n        /* \"HermesChain.sol\":3850:3881  pendingRequests[patientAddress] */\n      0xffffffffffffffffffffffffffffffffffffffff\n      and\n      0xffffffffffffffffffffffffffffffffffffffff\n      and\n      dup2\n      mstore\n      0x20\n      add\n      swap1\n      dup2\n      mstore\n      0x20\n      add\n      0x00\n      keccak256\n        /* \"HermesChain.sol\":3850:3904  pendingRequests[patientAddress][clinicIds[msg.sender]] */\n      0x00\n        /* \"HermesChain.sol\":3882:3891  clinicIds */\n      0x03\n        /* \"HermesChain.sol\":3882:3903  clinicIds[msg.sender] */\n      0x00\n        /* \"HermesChain.sol\":3892:3902  msg.sender */\n      caller\n        /* \"HermesChain.sol\":3882:3903  clinicIds[msg.sender] */\n      0xffffffffffffffffffffffffffffffffffffffff\n      and\n      0xffffffffffffffffffffffffffffffffffffffff\n      and\n      dup2\n      mstore\n      0x20\n      add\n      swap1\n      dup2\n      mstore\n      0x20\n      add\n      0x00\n      keccak256\n      sload\n        /* \"HermesChain.sol\":3850:3904  pendingRequests[patientAddress][clinicIds[msg.sender]] */\n      dup2\n      mstore\n      0x20\n      add\n      swap1\n      dup2\n      mstore\n      0x20\n      add\n      0x00\n      keccak256\n        /* \"HermesChain.sol\":3850:3917  pendingRequests[patientAddress][clinicIds[msg.sender]] = newInvoice */\n      0x00\n      dup3\n      add\n      mload\n      dup2\n      0x00\n      add\n      sstore\n      0x20\n      dup3\n      add\n      mload\n      dup2\n      0x01\n      add\n      sstore\n      0x40\n      dup3\n      add\n      mload\n      dup2\n      0x02\n      add\n      sstore\n      0x60\n      dup3\n      add\n      mload\n      dup2\n      0x03\n      add\n      exp(0x0100, 0x00)\n      dup2\n      sload\n      dup2\n      0xffffffffffffffffffffffffffffffffffffffff\n      mul\n      not\n      and\n      swap1\n      dup4\n      0xffffffffffffffffffffffffffffffffffffffff\n      and\n      mul\n      or\n      swap1\n      sstore\n      pop\n      0x80\n      dup3\n      add\n      mload\n      dup2\n      0x03\n      add\n      exp(0x0100, 0x14)\n      dup2\n      sload\n      dup2\n      0xff\n      mul\n      not\n      and\n      swap1\n      dup4\n      0x02\n      dup2\n      gt\n      iszero\n      tag_49\n      jumpi\n      tag_50\n      tag_48\n      jump\t// in\n    tag_50:\n    tag_49:\n      mul\n      or\n      swap1\n      sstore\n      pop\n      swap1\n      pop\n      pop\n        /* \"HermesChain.sol\":3964:3973  clinicIds */\n      0x03\n        /* \"HermesChain.sol\":3964:3985  clinicIds[msg.sender] */\n      0x00\n        /* \"HermesChain.sol\":3974:3984  msg.sender */\n      caller\n        /* \"HermesChain.sol\":3964:3985  clinicIds[msg.sender] */\n      0xffffffffffffffffffffffffffffffffffffffff\n      and\n      0xffffffffffffffffffffffffffffffffffffffff\n      and\n      dup2\n      mstore\n      0x20\n      add\n      swap1\n      dup2\n      mstore\n      0x20\n      add\n      0x00\n      keccak256\n      sload\n        /* \"HermesChain.sol\":3948:3962  patientAddress */\n      dup5\n        /* \"HermesChain.sol\":3933:3994  InvocieCreated(patientAddress, clinicIds[msg.sender], amount) */\n      0xffffffffffffffffffffffffffffffffffffffff\n      and\n      0xad438d062604ef9539e2a0b5152e5071f8d5e9641c488d60234d23fdca24444c\n        /* \"HermesChain.sol\":3987:3993  amount */\n      dup6\n        /* \"HermesChain.sol\":3933:3994  InvocieCreated(patientAddress, clinicIds[msg.sender], amount) */\n      mload(0x40)\n      tag_51\n      swap2\n      swap1\n      tag_52\n      jump\t// in\n    tag_51:\n      mload(0x40)\n      dup1\n      swap2\n      sub\n      swap1\n      log3\n        /* \"HermesChain.sol\":3112:4004  {\r... */\n      pop\n        /* \"HermesChain.sol\":3007:4004  function createInvoice(address patientAddress, uint256 amount, bytes32 patientCategory) public onlyClinic{\r... */\n      pop\n      pop\n      pop\n      jump\t// out\n        /* \"@openzeppelin/contracts/access/Ownable.sol\":1668:1769  function renounceOwnership() public virtual onlyOwner {... */\n    tag_14:\n        /* \"@openzeppelin/contracts/access/Ownable.sol\":1259:1271  _msgSender() */\n      tag_54\n        /* \"@openzeppelin/contracts/access/Ownable.sol\":1259:1269  _msgSender */\n      tag_55\n        /* \"@openzeppelin/contracts/access/Ownable.sol\":1259:1271  _msgSender() */\n      jump\t// in\n    tag_54:\n        /* \"@openzeppelin/contracts/access/Ownable.sol\":1248:1271  owner() == _msgSender() */\n      0xffffffffffffffffffffffffffffffffffffffff\n      and\n        /* \"@openzeppelin/contracts/access/Ownable.sol\":1248:1255  owner() */\n      tag_56\n        /* \"@openzeppelin/contracts/access/Ownable.sol\":1248:1253  owner */\n      tag_16\n        /* \"@openzeppelin/contracts/access/Ownable.sol\":1248:1255  owner() */\n      jump\t// in\n    tag_56:\n        /* \"@openzeppelin/contracts/access/Ownable.sol\":1248:1271  owner() == _msgSender() */\n      0xffffffffffffffffffffffffffffffffffffffff\n      and\n      eq\n        /* \"@openzeppelin/contracts/access/Ownable.sol\":1240:1308  require(owner() == _msgSender(), \"Ownable: caller is not the owner\") */\n      tag_57\n      jumpi\n      mload(0x40)\n      0x08c379a000000000000000000000000000000000000000000000000000000000\n      dup2\n      mstore\n      0x04\n      add\n      tag_58\n      swap1\n      tag_59\n      jump\t// in\n    tag_58:\n      mload(0x40)\n      dup1\n      swap2\n      sub\n      swap1\n      revert\n    tag_57:\n        /* \"@openzeppelin/contracts/access/Ownable.sol\":1732:1762  _transferOwnership(address(0)) */\n      tag_61\n        /* \"@openzeppelin/contracts/access/Ownable.sol\":1759:1760  0 */\n      0x00\n        /* \"@openzeppelin/contracts/access/Ownable.sol\":1732:1750  _transferOwnership */\n      tag_62\n        /* \"@openzeppelin/contracts/access/Ownable.sol\":1732:1762  _transferOwnership(address(0)) */\n      jump\t// in\n    tag_61:\n        /* \"@openzeppelin/contracts/access/Ownable.sol\":1668:1769  function renounceOwnership() public virtual onlyOwner {... */\n      jump\t// out\n        /* \"@openzeppelin/contracts/access/Ownable.sol\":1036:1121  function owner() public view virtual returns (address) {... */\n    tag_16:\n        /* \"@openzeppelin/contracts/access/Ownable.sol\":1082:1089  address */\n      0x00\n        /* \"@openzeppelin/contracts/access/Ownable.sol\":1108:1114  _owner */\n      dup1\n      0x00\n      swap1\n      sload\n      swap1\n      0x0100\n      exp\n      swap1\n      div\n      0xffffffffffffffffffffffffffffffffffffffff\n      and\n        /* \"@openzeppelin/contracts/access/Ownable.sol\":1101:1114  return _owner */\n      swap1\n      pop\n        /* \"@openzeppelin/contracts/access/Ownable.sol\":1036:1121  function owner() public view virtual returns (address) {... */\n      swap1\n      jump\t// out\n        /* \"HermesChain.sol\":2383:2524  function registerClinic(bytes32 _clinicHash, address clinicAddress) public onlyOwner{\r... */\n    tag_22:\n        /* \"@openzeppelin/contracts/access/Ownable.sol\":1259:1271  _msgSender() */\n      tag_65\n        /* \"@openzeppelin/contracts/access/Ownable.sol\":1259:1269  _msgSender */\n      tag_55\n        /* \"@openzeppelin/contracts/access/Ownable.sol\":1259:1271  _msgSender() */\n      jump\t// in\n    tag_65:\n        /* \"@openzeppelin/contracts/access/Ownable.sol\":1248:1271  owner() == _msgSender() */\n      0xffffffffffffffffffffffffffffffffffffffff\n      and\n        /* \"@openzeppelin/contracts/access/Ownable.sol\":1248:1255  owner() */\n      tag_66\n        /* \"@openzeppelin/contracts/access/Ownable.sol\":1248:1253  owner */\n      tag_16\n        /* \"@openzeppelin/contracts/access/Ownable.sol\":1248:1255  owner() */\n      jump\t// in\n    tag_66:\n        /* \"@openzeppelin/contracts/access/Ownable.sol\":1248:1271  owner() == _msgSender() */\n      0xffffffffffffffffffffffffffffffffffffffff\n      and\n      eq\n        /* \"@openzeppelin/contracts/access/Ownable.sol\":1240:1308  require(owner() == _msgSender(), \"Ownable: caller is not the owner\") */\n      tag_67\n      jumpi\n      mload(0x40)\n      0x08c379a000000000000000000000000000000000000000000000000000000000\n      dup2\n      mstore\n      0x04\n      add\n      tag_68\n      swap1\n      tag_59\n      jump\t// in\n    tag_68:\n      mload(0x40)\n      dup1\n      swap2\n      sub\n      swap1\n      revert\n    tag_67:\n        /* \"HermesChain.sol\":2505:2516  _clinicHash */\n      dup2\n        /* \"HermesChain.sol\":2478:2487  clinicIds */\n      0x03\n        /* \"HermesChain.sol\":2478:2502  clinicIds[clinicAddress] */\n      0x00\n        /* \"HermesChain.sol\":2488:2501  clinicAddress */\n      dup4\n        /* \"HermesChain.sol\":2478:2502  clinicIds[clinicAddress] */\n      0xffffffffffffffffffffffffffffffffffffffff\n      and\n      0xffffffffffffffffffffffffffffffffffffffff\n      and\n      dup2\n      mstore\n      0x20\n      add\n      swap1\n      dup2\n      mstore\n      0x20\n      add\n      0x00\n      keccak256\n        /* \"HermesChain.sol\":2478:2516  clinicIds[clinicAddress] = _clinicHash */\n      dup2\n      swap1\n      sstore\n      pop\n        /* \"HermesChain.sol\":2383:2524  function registerClinic(bytes32 _clinicHash, address clinicAddress) public onlyOwner{\r... */\n      pop\n      pop\n      jump\t// out\n        /* \"HermesChain.sol\":4269:4870  function approveInvoice(bytes32 _clinicHash, bool approveReject) public onlyPatient{\r... */\n    tag_26:\n        /* \"HermesChain.sol\":2074:2077  0x0 */\n      0x00\n        /* \"HermesChain.sol\":2041:2077  patientCategories[msg.sender] != 0x0 */\n      dup1\n      shl\n        /* \"HermesChain.sol\":2041:2058  patientCategories */\n      0x04\n        /* \"HermesChain.sol\":2041:2070  patientCategories[msg.sender] */\n      0x00\n        /* \"HermesChain.sol\":2059:2069  msg.sender */\n      caller\n        /* \"HermesChain.sol\":2041:2070  patientCategories[msg.sender] */\n      0xffffffffffffffffffffffffffffffffffffffff\n      and\n      0xffffffffffffffffffffffffffffffffffffffff\n      and\n      dup2\n      mstore\n      0x20\n      add\n      swap1\n      dup2\n      mstore\n      0x20\n      add\n      0x00\n      keccak256\n      sload\n        /* \"HermesChain.sol\":2041:2077  patientCategories[msg.sender] != 0x0 */\n      eq\n      iszero\n        /* \"HermesChain.sol\":2033:2130  require(patientCategories[msg.sender] != 0x0, \"There is no patient registered with this address\") */\n      tag_71\n      jumpi\n      mload(0x40)\n      0x08c379a000000000000000000000000000000000000000000000000000000000\n      dup2\n      mstore\n      0x04\n      add\n      tag_72\n      swap1\n      tag_73\n      jump\t// in\n    tag_72:\n      mload(0x40)\n      dup1\n      swap2\n      sub\n      swap1\n      revert\n    tag_71:\n        /* \"HermesChain.sol\":4425:4428  0x0 */\n      0x00\n        /* \"HermesChain.sol\":4371:4428  pendingRequests[msg.sender][_clinicHash].invoiceId != 0x0 */\n      dup1\n      shl\n        /* \"HermesChain.sol\":4371:4386  pendingRequests */\n      0x07\n        /* \"HermesChain.sol\":4371:4398  pendingRequests[msg.sender] */\n      0x00\n        /* \"HermesChain.sol\":4387:4397  msg.sender */\n      caller\n        /* \"HermesChain.sol\":4371:4398  pendingRequests[msg.sender] */\n      0xffffffffffffffffffffffffffffffffffffffff\n      and\n      0xffffffffffffffffffffffffffffffffffffffff\n      and\n      dup2\n      mstore\n      0x20\n      add\n      swap1\n      dup2\n      mstore\n      0x20\n      add\n      0x00\n      keccak256\n        /* \"HermesChain.sol\":4371:4411  pendingRequests[msg.sender][_clinicHash] */\n      0x00\n        /* \"HermesChain.sol\":4399:4410  _clinicHash */\n      dup5\n        /* \"HermesChain.sol\":4371:4411  pendingRequests[msg.sender][_clinicHash] */\n      dup2\n      mstore\n      0x20\n      add\n      swap1\n      dup2\n      mstore\n      0x20\n      add\n      0x00\n      keccak256\n        /* \"HermesChain.sol\":4371:4421  pendingRequests[msg.sender][_clinicHash].invoiceId */\n      0x00\n      add\n      sload\n        /* \"HermesChain.sol\":4371:4428  pendingRequests[msg.sender][_clinicHash].invoiceId != 0x0 */\n      eq\n      iszero\n        /* \"HermesChain.sol\":4363:4453  require(pendingRequests[msg.sender][_clinicHash].invoiceId != 0x0, \"Invoice can't found\" ) */\n      tag_75\n      jumpi\n      mload(0x40)\n      0x08c379a000000000000000000000000000000000000000000000000000000000\n      dup2\n      mstore\n      0x04\n      add\n      tag_76\n      swap1\n      tag_77\n      jump\t// in\n    tag_76:\n      mload(0x40)\n      dup1\n      swap2\n      sub\n      swap1\n      revert\n    tag_75:\n        /* \"HermesChain.sol\":4541:4555  Status.Pending */\n      0x00\n        /* \"HermesChain.sol\":4490:4555  pendingRequests[msg.sender][_clinicHash].status == Status.Pending */\n      0x02\n      dup2\n      gt\n      iszero\n      tag_78\n      jumpi\n      tag_79\n      tag_48\n      jump\t// in\n    tag_79:\n    tag_78:\n        /* \"HermesChain.sol\":4490:4505  pendingRequests */\n      0x07\n        /* \"HermesChain.sol\":4490:4517  pendingRequests[msg.sender] */\n      0x00\n        /* \"HermesChain.sol\":4506:4516  msg.sender */\n      caller\n        /* \"HermesChain.sol\":4490:4517  pendingRequests[msg.sender] */\n      0xffffffffffffffffffffffffffffffffffffffff\n      and\n      0xffffffffffffffffffffffffffffffffffffffff\n      and\n      dup2\n      mstore\n      0x20\n      add\n      swap1\n      dup2\n      mstore\n      0x20\n      add\n      0x00\n      keccak256\n        /* \"HermesChain.sol\":4490:4530  pendingRequests[msg.sender][_clinicHash] */\n      0x00\n        /* \"HermesChain.sol\":4518:4529  _clinicHash */\n      dup5\n        /* \"HermesChain.sol\":4490:4530  pendingRequests[msg.sender][_clinicHash] */\n      dup2\n      mstore\n      0x20\n      add\n      swap1\n      dup2\n      mstore\n      0x20\n      add\n      0x00\n      keccak256\n        /* \"HermesChain.sol\":4490:4537  pendingRequests[msg.sender][_clinicHash].status */\n      0x03\n      add\n      0x14\n      swap1\n      sload\n      swap1\n      0x0100\n      exp\n      swap1\n      div\n      0xff\n      and\n        /* \"HermesChain.sol\":4490:4555  pendingRequests[msg.sender][_clinicHash].status == Status.Pending */\n      0x02\n      dup2\n      gt\n      iszero\n      tag_80\n      jumpi\n      tag_81\n      tag_48\n      jump\t// in\n    tag_81:\n    tag_80:\n      eq\n        /* \"HermesChain.sol\":4482:4585  require(pendingRequests[msg.sender][_clinicHash].status == Status.Pending, \"Invoice can't be accepted\") */\n      tag_82\n      jumpi\n      mload(0x40)\n      0x08c379a000000000000000000000000000000000000000000000000000000000\n      dup2\n      mstore\n      0x04\n      add\n      tag_83\n      swap1\n      tag_84\n      jump\t// in\n    tag_83:\n      mload(0x40)\n      dup1\n      swap2\n      sub\n      swap1\n      revert\n    tag_82:\n        /* \"HermesChain.sol\":4623:4636  approveReject */\n      dup1\n        /* \"HermesChain.sol\":4620:4825  if(approveReject){\r... */\n      iszero\n      tag_85\n      jumpi\n        /* \"HermesChain.sol\":4702:4717  Status.Accepted */\n      0x01\n        /* \"HermesChain.sol\":4652:4667  pendingRequests */\n      0x07\n        /* \"HermesChain.sol\":4652:4679  pendingRequests[msg.sender] */\n      0x00\n        /* \"HermesChain.sol\":4668:4678  msg.sender */\n      caller\n        /* \"HermesChain.sol\":4652:4679  pendingRequests[msg.sender] */\n      0xffffffffffffffffffffffffffffffffffffffff\n      and\n      0xffffffffffffffffffffffffffffffffffffffff\n      and\n      dup2\n      mstore\n      0x20\n      add\n      swap1\n      dup2\n      mstore\n      0x20\n      add\n      0x00\n      keccak256\n        /* \"HermesChain.sol\":4652:4692  pendingRequests[msg.sender][_clinicHash] */\n      0x00\n        /* \"HermesChain.sol\":4680:4691  _clinicHash */\n      dup5\n        /* \"HermesChain.sol\":4652:4692  pendingRequests[msg.sender][_clinicHash] */\n      dup2\n      mstore\n      0x20\n      add\n      swap1\n      dup2\n      mstore\n      0x20\n      add\n      0x00\n      keccak256\n        /* \"HermesChain.sol\":4652:4699  pendingRequests[msg.sender][_clinicHash].status */\n      0x03\n      add\n      0x14\n        /* \"HermesChain.sol\":4652:4717  pendingRequests[msg.sender][_clinicHash].status = Status.Accepted */\n      0x0100\n      exp\n      dup2\n      sload\n      dup2\n      0xff\n      mul\n      not\n      and\n      swap1\n      dup4\n      0x02\n      dup2\n      gt\n      iszero\n      tag_86\n      jumpi\n      tag_87\n      tag_48\n      jump\t// in\n    tag_87:\n    tag_86:\n      mul\n      or\n      swap1\n      sstore\n      pop\n        /* \"HermesChain.sol\":4620:4825  if(approveReject){\r... */\n      jump(tag_88)\n    tag_85:\n        /* \"HermesChain.sol\":4798:4813  Status.Rejected */\n      0x02\n        /* \"HermesChain.sol\":4748:4763  pendingRequests */\n      0x07\n        /* \"HermesChain.sol\":4748:4775  pendingRequests[msg.sender] */\n      0x00\n        /* \"HermesChain.sol\":4764:4774  msg.sender */\n      caller\n        /* \"HermesChain.sol\":4748:4775  pendingRequests[msg.sender] */\n      0xffffffffffffffffffffffffffffffffffffffff\n      and\n      0xffffffffffffffffffffffffffffffffffffffff\n      and\n      dup2\n      mstore\n      0x20\n      add\n      swap1\n      dup2\n      mstore\n      0x20\n      add\n      0x00\n      keccak256\n        /* \"HermesChain.sol\":4748:4788  pendingRequests[msg.sender][_clinicHash] */\n      0x00\n        /* \"HermesChain.sol\":4776:4787  _clinicHash */\n      dup5\n        /* \"HermesChain.sol\":4748:4788  pendingRequests[msg.sender][_clinicHash] */\n      dup2\n      mstore\n      0x20\n      add\n      swap1\n      dup2\n      mstore\n      0x20\n      add\n      0x00\n      keccak256\n        /* \"HermesChain.sol\":4748:4795  pendingRequests[msg.sender][_clinicHash].status */\n      0x03\n      add\n      0x14\n        /* \"HermesChain.sol\":4748:4813  pendingRequests[msg.sender][_clinicHash].status = Status.Rejected */\n      0x0100\n      exp\n      dup2\n      sload\n      dup2\n      0xff\n      mul\n      not\n      and\n      swap1\n      dup4\n      0x02\n      dup2\n      gt\n      iszero\n      tag_89\n      jumpi\n      tag_90\n      tag_48\n      jump\t// in\n    tag_90:\n    tag_89:\n      mul\n      or\n      swap1\n      sstore\n      pop\n        /* \"HermesChain.sol\":4620:4825  if(approveReject){\r... */\n    tag_88:\n        /* \"HermesChain.sol\":4835:4862  archiveInvoice(_clinicHash) */\n      tag_91\n        /* \"HermesChain.sol\":4850:4861  _clinicHash */\n      dup3\n        /* \"HermesChain.sol\":4835:4849  archiveInvoice */\n      tag_92\n        /* \"HermesChain.sol\":4835:4862  archiveInvoice(_clinicHash) */\n      jump\t// in\n    tag_91:\n        /* \"HermesChain.sol\":4269:4870  function approveInvoice(bytes32 _clinicHash, bool approveReject) public onlyPatient{\r... */\n      pop\n      pop\n      jump\t// out\n        /* \"@openzeppelin/contracts/access/Ownable.sol\":1918:2116  function transferOwnership(address newOwner) public virtual onlyOwner {... */\n    tag_30:\n        /* \"@openzeppelin/contracts/access/Ownable.sol\":1259:1271  _msgSender() */\n      tag_94\n        /* \"@openzeppelin/contracts/access/Ownable.sol\":1259:1269  _msgSender */\n      tag_55\n        /* \"@openzeppelin/contracts/access/Ownable.sol\":1259:1271  _msgSender() */\n      jump\t// in\n    tag_94:\n        /* \"@openzeppelin/contracts/access/Ownable.sol\":1248:1271  owner() == _msgSender() */\n      0xffffffffffffffffffffffffffffffffffffffff\n      and\n        /* \"@openzeppelin/contracts/access/Ownable.sol\":1248:1255  owner() */\n      tag_95\n        /* \"@openzeppelin/contracts/access/Ownable.sol\":1248:1253  owner */\n      tag_16\n        /* \"@openzeppelin/contracts/access/Ownable.sol\":1248:1255  owner() */\n      jump\t// in\n    tag_95:\n        /* \"@openzeppelin/contracts/access/Ownable.sol\":1248:1271  owner() == _msgSender() */\n      0xffffffffffffffffffffffffffffffffffffffff\n      and\n      eq\n        /* \"@openzeppelin/contracts/access/Ownable.sol\":1240:1308  require(owner() == _msgSender(), \"Ownable: caller is not the owner\") */\n      tag_96\n      jumpi\n      mload(0x40)\n      0x08c379a000000000000000000000000000000000000000000000000000000000\n      dup2\n      mstore\n      0x04\n      add\n      tag_97\n      swap1\n      tag_59\n      jump\t// in\n    tag_97:\n      mload(0x40)\n      dup1\n      swap2\n      sub\n      swap1\n      revert\n    tag_96:\n        /* \"@openzeppelin/contracts/access/Ownable.sol\":2026:2027  0 */\n      0x00\n        /* \"@openzeppelin/contracts/access/Ownable.sol\":2006:2028  newOwner != address(0) */\n      0xffffffffffffffffffffffffffffffffffffffff\n      and\n        /* \"@openzeppelin/contracts/access/Ownable.sol\":2006:2014  newOwner */\n      dup2\n        /* \"@openzeppelin/contracts/access/Ownable.sol\":2006:2028  newOwner != address(0) */\n      0xffffffffffffffffffffffffffffffffffffffff\n      and\n      eq\n      iszero\n        /* \"@openzeppelin/contracts/access/Ownable.sol\":1998:2071  require(newOwner != address(0), \"Ownable: new owner is the zero address\") */\n      tag_99\n      jumpi\n      mload(0x40)\n      0x08c379a000000000000000000000000000000000000000000000000000000000\n      dup2\n      mstore\n      0x04\n      add\n      tag_100\n      swap1\n      tag_101\n      jump\t// in\n    tag_100:\n      mload(0x40)\n      dup1\n      swap2\n      sub\n      swap1\n      revert\n    tag_99:\n        /* \"@openzeppelin/contracts/access/Ownable.sol\":2081:2109  _transferOwnership(newOwner) */\n      tag_102\n        /* \"@openzeppelin/contracts/access/Ownable.sol\":2100:2108  newOwner */\n      dup2\n        /* \"@openzeppelin/contracts/access/Ownable.sol\":2081:2099  _transferOwnership */\n      tag_62\n        /* \"@openzeppelin/contracts/access/Ownable.sol\":2081:2109  _transferOwnership(newOwner) */\n      jump\t// in\n    tag_102:\n        /* \"@openzeppelin/contracts/access/Ownable.sol\":1918:2116  function transferOwnership(address newOwner) public virtual onlyOwner {... */\n      pop\n      jump\t// out\n        /* \"@openzeppelin/contracts/utils/Context.sol\":640:736  function _msgSender() internal view virtual returns (address) {... */\n    tag_55:\n        /* \"@openzeppelin/contracts/utils/Context.sol\":693:700  address */\n      0x00\n        /* \"@openzeppelin/contracts/utils/Context.sol\":719:729  msg.sender */\n      caller\n        /* \"@openzeppelin/contracts/utils/Context.sol\":712:729  return msg.sender */\n      swap1\n      pop\n        /* \"@openzeppelin/contracts/utils/Context.sol\":640:736  function _msgSender() internal view virtual returns (address) {... */\n      swap1\n      jump\t// out\n        /* \"@openzeppelin/contracts/access/Ownable.sol\":2270:2457  function _transferOwnership(address newOwner) internal virtual {... */\n    tag_62:\n        /* \"@openzeppelin/contracts/access/Ownable.sol\":2343:2359  address oldOwner */\n      0x00\n        /* \"@openzeppelin/contracts/access/Ownable.sol\":2362:2368  _owner */\n      dup1\n      0x00\n      swap1\n      sload\n      swap1\n      0x0100\n      exp\n      swap1\n      div\n      0xffffffffffffffffffffffffffffffffffffffff\n      and\n        /* \"@openzeppelin/contracts/access/Ownable.sol\":2343:2368  address oldOwner = _owner */\n      swap1\n      pop\n        /* \"@openzeppelin/contracts/access/Ownable.sol\":2387:2395  newOwner */\n      dup2\n        /* \"@openzeppelin/contracts/access/Ownable.sol\":2378:2384  _owner */\n      0x00\n      dup1\n        /* \"@openzeppelin/contracts/access/Ownable.sol\":2378:2395  _owner = newOwner */\n      0x0100\n      exp\n      dup2\n      sload\n      dup2\n      0xffffffffffffffffffffffffffffffffffffffff\n      mul\n      not\n      and\n      swap1\n      dup4\n      0xffffffffffffffffffffffffffffffffffffffff\n      and\n      mul\n      or\n      swap1\n      sstore\n      pop\n        /* \"@openzeppelin/contracts/access/Ownable.sol\":2441:2449  newOwner */\n      dup2\n        /* \"@openzeppelin/contracts/access/Ownable.sol\":2410:2450  OwnershipTransferred(oldOwner, newOwner) */\n      0xffffffffffffffffffffffffffffffffffffffff\n      and\n        /* \"@openzeppelin/contracts/access/Ownable.sol\":2431:2439  oldOwner */\n      dup2\n        /* \"@openzeppelin/contracts/access/Ownable.sol\":2410:2450  OwnershipTransferred(oldOwner, newOwner) */\n      0xffffffffffffffffffffffffffffffffffffffff\n      and\n      0x8be0079c531659141344cd1fd0a4f28419497f9722a3daafe3b4186f6b6457e0\n      mload(0x40)\n      mload(0x40)\n      dup1\n      swap2\n      sub\n      swap1\n      log3\n        /* \"@openzeppelin/contracts/access/Ownable.sol\":2333:2457  {... */\n      pop\n        /* \"@openzeppelin/contracts/access/Ownable.sol\":2270:2457  function _transferOwnership(address newOwner) internal virtual {... */\n      pop\n      jump\t// out\n        /* \"HermesChain.sol\":4878:5427  function archiveInvoice(bytes32 _clinicHash) internal {\r... */\n    tag_92:\n        /* \"HermesChain.sol\":4953:4972  patientPastInvoices */\n      0x05\n        /* \"HermesChain.sol\":4953:4984  patientPastInvoices[msg.sender] */\n      0x00\n        /* \"HermesChain.sol\":4973:4983  msg.sender */\n      caller\n        /* \"HermesChain.sol\":4953:4984  patientPastInvoices[msg.sender] */\n      0xffffffffffffffffffffffffffffffffffffffff\n      and\n      0xffffffffffffffffffffffffffffffffffffffff\n      and\n      dup2\n      mstore\n      0x20\n      add\n      swap1\n      dup2\n      mstore\n      0x20\n      add\n      0x00\n      keccak256\n        /* \"HermesChain.sol\":4990:5005  pendingRequests */\n      0x07\n        /* \"HermesChain.sol\":4990:5017  pendingRequests[msg.sender] */\n      0x00\n        /* \"HermesChain.sol\":5006:5016  msg.sender */\n      caller\n        /* \"HermesChain.sol\":4990:5017  pendingRequests[msg.sender] */\n      0xffffffffffffffffffffffffffffffffffffffff\n      and\n      0xffffffffffffffffffffffffffffffffffffffff\n      and\n      dup2\n      mstore\n      0x20\n      add\n      swap1\n      dup2\n      mstore\n      0x20\n      add\n      0x00\n      keccak256\n        /* \"HermesChain.sol\":4990:5030  pendingRequests[msg.sender][_clinicHash] */\n      0x00\n        /* \"HermesChain.sol\":5018:5029  _clinicHash */\n      dup4\n        /* \"HermesChain.sol\":4990:5030  pendingRequests[msg.sender][_clinicHash] */\n      dup2\n      mstore\n      0x20\n      add\n      swap1\n      dup2\n      mstore\n      0x20\n      add\n      0x00\n      keccak256\n        /* \"HermesChain.sol\":4953:5031  patientPastInvoices[msg.sender].push(pendingRequests[msg.sender][_clinicHash]) */\n      swap1\n      dup1\n      0x01\n      dup2\n      sload\n      add\n      dup1\n      dup3\n      sstore\n      dup1\n      swap2\n      pop\n      pop\n      0x01\n      swap1\n      sub\n      swap1\n      0x00\n      mstore\n      keccak256(0x00, 0x20)\n      swap1\n      0x04\n      mul\n      add\n      0x00\n      swap1\n      swap2\n      swap1\n      swap2\n      swap1\n      swap2\n      pop\n      0x00\n      dup3\n      add\n      sload\n      dup2\n      0x00\n      add\n      sstore\n      0x01\n      dup3\n      add\n      sload\n      dup2\n      0x01\n      add\n      sstore\n      0x02\n      dup3\n      add\n      sload\n      dup2\n      0x02\n      add\n      sstore\n      0x03\n      dup3\n      add\n      0x00\n      swap1\n      sload\n      swap1\n      0x0100\n      exp\n      swap1\n      div\n      0xffffffffffffffffffffffffffffffffffffffff\n      and\n      dup2\n      0x03\n      add\n      exp(0x0100, 0x00)\n      dup2\n      sload\n      dup2\n      0xffffffffffffffffffffffffffffffffffffffff\n      mul\n      not\n      and\n      swap1\n      dup4\n      0xffffffffffffffffffffffffffffffffffffffff\n      and\n      mul\n      or\n      swap1\n      sstore\n      pop\n      0x03\n      dup3\n      add\n      0x14\n      swap1\n      sload\n      swap1\n      0x0100\n      exp\n      swap1\n      div\n      0xff\n      and\n      dup2\n      0x03\n      add\n      exp(0x0100, 0x14)\n      dup2\n      sload\n      dup2\n      0xff\n      mul\n      not\n      and\n      swap1\n      dup4\n      0x02\n      dup2\n      gt\n      iszero\n      tag_107\n      jumpi\n      tag_108\n      tag_48\n      jump\t// in\n    tag_108:\n    tag_107:\n      mul\n      or\n      swap1\n      sstore\n      pop\n      pop\n      pop\n        /* \"HermesChain.sol\":5159:5174  pendingRequests */\n      0x07\n        /* \"HermesChain.sol\":5159:5186  pendingRequests[msg.sender] */\n      0x00\n        /* \"HermesChain.sol\":5175:5185  msg.sender */\n      caller\n        /* \"HermesChain.sol\":5159:5186  pendingRequests[msg.sender] */\n      0xffffffffffffffffffffffffffffffffffffffff\n      and\n      0xffffffffffffffffffffffffffffffffffffffff\n      and\n      dup2\n      mstore\n      0x20\n      add\n      swap1\n      dup2\n      mstore\n      0x20\n      add\n      0x00\n      keccak256\n        /* \"HermesChain.sol\":5159:5199  pendingRequests[msg.sender][_clinicHash] */\n      0x00\n        /* \"HermesChain.sol\":5187:5198  _clinicHash */\n      dup3\n        /* \"HermesChain.sol\":5159:5199  pendingRequests[msg.sender][_clinicHash] */\n      dup2\n      mstore\n      0x20\n      add\n      swap1\n      dup2\n      mstore\n      0x20\n      add\n      0x00\n      keccak256\n        /* \"HermesChain.sol\":5086:5104  invoiceRecordsById */\n      0x06\n        /* \"HermesChain.sol\":5086:5156  invoiceRecordsById[pendingRequests[msg.sender][_clinicHash].invoiceId] */\n      0x00\n        /* \"HermesChain.sol\":5105:5120  pendingRequests */\n      0x07\n        /* \"HermesChain.sol\":5105:5132  pendingRequests[msg.sender] */\n      0x00\n        /* \"HermesChain.sol\":5121:5131  msg.sender */\n      caller\n        /* \"HermesChain.sol\":5105:5132  pendingRequests[msg.sender] */\n      0xffffffffffffffffffffffffffffffffffffffff\n      and\n      0xffffffffffffffffffffffffffffffffffffffff\n      and\n      dup2\n      mstore\n      0x20\n      add\n      swap1\n      dup2\n      mstore\n      0x20\n      add\n      0x00\n      keccak256\n        /* \"HermesChain.sol\":5105:5145  pendingRequests[msg.sender][_clinicHash] */\n      0x00\n        /* \"HermesChain.sol\":5133:5144  _clinicHash */\n      dup6\n        /* \"HermesChain.sol\":5105:5145  pendingRequests[msg.sender][_clinicHash] */\n      dup2\n      mstore\n      0x20\n      add\n      swap1\n      dup2\n      mstore\n      0x20\n      add\n      0x00\n      keccak256\n        /* \"HermesChain.sol\":5105:5155  pendingRequests[msg.sender][_clinicHash].invoiceId */\n      0x00\n      add\n      sload\n        /* \"HermesChain.sol\":5086:5156  invoiceRecordsById[pendingRequests[msg.sender][_clinicHash].invoiceId] */\n      dup2\n      mstore\n      0x20\n      add\n      swap1\n      dup2\n      mstore\n      0x20\n      add\n      0x00\n      keccak256\n        /* \"HermesChain.sol\":5086:5199  invoiceRecordsById[pendingRequests[msg.sender][_clinicHash].invoiceId] = pendingRequests[msg.sender][_clinicHash] */\n      0x00\n      dup3\n      add\n      sload\n      dup2\n      0x00\n      add\n      sstore\n      0x01\n      dup3\n      add\n      sload\n      dup2\n      0x01\n      add\n      sstore\n      0x02\n      dup3\n      add\n      sload\n      dup2\n      0x02\n      add\n      sstore\n      0x03\n      dup3\n      add\n      0x00\n      swap1\n      sload\n      swap1\n      0x0100\n      exp\n      swap1\n      div\n      0xffffffffffffffffffffffffffffffffffffffff\n      and\n      dup2\n      0x03\n      add\n      exp(0x0100, 0x00)\n      dup2\n      sload\n      dup2\n      0xffffffffffffffffffffffffffffffffffffffff\n      mul\n      not\n      and\n      swap1\n      dup4\n      0xffffffffffffffffffffffffffffffffffffffff\n      and\n      mul\n      or\n      swap1\n      sstore\n      pop\n      0x03\n      dup3\n      add\n      0x14\n      swap1\n      sload\n      swap1\n      0x0100\n      exp\n      swap1\n      div\n      0xff\n      and\n      dup2\n      0x03\n      add\n      exp(0x0100, 0x14)\n      dup2\n      sload\n      dup2\n      0xff\n      mul\n      not\n      and\n      swap1\n      dup4\n      0x02\n      dup2\n      gt\n      iszero\n      tag_109\n      jumpi\n      tag_110\n      tag_48\n      jump\t// in\n    tag_110:\n    tag_109:\n      mul\n      or\n      swap1\n      sstore\n      pop\n      swap1\n      pop\n      pop\n        /* \"HermesChain.sol\":5266:5314  Invoice(0x0, 0x0, 0, address(0), Status.Pending) */\n      mload(0x40)\n      dup1\n      0xa0\n      add\n      0x40\n      mstore\n      dup1\n        /* \"HermesChain.sol\":5274:5277  0x0 */\n      0x00\n        /* \"HermesChain.sol\":5266:5314  Invoice(0x0, 0x0, 0, address(0), Status.Pending) */\n      dup1\n      shl\n      dup2\n      mstore\n      0x20\n      add\n        /* \"HermesChain.sol\":5279:5282  0x0 */\n      0x00\n        /* \"HermesChain.sol\":5266:5314  Invoice(0x0, 0x0, 0, address(0), Status.Pending) */\n      dup1\n      shl\n      dup2\n      mstore\n      0x20\n      add\n        /* \"HermesChain.sol\":5284:5285  0 */\n      0x00\n        /* \"HermesChain.sol\":5266:5314  Invoice(0x0, 0x0, 0, address(0), Status.Pending) */\n      dup2\n      mstore\n      0x20\n      add\n        /* \"HermesChain.sol\":5295:5296  0 */\n      0x00\n        /* \"HermesChain.sol\":5266:5314  Invoice(0x0, 0x0, 0, address(0), Status.Pending) */\n      0xffffffffffffffffffffffffffffffffffffffff\n      and\n      dup2\n      mstore\n      0x20\n      add\n        /* \"HermesChain.sol\":5299:5313  Status.Pending */\n      0x00\n        /* \"HermesChain.sol\":5266:5314  Invoice(0x0, 0x0, 0, address(0), Status.Pending) */\n      0x02\n      dup2\n      gt\n      iszero\n      tag_111\n      jumpi\n      tag_112\n      tag_48\n      jump\t// in\n    tag_112:\n    tag_111:\n      dup2\n      mstore\n      pop\n        /* \"HermesChain.sol\":5223:5238  pendingRequests */\n      0x07\n        /* \"HermesChain.sol\":5223:5250  pendingRequests[msg.sender] */\n      0x00\n        /* \"HermesChain.sol\":5239:5249  msg.sender */\n      caller\n        /* \"HermesChain.sol\":5223:5250  pendingRequests[msg.sender] */\n      0xffffffffffffffffffffffffffffffffffffffff\n      and\n      0xffffffffffffffffffffffffffffffffffffffff\n      and\n      dup2\n      mstore\n      0x20\n      add\n      swap1\n      dup2\n      mstore\n      0x20\n      add\n      0x00\n      keccak256\n        /* \"HermesChain.sol\":5223:5263  pendingRequests[msg.sender][_clinicHash] */\n      0x00\n        /* \"HermesChain.sol\":5251:5262  _clinicHash */\n      dup4\n        /* \"HermesChain.sol\":5223:5263  pendingRequests[msg.sender][_clinicHash] */\n      dup2\n      mstore\n      0x20\n      add\n      swap1\n      dup2\n      mstore\n      0x20\n      add\n      0x00\n      keccak256\n        /* \"HermesChain.sol\":5223:5314  pendingRequests[msg.sender][_clinicHash] = Invoice(0x0, 0x0, 0, address(0), Status.Pending) */\n      0x00\n      dup3\n      add\n      mload\n      dup2\n      0x00\n      add\n      sstore\n      0x20\n      dup3\n      add\n      mload\n      dup2\n      0x01\n      add\n      sstore\n      0x40\n      dup3\n      add\n      mload\n      dup2\n      0x02\n      add\n      sstore\n      0x60\n      dup3\n      add\n      mload\n      dup2\n      0x03\n      add\n      exp(0x0100, 0x00)\n      dup2\n      sload\n      dup2\n      0xffffffffffffffffffffffffffffffffffffffff\n      mul\n      not\n      and\n      swap1\n      dup4\n      0xffffffffffffffffffffffffffffffffffffffff\n      and\n      mul\n      or\n      swap1\n      sstore\n      pop\n      0x80\n      dup3\n      add\n      mload\n      dup2\n      0x03\n      add\n      exp(0x0100, 0x14)\n      dup2\n      sload\n      dup2\n      0xff\n      mul\n      not\n      and\n      swap1\n      dup4\n      0x02\n      dup2\n      gt\n      iszero\n      tag_113\n      jumpi\n      tag_114\n      tag_48\n      jump\t// in\n    tag_114:\n    tag_113:\n      mul\n      or\n      swap1\n      sstore\n      pop\n      swap1\n      pop\n      pop\n        /* \"HermesChain.sol\":5358:5369  _clinicHash */\n      dup1\n        /* \"HermesChain.sol\":5346:5356  msg.sender */\n      caller\n        /* \"HermesChain.sol\":5330:5419  InvocieAccepted(msg.sender, _clinicHash, pendingRequests[msg.sender][_clinicHash].amount) */\n      0xffffffffffffffffffffffffffffffffffffffff\n      and\n      0x58e6b4bb20368f9a0b488a5727fff9b8795b7c85245c2a5d7ccbea5552fd2ca5\n        /* \"HermesChain.sol\":5371:5386  pendingRequests */\n      0x07\n        /* \"HermesChain.sol\":5371:5398  pendingRequests[msg.sender] */\n      0x00\n        /* \"HermesChain.sol\":5387:5397  msg.sender */\n      caller\n        /* \"HermesChain.sol\":5371:5398  pendingRequests[msg.sender] */\n      0xffffffffffffffffffffffffffffffffffffffff\n      and\n      0xffffffffffffffffffffffffffffffffffffffff\n      and\n      dup2\n      mstore\n      0x20\n      add\n      swap1\n      dup2\n      mstore\n      0x20\n      add\n      0x00\n      keccak256\n        /* \"HermesChain.sol\":5371:5411  pendingRequests[msg.sender][_clinicHash] */\n      0x00\n        /* \"HermesChain.sol\":5399:5410  _clinicHash */\n      dup6\n        /* \"HermesChain.sol\":5371:5411  pendingRequests[msg.sender][_clinicHash] */\n      dup2\n      mstore\n      0x20\n      add\n      swap1\n      dup2\n      mstore\n      0x20\n      add\n      0x00\n      keccak256\n        /* \"HermesChain.sol\":5371:5418  pendingRequests[msg.sender][_clinicHash].amount */\n      0x02\n      add\n      sload\n        /* \"HermesChain.sol\":5330:5419  InvocieAccepted(msg.sender, _clinicHash, pendingRequests[msg.sender][_clinicHash].amount) */\n      mload(0x40)\n      tag_115\n      swap2\n      swap1\n      tag_52\n      jump\t// in\n    tag_115:\n      mload(0x40)\n      dup1\n      swap2\n      sub\n      swap1\n      log3\n        /* \"HermesChain.sol\":4878:5427  function archiveInvoice(bytes32 _clinicHash) internal {\r... */\n      pop\n      jump\t// out\n        /* \"#utility.yul\":7:146   */\n    tag_117:\n        /* \"#utility.yul\":53:58   */\n      0x00\n        /* \"#utility.yul\":91:97   */\n      dup2\n        /* \"#utility.yul\":78:98   */\n      calldataload\n        /* \"#utility.yul\":69:98   */\n      swap1\n      pop\n        /* \"#utility.yul\":107:140   */\n      tag_119\n        /* \"#utility.yul\":134:139   */\n      dup2\n        /* \"#utility.yul\":107:140   */\n      tag_120\n      jump\t// in\n    tag_119:\n        /* \"#utility.yul\":7:146   */\n      swap3\n      swap2\n      pop\n      pop\n      jump\t// out\n        /* \"#utility.yul\":152:285   */\n    tag_121:\n        /* \"#utility.yul\":195:200   */\n      0x00\n        /* \"#utility.yul\":233:239   */\n      dup2\n        /* \"#utility.yul\":220:240   */\n      calldataload\n        /* \"#utility.yul\":211:240   */\n      swap1\n      pop\n        /* \"#utility.yul\":249:279   */\n      tag_123\n        /* \"#utility.yul\":273:278   */\n      dup2\n        /* \"#utility.yul\":249:279   */\n      tag_124\n      jump\t// in\n    tag_123:\n        /* \"#utility.yul\":152:285   */\n      swap3\n      swap2\n      pop\n      pop\n      jump\t// out\n        /* \"#utility.yul\":291:430   */\n    tag_125:\n        /* \"#utility.yul\":337:342   */\n      0x00\n        /* \"#utility.yul\":375:381   */\n      dup2\n        /* \"#utility.yul\":362:382   */\n      calldataload\n        /* \"#utility.yul\":353:382   */\n      swap1\n      pop\n        /* \"#utility.yul\":391:424   */\n      tag_127\n        /* \"#utility.yul\":418:423   */\n      dup2\n        /* \"#utility.yul\":391:424   */\n      tag_128\n      jump\t// in\n    tag_127:\n        /* \"#utility.yul\":291:430   */\n      swap3\n      swap2\n      pop\n      pop\n      jump\t// out\n        /* \"#utility.yul\":436:575   */\n    tag_129:\n        /* \"#utility.yul\":482:487   */\n      0x00\n        /* \"#utility.yul\":520:526   */\n      dup2\n        /* \"#utility.yul\":507:527   */\n      calldataload\n        /* \"#utility.yul\":498:527   */\n      swap1\n      pop\n        /* \"#utility.yul\":536:569   */\n      tag_131\n        /* \"#utility.yul\":563:568   */\n      dup2\n        /* \"#utility.yul\":536:569   */\n      tag_132\n      jump\t// in\n    tag_131:\n        /* \"#utility.yul\":436:575   */\n      swap3\n      swap2\n      pop\n      pop\n      jump\t// out\n        /* \"#utility.yul\":581:910   */\n    tag_29:\n        /* \"#utility.yul\":640:646   */\n      0x00\n        /* \"#utility.yul\":689:691   */\n      0x20\n        /* \"#utility.yul\":677:686   */\n      dup3\n        /* \"#utility.yul\":668:675   */\n      dup5\n        /* \"#utility.yul\":664:687   */\n      sub\n        /* \"#utility.yul\":660:692   */\n      slt\n        /* \"#utility.yul\":657:776   */\n      iszero\n      tag_134\n      jumpi\n        /* \"#utility.yul\":695:774   */\n      tag_135\n      tag_136\n      jump\t// in\n    tag_135:\n        /* \"#utility.yul\":657:776   */\n    tag_134:\n        /* \"#utility.yul\":815:816   */\n      0x00\n        /* \"#utility.yul\":840:893   */\n      tag_137\n        /* \"#utility.yul\":885:892   */\n      dup5\n        /* \"#utility.yul\":876:882   */\n      dup3\n        /* \"#utility.yul\":865:874   */\n      dup6\n        /* \"#utility.yul\":861:883   */\n      add\n        /* \"#utility.yul\":840:893   */\n      tag_117\n      jump\t// in\n    tag_137:\n        /* \"#utility.yul\":830:893   */\n      swap2\n      pop\n        /* \"#utility.yul\":786:903   */\n      pop\n        /* \"#utility.yul\":581:910   */\n      swap3\n      swap2\n      pop\n      pop\n      jump\t// out\n        /* \"#utility.yul\":916:1535   */\n    tag_11:\n        /* \"#utility.yul\":993:999   */\n      0x00\n        /* \"#utility.yul\":1001:1007   */\n      dup1\n        /* \"#utility.yul\":1009:1015   */\n      0x00\n        /* \"#utility.yul\":1058:1060   */\n      0x60\n        /* \"#utility.yul\":1046:1055   */\n      dup5\n        /* \"#utility.yul\":1037:1044   */\n      dup7\n        /* \"#utility.yul\":1033:1056   */\n      sub\n        /* \"#utility.yul\":1029:1061   */\n      slt\n        /* \"#utility.yul\":1026:1145   */\n      iszero\n      tag_139\n      jumpi\n        /* \"#utility.yul\":1064:1143   */\n      tag_140\n      tag_136\n      jump\t// in\n    tag_140:\n        /* \"#utility.yul\":1026:1145   */\n    tag_139:\n        /* \"#utility.yul\":1184:1185   */\n      0x00\n        /* \"#utility.yul\":1209:1262   */\n      tag_141\n        /* \"#utility.yul\":1254:1261   */\n      dup7\n        /* \"#utility.yul\":1245:1251   */\n      dup3\n        /* \"#utility.yul\":1234:1243   */\n      dup8\n        /* \"#utility.yul\":1230:1252   */\n      add\n        /* \"#utility.yul\":1209:1262   */\n      tag_117\n      jump\t// in\n    tag_141:\n        /* \"#utility.yul\":1199:1262   */\n      swap4\n      pop\n        /* \"#utility.yul\":1155:1272   */\n      pop\n        /* \"#utility.yul\":1311:1313   */\n      0x20\n        /* \"#utility.yul\":1337:1390   */\n      tag_142\n        /* \"#utility.yul\":1382:1389   */\n      dup7\n        /* \"#utility.yul\":1373:1379   */\n      dup3\n        /* \"#utility.yul\":1362:1371   */\n      dup8\n        /* \"#utility.yul\":1358:1380   */\n      add\n        /* \"#utility.yul\":1337:1390   */\n      tag_129\n      jump\t// in\n    tag_142:\n        /* \"#utility.yul\":1327:1390   */\n      swap3\n      pop\n        /* \"#utility.yul\":1282:1400   */\n      pop\n        /* \"#utility.yul\":1439:1441   */\n      0x40\n        /* \"#utility.yul\":1465:1518   */\n      tag_143\n        /* \"#utility.yul\":1510:1517   */\n      dup7\n        /* \"#utility.yul\":1501:1507   */\n      dup3\n        /* \"#utility.yul\":1490:1499   */\n      dup8\n        /* \"#utility.yul\":1486:1508   */\n      add\n        /* \"#utility.yul\":1465:1518   */\n      tag_125\n      jump\t// in\n    tag_143:\n        /* \"#utility.yul\":1455:1518   */\n      swap2\n      pop\n        /* \"#utility.yul\":1410:1528   */\n      pop\n        /* \"#utility.yul\":916:1535   */\n      swap3\n      pop\n      swap3\n      pop\n      swap3\n      jump\t// out\n        /* \"#utility.yul\":1541:2015   */\n    tag_21:\n        /* \"#utility.yul\":1609:1615   */\n      0x00\n        /* \"#utility.yul\":1617:1623   */\n      dup1\n        /* \"#utility.yul\":1666:1668   */\n      0x40\n        /* \"#utility.yul\":1654:1663   */\n      dup4\n        /* \"#utility.yul\":1645:1652   */\n      dup6\n        /* \"#utility.yul\":1641:1664   */\n      sub\n        /* \"#utility.yul\":1637:1669   */\n      slt\n        /* \"#utility.yul\":1634:1753   */\n      iszero\n      tag_145\n      jumpi\n        /* \"#utility.yul\":1672:1751   */\n      tag_146\n      tag_136\n      jump\t// in\n    tag_146:\n        /* \"#utility.yul\":1634:1753   */\n    tag_145:\n        /* \"#utility.yul\":1792:1793   */\n      0x00\n        /* \"#utility.yul\":1817:1870   */\n      tag_147\n        /* \"#utility.yul\":1862:1869   */\n      dup6\n        /* \"#utility.yul\":1853:1859   */\n      dup3\n        /* \"#utility.yul\":1842:1851   */\n      dup7\n        /* \"#utility.yul\":1838:1860   */\n      add\n        /* \"#utility.yul\":1817:1870   */\n      tag_125\n      jump\t// in\n    tag_147:\n        /* \"#utility.yul\":1807:1870   */\n      swap3\n      pop\n        /* \"#utility.yul\":1763:1880   */\n      pop\n        /* \"#utility.yul\":1919:1921   */\n      0x20\n        /* \"#utility.yul\":1945:1998   */\n      tag_148\n        /* \"#utility.yul\":1990:1997   */\n      dup6\n        /* \"#utility.yul\":1981:1987   */\n      dup3\n        /* \"#utility.yul\":1970:1979   */\n      dup7\n        /* \"#utility.yul\":1966:1988   */\n      add\n        /* \"#utility.yul\":1945:1998   */\n      tag_117\n      jump\t// in\n    tag_148:\n        /* \"#utility.yul\":1935:1998   */\n      swap2\n      pop\n        /* \"#utility.yul\":1890:2008   */\n      pop\n        /* \"#utility.yul\":1541:2015   */\n      swap3\n      pop\n      swap3\n      swap1\n      pop\n      jump\t// out\n        /* \"#utility.yul\":2021:2489   */\n    tag_25:\n        /* \"#utility.yul\":2086:2092   */\n      0x00\n        /* \"#utility.yul\":2094:2100   */\n      dup1\n        /* \"#utility.yul\":2143:2145   */\n      0x40\n        /* \"#utility.yul\":2131:2140   */\n      dup4\n        /* \"#utility.yul\":2122:2129   */\n      dup6\n        /* \"#utility.yul\":2118:2141   */\n      sub\n        /* \"#utility.yul\":2114:2146   */\n      slt\n        /* \"#utility.yul\":2111:2230   */\n      iszero\n      tag_150\n      jumpi\n        /* \"#utility.yul\":2149:2228   */\n      tag_151\n      tag_136\n      jump\t// in\n    tag_151:\n        /* \"#utility.yul\":2111:2230   */\n    tag_150:\n        /* \"#utility.yul\":2269:2270   */\n      0x00\n        /* \"#utility.yul\":2294:2347   */\n      tag_152\n        /* \"#utility.yul\":2339:2346   */\n      dup6\n        /* \"#utility.yul\":2330:2336   */\n      dup3\n        /* \"#utility.yul\":2319:2328   */\n      dup7\n        /* \"#utility.yul\":2315:2337   */\n      add\n        /* \"#utility.yul\":2294:2347   */\n      tag_125\n      jump\t// in\n    tag_152:\n        /* \"#utility.yul\":2284:2347   */\n      swap3\n      pop\n        /* \"#utility.yul\":2240:2357   */\n      pop\n        /* \"#utility.yul\":2396:2398   */\n      0x20\n        /* \"#utility.yul\":2422:2472   */\n      tag_153\n        /* \"#utility.yul\":2464:2471   */\n      dup6\n        /* \"#utility.yul\":2455:2461   */\n      dup3\n        /* \"#utility.yul\":2444:2453   */\n      dup7\n        /* \"#utility.yul\":2440:2462   */\n      add\n        /* \"#utility.yul\":2422:2472   */\n      tag_121\n      jump\t// in\n    tag_153:\n        /* \"#utility.yul\":2412:2472   */\n      swap2\n      pop\n        /* \"#utility.yul\":2367:2482   */\n      pop\n        /* \"#utility.yul\":2021:2489   */\n      swap3\n      pop\n      swap3\n      swap1\n      pop\n      jump\t// out\n        /* \"#utility.yul\":2495:2613   */\n    tag_154:\n        /* \"#utility.yul\":2582:2606   */\n      tag_156\n        /* \"#utility.yul\":2600:2605   */\n      dup2\n        /* \"#utility.yul\":2582:2606   */\n      tag_157\n      jump\t// in\n    tag_156:\n        /* \"#utility.yul\":2577:2580   */\n      dup3\n        /* \"#utility.yul\":2570:2607   */\n      mstore\n        /* \"#utility.yul\":2495:2613   */\n      pop\n      pop\n      jump\t// out\n        /* \"#utility.yul\":2619:2776   */\n    tag_158:\n        /* \"#utility.yul\":2724:2769   */\n      tag_160\n        /* \"#utility.yul\":2744:2768   */\n      tag_161\n        /* \"#utility.yul\":2762:2767   */\n      dup3\n        /* \"#utility.yul\":2744:2768   */\n      tag_157\n      jump\t// in\n    tag_161:\n        /* \"#utility.yul\":2724:2769   */\n      tag_162\n      jump\t// in\n    tag_160:\n        /* \"#utility.yul\":2719:2722   */\n      dup3\n        /* \"#utility.yul\":2712:2770   */\n      mstore\n        /* \"#utility.yul\":2619:2776   */\n      pop\n      pop\n      jump\t// out\n        /* \"#utility.yul\":2782:3148   */\n    tag_163:\n        /* \"#utility.yul\":2924:2927   */\n      0x00\n        /* \"#utility.yul\":2945:3012   */\n      tag_165\n        /* \"#utility.yul\":3009:3011   */\n      0x26\n        /* \"#utility.yul\":3004:3007   */\n      dup4\n        /* \"#utility.yul\":2945:3012   */\n      tag_166\n      jump\t// in\n    tag_165:\n        /* \"#utility.yul\":2938:3012   */\n      swap2\n      pop\n        /* \"#utility.yul\":3021:3114   */\n      tag_167\n        /* \"#utility.yul\":3110:3113   */\n      dup3\n        /* \"#utility.yul\":3021:3114   */\n      tag_168\n      jump\t// in\n    tag_167:\n        /* \"#utility.yul\":3139:3141   */\n      0x40\n        /* \"#utility.yul\":3134:3137   */\n      dup3\n        /* \"#utility.yul\":3130:3142   */\n      add\n        /* \"#utility.yul\":3123:3142   */\n      swap1\n      pop\n        /* \"#utility.yul\":2782:3148   */\n      swap2\n      swap1\n      pop\n      jump\t// out\n        /* \"#utility.yul\":3154:3520   */\n    tag_169:\n        /* \"#utility.yul\":3296:3299   */\n      0x00\n        /* \"#utility.yul\":3317:3384   */\n      tag_171\n        /* \"#utility.yul\":3381:3383   */\n      0x30\n        /* \"#utility.yul\":3376:3379   */\n      dup4\n        /* \"#utility.yul\":3317:3384   */\n      tag_166\n      jump\t// in\n    tag_171:\n        /* \"#utility.yul\":3310:3384   */\n      swap2\n      pop\n        /* \"#utility.yul\":3393:3486   */\n      tag_172\n        /* \"#utility.yul\":3482:3485   */\n      dup3\n        /* \"#utility.yul\":3393:3486   */\n      tag_173\n      jump\t// in\n    tag_172:\n        /* \"#utility.yul\":3511:3513   */\n      0x40\n        /* \"#utility.yul\":3506:3509   */\n      dup3\n        /* \"#utility.yul\":3502:3514   */\n      add\n        /* \"#utility.yul\":3495:3514   */\n      swap1\n      pop\n        /* \"#utility.yul\":3154:3520   */\n      swap2\n      swap1\n      pop\n      jump\t// out\n        /* \"#utility.yul\":3526:3892   */\n    tag_174:\n        /* \"#utility.yul\":3668:3671   */\n      0x00\n        /* \"#utility.yul\":3689:3756   */\n      tag_176\n        /* \"#utility.yul\":3753:3755   */\n      0x29\n        /* \"#utility.yul\":3748:3751   */\n      dup4\n        /* \"#utility.yul\":3689:3756   */\n      tag_166\n      jump\t// in\n    tag_176:\n        /* \"#utility.yul\":3682:3756   */\n      swap2\n      pop\n        /* \"#utility.yul\":3765:3858   */\n      tag_177\n        /* \"#utility.yul\":3854:3857   */\n      dup3\n        /* \"#utility.yul\":3765:3858   */\n      tag_178\n      jump\t// in\n    tag_177:\n        /* \"#utility.yul\":3883:3885   */\n      0x40\n        /* \"#utility.yul\":3878:3881   */\n      dup3\n        /* \"#utility.yul\":3874:3886   */\n      add\n        /* \"#utility.yul\":3867:3886   */\n      swap1\n      pop\n        /* \"#utility.yul\":3526:3892   */\n      swap2\n      swap1\n      pop\n      jump\t// out\n        /* \"#utility.yul\":3898:4264   */\n    tag_179:\n        /* \"#utility.yul\":4040:4043   */\n      0x00\n        /* \"#utility.yul\":4061:4128   */\n      tag_181\n        /* \"#utility.yul\":4125:4127   */\n      0x13\n        /* \"#utility.yul\":4120:4123   */\n      dup4\n        /* \"#utility.yul\":4061:4128   */\n      tag_166\n      jump\t// in\n    tag_181:\n        /* \"#utility.yul\":4054:4128   */\n      swap2\n      pop\n        /* \"#utility.yul\":4137:4230   */\n      tag_182\n        /* \"#utility.yul\":4226:4229   */\n      dup3\n        /* \"#utility.yul\":4137:4230   */\n      tag_183\n      jump\t// in\n    tag_182:\n        /* \"#utility.yul\":4255:4257   */\n      0x20\n        /* \"#utility.yul\":4250:4253   */\n      dup3\n        /* \"#utility.yul\":4246:4258   */\n      add\n        /* \"#utility.yul\":4239:4258   */\n      swap1\n      pop\n        /* \"#utility.yul\":3898:4264   */\n      swap2\n      swap1\n      pop\n      jump\t// out\n        /* \"#utility.yul\":4270:4636   */\n    tag_184:\n        /* \"#utility.yul\":4412:4415   */\n      0x00\n        /* \"#utility.yul\":4433:4500   */\n      tag_186\n        /* \"#utility.yul\":4497:4499   */\n      0x20\n        /* \"#utility.yul\":4492:4495   */\n      dup4\n        /* \"#utility.yul\":4433:4500   */\n      tag_166\n      jump\t// in\n    tag_186:\n        /* \"#utility.yul\":4426:4500   */\n      swap2\n      pop\n        /* \"#utility.yul\":4509:4602   */\n      tag_187\n        /* \"#utility.yul\":4598:4601   */\n      dup3\n        /* \"#utility.yul\":4509:4602   */\n      tag_188\n      jump\t// in\n    tag_187:\n        /* \"#utility.yul\":4627:4629   */\n      0x20\n        /* \"#utility.yul\":4622:4625   */\n      dup3\n        /* \"#utility.yul\":4618:4630   */\n      add\n        /* \"#utility.yul\":4611:4630   */\n      swap1\n      pop\n        /* \"#utility.yul\":4270:4636   */\n      swap2\n      swap1\n      pop\n      jump\t// out\n        /* \"#utility.yul\":4642:5008   */\n    tag_189:\n        /* \"#utility.yul\":4784:4787   */\n      0x00\n        /* \"#utility.yul\":4805:4872   */\n      tag_191\n        /* \"#utility.yul\":4869:4871   */\n      0x24\n        /* \"#utility.yul\":4864:4867   */\n      dup4\n        /* \"#utility.yul\":4805:4872   */\n      tag_166\n      jump\t// in\n    tag_191:\n        /* \"#utility.yul\":4798:4872   */\n      swap2\n      pop\n        /* \"#utility.yul\":4881:4974   */\n      tag_192\n        /* \"#utility.yul\":4970:4973   */\n      dup3\n        /* \"#utility.yul\":4881:4974   */\n      tag_193\n      jump\t// in\n    tag_192:\n        /* \"#utility.yul\":4999:5001   */\n      0x40\n        /* \"#utility.yul\":4994:4997   */\n      dup3\n        /* \"#utility.yul\":4990:5002   */\n      add\n        /* \"#utility.yul\":4983:5002   */\n      swap1\n      pop\n        /* \"#utility.yul\":4642:5008   */\n      swap2\n      swap1\n      pop\n      jump\t// out\n        /* \"#utility.yul\":5014:5380   */\n    tag_194:\n        /* \"#utility.yul\":5156:5159   */\n      0x00\n        /* \"#utility.yul\":5177:5244   */\n      tag_196\n        /* \"#utility.yul\":5241:5243   */\n      0x19\n        /* \"#utility.yul\":5236:5239   */\n      dup4\n        /* \"#utility.yul\":5177:5244   */\n      tag_166\n      jump\t// in\n    tag_196:\n        /* \"#utility.yul\":5170:5244   */\n      swap2\n      pop\n        /* \"#utility.yul\":5253:5346   */\n      tag_197\n        /* \"#utility.yul\":5342:5345   */\n      dup3\n        /* \"#utility.yul\":5253:5346   */\n      tag_198\n      jump\t// in\n    tag_197:\n        /* \"#utility.yul\":5371:5373   */\n      0x20\n        /* \"#utility.yul\":5366:5369   */\n      dup3\n        /* \"#utility.yul\":5362:5374   */\n      add\n        /* \"#utility.yul\":5355:5374   */\n      swap1\n      pop\n        /* \"#utility.yul\":5014:5380   */\n      swap2\n      swap1\n      pop\n      jump\t// out\n        /* \"#utility.yul\":5386:5752   */\n    tag_199:\n        /* \"#utility.yul\":5528:5531   */\n      0x00\n        /* \"#utility.yul\":5549:5616   */\n      tag_201\n        /* \"#utility.yul\":5613:5615   */\n      0x2a\n        /* \"#utility.yul\":5608:5611   */\n      dup4\n        /* \"#utility.yul\":5549:5616   */\n      tag_166\n      jump\t// in\n    tag_201:\n        /* \"#utility.yul\":5542:5616   */\n      swap2\n      pop\n        /* \"#utility.yul\":5625:5718   */\n      tag_202\n        /* \"#utility.yul\":5714:5717   */\n      dup3\n        /* \"#utility.yul\":5625:5718   */\n      tag_203\n      jump\t// in\n    tag_202:\n        /* \"#utility.yul\":5743:5745   */\n      0x40\n        /* \"#utility.yul\":5738:5741   */\n      dup3\n        /* \"#utility.yul\":5734:5746   */\n      add\n        /* \"#utility.yul\":5727:5746   */\n      swap1\n      pop\n        /* \"#utility.yul\":5386:5752   */\n      swap2\n      swap1\n      pop\n      jump\t// out\n        /* \"#utility.yul\":5758:5876   */\n    tag_204:\n        /* \"#utility.yul\":5845:5869   */\n      tag_206\n        /* \"#utility.yul\":5863:5868   */\n      dup2\n        /* \"#utility.yul\":5845:5869   */\n      tag_207\n      jump\t// in\n    tag_206:\n        /* \"#utility.yul\":5840:5843   */\n      dup3\n        /* \"#utility.yul\":5833:5870   */\n      mstore\n        /* \"#utility.yul\":5758:5876   */\n      pop\n      pop\n      jump\t// out\n        /* \"#utility.yul\":5882:6039   */\n    tag_208:\n        /* \"#utility.yul\":5987:6032   */\n      tag_210\n        /* \"#utility.yul\":6007:6031   */\n      tag_211\n        /* \"#utility.yul\":6025:6030   */\n      dup3\n        /* \"#utility.yul\":6007:6031   */\n      tag_207\n      jump\t// in\n    tag_211:\n        /* \"#utility.yul\":5987:6032   */\n      tag_212\n      jump\t// in\n    tag_210:\n        /* \"#utility.yul\":5982:5985   */\n      dup3\n        /* \"#utility.yul\":5975:6033   */\n      mstore\n        /* \"#utility.yul\":5882:6039   */\n      pop\n      pop\n      jump\t// out\n        /* \"#utility.yul\":6045:6865   */\n    tag_45:\n        /* \"#utility.yul\":6269:6272   */\n      0x00\n        /* \"#utility.yul\":6284:6359   */\n      tag_214\n        /* \"#utility.yul\":6355:6358   */\n      dup3\n        /* \"#utility.yul\":6346:6352   */\n      dup9\n        /* \"#utility.yul\":6284:6359   */\n      tag_158\n      jump\t// in\n    tag_214:\n        /* \"#utility.yul\":6384:6386   */\n      0x14\n        /* \"#utility.yul\":6379:6382   */\n      dup3\n        /* \"#utility.yul\":6375:6387   */\n      add\n        /* \"#utility.yul\":6368:6387   */\n      swap2\n      pop\n        /* \"#utility.yul\":6397:6472   */\n      tag_215\n        /* \"#utility.yul\":6468:6471   */\n      dup3\n        /* \"#utility.yul\":6459:6465   */\n      dup8\n        /* \"#utility.yul\":6397:6472   */\n      tag_158\n      jump\t// in\n    tag_215:\n        /* \"#utility.yul\":6497:6499   */\n      0x14\n        /* \"#utility.yul\":6492:6495   */\n      dup3\n        /* \"#utility.yul\":6488:6500   */\n      add\n        /* \"#utility.yul\":6481:6500   */\n      swap2\n      pop\n        /* \"#utility.yul\":6510:6585   */\n      tag_216\n        /* \"#utility.yul\":6581:6584   */\n      dup3\n        /* \"#utility.yul\":6572:6578   */\n      dup7\n        /* \"#utility.yul\":6510:6585   */\n      tag_208\n      jump\t// in\n    tag_216:\n        /* \"#utility.yul\":6610:6612   */\n      0x20\n        /* \"#utility.yul\":6605:6608   */\n      dup3\n        /* \"#utility.yul\":6601:6613   */\n      add\n        /* \"#utility.yul\":6594:6613   */\n      swap2\n      pop\n        /* \"#utility.yul\":6623:6698   */\n      tag_217\n        /* \"#utility.yul\":6694:6697   */\n      dup3\n        /* \"#utility.yul\":6685:6691   */\n      dup6\n        /* \"#utility.yul\":6623:6698   */\n      tag_208\n      jump\t// in\n    tag_217:\n        /* \"#utility.yul\":6723:6725   */\n      0x20\n        /* \"#utility.yul\":6718:6721   */\n      dup3\n        /* \"#utility.yul\":6714:6726   */\n      add\n        /* \"#utility.yul\":6707:6726   */\n      swap2\n      pop\n        /* \"#utility.yul\":6736:6811   */\n      tag_218\n        /* \"#utility.yul\":6807:6810   */\n      dup3\n        /* \"#utility.yul\":6798:6804   */\n      dup5\n        /* \"#utility.yul\":6736:6811   */\n      tag_208\n      jump\t// in\n    tag_218:\n        /* \"#utility.yul\":6836:6838   */\n      0x20\n        /* \"#utility.yul\":6831:6834   */\n      dup3\n        /* \"#utility.yul\":6827:6839   */\n      add\n        /* \"#utility.yul\":6820:6839   */\n      swap2\n      pop\n        /* \"#utility.yul\":6856:6859   */\n      dup2\n        /* \"#utility.yul\":6849:6859   */\n      swap1\n      pop\n        /* \"#utility.yul\":6045:6865   */\n      swap7\n      swap6\n      pop\n      pop\n      pop\n      pop\n      pop\n      pop\n      jump\t// out\n        /* \"#utility.yul\":6871:7093   */\n    tag_18:\n        /* \"#utility.yul\":6964:6968   */\n      0x00\n        /* \"#utility.yul\":7002:7004   */\n      0x20\n        /* \"#utility.yul\":6991:7000   */\n      dup3\n        /* \"#utility.yul\":6987:7005   */\n      add\n        /* \"#utility.yul\":6979:7005   */\n      swap1\n      pop\n        /* \"#utility.yul\":7015:7086   */\n      tag_220\n        /* \"#utility.yul\":7083:7084   */\n      0x00\n        /* \"#utility.yul\":7072:7081   */\n      dup4\n        /* \"#utility.yul\":7068:7085   */\n      add\n        /* \"#utility.yul\":7059:7065   */\n      dup5\n        /* \"#utility.yul\":7015:7086   */\n      tag_154\n      jump\t// in\n    tag_220:\n        /* \"#utility.yul\":6871:7093   */\n      swap3\n      swap2\n      pop\n      pop\n      jump\t// out\n        /* \"#utility.yul\":7099:7518   */\n    tag_101:\n        /* \"#utility.yul\":7265:7269   */\n      0x00\n        /* \"#utility.yul\":7303:7305   */\n      0x20\n        /* \"#utility.yul\":7292:7301   */\n      dup3\n        /* \"#utility.yul\":7288:7306   */\n      add\n        /* \"#utility.yul\":7280:7306   */\n      swap1\n      pop\n        /* \"#utility.yul\":7352:7361   */\n      dup2\n        /* \"#utility.yul\":7346:7350   */\n      dup2\n        /* \"#utility.yul\":7342:7362   */\n      sub\n        /* \"#utility.yul\":7338:7339   */\n      0x00\n        /* \"#utility.yul\":7327:7336   */\n      dup4\n        /* \"#utility.yul\":7323:7340   */\n      add\n        /* \"#utility.yul\":7316:7363   */\n      mstore\n        /* \"#utility.yul\":7380:7511   */\n      tag_222\n        /* \"#utility.yul\":7506:7510   */\n      dup2\n        /* \"#utility.yul\":7380:7511   */\n      tag_163\n      jump\t// in\n    tag_222:\n        /* \"#utility.yul\":7372:7511   */\n      swap1\n      pop\n        /* \"#utility.yul\":7099:7518   */\n      swap2\n      swap1\n      pop\n      jump\t// out\n        /* \"#utility.yul\":7524:7943   */\n    tag_73:\n        /* \"#utility.yul\":7690:7694   */\n      0x00\n        /* \"#utility.yul\":7728:7730   */\n      0x20\n        /* \"#utility.yul\":7717:7726   */\n      dup3\n        /* \"#utility.yul\":7713:7731   */\n      add\n        /* \"#utility.yul\":7705:7731   */\n      swap1\n      pop\n        /* \"#utility.yul\":7777:7786   */\n      dup2\n        /* \"#utility.yul\":7771:7775   */\n      dup2\n        /* \"#utility.yul\":7767:7787   */\n      sub\n        /* \"#utility.yul\":7763:7764   */\n      0x00\n        /* \"#utility.yul\":7752:7761   */\n      dup4\n        /* \"#utility.yul\":7748:7765   */\n      add\n        /* \"#utility.yul\":7741:7788   */\n      mstore\n        /* \"#utility.yul\":7805:7936   */\n      tag_224\n        /* \"#utility.yul\":7931:7935   */\n      dup2\n        /* \"#utility.yul\":7805:7936   */\n      tag_169\n      jump\t// in\n    tag_224:\n        /* \"#utility.yul\":7797:7936   */\n      swap1\n      pop\n        /* \"#utility.yul\":7524:7943   */\n      swap2\n      swap1\n      pop\n      jump\t// out\n        /* \"#utility.yul\":7949:8368   */\n    tag_34:\n        /* \"#utility.yul\":8115:8119   */\n      0x00\n        /* \"#utility.yul\":8153:8155   */\n      0x20\n        /* \"#utility.yul\":8142:8151   */\n      dup3\n        /* \"#utility.yul\":8138:8156   */\n      add\n        /* \"#utility.yul\":8130:8156   */\n      swap1\n      pop\n        /* \"#utility.yul\":8202:8211   */\n      dup2\n        /* \"#utility.yul\":8196:8200   */\n      dup2\n        /* \"#utility.yul\":8192:8212   */\n      sub\n        /* \"#utility.yul\":8188:8189   */\n      0x00\n        /* \"#utility.yul\":8177:8186   */\n      dup4\n        /* \"#utility.yul\":8173:8190   */\n      add\n        /* \"#utility.yul\":8166:8213   */\n      mstore\n        /* \"#utility.yul\":8230:8361   */\n      tag_226\n        /* \"#utility.yul\":8356:8360   */\n      dup2\n        /* \"#utility.yul\":8230:8361   */\n      tag_174\n      jump\t// in\n    tag_226:\n        /* \"#utility.yul\":8222:8361   */\n      swap1\n      pop\n        /* \"#utility.yul\":7949:8368   */\n      swap2\n      swap1\n      pop\n      jump\t// out\n        /* \"#utility.yul\":8374:8793   */\n    tag_77:\n        /* \"#utility.yul\":8540:8544   */\n      0x00\n        /* \"#utility.yul\":8578:8580   */\n      0x20\n        /* \"#utility.yul\":8567:8576   */\n      dup3\n        /* \"#utility.yul\":8563:8581   */\n      add\n        /* \"#utility.yul\":8555:8581   */\n      swap1\n      pop\n        /* \"#utility.yul\":8627:8636   */\n      dup2\n        /* \"#utility.yul\":8621:8625   */\n      dup2\n        /* \"#utility.yul\":8617:8637   */\n      sub\n        /* \"#utility.yul\":8613:8614   */\n      0x00\n        /* \"#utility.yul\":8602:8611   */\n      dup4\n        /* \"#utility.yul\":8598:8615   */\n      add\n        /* \"#utility.yul\":8591:8638   */\n      mstore\n        /* \"#utility.yul\":8655:8786   */\n      tag_228\n        /* \"#utility.yul\":8781:8785   */\n      dup2\n        /* \"#utility.yul\":8655:8786   */\n      tag_179\n      jump\t// in\n    tag_228:\n        /* \"#utility.yul\":8647:8786   */\n      swap1\n      pop\n        /* \"#utility.yul\":8374:8793   */\n      swap2\n      swap1\n      pop\n      jump\t// out\n        /* \"#utility.yul\":8799:9218   */\n    tag_59:\n        /* \"#utility.yul\":8965:8969   */\n      0x00\n        /* \"#utility.yul\":9003:9005   */\n      0x20\n        /* \"#utility.yul\":8992:9001   */\n      dup3\n        /* \"#utility.yul\":8988:9006   */\n      add\n        /* \"#utility.yul\":8980:9006   */\n      swap1\n      pop\n        /* \"#utility.yul\":9052:9061   */\n      dup2\n        /* \"#utility.yul\":9046:9050   */\n      dup2\n        /* \"#utility.yul\":9042:9062   */\n      sub\n        /* \"#utility.yul\":9038:9039   */\n      0x00\n        /* \"#utility.yul\":9027:9036   */\n      dup4\n        /* \"#utility.yul\":9023:9040   */\n      add\n        /* \"#utility.yul\":9016:9063   */\n      mstore\n        /* \"#utility.yul\":9080:9211   */\n      tag_230\n        /* \"#utility.yul\":9206:9210   */\n      dup2\n        /* \"#utility.yul\":9080:9211   */\n      tag_184\n      jump\t// in\n    tag_230:\n        /* \"#utility.yul\":9072:9211   */\n      swap1\n      pop\n        /* \"#utility.yul\":8799:9218   */\n      swap2\n      swap1\n      pop\n      jump\t// out\n        /* \"#utility.yul\":9224:9643   */\n    tag_43:\n        /* \"#utility.yul\":9390:9394   */\n      0x00\n        /* \"#utility.yul\":9428:9430   */\n      0x20\n        /* \"#utility.yul\":9417:9426   */\n      dup3\n        /* \"#utility.yul\":9413:9431   */\n      add\n        /* \"#utility.yul\":9405:9431   */\n      swap1\n      pop\n        /* \"#utility.yul\":9477:9486   */\n      dup2\n        /* \"#utility.yul\":9471:9475   */\n      dup2\n        /* \"#utility.yul\":9467:9487   */\n      sub\n        /* \"#utility.yul\":9463:9464   */\n      0x00\n        /* \"#utility.yul\":9452:9461   */\n      dup4\n        /* \"#utility.yul\":9448:9465   */\n      add\n        /* \"#utility.yul\":9441:9488   */\n      mstore\n        /* \"#utility.yul\":9505:9636   */\n      tag_232\n        /* \"#utility.yul\":9631:9635   */\n      dup2\n        /* \"#utility.yul\":9505:9636   */\n      tag_189\n      jump\t// in\n    tag_232:\n        /* \"#utility.yul\":9497:9636   */\n      swap1\n      pop\n        /* \"#utility.yul\":9224:9643   */\n      swap2\n      swap1\n      pop\n      jump\t// out\n        /* \"#utility.yul\":9649:10068   */\n    tag_84:\n        /* \"#utility.yul\":9815:9819   */\n      0x00\n        /* \"#utility.yul\":9853:9855   */\n      0x20\n        /* \"#utility.yul\":9842:9851   */\n      dup3\n        /* \"#utility.yul\":9838:9856   */\n      add\n        /* \"#utility.yul\":9830:9856   */\n      swap1\n      pop\n        /* \"#utility.yul\":9902:9911   */\n      dup2\n        /* \"#utility.yul\":9896:9900   */\n      dup2\n        /* \"#utility.yul\":9892:9912   */\n      sub\n        /* \"#utility.yul\":9888:9889   */\n      0x00\n        /* \"#utility.yul\":9877:9886   */\n      dup4\n        /* \"#utility.yul\":9873:9890   */\n      add\n        /* \"#utility.yul\":9866:9913   */\n      mstore\n        /* \"#utility.yul\":9930:10061   */\n      tag_234\n        /* \"#utility.yul\":10056:10060   */\n      dup2\n        /* \"#utility.yul\":9930:10061   */\n      tag_194\n      jump\t// in\n    tag_234:\n        /* \"#utility.yul\":9922:10061   */\n      swap1\n      pop\n        /* \"#utility.yul\":9649:10068   */\n      swap2\n      swap1\n      pop\n      jump\t// out\n        /* \"#utility.yul\":10074:10493   */\n    tag_40:\n        /* \"#utility.yul\":10240:10244   */\n      0x00\n        /* \"#utility.yul\":10278:10280   */\n      0x20\n        /* \"#utility.yul\":10267:10276   */\n      dup3\n        /* \"#utility.yul\":10263:10281   */\n      add\n        /* \"#utility.yul\":10255:10281   */\n      swap1\n      pop\n        /* \"#utility.yul\":10327:10336   */\n      dup2\n        /* \"#utility.yul\":10321:10325   */\n      dup2\n        /* \"#utility.yul\":10317:10337   */\n      sub\n        /* \"#utility.yul\":10313:10314   */\n      0x00\n        /* \"#utility.yul\":10302:10311   */\n      dup4\n        /* \"#utility.yul\":10298:10315   */\n      add\n        /* \"#utility.yul\":10291:10338   */\n      mstore\n        /* \"#utility.yul\":10355:10486   */\n      tag_236\n        /* \"#utility.yul\":10481:10485   */\n      dup2\n        /* \"#utility.yul\":10355:10486   */\n      tag_199\n      jump\t// in\n    tag_236:\n        /* \"#utility.yul\":10347:10486   */\n      swap1\n      pop\n        /* \"#utility.yul\":10074:10493   */\n      swap2\n      swap1\n      pop\n      jump\t// out\n        /* \"#utility.yul\":10499:10721   */\n    tag_52:\n        /* \"#utility.yul\":10592:10596   */\n      0x00\n        /* \"#utility.yul\":10630:10632   */\n      0x20\n        /* \"#utility.yul\":10619:10628   */\n      dup3\n        /* \"#utility.yul\":10615:10633   */\n      add\n        /* \"#utility.yul\":10607:10633   */\n      swap1\n      pop\n        /* \"#utility.yul\":10643:10714   */\n      tag_238\n        /* \"#utility.yul\":10711:10712   */\n      0x00\n        /* \"#utility.yul\":10700:10709   */\n      dup4\n        /* \"#utility.yul\":10696:10713   */\n      add\n        /* \"#utility.yul\":10687:10693   */\n      dup5\n        /* \"#utility.yul\":10643:10714   */\n      tag_204\n      jump\t// in\n    tag_238:\n        /* \"#utility.yul\":10499:10721   */\n      swap3\n      swap2\n      pop\n      pop\n      jump\t// out\n        /* \"#utility.yul\":10808:10977   */\n    tag_166:\n        /* \"#utility.yul\":10892:10903   */\n      0x00\n        /* \"#utility.yul\":10926:10932   */\n      dup3\n        /* \"#utility.yul\":10921:10924   */\n      dup3\n        /* \"#utility.yul\":10914:10933   */\n      mstore\n        /* \"#utility.yul\":10966:10970   */\n      0x20\n        /* \"#utility.yul\":10961:10964   */\n      dup3\n        /* \"#utility.yul\":10957:10971   */\n      add\n        /* \"#utility.yul\":10942:10971   */\n      swap1\n      pop\n        /* \"#utility.yul\":10808:10977   */\n      swap3\n      swap2\n      pop\n      pop\n      jump\t// out\n        /* \"#utility.yul\":10983:11079   */\n    tag_157:\n        /* \"#utility.yul\":11020:11027   */\n      0x00\n        /* \"#utility.yul\":11049:11073   */\n      tag_243\n        /* \"#utility.yul\":11067:11072   */\n      dup3\n        /* \"#utility.yul\":11049:11073   */\n      tag_244\n      jump\t// in\n    tag_243:\n        /* \"#utility.yul\":11038:11073   */\n      swap1\n      pop\n        /* \"#utility.yul\":10983:11079   */\n      swap2\n      swap1\n      pop\n      jump\t// out\n        /* \"#utility.yul\":11085:11175   */\n    tag_245:\n        /* \"#utility.yul\":11119:11126   */\n      0x00\n        /* \"#utility.yul\":11162:11167   */\n      dup2\n        /* \"#utility.yul\":11155:11168   */\n      iszero\n        /* \"#utility.yul\":11148:11169   */\n      iszero\n        /* \"#utility.yul\":11137:11169   */\n      swap1\n      pop\n        /* \"#utility.yul\":11085:11175   */\n      swap2\n      swap1\n      pop\n      jump\t// out\n        /* \"#utility.yul\":11181:11258   */\n    tag_247:\n        /* \"#utility.yul\":11218:11225   */\n      0x00\n        /* \"#utility.yul\":11247:11252   */\n      dup2\n        /* \"#utility.yul\":11236:11252   */\n      swap1\n      pop\n        /* \"#utility.yul\":11181:11258   */\n      swap2\n      swap1\n      pop\n      jump\t// out\n        /* \"#utility.yul\":11264:11390   */\n    tag_244:\n        /* \"#utility.yul\":11301:11308   */\n      0x00\n        /* \"#utility.yul\":11341:11383   */\n      0xffffffffffffffffffffffffffffffffffffffff\n        /* \"#utility.yul\":11334:11339   */\n      dup3\n        /* \"#utility.yul\":11330:11384   */\n      and\n        /* \"#utility.yul\":11319:11384   */\n      swap1\n      pop\n        /* \"#utility.yul\":11264:11390   */\n      swap2\n      swap1\n      pop\n      jump\t// out\n        /* \"#utility.yul\":11396:11473   */\n    tag_207:\n        /* \"#utility.yul\":11433:11440   */\n      0x00\n        /* \"#utility.yul\":11462:11467   */\n      dup2\n        /* \"#utility.yul\":11451:11467   */\n      swap1\n      pop\n        /* \"#utility.yul\":11396:11473   */\n      swap2\n      swap1\n      pop\n      jump\t// out\n        /* \"#utility.yul\":11479:11579   */\n    tag_162:\n        /* \"#utility.yul\":11518:11525   */\n      0x00\n        /* \"#utility.yul\":11547:11573   */\n      tag_252\n        /* \"#utility.yul\":11567:11572   */\n      dup3\n        /* \"#utility.yul\":11547:11573   */\n      tag_253\n      jump\t// in\n    tag_252:\n        /* \"#utility.yul\":11536:11573   */\n      swap1\n      pop\n        /* \"#utility.yul\":11479:11579   */\n      swap2\n      swap1\n      pop\n      jump\t// out\n        /* \"#utility.yul\":11585:11679   */\n    tag_253:\n        /* \"#utility.yul\":11624:11631   */\n      0x00\n        /* \"#utility.yul\":11653:11673   */\n      tag_255\n        /* \"#utility.yul\":11667:11672   */\n      dup3\n        /* \"#utility.yul\":11653:11673   */\n      tag_256\n      jump\t// in\n    tag_255:\n        /* \"#utility.yul\":11642:11673   */\n      swap1\n      pop\n        /* \"#utility.yul\":11585:11679   */\n      swap2\n      swap1\n      pop\n      jump\t// out\n        /* \"#utility.yul\":11685:11764   */\n    tag_212:\n        /* \"#utility.yul\":11724:11731   */\n      0x00\n        /* \"#utility.yul\":11753:11758   */\n      dup2\n        /* \"#utility.yul\":11742:11758   */\n      swap1\n      pop\n        /* \"#utility.yul\":11685:11764   */\n      swap2\n      swap1\n      pop\n      jump\t// out\n        /* \"#utility.yul\":11770:11950   */\n    tag_48:\n        /* \"#utility.yul\":11818:11895   */\n      0x4e487b7100000000000000000000000000000000000000000000000000000000\n        /* \"#utility.yul\":11815:11816   */\n      0x00\n        /* \"#utility.yul\":11808:11896   */\n      mstore\n        /* \"#utility.yul\":11915:11919   */\n      0x21\n        /* \"#utility.yul\":11912:11913   */\n      0x04\n        /* \"#utility.yul\":11905:11920   */\n      mstore\n        /* \"#utility.yul\":11939:11943   */\n      0x24\n        /* \"#utility.yul\":11936:11937   */\n      0x00\n        /* \"#utility.yul\":11929:11944   */\n      revert\n        /* \"#utility.yul\":12079:12196   */\n    tag_136:\n        /* \"#utility.yul\":12188:12189   */\n      0x00\n        /* \"#utility.yul\":12185:12186   */\n      dup1\n        /* \"#utility.yul\":12178:12190   */\n      revert\n        /* \"#utility.yul\":12202:12296   */\n    tag_256:\n        /* \"#utility.yul\":12235:12243   */\n      0x00\n        /* \"#utility.yul\":12283:12288   */\n      dup2\n        /* \"#utility.yul\":12279:12281   */\n      0x60\n        /* \"#utility.yul\":12275:12289   */\n      shl\n        /* \"#utility.yul\":12254:12289   */\n      swap1\n      pop\n        /* \"#utility.yul\":12202:12296   */\n      swap2\n      swap1\n      pop\n      jump\t// out\n        /* \"#utility.yul\":12302:12527   */\n    tag_168:\n        /* \"#utility.yul\":12442:12476   */\n      0x4f776e61626c653a206e6577206f776e657220697320746865207a65726f2061\n        /* \"#utility.yul\":12438:12439   */\n      0x00\n        /* \"#utility.yul\":12430:12436   */\n      dup3\n        /* \"#utility.yul\":12426:12440   */\n      add\n        /* \"#utility.yul\":12419:12477   */\n      mstore\n        /* \"#utility.yul\":12511:12519   */\n      0x6464726573730000000000000000000000000000000000000000000000000000\n        /* \"#utility.yul\":12506:12508   */\n      0x20\n        /* \"#utility.yul\":12498:12504   */\n      dup3\n        /* \"#utility.yul\":12494:12509   */\n      add\n        /* \"#utility.yul\":12487:12520   */\n      mstore\n        /* \"#utility.yul\":12302:12527   */\n      pop\n      jump\t// out\n        /* \"#utility.yul\":12533:12768   */\n    tag_173:\n        /* \"#utility.yul\":12673:12707   */\n      0x5468657265206973206e6f2070617469656e7420726567697374657265642077\n        /* \"#utility.yul\":12669:12670   */\n      0x00\n        /* \"#utility.yul\":12661:12667   */\n      dup3\n        /* \"#utility.yul\":12657:12671   */\n      add\n        /* \"#utility.yul\":12650:12708   */\n      mstore\n        /* \"#utility.yul\":12742:12760   */\n      0x6974682074686973206164647265737300000000000000000000000000000000\n        /* \"#utility.yul\":12737:12739   */\n      0x20\n        /* \"#utility.yul\":12729:12735   */\n      dup3\n        /* \"#utility.yul\":12725:12740   */\n      add\n        /* \"#utility.yul\":12718:12761   */\n      mstore\n        /* \"#utility.yul\":12533:12768   */\n      pop\n      jump\t// out\n        /* \"#utility.yul\":12774:13002   */\n    tag_178:\n        /* \"#utility.yul\":12914:12948   */\n      0x4f6e6c7920636c696e6963732063616c6c20706572666f726d2074686973206f\n        /* \"#utility.yul\":12910:12911   */\n      0x00\n        /* \"#utility.yul\":12902:12908   */\n      dup3\n        /* \"#utility.yul\":12898:12912   */\n      add\n        /* \"#utility.yul\":12891:12949   */\n      mstore\n        /* \"#utility.yul\":12983:12994   */\n      0x7065726174696f6e730000000000000000000000000000000000000000000000\n        /* \"#utility.yul\":12978:12980   */\n      0x20\n        /* \"#utility.yul\":12970:12976   */\n      dup3\n        /* \"#utility.yul\":12966:12981   */\n      add\n        /* \"#utility.yul\":12959:12995   */\n      mstore\n        /* \"#utility.yul\":12774:13002   */\n      pop\n      jump\t// out\n        /* \"#utility.yul\":13008:13177   */\n    tag_183:\n        /* \"#utility.yul\":13148:13169   */\n      0x496e766f6963652063616e277420666f756e6400000000000000000000000000\n        /* \"#utility.yul\":13144:13145   */\n      0x00\n        /* \"#utility.yul\":13136:13142   */\n      dup3\n        /* \"#utility.yul\":13132:13146   */\n      add\n        /* \"#utility.yul\":13125:13170   */\n      mstore\n        /* \"#utility.yul\":13008:13177   */\n      pop\n      jump\t// out\n        /* \"#utility.yul\":13183:13365   */\n    tag_188:\n        /* \"#utility.yul\":13323:13357   */\n      0x4f776e61626c653a2063616c6c6572206973206e6f7420746865206f776e6572\n        /* \"#utility.yul\":13319:13320   */\n      0x00\n        /* \"#utility.yul\":13311:13317   */\n      dup3\n        /* \"#utility.yul\":13307:13321   */\n      add\n        /* \"#utility.yul\":13300:13358   */\n      mstore\n        /* \"#utility.yul\":13183:13365   */\n      pop\n      jump\t// out\n        /* \"#utility.yul\":13371:13594   */\n    tag_193:\n        /* \"#utility.yul\":13511:13545   */\n      0x50617469656e742063616e27742062652063686172676564207468697320616d\n        /* \"#utility.yul\":13507:13508   */\n      0x00\n        /* \"#utility.yul\":13499:13505   */\n      dup3\n        /* \"#utility.yul\":13495:13509   */\n      add\n        /* \"#utility.yul\":13488:13546   */\n      mstore\n        /* \"#utility.yul\":13580:13586   */\n      0x6f756e7400000000000000000000000000000000000000000000000000000000\n        /* \"#utility.yul\":13575:13577   */\n      0x20\n        /* \"#utility.yul\":13567:13573   */\n      dup3\n        /* \"#utility.yul\":13563:13578   */\n      add\n        /* \"#utility.yul\":13556:13587   */\n      mstore\n        /* \"#utility.yul\":13371:13594   */\n      pop\n      jump\t// out\n        /* \"#utility.yul\":13600:13775   */\n    tag_198:\n        /* \"#utility.yul\":13740:13767   */\n      0x496e766f6963652063616e277420626520616363657074656400000000000000\n        /* \"#utility.yul\":13736:13737   */\n      0x00\n        /* \"#utility.yul\":13728:13734   */\n      dup3\n        /* \"#utility.yul\":13724:13738   */\n      add\n        /* \"#utility.yul\":13717:13768   */\n      mstore\n        /* \"#utility.yul\":13600:13775   */\n      pop\n      jump\t// out\n        /* \"#utility.yul\":13781:14010   */\n    tag_203:\n        /* \"#utility.yul\":13921:13955   */\n      0x50617469656e742063616e2774206265206368617267656420666f7220746869\n        /* \"#utility.yul\":13917:13918   */\n      0x00\n        /* \"#utility.yul\":13909:13915   */\n      dup3\n        /* \"#utility.yul\":13905:13919   */\n      add\n        /* \"#utility.yul\":13898:13956   */\n      mstore\n        /* \"#utility.yul\":13990:14002   */\n      0x732063617465676f727900000000000000000000000000000000000000000000\n        /* \"#utility.yul\":13985:13987   */\n      0x20\n        /* \"#utility.yul\":13977:13983   */\n      dup3\n        /* \"#utility.yul\":13973:13988   */\n      add\n        /* \"#utility.yul\":13966:14003   */\n      mstore\n        /* \"#utility.yul\":13781:14010   */\n      pop\n      jump\t// out\n        /* \"#utility.yul\":14016:14138   */\n    tag_120:\n        /* \"#utility.yul\":14089:14113   */\n      tag_272\n        /* \"#utility.yul\":14107:14112   */\n      dup2\n        /* \"#utility.yul\":14089:14113   */\n      tag_157\n      jump\t// in\n    tag_272:\n        /* \"#utility.yul\":14082:14087   */\n      dup2\n        /* \"#utility.yul\":14079:14114   */\n      eq\n        /* \"#utility.yul\":14069:14132   */\n      tag_273\n      jumpi\n        /* \"#utility.yul\":14128:14129   */\n      0x00\n        /* \"#utility.yul\":14125:14126   */\n      dup1\n        /* \"#utility.yul\":14118:14130   */\n      revert\n        /* \"#utility.yul\":14069:14132   */\n    tag_273:\n        /* \"#utility.yul\":14016:14138   */\n      pop\n      jump\t// out\n        /* \"#utility.yul\":14144:14260   */\n    tag_124:\n        /* \"#utility.yul\":14214:14235   */\n      tag_275\n        /* \"#utility.yul\":14229:14234   */\n      dup2\n        /* \"#utility.yul\":14214:14235   */\n      tag_245\n      jump\t// in\n    tag_275:\n        /* \"#utility.yul\":14207:14212   */\n      dup2\n        /* \"#utility.yul\":14204:14236   */\n      eq\n        /* \"#utility.yul\":14194:14254   */\n      tag_276\n      jumpi\n        /* \"#utility.yul\":14250:14251   */\n      0x00\n        /* \"#utility.yul\":14247:14248   */\n      dup1\n        /* \"#utility.yul\":14240:14252   */\n      revert\n        /* \"#utility.yul\":14194:14254   */\n    tag_276:\n        /* \"#utility.yul\":14144:14260   */\n      pop\n      jump\t// out\n        /* \"#utility.yul\":14266:14388   */\n    tag_128:\n        /* \"#utility.yul\":14339:14363   */\n      tag_278\n        /* \"#utility.yul\":14357:14362   */\n      dup2\n        /* \"#utility.yul\":14339:14363   */\n      tag_247\n      jump\t// in\n    tag_278:\n        /* \"#utility.yul\":14332:14337   */\n      dup2\n        /* \"#utility.yul\":14329:14364   */\n      eq\n        /* \"#utility.yul\":14319:14382   */\n      tag_279\n      jumpi\n        /* \"#utility.yul\":14378:14379   */\n      0x00\n        /* \"#utility.yul\":14375:14376   */\n      dup1\n        /* \"#utility.yul\":14368:14380   */\n      revert\n        /* \"#utility.yul\":14319:14382   */\n    tag_279:\n        /* \"#utility.yul\":14266:14388   */\n      pop\n      jump\t// out\n        /* \"#utility.yul\":14394:14516   */\n    tag_132:\n        /* \"#utility.yul\":14467:14491   */\n      tag_281\n        /* \"#utility.yul\":14485:14490   */\n      dup2\n        /* \"#utility.yul\":14467:14491   */\n      tag_207\n      jump\t// in\n    tag_281:\n        /* \"#utility.yul\":14460:14465   */\n      dup2\n        /* \"#utility.yul\":14457:14492   */\n      eq\n        /* \"#utility.yul\":14447:14510   */\n      tag_282\n      jumpi\n        /* \"#utility.yul\":14506:14507   */\n      0x00\n        /* \"#utility.yul\":14503:14504   */\n      dup1\n        /* \"#utility.yul\":14496:14508   */\n      revert\n        /* \"#utility.yul\":14447:14510   */\n    tag_282:\n        /* \"#utility.yul\":14394:14516   */\n      pop\n      jump\t// out\n\n    auxdata: 0xa2646970667358221220698b5a91e4c2e27324fef94e366bbbde898253d3fd177fcd4db1ebde53ac501b64736f6c63430008070033\n}\n",
				"bytecode": {
					"linkReferences": {},
					"object": "608060405234801561001057600080fd5b5061002d61002261003260201b60201c565b61003a60201b60201c565b6100fe565b600033905090565b60008060009054906101000a900473ffffffffffffffffffffffffffffffffffffffff169050816000806101000a81548173ffffffffffffffffffffffffffffffffffffffff021916908373ffffffffffffffffffffffffffffffffffffffff1602179055508173ffffffffffffffffffffffffffffffffffffffff168173ffffffffffffffffffffffffffffffffffffffff167f8be0079c531659141344cd1fd0a4f28419497f9722a3daafe3b4186f6b6457e060405160405180910390a35050565b6117f28061010d6000396000f3fe608060405234801561001057600080fd5b50600436106100625760003560e01c80630707613b14610067578063715018a6146100835780638da5cb5b1461008d57806399bf9094146100ab578063ed1f2592146100c7578063f2fde38b146100e3575b600080fd5b610081600480360381019061007c91906110bc565b6100ff565b005b61008b610530565b005b6100956105b8565b6040516100a29190611352565b60405180910390f35b6100c560048036038101906100c0919061110f565b6105e1565b005b6100e160048036038101906100dc919061114f565b6106a5565b005b6100fd60048036038101906100f8919061108f565b61099b565b005b6000801b600360003373ffffffffffffffffffffffffffffffffffffffff1673ffffffffffffffffffffffffffffffffffffffff168152602001908152602001600020541415610184576040517f08c379a000000000000000000000000000000000000000000000000000000000815260040161017b906113ad565b60405180910390fd5b6000801b600460008573ffffffffffffffffffffffffffffffffffffffff1673ffffffffffffffffffffffffffffffffffffffff1681526020019081526020016000205414156102175780600460008573ffffffffffffffffffffffffffffffffffffffff1673ffffffffffffffffffffffffffffffffffffffff16815260200190815260200160002081905550610299565b80600460008573ffffffffffffffffffffffffffffffffffffffff1673ffffffffffffffffffffffffffffffffffffffff1681526020019081526020016000205414610298576040517f08c379a000000000000000000000000000000000000000000000000000000000815260040161028f9061144d565b60405180910390fd5b5b81600360026000848152602001908152602001600020540210156102f2576040517f08c379a00000000000000000000000000000000000000000000000000000000081526004016102e99061140d565b60405180910390fd5b60006040518060a0016040528033868642436040516020016103189594939291906112f3565b6040516020818303038152906040528051906020012081526020018381526020018481526020018573ffffffffffffffffffffffffffffffffffffffff1681526020016000600281111561036f5761036e611519565b5b815250905080600760008673ffffffffffffffffffffffffffffffffffffffff1673ffffffffffffffffffffffffffffffffffffffff1681526020019081526020016000206000600360003373ffffffffffffffffffffffffffffffffffffffff1673ffffffffffffffffffffffffffffffffffffffff16815260200190815260200160002054815260200190815260200160002060008201518160000155602082015181600101556040820151816002015560608201518160030160006101000a81548173ffffffffffffffffffffffffffffffffffffffff021916908373ffffffffffffffffffffffffffffffffffffffff16021790555060808201518160030160146101000a81548160ff0219169083600281111561049457610493611519565b5b0217905550905050600360003373ffffffffffffffffffffffffffffffffffffffff1673ffffffffffffffffffffffffffffffffffffffff168152602001908152602001600020548473ffffffffffffffffffffffffffffffffffffffff167fad438d062604ef9539e2a0b5152e5071f8d5e9641c488d60234d23fdca24444c85604051610522919061146d565b60405180910390a350505050565b610538610a93565b73ffffffffffffffffffffffffffffffffffffffff166105566105b8565b73ffffffffffffffffffffffffffffffffffffffff16146105ac576040517f08c379a00000000000000000000000000000000000000000000000000000000081526004016105a3906113ed565b60405180910390fd5b6105b66000610a9b565b565b60008060009054906101000a900473ffffffffffffffffffffffffffffffffffffffff16905090565b6105e9610a93565b73ffffffffffffffffffffffffffffffffffffffff166106076105b8565b73ffffffffffffffffffffffffffffffffffffffff161461065d576040517f08c379a0000000000000000000000000000000000000000000000000000000008152600401610654906113ed565b60405180910390fd5b81600360008373ffffffffffffffffffffffffffffffffffffffff1673ffffffffffffffffffffffffffffffffffffffff168152602001908152602001600020819055505050565b6000801b600460003373ffffffffffffffffffffffffffffffffffffffff1673ffffffffffffffffffffffffffffffffffffffff16815260200190815260200160002054141561072a576040517f08c379a00000000000000000000000000000000000000000000000000000000081526004016107219061138d565b60405180910390fd5b6000801b600760003373ffffffffffffffffffffffffffffffffffffffff1673ffffffffffffffffffffffffffffffffffffffff16815260200190815260200160002060008481526020019081526020016000206000015414156107c3576040517f08c379a00000000000000000000000000000000000000000000000000000000081526004016107ba906113cd565b60405180910390fd5b600060028111156107d7576107d6611519565b5b600760003373ffffffffffffffffffffffffffffffffffffffff1673ffffffffffffffffffffffffffffffffffffffff168152602001908152602001600020600084815260200190815260200160002060030160149054906101000a900460ff16600281111561084a57610849611519565b5b1461088a576040517f08c379a00000000000000000000000000000000000000000000000000000000081526004016108819061142d565b60405180910390fd5b8015610911576001600760003373ffffffffffffffffffffffffffffffffffffffff1673ffffffffffffffffffffffffffffffffffffffff168152602001908152602001600020600084815260200190815260200160002060030160146101000a81548160ff0219169083600281111561090757610906611519565b5b021790555061098e565b6002600760003373ffffffffffffffffffffffffffffffffffffffff1673ffffffffffffffffffffffffffffffffffffffff168152602001908152602001600020600084815260200190815260200160002060030160146101000a81548160ff0219169083600281111561098857610987611519565b5b02179055505b61099782610b5f565b5050565b6109a3610a93565b73ffffffffffffffffffffffffffffffffffffffff166109c16105b8565b73ffffffffffffffffffffffffffffffffffffffff1614610a17576040517f08c379a0000000000000000000000000000000000000000000000000000000008152600401610a0e906113ed565b60405180910390fd5b600073ffffffffffffffffffffffffffffffffffffffff168173ffffffffffffffffffffffffffffffffffffffff161415610a87576040517f08c379a0000000000000000000000000000000000000000000000000000000008152600401610a7e9061136d565b60405180910390fd5b610a9081610a9b565b50565b600033905090565b60008060009054906101000a900473ffffffffffffffffffffffffffffffffffffffff169050816000806101000a81548173ffffffffffffffffffffffffffffffffffffffff021916908373ffffffffffffffffffffffffffffffffffffffff1602179055508173ffffffffffffffffffffffffffffffffffffffff168173ffffffffffffffffffffffffffffffffffffffff167f8be0079c531659141344cd1fd0a4f28419497f9722a3daafe3b4186f6b6457e060405160405180910390a35050565b600560003373ffffffffffffffffffffffffffffffffffffffff1673ffffffffffffffffffffffffffffffffffffffff168152602001908152602001600020600760003373ffffffffffffffffffffffffffffffffffffffff1673ffffffffffffffffffffffffffffffffffffffff168152602001908152602001600020600083815260200190815260200160002090806001815401808255809150506001900390600052602060002090600402016000909190919091506000820154816000015560018201548160010155600282015481600201556003820160009054906101000a900473ffffffffffffffffffffffffffffffffffffffff168160030160006101000a81548173ffffffffffffffffffffffffffffffffffffffff021916908373ffffffffffffffffffffffffffffffffffffffff1602179055506003820160149054906101000a900460ff168160030160146101000a81548160ff02191690836002811115610cd457610cd3611519565b5b02179055505050600760003373ffffffffffffffffffffffffffffffffffffffff1673ffffffffffffffffffffffffffffffffffffffff168152602001908152602001600020600082815260200190815260200160002060066000600760003373ffffffffffffffffffffffffffffffffffffffff1673ffffffffffffffffffffffffffffffffffffffff16815260200190815260200160002060008581526020019081526020016000206000015481526020019081526020016000206000820154816000015560018201548160010155600282015481600201556003820160009054906101000a900473ffffffffffffffffffffffffffffffffffffffff168160030160006101000a81548173ffffffffffffffffffffffffffffffffffffffff021916908373ffffffffffffffffffffffffffffffffffffffff1602179055506003820160149054906101000a900460ff168160030160146101000a81548160ff02191690836002811115610e4e57610e4d611519565b5b02179055509050506040518060a001604052806000801b81526020016000801b815260200160008152602001600073ffffffffffffffffffffffffffffffffffffffff16815260200160006002811115610eab57610eaa611519565b5b815250600760003373ffffffffffffffffffffffffffffffffffffffff1673ffffffffffffffffffffffffffffffffffffffff168152602001908152602001600020600083815260200190815260200160002060008201518160000155602082015181600101556040820151816002015560608201518160030160006101000a81548173ffffffffffffffffffffffffffffffffffffffff021916908373ffffffffffffffffffffffffffffffffffffffff16021790555060808201518160030160146101000a81548160ff02191690836002811115610f8e57610f8d611519565b5b0217905550905050803373ffffffffffffffffffffffffffffffffffffffff167f58e6b4bb20368f9a0b488a5727fff9b8795b7c85245c2a5d7ccbea5552fd2ca5600760003373ffffffffffffffffffffffffffffffffffffffff1673ffffffffffffffffffffffffffffffffffffffff168152602001908152602001600020600085815260200190815260200160002060020154604051611030919061146d565b60405180910390a350565b60008135905061104a81611760565b92915050565b60008135905061105f81611777565b92915050565b6000813590506110748161178e565b92915050565b600081359050611089816117a5565b92915050565b6000602082840312156110a5576110a4611548565b5b60006110b38482850161103b565b91505092915050565b6000806000606084860312156110d5576110d4611548565b5b60006110e38682870161103b565b93505060206110f48682870161107a565b925050604061110586828701611065565b9150509250925092565b6000806040838503121561112657611125611548565b5b600061113485828601611065565b92505060206111458582860161103b565b9150509250929050565b6000806040838503121561116657611165611548565b5b600061117485828601611065565b925050602061118585828601611050565b9150509250929050565b61119881611499565b82525050565b6111af6111aa82611499565b6114eb565b82525050565b60006111c2602683611488565b91506111cd8261155a565b604082019050919050565b60006111e5603083611488565b91506111f0826115a9565b604082019050919050565b6000611208602983611488565b9150611213826115f8565b604082019050919050565b600061122b601383611488565b915061123682611647565b602082019050919050565b600061124e602083611488565b915061125982611670565b602082019050919050565b6000611271602483611488565b915061127c82611699565b604082019050919050565b6000611294601983611488565b915061129f826116e8565b602082019050919050565b60006112b7602a83611488565b91506112c282611711565b604082019050919050565b6112d6816114e1565b82525050565b6112ed6112e8826114e1565b61150f565b82525050565b60006112ff828861119e565b60148201915061130f828761119e565b60148201915061131f82866112dc565b60208201915061132f82856112dc565b60208201915061133f82846112dc565b6020820191508190509695505050505050565b6000602082019050611367600083018461118f565b92915050565b60006020820190508181036000830152611386816111b5565b9050919050565b600060208201905081810360008301526113a6816111d8565b9050919050565b600060208201905081810360008301526113c6816111fb565b9050919050565b600060208201905081810360008301526113e68161121e565b9050919050565b6000602082019050818103600083015261140681611241565b9050919050565b6000602082019050818103600083015261142681611264565b9050919050565b6000602082019050818103600083015261144681611287565b9050919050565b60006020820190508181036000830152611466816112aa565b9050919050565b600060208201905061148260008301846112cd565b92915050565b600082825260208201905092915050565b60006114a4826114c1565b9050919050565b60008115159050919050565b6000819050919050565b600073ffffffffffffffffffffffffffffffffffffffff82169050919050565b6000819050919050565b60006114f6826114fd565b9050919050565b60006115088261154d565b9050919050565b6000819050919050565b7f4e487b7100000000000000000000000000000000000000000000000000000000600052602160045260246000fd5b600080fd5b60008160601b9050919050565b7f4f776e61626c653a206e6577206f776e657220697320746865207a65726f206160008201527f6464726573730000000000000000000000000000000000000000000000000000602082015250565b7f5468657265206973206e6f2070617469656e742072656769737465726564207760008201527f6974682074686973206164647265737300000000000000000000000000000000602082015250565b7f4f6e6c7920636c696e6963732063616c6c20706572666f726d2074686973206f60008201527f7065726174696f6e730000000000000000000000000000000000000000000000602082015250565b7f496e766f6963652063616e277420666f756e6400000000000000000000000000600082015250565b7f4f776e61626c653a2063616c6c6572206973206e6f7420746865206f776e6572600082015250565b7f50617469656e742063616e27742062652063686172676564207468697320616d60008201527f6f756e7400000000000000000000000000000000000000000000000000000000602082015250565b7f496e766f6963652063616e277420626520616363657074656400000000000000600082015250565b7f50617469656e742063616e2774206265206368617267656420666f722074686960008201527f732063617465676f727900000000000000000000000000000000000000000000602082015250565b61176981611499565b811461177457600080fd5b50565b611780816114ab565b811461178b57600080fd5b50565b611797816114b7565b81146117a257600080fd5b50565b6117ae816114e1565b81146117b957600080fd5b5056fea2646970667358221220698b5a91e4c2e27324fef94e366bbbde898253d3fd177fcd4db1ebde53ac501b64736f6c63430008070033",
					"opcodes": "PUSH1 0x80 PUSH1 0x40 MSTORE CALLVALUE DUP1 ISZERO PUSH2 0x10 JUMPI PUSH1 0x0 DUP1 REVERT JUMPDEST POP PUSH2 0x2D PUSH2 0x22 PUSH2 0x32 PUSH1 0x20 SHL PUSH1 0x20 SHR JUMP JUMPDEST PUSH2 0x3A PUSH1 0x20 SHL PUSH1 0x20 SHR JUMP JUMPDEST PUSH2 0xFE JUMP JUMPDEST PUSH1 0x0 CALLER SWAP1 POP SWAP1 JUMP JUMPDEST PUSH1 0x0 DUP1 PUSH1 0x0 SWAP1 SLOAD SWAP1 PUSH2 0x100 EXP SWAP1 DIV PUSH20 0xFFFFFFFFFFFFFFFFFFFFFFFFFFFFFFFFFFFFFFFF AND SWAP1 POP DUP2 PUSH1 0x0 DUP1 PUSH2 0x100 EXP DUP2 SLOAD DUP2 PUSH20 0xFFFFFFFFFFFFFFFFFFFFFFFFFFFFFFFFFFFFFFFF MUL NOT AND SWAP1 DUP4 PUSH20 0xFFFFFFFFFFFFFFFFFFFFFFFFFFFFFFFFFFFFFFFF AND MUL OR SWAP1 SSTORE POP DUP2 PUSH20 0xFFFFFFFFFFFFFFFFFFFFFFFFFFFFFFFFFFFFFFFF AND DUP2 PUSH20 0xFFFFFFFFFFFFFFFFFFFFFFFFFFFFFFFFFFFFFFFF AND PUSH32 0x8BE0079C531659141344CD1FD0A4F28419497F9722A3DAAFE3B4186F6B6457E0 PUSH1 0x40 MLOAD PUSH1 0x40 MLOAD DUP1 SWAP2 SUB SWAP1 LOG3 POP POP JUMP JUMPDEST PUSH2 0x17F2 DUP1 PUSH2 0x10D PUSH1 0x0 CODECOPY PUSH1 0x0 RETURN INVALID PUSH1 0x80 PUSH1 0x40 MSTORE CALLVALUE DUP1 ISZERO PUSH2 0x10 JUMPI PUSH1 0x0 DUP1 REVERT JUMPDEST POP PUSH1 0x4 CALLDATASIZE LT PUSH2 0x62 JUMPI PUSH1 0x0 CALLDATALOAD PUSH1 0xE0 SHR DUP1 PUSH4 0x707613B EQ PUSH2 0x67 JUMPI DUP1 PUSH4 0x715018A6 EQ PUSH2 0x83 JUMPI DUP1 PUSH4 0x8DA5CB5B EQ PUSH2 0x8D JUMPI DUP1 PUSH4 0x99BF9094 EQ PUSH2 0xAB JUMPI DUP1 PUSH4 0xED1F2592 EQ PUSH2 0xC7 JUMPI DUP1 PUSH4 0xF2FDE38B EQ PUSH2 0xE3 JUMPI JUMPDEST PUSH1 0x0 DUP1 REVERT JUMPDEST PUSH2 0x81 PUSH1 0x4 DUP1 CALLDATASIZE SUB DUP2 ADD SWAP1 PUSH2 0x7C SWAP2 SWAP1 PUSH2 0x10BC JUMP JUMPDEST PUSH2 0xFF JUMP JUMPDEST STOP JUMPDEST PUSH2 0x8B PUSH2 0x530 JUMP JUMPDEST STOP JUMPDEST PUSH2 0x95 PUSH2 0x5B8 JUMP JUMPDEST PUSH1 0x40 MLOAD PUSH2 0xA2 SWAP2 SWAP1 PUSH2 0x1352 JUMP JUMPDEST PUSH1 0x40 MLOAD DUP1 SWAP2 SUB SWAP1 RETURN JUMPDEST PUSH2 0xC5 PUSH1 0x4 DUP1 CALLDATASIZE SUB DUP2 ADD SWAP1 PUSH2 0xC0 SWAP2 SWAP1 PUSH2 0x110F JUMP JUMPDEST PUSH2 0x5E1 JUMP JUMPDEST STOP JUMPDEST PUSH2 0xE1 PUSH1 0x4 DUP1 CALLDATASIZE SUB DUP2 ADD SWAP1 PUSH2 0xDC SWAP2 SWAP1 PUSH2 0x114F JUMP JUMPDEST PUSH2 0x6A5 JUMP JUMPDEST STOP JUMPDEST PUSH2 0xFD PUSH1 0x4 DUP1 CALLDATASIZE SUB DUP2 ADD SWAP1 PUSH2 0xF8 SWAP2 SWAP1 PUSH2 0x108F JUMP JUMPDEST PUSH2 0x99B JUMP JUMPDEST STOP JUMPDEST PUSH1 0x0 DUP1 SHL PUSH1 0x3 PUSH1 0x0 CALLER PUSH20 0xFFFFFFFFFFFFFFFFFFFFFFFFFFFFFFFFFFFFFFFF AND PUSH20 0xFFFFFFFFFFFFFFFFFFFFFFFFFFFFFFFFFFFFFFFF AND DUP2 MSTORE PUSH1 0x20 ADD SWAP1 DUP2 MSTORE PUSH1 0x20 ADD PUSH1 0x0 KECCAK256 SLOAD EQ ISZERO PUSH2 0x184 JUMPI PUSH1 0x40 MLOAD PUSH32 0x8C379A000000000000000000000000000000000000000000000000000000000 DUP2 MSTORE PUSH1 0x4 ADD PUSH2 0x17B SWAP1 PUSH2 0x13AD JUMP JUMPDEST PUSH1 0x40 MLOAD DUP1 SWAP2 SUB SWAP1 REVERT JUMPDEST PUSH1 0x0 DUP1 SHL PUSH1 0x4 PUSH1 0x0 DUP6 PUSH20 0xFFFFFFFFFFFFFFFFFFFFFFFFFFFFFFFFFFFFFFFF AND PUSH20 0xFFFFFFFFFFFFFFFFFFFFFFFFFFFFFFFFFFFFFFFF AND DUP2 MSTORE PUSH1 0x20 ADD SWAP1 DUP2 MSTORE PUSH1 0x20 ADD PUSH1 0x0 KECCAK256 SLOAD EQ ISZERO PUSH2 0x217 JUMPI DUP1 PUSH1 0x4 PUSH1 0x0 DUP6 PUSH20 0xFFFFFFFFFFFFFFFFFFFFFFFFFFFFFFFFFFFFFFFF AND PUSH20 0xFFFFFFFFFFFFFFFFFFFFFFFFFFFFFFFFFFFFFFFF AND DUP2 MSTORE PUSH1 0x20 ADD SWAP1 DUP2 MSTORE PUSH1 0x20 ADD PUSH1 0x0 KECCAK256 DUP2 SWAP1 SSTORE POP PUSH2 0x299 JUMP JUMPDEST DUP1 PUSH1 0x4 PUSH1 0x0 DUP6 PUSH20 0xFFFFFFFFFFFFFFFFFFFFFFFFFFFFFFFFFFFFFFFF AND PUSH20 0xFFFFFFFFFFFFFFFFFFFFFFFFFFFFFFFFFFFFFFFF AND DUP2 MSTORE PUSH1 0x20 ADD SWAP1 DUP2 MSTORE PUSH1 0x20 ADD PUSH1 0x0 KECCAK256 SLOAD EQ PUSH2 0x298 JUMPI PUSH1 0x40 MLOAD PUSH32 0x8C379A000000000000000000000000000000000000000000000000000000000 DUP2 MSTORE PUSH1 0x4 ADD PUSH2 0x28F SWAP1 PUSH2 0x144D JUMP JUMPDEST PUSH1 0x40 MLOAD DUP1 SWAP2 SUB SWAP1 REVERT JUMPDEST JUMPDEST DUP2 PUSH1 0x3 PUSH1 0x2 PUSH1 0x0 DUP5 DUP2 MSTORE PUSH1 0x20 ADD SWAP1 DUP2 MSTORE PUSH1 0x20 ADD PUSH1 0x0 KECCAK256 SLOAD MUL LT ISZERO PUSH2 0x2F2 JUMPI PUSH1 0x40 MLOAD PUSH32 0x8C379A000000000000000000000000000000000000000000000000000000000 DUP2 MSTORE PUSH1 0x4 ADD PUSH2 0x2E9 SWAP1 PUSH2 0x140D JUMP JUMPDEST PUSH1 0x40 MLOAD DUP1 SWAP2 SUB SWAP1 REVERT JUMPDEST PUSH1 0x0 PUSH1 0x40 MLOAD DUP1 PUSH1 0xA0 ADD PUSH1 0x40 MSTORE DUP1 CALLER DUP7 DUP7 TIMESTAMP NUMBER PUSH1 0x40 MLOAD PUSH1 0x20 ADD PUSH2 0x318 SWAP6 SWAP5 SWAP4 SWAP3 SWAP2 SWAP1 PUSH2 0x12F3 JUMP JUMPDEST PUSH1 0x40 MLOAD PUSH1 0x20 DUP2 DUP4 SUB SUB DUP2 MSTORE SWAP1 PUSH1 0x40 MSTORE DUP1 MLOAD SWAP1 PUSH1 0x20 ADD KECCAK256 DUP2 MSTORE PUSH1 0x20 ADD DUP4 DUP2 MSTORE PUSH1 0x20 ADD DUP5 DUP2 MSTORE PUSH1 0x20 ADD DUP6 PUSH20 0xFFFFFFFFFFFFFFFFFFFFFFFFFFFFFFFFFFFFFFFF AND DUP2 MSTORE PUSH1 0x20 ADD PUSH1 0x0 PUSH1 0x2 DUP2 GT ISZERO PUSH2 0x36F JUMPI PUSH2 0x36E PUSH2 0x1519 JUMP JUMPDEST JUMPDEST DUP2 MSTORE POP SWAP1 POP DUP1 PUSH1 0x7 PUSH1 0x0 DUP7 PUSH20 0xFFFFFFFFFFFFFFFFFFFFFFFFFFFFFFFFFFFFFFFF AND PUSH20 0xFFFFFFFFFFFFFFFFFFFFFFFFFFFFFFFFFFFFFFFF AND DUP2 MSTORE PUSH1 0x20 ADD SWAP1 DUP2 MSTORE PUSH1 0x20 ADD PUSH1 0x0 KECCAK256 PUSH1 0x0 PUSH1 0x3 PUSH1 0x0 CALLER PUSH20 0xFFFFFFFFFFFFFFFFFFFFFFFFFFFFFFFFFFFFFFFF AND PUSH20 0xFFFFFFFFFFFFFFFFFFFFFFFFFFFFFFFFFFFFFFFF AND DUP2 MSTORE PUSH1 0x20 ADD SWAP1 DUP2 MSTORE PUSH1 0x20 ADD PUSH1 0x0 KECCAK256 SLOAD DUP2 MSTORE PUSH1 0x20 ADD SWAP1 DUP2 MSTORE PUSH1 0x20 ADD PUSH1 0x0 KECCAK256 PUSH1 0x0 DUP3 ADD MLOAD DUP2 PUSH1 0x0 ADD SSTORE PUSH1 0x20 DUP3 ADD MLOAD DUP2 PUSH1 0x1 ADD SSTORE PUSH1 0x40 DUP3 ADD MLOAD DUP2 PUSH1 0x2 ADD SSTORE PUSH1 0x60 DUP3 ADD MLOAD DUP2 PUSH1 0x3 ADD PUSH1 0x0 PUSH2 0x100 EXP DUP2 SLOAD DUP2 PUSH20 0xFFFFFFFFFFFFFFFFFFFFFFFFFFFFFFFFFFFFFFFF MUL NOT AND SWAP1 DUP4 PUSH20 0xFFFFFFFFFFFFFFFFFFFFFFFFFFFFFFFFFFFFFFFF AND MUL OR SWAP1 SSTORE POP PUSH1 0x80 DUP3 ADD MLOAD DUP2 PUSH1 0x3 ADD PUSH1 0x14 PUSH2 0x100 EXP DUP2 SLOAD DUP2 PUSH1 0xFF MUL NOT AND SWAP1 DUP4 PUSH1 0x2 DUP2 GT ISZERO PUSH2 0x494 JUMPI PUSH2 0x493 PUSH2 0x1519 JUMP JUMPDEST JUMPDEST MUL OR SWAP1 SSTORE POP SWAP1 POP POP PUSH1 0x3 PUSH1 0x0 CALLER PUSH20 0xFFFFFFFFFFFFFFFFFFFFFFFFFFFFFFFFFFFFFFFF AND PUSH20 0xFFFFFFFFFFFFFFFFFFFFFFFFFFFFFFFFFFFFFFFF AND DUP2 MSTORE PUSH1 0x20 ADD SWAP1 DUP2 MSTORE PUSH1 0x20 ADD PUSH1 0x0 KECCAK256 SLOAD DUP5 PUSH20 0xFFFFFFFFFFFFFFFFFFFFFFFFFFFFFFFFFFFFFFFF AND PUSH32 0xAD438D062604EF9539E2A0B5152E5071F8D5E9641C488D60234D23FDCA24444C DUP6 PUSH1 0x40 MLOAD PUSH2 0x522 SWAP2 SWAP1 PUSH2 0x146D JUMP JUMPDEST PUSH1 0x40 MLOAD DUP1 SWAP2 SUB SWAP1 LOG3 POP POP POP POP JUMP JUMPDEST PUSH2 0x538 PUSH2 0xA93 JUMP JUMPDEST PUSH20 0xFFFFFFFFFFFFFFFFFFFFFFFFFFFFFFFFFFFFFFFF AND PUSH2 0x556 PUSH2 0x5B8 JUMP JUMPDEST PUSH20 0xFFFFFFFFFFFFFFFFFFFFFFFFFFFFFFFFFFFFFFFF AND EQ PUSH2 0x5AC JUMPI PUSH1 0x40 MLOAD PUSH32 0x8C379A000000000000000000000000000000000000000000000000000000000 DUP2 MSTORE PUSH1 0x4 ADD PUSH2 0x5A3 SWAP1 PUSH2 0x13ED JUMP JUMPDEST PUSH1 0x40 MLOAD DUP1 SWAP2 SUB SWAP1 REVERT JUMPDEST PUSH2 0x5B6 PUSH1 0x0 PUSH2 0xA9B JUMP JUMPDEST JUMP JUMPDEST PUSH1 0x0 DUP1 PUSH1 0x0 SWAP1 SLOAD SWAP1 PUSH2 0x100 EXP SWAP1 DIV PUSH20 0xFFFFFFFFFFFFFFFFFFFFFFFFFFFFFFFFFFFFFFFF AND SWAP1 POP SWAP1 JUMP JUMPDEST PUSH2 0x5E9 PUSH2 0xA93 JUMP JUMPDEST PUSH20 0xFFFFFFFFFFFFFFFFFFFFFFFFFFFFFFFFFFFFFFFF AND PUSH2 0x607 PUSH2 0x5B8 JUMP JUMPDEST PUSH20 0xFFFFFFFFFFFFFFFFFFFFFFFFFFFFFFFFFFFFFFFF AND EQ PUSH2 0x65D JUMPI PUSH1 0x40 MLOAD PUSH32 0x8C379A000000000000000000000000000000000000000000000000000000000 DUP2 MSTORE PUSH1 0x4 ADD PUSH2 0x654 SWAP1 PUSH2 0x13ED JUMP JUMPDEST PUSH1 0x40 MLOAD DUP1 SWAP2 SUB SWAP1 REVERT JUMPDEST DUP2 PUSH1 0x3 PUSH1 0x0 DUP4 PUSH20 0xFFFFFFFFFFFFFFFFFFFFFFFFFFFFFFFFFFFFFFFF AND PUSH20 0xFFFFFFFFFFFFFFFFFFFFFFFFFFFFFFFFFFFFFFFF AND DUP2 MSTORE PUSH1 0x20 ADD SWAP1 DUP2 MSTORE PUSH1 0x20 ADD PUSH1 0x0 KECCAK256 DUP2 SWAP1 SSTORE POP POP POP JUMP JUMPDEST PUSH1 0x0 DUP1 SHL PUSH1 0x4 PUSH1 0x0 CALLER PUSH20 0xFFFFFFFFFFFFFFFFFFFFFFFFFFFFFFFFFFFFFFFF AND PUSH20 0xFFFFFFFFFFFFFFFFFFFFFFFFFFFFFFFFFFFFFFFF AND DUP2 MSTORE PUSH1 0x20 ADD SWAP1 DUP2 MSTORE PUSH1 0x20 ADD PUSH1 0x0 KECCAK256 SLOAD EQ ISZERO PUSH2 0x72A JUMPI PUSH1 0x40 MLOAD PUSH32 0x8C379A000000000000000000000000000000000000000000000000000000000 DUP2 MSTORE PUSH1 0x4 ADD PUSH2 0x721 SWAP1 PUSH2 0x138D JUMP JUMPDEST PUSH1 0x40 MLOAD DUP1 SWAP2 SUB SWAP1 REVERT JUMPDEST PUSH1 0x0 DUP1 SHL PUSH1 0x7 PUSH1 0x0 CALLER PUSH20 0xFFFFFFFFFFFFFFFFFFFFFFFFFFFFFFFFFFFFFFFF AND PUSH20 0xFFFFFFFFFFFFFFFFFFFFFFFFFFFFFFFFFFFFFFFF AND DUP2 MSTORE PUSH1 0x20 ADD SWAP1 DUP2 MSTORE PUSH1 0x20 ADD PUSH1 0x0 KECCAK256 PUSH1 0x0 DUP5 DUP2 MSTORE PUSH1 0x20 ADD SWAP1 DUP2 MSTORE PUSH1 0x20 ADD PUSH1 0x0 KECCAK256 PUSH1 0x0 ADD SLOAD EQ ISZERO PUSH2 0x7C3 JUMPI PUSH1 0x40 MLOAD PUSH32 0x8C379A000000000000000000000000000000000000000000000000000000000 DUP2 MSTORE PUSH1 0x4 ADD PUSH2 0x7BA SWAP1 PUSH2 0x13CD JUMP JUMPDEST PUSH1 0x40 MLOAD DUP1 SWAP2 SUB SWAP1 REVERT JUMPDEST PUSH1 0x0 PUSH1 0x2 DUP2 GT ISZERO PUSH2 0x7D7 JUMPI PUSH2 0x7D6 PUSH2 0x1519 JUMP JUMPDEST JUMPDEST PUSH1 0x7 PUSH1 0x0 CALLER PUSH20 0xFFFFFFFFFFFFFFFFFFFFFFFFFFFFFFFFFFFFFFFF AND PUSH20 0xFFFFFFFFFFFFFFFFFFFFFFFFFFFFFFFFFFFFFFFF AND DUP2 MSTORE PUSH1 0x20 ADD SWAP1 DUP2 MSTORE PUSH1 0x20 ADD PUSH1 0x0 KECCAK256 PUSH1 0x0 DUP5 DUP2 MSTORE PUSH1 0x20 ADD SWAP1 DUP2 MSTORE PUSH1 0x20 ADD PUSH1 0x0 KECCAK256 PUSH1 0x3 ADD PUSH1 0x14 SWAP1 SLOAD SWAP1 PUSH2 0x100 EXP SWAP1 DIV PUSH1 0xFF AND PUSH1 0x2 DUP2 GT ISZERO PUSH2 0x84A JUMPI PUSH2 0x849 PUSH2 0x1519 JUMP JUMPDEST JUMPDEST EQ PUSH2 0x88A JUMPI PUSH1 0x40 MLOAD PUSH32 0x8C379A000000000000000000000000000000000000000000000000000000000 DUP2 MSTORE PUSH1 0x4 ADD PUSH2 0x881 SWAP1 PUSH2 0x142D JUMP JUMPDEST PUSH1 0x40 MLOAD DUP1 SWAP2 SUB SWAP1 REVERT JUMPDEST DUP1 ISZERO PUSH2 0x911 JUMPI PUSH1 0x1 PUSH1 0x7 PUSH1 0x0 CALLER PUSH20 0xFFFFFFFFFFFFFFFFFFFFFFFFFFFFFFFFFFFFFFFF AND PUSH20 0xFFFFFFFFFFFFFFFFFFFFFFFFFFFFFFFFFFFFFFFF AND DUP2 MSTORE PUSH1 0x20 ADD SWAP1 DUP2 MSTORE PUSH1 0x20 ADD PUSH1 0x0 KECCAK256 PUSH1 0x0 DUP5 DUP2 MSTORE PUSH1 0x20 ADD SWAP1 DUP2 MSTORE PUSH1 0x20 ADD PUSH1 0x0 KECCAK256 PUSH1 0x3 ADD PUSH1 0x14 PUSH2 0x100 EXP DUP2 SLOAD DUP2 PUSH1 0xFF MUL NOT AND SWAP1 DUP4 PUSH1 0x2 DUP2 GT ISZERO PUSH2 0x907 JUMPI PUSH2 0x906 PUSH2 0x1519 JUMP JUMPDEST JUMPDEST MUL OR SWAP1 SSTORE POP PUSH2 0x98E JUMP JUMPDEST PUSH1 0x2 PUSH1 0x7 PUSH1 0x0 CALLER PUSH20 0xFFFFFFFFFFFFFFFFFFFFFFFFFFFFFFFFFFFFFFFF AND PUSH20 0xFFFFFFFFFFFFFFFFFFFFFFFFFFFFFFFFFFFFFFFF AND DUP2 MSTORE PUSH1 0x20 ADD SWAP1 DUP2 MSTORE PUSH1 0x20 ADD PUSH1 0x0 KECCAK256 PUSH1 0x0 DUP5 DUP2 MSTORE PUSH1 0x20 ADD SWAP1 DUP2 MSTORE PUSH1 0x20 ADD PUSH1 0x0 KECCAK256 PUSH1 0x3 ADD PUSH1 0x14 PUSH2 0x100 EXP DUP2 SLOAD DUP2 PUSH1 0xFF MUL NOT AND SWAP1 DUP4 PUSH1 0x2 DUP2 GT ISZERO PUSH2 0x988 JUMPI PUSH2 0x987 PUSH2 0x1519 JUMP JUMPDEST JUMPDEST MUL OR SWAP1 SSTORE POP JUMPDEST PUSH2 0x997 DUP3 PUSH2 0xB5F JUMP JUMPDEST POP POP JUMP JUMPDEST PUSH2 0x9A3 PUSH2 0xA93 JUMP JUMPDEST PUSH20 0xFFFFFFFFFFFFFFFFFFFFFFFFFFFFFFFFFFFFFFFF AND PUSH2 0x9C1 PUSH2 0x5B8 JUMP JUMPDEST PUSH20 0xFFFFFFFFFFFFFFFFFFFFFFFFFFFFFFFFFFFFFFFF AND EQ PUSH2 0xA17 JUMPI PUSH1 0x40 MLOAD PUSH32 0x8C379A000000000000000000000000000000000000000000000000000000000 DUP2 MSTORE PUSH1 0x4 ADD PUSH2 0xA0E SWAP1 PUSH2 0x13ED JUMP JUMPDEST PUSH1 0x40 MLOAD DUP1 SWAP2 SUB SWAP1 REVERT JUMPDEST PUSH1 0x0 PUSH20 0xFFFFFFFFFFFFFFFFFFFFFFFFFFFFFFFFFFFFFFFF AND DUP2 PUSH20 0xFFFFFFFFFFFFFFFFFFFFFFFFFFFFFFFFFFFFFFFF AND EQ ISZERO PUSH2 0xA87 JUMPI PUSH1 0x40 MLOAD PUSH32 0x8C379A000000000000000000000000000000000000000000000000000000000 DUP2 MSTORE PUSH1 0x4 ADD PUSH2 0xA7E SWAP1 PUSH2 0x136D JUMP JUMPDEST PUSH1 0x40 MLOAD DUP1 SWAP2 SUB SWAP1 REVERT JUMPDEST PUSH2 0xA90 DUP2 PUSH2 0xA9B JUMP JUMPDEST POP JUMP JUMPDEST PUSH1 0x0 CALLER SWAP1 POP SWAP1 JUMP JUMPDEST PUSH1 0x0 DUP1 PUSH1 0x0 SWAP1 SLOAD SWAP1 PUSH2 0x100 EXP SWAP1 DIV PUSH20 0xFFFFFFFFFFFFFFFFFFFFFFFFFFFFFFFFFFFFFFFF AND SWAP1 POP DUP2 PUSH1 0x0 DUP1 PUSH2 0x100 EXP DUP2 SLOAD DUP2 PUSH20 0xFFFFFFFFFFFFFFFFFFFFFFFFFFFFFFFFFFFFFFFF MUL NOT AND SWAP1 DUP4 PUSH20 0xFFFFFFFFFFFFFFFFFFFFFFFFFFFFFFFFFFFFFFFF AND MUL OR SWAP1 SSTORE POP DUP2 PUSH20 0xFFFFFFFFFFFFFFFFFFFFFFFFFFFFFFFFFFFFFFFF AND DUP2 PUSH20 0xFFFFFFFFFFFFFFFFFFFFFFFFFFFFFFFFFFFFFFFF AND PUSH32 0x8BE0079C531659141344CD1FD0A4F28419497F9722A3DAAFE3B4186F6B6457E0 PUSH1 0x40 MLOAD PUSH1 0x40 MLOAD DUP1 SWAP2 SUB SWAP1 LOG3 POP POP JUMP JUMPDEST PUSH1 0x5 PUSH1 0x0 CALLER PUSH20 0xFFFFFFFFFFFFFFFFFFFFFFFFFFFFFFFFFFFFFFFF AND PUSH20 0xFFFFFFFFFFFFFFFFFFFFFFFFFFFFFFFFFFFFFFFF AND DUP2 MSTORE PUSH1 0x20 ADD SWAP1 DUP2 MSTORE PUSH1 0x20 ADD PUSH1 0x0 KECCAK256 PUSH1 0x7 PUSH1 0x0 CALLER PUSH20 0xFFFFFFFFFFFFFFFFFFFFFFFFFFFFFFFFFFFFFFFF AND PUSH20 0xFFFFFFFFFFFFFFFFFFFFFFFFFFFFFFFFFFFFFFFF AND DUP2 MSTORE PUSH1 0x20 ADD SWAP1 DUP2 MSTORE PUSH1 0x20 ADD PUSH1 0x0 KECCAK256 PUSH1 0x0 DUP4 DUP2 MSTORE PUSH1 0x20 ADD SWAP1 DUP2 MSTORE PUSH1 0x20 ADD PUSH1 0x0 KECCAK256 SWAP1 DUP1 PUSH1 0x1 DUP2 SLOAD ADD DUP1 DUP3 SSTORE DUP1 SWAP2 POP POP PUSH1 0x1 SWAP1 SUB SWAP1 PUSH1 0x0 MSTORE PUSH1 0x20 PUSH1 0x0 KECCAK256 SWAP1 PUSH1 0x4 MUL ADD PUSH1 0x0 SWAP1 SWAP2 SWAP1 SWAP2 SWAP1 SWAP2 POP PUSH1 0x0 DUP3 ADD SLOAD DUP2 PUSH1 0x0 ADD SSTORE PUSH1 0x1 DUP3 ADD SLOAD DUP2 PUSH1 0x1 ADD SSTORE PUSH1 0x2 DUP3 ADD SLOAD DUP2 PUSH1 0x2 ADD SSTORE PUSH1 0x3 DUP3 ADD PUSH1 0x0 SWAP1 SLOAD SWAP1 PUSH2 0x100 EXP SWAP1 DIV PUSH20 0xFFFFFFFFFFFFFFFFFFFFFFFFFFFFFFFFFFFFFFFF AND DUP2 PUSH1 0x3 ADD PUSH1 0x0 PUSH2 0x100 EXP DUP2 SLOAD DUP2 PUSH20 0xFFFFFFFFFFFFFFFFFFFFFFFFFFFFFFFFFFFFFFFF MUL NOT AND SWAP1 DUP4 PUSH20 0xFFFFFFFFFFFFFFFFFFFFFFFFFFFFFFFFFFFFFFFF AND MUL OR SWAP1 SSTORE POP PUSH1 0x3 DUP3 ADD PUSH1 0x14 SWAP1 SLOAD SWAP1 PUSH2 0x100 EXP SWAP1 DIV PUSH1 0xFF AND DUP2 PUSH1 0x3 ADD PUSH1 0x14 PUSH2 0x100 EXP DUP2 SLOAD DUP2 PUSH1 0xFF MUL NOT AND SWAP1 DUP4 PUSH1 0x2 DUP2 GT ISZERO PUSH2 0xCD4 JUMPI PUSH2 0xCD3 PUSH2 0x1519 JUMP JUMPDEST JUMPDEST MUL OR SWAP1 SSTORE POP POP POP PUSH1 0x7 PUSH1 0x0 CALLER PUSH20 0xFFFFFFFFFFFFFFFFFFFFFFFFFFFFFFFFFFFFFFFF AND PUSH20 0xFFFFFFFFFFFFFFFFFFFFFFFFFFFFFFFFFFFFFFFF AND DUP2 MSTORE PUSH1 0x20 ADD SWAP1 DUP2 MSTORE PUSH1 0x20 ADD PUSH1 0x0 KECCAK256 PUSH1 0x0 DUP3 DUP2 MSTORE PUSH1 0x20 ADD SWAP1 DUP2 MSTORE PUSH1 0x20 ADD PUSH1 0x0 KECCAK256 PUSH1 0x6 PUSH1 0x0 PUSH1 0x7 PUSH1 0x0 CALLER PUSH20 0xFFFFFFFFFFFFFFFFFFFFFFFFFFFFFFFFFFFFFFFF AND PUSH20 0xFFFFFFFFFFFFFFFFFFFFFFFFFFFFFFFFFFFFFFFF AND DUP2 MSTORE PUSH1 0x20 ADD SWAP1 DUP2 MSTORE PUSH1 0x20 ADD PUSH1 0x0 KECCAK256 PUSH1 0x0 DUP6 DUP2 MSTORE PUSH1 0x20 ADD SWAP1 DUP2 MSTORE PUSH1 0x20 ADD PUSH1 0x0 KECCAK256 PUSH1 0x0 ADD SLOAD DUP2 MSTORE PUSH1 0x20 ADD SWAP1 DUP2 MSTORE PUSH1 0x20 ADD PUSH1 0x0 KECCAK256 PUSH1 0x0 DUP3 ADD SLOAD DUP2 PUSH1 0x0 ADD SSTORE PUSH1 0x1 DUP3 ADD SLOAD DUP2 PUSH1 0x1 ADD SSTORE PUSH1 0x2 DUP3 ADD SLOAD DUP2 PUSH1 0x2 ADD SSTORE PUSH1 0x3 DUP3 ADD PUSH1 0x0 SWAP1 SLOAD SWAP1 PUSH2 0x100 EXP SWAP1 DIV PUSH20 0xFFFFFFFFFFFFFFFFFFFFFFFFFFFFFFFFFFFFFFFF AND DUP2 PUSH1 0x3 ADD PUSH1 0x0 PUSH2 0x100 EXP DUP2 SLOAD DUP2 PUSH20 0xFFFFFFFFFFFFFFFFFFFFFFFFFFFFFFFFFFFFFFFF MUL NOT AND SWAP1 DUP4 PUSH20 0xFFFFFFFFFFFFFFFFFFFFFFFFFFFFFFFFFFFFFFFF AND MUL OR SWAP1 SSTORE POP PUSH1 0x3 DUP3 ADD PUSH1 0x14 SWAP1 SLOAD SWAP1 PUSH2 0x100 EXP SWAP1 DIV PUSH1 0xFF AND DUP2 PUSH1 0x3 ADD PUSH1 0x14 PUSH2 0x100 EXP DUP2 SLOAD DUP2 PUSH1 0xFF MUL NOT AND SWAP1 DUP4 PUSH1 0x2 DUP2 GT ISZERO PUSH2 0xE4E JUMPI PUSH2 0xE4D PUSH2 0x1519 JUMP JUMPDEST JUMPDEST MUL OR SWAP1 SSTORE POP SWAP1 POP POP PUSH1 0x40 MLOAD DUP1 PUSH1 0xA0 ADD PUSH1 0x40 MSTORE DUP1 PUSH1 0x0 DUP1 SHL DUP2 MSTORE PUSH1 0x20 ADD PUSH1 0x0 DUP1 SHL DUP2 MSTORE PUSH1 0x20 ADD PUSH1 0x0 DUP2 MSTORE PUSH1 0x20 ADD PUSH1 0x0 PUSH20 0xFFFFFFFFFFFFFFFFFFFFFFFFFFFFFFFFFFFFFFFF AND DUP2 MSTORE PUSH1 0x20 ADD PUSH1 0x0 PUSH1 0x2 DUP2 GT ISZERO PUSH2 0xEAB JUMPI PUSH2 0xEAA PUSH2 0x1519 JUMP JUMPDEST JUMPDEST DUP2 MSTORE POP PUSH1 0x7 PUSH1 0x0 CALLER PUSH20 0xFFFFFFFFFFFFFFFFFFFFFFFFFFFFFFFFFFFFFFFF AND PUSH20 0xFFFFFFFFFFFFFFFFFFFFFFFFFFFFFFFFFFFFFFFF AND DUP2 MSTORE PUSH1 0x20 ADD SWAP1 DUP2 MSTORE PUSH1 0x20 ADD PUSH1 0x0 KECCAK256 PUSH1 0x0 DUP4 DUP2 MSTORE PUSH1 0x20 ADD SWAP1 DUP2 MSTORE PUSH1 0x20 ADD PUSH1 0x0 KECCAK256 PUSH1 0x0 DUP3 ADD MLOAD DUP2 PUSH1 0x0 ADD SSTORE PUSH1 0x20 DUP3 ADD MLOAD DUP2 PUSH1 0x1 ADD SSTORE PUSH1 0x40 DUP3 ADD MLOAD DUP2 PUSH1 0x2 ADD SSTORE PUSH1 0x60 DUP3 ADD MLOAD DUP2 PUSH1 0x3 ADD PUSH1 0x0 PUSH2 0x100 EXP DUP2 SLOAD DUP2 PUSH20 0xFFFFFFFFFFFFFFFFFFFFFFFFFFFFFFFFFFFFFFFF MUL NOT AND SWAP1 DUP4 PUSH20 0xFFFFFFFFFFFFFFFFFFFFFFFFFFFFFFFFFFFFFFFF AND MUL OR SWAP1 SSTORE POP PUSH1 0x80 DUP3 ADD MLOAD DUP2 PUSH1 0x3 ADD PUSH1 0x14 PUSH2 0x100 EXP DUP2 SLOAD DUP2 PUSH1 0xFF MUL NOT AND SWAP1 DUP4 PUSH1 0x2 DUP2 GT ISZERO PUSH2 0xF8E JUMPI PUSH2 0xF8D PUSH2 0x1519 JUMP JUMPDEST JUMPDEST MUL OR SWAP1 SSTORE POP SWAP1 POP POP DUP1 CALLER PUSH20 0xFFFFFFFFFFFFFFFFFFFFFFFFFFFFFFFFFFFFFFFF AND PUSH32 0x58E6B4BB20368F9A0B488A5727FFF9B8795B7C85245C2A5D7CCBEA5552FD2CA5 PUSH1 0x7 PUSH1 0x0 CALLER PUSH20 0xFFFFFFFFFFFFFFFFFFFFFFFFFFFFFFFFFFFFFFFF AND PUSH20 0xFFFFFFFFFFFFFFFFFFFFFFFFFFFFFFFFFFFFFFFF AND DUP2 MSTORE PUSH1 0x20 ADD SWAP1 DUP2 MSTORE PUSH1 0x20 ADD PUSH1 0x0 KECCAK256 PUSH1 0x0 DUP6 DUP2 MSTORE PUSH1 0x20 ADD SWAP1 DUP2 MSTORE PUSH1 0x20 ADD PUSH1 0x0 KECCAK256 PUSH1 0x2 ADD SLOAD PUSH1 0x40 MLOAD PUSH2 0x1030 SWAP2 SWAP1 PUSH2 0x146D JUMP JUMPDEST PUSH1 0x40 MLOAD DUP1 SWAP2 SUB SWAP1 LOG3 POP JUMP JUMPDEST PUSH1 0x0 DUP2 CALLDATALOAD SWAP1 POP PUSH2 0x104A DUP2 PUSH2 0x1760 JUMP JUMPDEST SWAP3 SWAP2 POP POP JUMP JUMPDEST PUSH1 0x0 DUP2 CALLDATALOAD SWAP1 POP PUSH2 0x105F DUP2 PUSH2 0x1777 JUMP JUMPDEST SWAP3 SWAP2 POP POP JUMP JUMPDEST PUSH1 0x0 DUP2 CALLDATALOAD SWAP1 POP PUSH2 0x1074 DUP2 PUSH2 0x178E JUMP JUMPDEST SWAP3 SWAP2 POP POP JUMP JUMPDEST PUSH1 0x0 DUP2 CALLDATALOAD SWAP1 POP PUSH2 0x1089 DUP2 PUSH2 0x17A5 JUMP JUMPDEST SWAP3 SWAP2 POP POP JUMP JUMPDEST PUSH1 0x0 PUSH1 0x20 DUP3 DUP5 SUB SLT ISZERO PUSH2 0x10A5 JUMPI PUSH2 0x10A4 PUSH2 0x1548 JUMP JUMPDEST JUMPDEST PUSH1 0x0 PUSH2 0x10B3 DUP5 DUP3 DUP6 ADD PUSH2 0x103B JUMP JUMPDEST SWAP2 POP POP SWAP3 SWAP2 POP POP JUMP JUMPDEST PUSH1 0x0 DUP1 PUSH1 0x0 PUSH1 0x60 DUP5 DUP7 SUB SLT ISZERO PUSH2 0x10D5 JUMPI PUSH2 0x10D4 PUSH2 0x1548 JUMP JUMPDEST JUMPDEST PUSH1 0x0 PUSH2 0x10E3 DUP7 DUP3 DUP8 ADD PUSH2 0x103B JUMP JUMPDEST SWAP4 POP POP PUSH1 0x20 PUSH2 0x10F4 DUP7 DUP3 DUP8 ADD PUSH2 0x107A JUMP JUMPDEST SWAP3 POP POP PUSH1 0x40 PUSH2 0x1105 DUP7 DUP3 DUP8 ADD PUSH2 0x1065 JUMP JUMPDEST SWAP2 POP POP SWAP3 POP SWAP3 POP SWAP3 JUMP JUMPDEST PUSH1 0x0 DUP1 PUSH1 0x40 DUP4 DUP6 SUB SLT ISZERO PUSH2 0x1126 JUMPI PUSH2 0x1125 PUSH2 0x1548 JUMP JUMPDEST JUMPDEST PUSH1 0x0 PUSH2 0x1134 DUP6 DUP3 DUP7 ADD PUSH2 0x1065 JUMP JUMPDEST SWAP3 POP POP PUSH1 0x20 PUSH2 0x1145 DUP6 DUP3 DUP7 ADD PUSH2 0x103B JUMP JUMPDEST SWAP2 POP POP SWAP3 POP SWAP3 SWAP1 POP JUMP JUMPDEST PUSH1 0x0 DUP1 PUSH1 0x40 DUP4 DUP6 SUB SLT ISZERO PUSH2 0x1166 JUMPI PUSH2 0x1165 PUSH2 0x1548 JUMP JUMPDEST JUMPDEST PUSH1 0x0 PUSH2 0x1174 DUP6 DUP3 DUP7 ADD PUSH2 0x1065 JUMP JUMPDEST SWAP3 POP POP PUSH1 0x20 PUSH2 0x1185 DUP6 DUP3 DUP7 ADD PUSH2 0x1050 JUMP JUMPDEST SWAP2 POP POP SWAP3 POP SWAP3 SWAP1 POP JUMP JUMPDEST PUSH2 0x1198 DUP2 PUSH2 0x1499 JUMP JUMPDEST DUP3 MSTORE POP POP JUMP JUMPDEST PUSH2 0x11AF PUSH2 0x11AA DUP3 PUSH2 0x1499 JUMP JUMPDEST PUSH2 0x14EB JUMP JUMPDEST DUP3 MSTORE POP POP JUMP JUMPDEST PUSH1 0x0 PUSH2 0x11C2 PUSH1 0x26 DUP4 PUSH2 0x1488 JUMP JUMPDEST SWAP2 POP PUSH2 0x11CD DUP3 PUSH2 0x155A JUMP JUMPDEST PUSH1 0x40 DUP3 ADD SWAP1 POP SWAP2 SWAP1 POP JUMP JUMPDEST PUSH1 0x0 PUSH2 0x11E5 PUSH1 0x30 DUP4 PUSH2 0x1488 JUMP JUMPDEST SWAP2 POP PUSH2 0x11F0 DUP3 PUSH2 0x15A9 JUMP JUMPDEST PUSH1 0x40 DUP3 ADD SWAP1 POP SWAP2 SWAP1 POP JUMP JUMPDEST PUSH1 0x0 PUSH2 0x1208 PUSH1 0x29 DUP4 PUSH2 0x1488 JUMP JUMPDEST SWAP2 POP PUSH2 0x1213 DUP3 PUSH2 0x15F8 JUMP JUMPDEST PUSH1 0x40 DUP3 ADD SWAP1 POP SWAP2 SWAP1 POP JUMP JUMPDEST PUSH1 0x0 PUSH2 0x122B PUSH1 0x13 DUP4 PUSH2 0x1488 JUMP JUMPDEST SWAP2 POP PUSH2 0x1236 DUP3 PUSH2 0x1647 JUMP JUMPDEST PUSH1 0x20 DUP3 ADD SWAP1 POP SWAP2 SWAP1 POP JUMP JUMPDEST PUSH1 0x0 PUSH2 0x124E PUSH1 0x20 DUP4 PUSH2 0x1488 JUMP JUMPDEST SWAP2 POP PUSH2 0x1259 DUP3 PUSH2 0x1670 JUMP JUMPDEST PUSH1 0x20 DUP3 ADD SWAP1 POP SWAP2 SWAP1 POP JUMP JUMPDEST PUSH1 0x0 PUSH2 0x1271 PUSH1 0x24 DUP4 PUSH2 0x1488 JUMP JUMPDEST SWAP2 POP PUSH2 0x127C DUP3 PUSH2 0x1699 JUMP JUMPDEST PUSH1 0x40 DUP3 ADD SWAP1 POP SWAP2 SWAP1 POP JUMP JUMPDEST PUSH1 0x0 PUSH2 0x1294 PUSH1 0x19 DUP4 PUSH2 0x1488 JUMP JUMPDEST SWAP2 POP PUSH2 0x129F DUP3 PUSH2 0x16E8 JUMP JUMPDEST PUSH1 0x20 DUP3 ADD SWAP1 POP SWAP2 SWAP1 POP JUMP JUMPDEST PUSH1 0x0 PUSH2 0x12B7 PUSH1 0x2A DUP4 PUSH2 0x1488 JUMP JUMPDEST SWAP2 POP PUSH2 0x12C2 DUP3 PUSH2 0x1711 JUMP JUMPDEST PUSH1 0x40 DUP3 ADD SWAP1 POP SWAP2 SWAP1 POP JUMP JUMPDEST PUSH2 0x12D6 DUP2 PUSH2 0x14E1 JUMP JUMPDEST DUP3 MSTORE POP POP JUMP JUMPDEST PUSH2 0x12ED PUSH2 0x12E8 DUP3 PUSH2 0x14E1 JUMP JUMPDEST PUSH2 0x150F JUMP JUMPDEST DUP3 MSTORE POP POP JUMP JUMPDEST PUSH1 0x0 PUSH2 0x12FF DUP3 DUP9 PUSH2 0x119E JUMP JUMPDEST PUSH1 0x14 DUP3 ADD SWAP2 POP PUSH2 0x130F DUP3 DUP8 PUSH2 0x119E JUMP JUMPDEST PUSH1 0x14 DUP3 ADD SWAP2 POP PUSH2 0x131F DUP3 DUP7 PUSH2 0x12DC JUMP JUMPDEST PUSH1 0x20 DUP3 ADD SWAP2 POP PUSH2 0x132F DUP3 DUP6 PUSH2 0x12DC JUMP JUMPDEST PUSH1 0x20 DUP3 ADD SWAP2 POP PUSH2 0x133F DUP3 DUP5 PUSH2 0x12DC JUMP JUMPDEST PUSH1 0x20 DUP3 ADD SWAP2 POP DUP2 SWAP1 POP SWAP7 SWAP6 POP POP POP POP POP POP JUMP JUMPDEST PUSH1 0x0 PUSH1 0x20 DUP3 ADD SWAP1 POP PUSH2 0x1367 PUSH1 0x0 DUP4 ADD DUP5 PUSH2 0x118F JUMP JUMPDEST SWAP3 SWAP2 POP POP JUMP JUMPDEST PUSH1 0x0 PUSH1 0x20 DUP3 ADD SWAP1 POP DUP2 DUP2 SUB PUSH1 0x0 DUP4 ADD MSTORE PUSH2 0x1386 DUP2 PUSH2 0x11B5 JUMP JUMPDEST SWAP1 POP SWAP2 SWAP1 POP JUMP JUMPDEST PUSH1 0x0 PUSH1 0x20 DUP3 ADD SWAP1 POP DUP2 DUP2 SUB PUSH1 0x0 DUP4 ADD MSTORE PUSH2 0x13A6 DUP2 PUSH2 0x11D8 JUMP JUMPDEST SWAP1 POP SWAP2 SWAP1 POP JUMP JUMPDEST PUSH1 0x0 PUSH1 0x20 DUP3 ADD SWAP1 POP DUP2 DUP2 SUB PUSH1 0x0 DUP4 ADD MSTORE PUSH2 0x13C6 DUP2 PUSH2 0x11FB JUMP JUMPDEST SWAP1 POP SWAP2 SWAP1 POP JUMP JUMPDEST PUSH1 0x0 PUSH1 0x20 DUP3 ADD SWAP1 POP DUP2 DUP2 SUB PUSH1 0x0 DUP4 ADD MSTORE PUSH2 0x13E6 DUP2 PUSH2 0x121E JUMP JUMPDEST SWAP1 POP SWAP2 SWAP1 POP JUMP JUMPDEST PUSH1 0x0 PUSH1 0x20 DUP3 ADD SWAP1 POP DUP2 DUP2 SUB PUSH1 0x0 DUP4 ADD MSTORE PUSH2 0x1406 DUP2 PUSH2 0x1241 JUMP JUMPDEST SWAP1 POP SWAP2 SWAP1 POP JUMP JUMPDEST PUSH1 0x0 PUSH1 0x20 DUP3 ADD SWAP1 POP DUP2 DUP2 SUB PUSH1 0x0 DUP4 ADD MSTORE PUSH2 0x1426 DUP2 PUSH2 0x1264 JUMP JUMPDEST SWAP1 POP SWAP2 SWAP1 POP JUMP JUMPDEST PUSH1 0x0 PUSH1 0x20 DUP3 ADD SWAP1 POP DUP2 DUP2 SUB PUSH1 0x0 DUP4 ADD MSTORE PUSH2 0x1446 DUP2 PUSH2 0x1287 JUMP JUMPDEST SWAP1 POP SWAP2 SWAP1 POP JUMP JUMPDEST PUSH1 0x0 PUSH1 0x20 DUP3 ADD SWAP1 POP DUP2 DUP2 SUB PUSH1 0x0 DUP4 ADD MSTORE PUSH2 0x1466 DUP2 PUSH2 0x12AA JUMP JUMPDEST SWAP1 POP SWAP2 SWAP1 POP JUMP JUMPDEST PUSH1 0x0 PUSH1 0x20 DUP3 ADD SWAP1 POP PUSH2 0x1482 PUSH1 0x0 DUP4 ADD DUP5 PUSH2 0x12CD JUMP JUMPDEST SWAP3 SWAP2 POP POP JUMP JUMPDEST PUSH1 0x0 DUP3 DUP3 MSTORE PUSH1 0x20 DUP3 ADD SWAP1 POP SWAP3 SWAP2 POP POP JUMP JUMPDEST PUSH1 0x0 PUSH2 0x14A4 DUP3 PUSH2 0x14C1 JUMP JUMPDEST SWAP1 POP SWAP2 SWAP1 POP JUMP JUMPDEST PUSH1 0x0 DUP2 ISZERO ISZERO SWAP1 POP SWAP2 SWAP1 POP JUMP JUMPDEST PUSH1 0x0 DUP2 SWAP1 POP SWAP2 SWAP1 POP JUMP JUMPDEST PUSH1 0x0 PUSH20 0xFFFFFFFFFFFFFFFFFFFFFFFFFFFFFFFFFFFFFFFF DUP3 AND SWAP1 POP SWAP2 SWAP1 POP JUMP JUMPDEST PUSH1 0x0 DUP2 SWAP1 POP SWAP2 SWAP1 POP JUMP JUMPDEST PUSH1 0x0 PUSH2 0x14F6 DUP3 PUSH2 0x14FD JUMP JUMPDEST SWAP1 POP SWAP2 SWAP1 POP JUMP JUMPDEST PUSH1 0x0 PUSH2 0x1508 DUP3 PUSH2 0x154D JUMP JUMPDEST SWAP1 POP SWAP2 SWAP1 POP JUMP JUMPDEST PUSH1 0x0 DUP2 SWAP1 POP SWAP2 SWAP1 POP JUMP JUMPDEST PUSH32 0x4E487B7100000000000000000000000000000000000000000000000000000000 PUSH1 0x0 MSTORE PUSH1 0x21 PUSH1 0x4 MSTORE PUSH1 0x24 PUSH1 0x0 REVERT JUMPDEST PUSH1 0x0 DUP1 REVERT JUMPDEST PUSH1 0x0 DUP2 PUSH1 0x60 SHL SWAP1 POP SWAP2 SWAP1 POP JUMP JUMPDEST PUSH32 0x4F776E61626C653A206E6577206F776E657220697320746865207A65726F2061 PUSH1 0x0 DUP3 ADD MSTORE PUSH32 0x6464726573730000000000000000000000000000000000000000000000000000 PUSH1 0x20 DUP3 ADD MSTORE POP JUMP JUMPDEST PUSH32 0x5468657265206973206E6F2070617469656E7420726567697374657265642077 PUSH1 0x0 DUP3 ADD MSTORE PUSH32 0x6974682074686973206164647265737300000000000000000000000000000000 PUSH1 0x20 DUP3 ADD MSTORE POP JUMP JUMPDEST PUSH32 0x4F6E6C7920636C696E6963732063616C6C20706572666F726D2074686973206F PUSH1 0x0 DUP3 ADD MSTORE PUSH32 0x7065726174696F6E730000000000000000000000000000000000000000000000 PUSH1 0x20 DUP3 ADD MSTORE POP JUMP JUMPDEST PUSH32 0x496E766F6963652063616E277420666F756E6400000000000000000000000000 PUSH1 0x0 DUP3 ADD MSTORE POP JUMP JUMPDEST PUSH32 0x4F776E61626C653A2063616C6C6572206973206E6F7420746865206F776E6572 PUSH1 0x0 DUP3 ADD MSTORE POP JUMP JUMPDEST PUSH32 0x50617469656E742063616E27742062652063686172676564207468697320616D PUSH1 0x0 DUP3 ADD MSTORE PUSH32 0x6F756E7400000000000000000000000000000000000000000000000000000000 PUSH1 0x20 DUP3 ADD MSTORE POP JUMP JUMPDEST PUSH32 0x496E766F6963652063616E277420626520616363657074656400000000000000 PUSH1 0x0 DUP3 ADD MSTORE POP JUMP JUMPDEST PUSH32 0x50617469656E742063616E2774206265206368617267656420666F7220746869 PUSH1 0x0 DUP3 ADD MSTORE PUSH32 0x732063617465676F727900000000000000000000000000000000000000000000 PUSH1 0x20 DUP3 ADD MSTORE POP JUMP JUMPDEST PUSH2 0x1769 DUP2 PUSH2 0x1499 JUMP JUMPDEST DUP2 EQ PUSH2 0x1774 JUMPI PUSH1 0x0 DUP1 REVERT JUMPDEST POP JUMP JUMPDEST PUSH2 0x1780 DUP2 PUSH2 0x14AB JUMP JUMPDEST DUP2 EQ PUSH2 0x178B JUMPI PUSH1 0x0 DUP1 REVERT JUMPDEST POP JUMP JUMPDEST PUSH2 0x1797 DUP2 PUSH2 0x14B7 JUMP JUMPDEST DUP2 EQ PUSH2 0x17A2 JUMPI PUSH1 0x0 DUP1 REVERT JUMPDEST POP JUMP JUMPDEST PUSH2 0x17AE DUP2 PUSH2 0x14E1 JUMP JUMPDEST DUP2 EQ PUSH2 0x17B9 JUMPI PUSH1 0x0 DUP1 REVERT JUMPDEST POP JUMP INVALID LOG2 PUSH5 0x6970667358 0x22 SLT KECCAK256 PUSH10 0x8B5A91E4C2E27324FEF9 0x4E CALLDATASIZE PUSH12 0xBBDE898253D3FD177FCD4DB1 0xEB 0xDE MSTORE8 0xAC POP SHL PUSH5 0x736F6C6343 STOP ADDMOD SMOD STOP CALLER "
				},
				"gasEstimates": {
					"creation": {
						"codeDepositCost": "1226000",
						"executionCost": "infinite",
						"totalCost": "infinite"
					},
					"external": {
						"approveInvoice(bytes32,bool)": "378767",
						"createInvoice(address,uint256,bytes32)": "infinite",
						"owner()": "2544",
						"registerClinic(bytes32,address)": "25116",
						"renounceOwnership()": "30374",
						"transferOwnership(address)": "30811"
					},
					"internal": {
						"archiveInvoice(bytes32)": "infinite"
					}
				},
				"methodIdentifiers": {
					"approveInvoice(bytes32,bool)": "ed1f2592",
					"createInvoice(address,uint256,bytes32)": "0707613b",
					"owner()": "8da5cb5b",
					"registerClinic(bytes32,address)": "99bf9094",
					"renounceOwnership()": "715018a6",
					"transferOwnership(address)": "f2fde38b"
				}
			},
			"storageLayout": {
				"storage": [
					{
						"astId": 7,
						"contract": "HermesChain.sol:Hermes",
						"label": "_owner",
						"offset": 0,
						"slot": "0",
						"type": "t_address"
					},
					{
						"astId": 133,
						"contract": "HermesChain.sol:Hermes",
						"label": "invoiceCreated",
						"offset": 0,
						"slot": "1",
						"type": "t_uint256"
					},
					{
						"astId": 137,
						"contract": "HermesChain.sol:Hermes",
						"label": "_prices",
						"offset": 0,
						"slot": "2",
						"type": "t_mapping(t_bytes32,t_uint256)"
					},
					{
						"astId": 141,
						"contract": "HermesChain.sol:Hermes",
						"label": "clinicIds",
						"offset": 0,
						"slot": "3",
						"type": "t_mapping(t_address,t_bytes32)"
					},
					{
						"astId": 145,
						"contract": "HermesChain.sol:Hermes",
						"label": "patientCategories",
						"offset": 0,
						"slot": "4",
						"type": "t_mapping(t_address,t_bytes32)"
					},
					{
						"astId": 151,
						"contract": "HermesChain.sol:Hermes",
						"label": "patientPastInvoices",
						"offset": 0,
						"slot": "5",
						"type": "t_mapping(t_address,t_array(t_struct(Invoice)188_storage)dyn_storage)"
					},
					{
						"astId": 156,
						"contract": "HermesChain.sol:Hermes",
						"label": "invoiceRecordsById",
						"offset": 0,
						"slot": "6",
						"type": "t_mapping(t_bytes32,t_struct(Invoice)188_storage)"
					},
					{
						"astId": 196,
						"contract": "HermesChain.sol:Hermes",
						"label": "pendingRequests",
						"offset": 0,
						"slot": "7",
						"type": "t_mapping(t_address,t_mapping(t_bytes32,t_struct(Invoice)188_storage))"
					}
				],
				"types": {
					"t_address": {
						"encoding": "inplace",
						"label": "address",
						"numberOfBytes": "20"
					},
					"t_array(t_struct(Invoice)188_storage)dyn_storage": {
						"base": "t_struct(Invoice)188_storage",
						"encoding": "dynamic_array",
						"label": "struct Hermes.Invoice[]",
						"numberOfBytes": "32"
					},
					"t_bytes32": {
						"encoding": "inplace",
						"label": "bytes32",
						"numberOfBytes": "32"
					},
					"t_enum(Status)176": {
						"encoding": "inplace",
						"label": "enum Hermes.Status",
						"numberOfBytes": "1"
					},
					"t_mapping(t_address,t_array(t_struct(Invoice)188_storage)dyn_storage)": {
						"encoding": "mapping",
						"key": "t_address",
						"label": "mapping(address => struct Hermes.Invoice[])",
						"numberOfBytes": "32",
						"value": "t_array(t_struct(Invoice)188_storage)dyn_storage"
					},
					"t_mapping(t_address,t_bytes32)": {
						"encoding": "mapping",
						"key": "t_address",
						"label": "mapping(address => bytes32)",
						"numberOfBytes": "32",
						"value": "t_bytes32"
					},
					"t_mapping(t_address,t_mapping(t_bytes32,t_struct(Invoice)188_storage))": {
						"encoding": "mapping",
						"key": "t_address",
						"label": "mapping(address => mapping(bytes32 => struct Hermes.Invoice))",
						"numberOfBytes": "32",
						"value": "t_mapping(t_bytes32,t_struct(Invoice)188_storage)"
					},
					"t_mapping(t_bytes32,t_struct(Invoice)188_storage)": {
						"encoding": "mapping",
						"key": "t_bytes32",
						"label": "mapping(bytes32 => struct Hermes.Invoice)",
						"numberOfBytes": "32",
						"value": "t_struct(Invoice)188_storage"
					},
					"t_mapping(t_bytes32,t_uint256)": {
						"encoding": "mapping",
						"key": "t_bytes32",
						"label": "mapping(bytes32 => uint256)",
						"numberOfBytes": "32",
						"value": "t_uint256"
					},
					"t_struct(Invoice)188_storage": {
						"encoding": "inplace",
						"label": "struct Hermes.Invoice",
						"members": [
							{
								"astId": 178,
								"contract": "HermesChain.sol:Hermes",
								"label": "invoiceId",
								"offset": 0,
								"slot": "0",
								"type": "t_bytes32"
							},
							{
								"astId": 180,
								"contract": "HermesChain.sol:Hermes",
								"label": "typeOfPatient",
								"offset": 0,
								"slot": "1",
								"type": "t_bytes32"
							},
							{
								"astId": 182,
								"contract": "HermesChain.sol:Hermes",
								"label": "amount",
								"offset": 0,
								"slot": "2",
								"type": "t_uint256"
							},
							{
								"astId": 184,
								"contract": "HermesChain.sol:Hermes",
								"label": "patient",
								"offset": 0,
								"slot": "3",
								"type": "t_address"
							},
							{
								"astId": 187,
								"contract": "HermesChain.sol:Hermes",
								"label": "status",
								"offset": 20,
								"slot": "3",
								"type": "t_enum(Status)176"
							}
						],
						"numberOfBytes": "128"
					},
					"t_uint256": {
						"encoding": "inplace",
						"label": "uint256",
						"numberOfBytes": "32"
					}
				}
			},
			"userdoc": {
				"kind": "user",
				"methods": {
					"approveInvoice(bytes32,bool)": {
						"notice": "Bu fonksiyon hasta tarafından çağrılabilir Fatura önceden oluşturulmuş olmalıdır Fatura durumu beklemede olmalıdırFunction accepts or rejects invoce and archives it"
					},
					"createInvoice(address,uint256,bytes32)": {
						"notice": "This function can be called by clinicClinic can't create invoice more then 3x of patient category limitsif patients first time, his category will be recordedFunction checks if user belongs to that category"
					},
					"registerClinic(bytes32,address)": {
						"notice": "Bu Fonksiyon Kliniklerden çağrılabilir zaten kayıtlı bir klinik varsa, sözleşme güvenlik nedeniyle tekrar kaydolmasına izin vermez"
					}
				},
				"version": 1
			}
		}
	}
}